:020000040000FA
:06000000D8EF14F012001D
:0600080004EF04F01200F9
:060018000CEF04F01200E1
:06080000D8EF14F0120015
:06080800D5EF09F012001B
:0608180044EF0AF012009B
:06082A000300352A000066
:100830008600000021000000242A0000BD00000006
:10084000110000000E2A0000A700000016000000A2
:1008500027EC09F06A6A686A5AEC09F06D8C6E6AD6
:100860000AEC09F06D9CDF6A3BEC09F010E2DF5006
:10087000040DF3CFE9FFF4CFEAFF000EE926040EE2
:10088000EA22EE6AEE6AEE6AEE6ADF2AEDD7160E0B
:10089000706E68A604D0030ED0EC08F0FAD7000101
:1008A000736B786B796B7A6B6D98080E6B6F040EB7
:1008B0006C6F616B606BE552E5EF08F027EC09F0B7
:1008C00083B605D06D6A696A0001606B6BD0000168
:1008D00060510BE16D6A696A5AEC09F06DB602D09D
:1008E0006D86FCD70001010E606F600508E16DBAEE
:1008F00006D0686A696A69806988020E606F68500C
:10090000040B07E06950040B04E0020ED0EC08F081
:1009100089D86DB247D06850010B14E06950010BC3
:1009200011E096DF0001040E606F0401200E026FDB
:10093000040E036F080E016F006B8C0E0013E66A45
:1009400099EC09F06850100B07E06950100B04E0B7
:1009500060D8040ED0EC08F06850400B0BE06950F2
:10096000400B08E061EC09F0020ED8EC08F0060E2E
:10097000D0EC08F06850200B04E06950200B01E037
:1009800035D86850020B0AE06950020B07E061ECB1
:1009900009F0E668E668B9EC09F06A6A040E00013D
:1009A000605D02E2A19A1FD069A61CD0DF6A040E26
:1009B000DF5C18E268A616D06CCF80F0030ED0EC96
:1009C00008F0780E0001801502E138D809D0000E39
:1009D000E66EE66A800EE66E000EE66E010EE8DB5D
:1009E000DF2AE5D7A19AE552E5EF08F070A00ED016
:1009F000F3EC08F0EF50800808E1D5DBEF508408F5
:100A000004E1F3EC08F08C0EEF6E7090050ED0EF61
:100A100008F06984040EC4DB6D8213EC09F0040E47
:100A2000D8EF08F013EC09F0030EC2DB6D92699465
:100A300068A403D0020EB4DBFBD7120027EC09F048
:100A4000FD0E000180153DE17E0E8015E8407F0B14
:100A5000040DF3CF63F0F4CF64F0000E6327040EAF
:100A6000642363C065F064C066F06575BCDBEF505D
:100A70003C0BE842E8420D0822E1B5DB90EC09F0BE
:100A8000EECF14F0EFCF15F0280E141816E1040E77
:100A9000151813E1CAEC09F0DF6AEDDB0EE2DF5056
:100AA00043EC09F0DF50EA6A200FE96E040EEA22F7
:100AB000E552E750EF6EDF2AF0D70AD807D01AD8F0
:100AC00005D0FD0E8015040801E122D8E5527DD342
:100AD0006ADBEF50800B02E066DBEF6A00016F6BB0
:100AE000706B746B756B736B64D89DDB170E60DB7A
:100AF0000EEF07F0020E0001705D02E19BEF07F0C0
:100B000034D80001815102E195EF09F0816B1200A8
:100B10009EDB49DBEF50400B01E0010EDF6E000170
:100B20006B75080E605D09E122C46EFF6E5000080F
:100B300002E2100E01D0040E606F700513E1CEECDE
:100B400009F0A6D9020E00016F5D03E12CDB840ED3
:100B500007D0DF5003E127DBC80E02D024DB880E6C
:100B6000EF6E01D002D8E55230D32BDB0001706B61
:100B70001ADBEF6A040E6B19146E6CC015F0DE6E92
:100B80006CC0DDFF19DBEF6A78AF0CD07B517C11B4
:100B900007E005D07CC0FAFF00017B51F96EFADF57
:100BA0000001789F020EE15C02E2E16AE552E16E2B
:100BB0000CD304012051600BE842E842E842E842CD
:100BC000E842000901E0120021510C0A45E00B0A3D
:100BD0003FE00C0A31E0010A22E00B0A1EE0020AA3
:100BE0001CE0030A18E0080A10E0010A0CE00F0AF2
:100BF00008E0030A01E012000001738F080E606F25
:100C000012008EEF06F0F7EF07F00001610E716F32
:100C1000000E726F0CD0CFEF06F02DEF06F02451CE
:100C20000001716F726B620E7127000E7223738167
:100C3000010E746F738F12000001738F0401245131
:100C4000EA6A620FE96E000EEA2222C4EFFF120088
:100C5000EADA160ED8EF08F012007EDB040EE12669
:100C60000401220510E120511F0B00090CE10001D5
:100C7000738F030E0401215D04E10001010E7F6FFB
:100C800002D000017F6B0401225141E120511F0B72
:100C900002083DE124510F0B000939E00001738F78
:100CA000040124BF05D0A4DA670EE926000E04D0A3
:100CB0009FDA6B0EE926000ED2DA030E215D03E106
:100CC0007BDA840E23D024510F0B156A700F146E3B
:100CD0000F0E1522020E14C0DBFF030E15C0DBFF42
:100CE000020EDBCFE9FF030EDBCFEAFFEE90ED5201
:100CF00024AF06D061DAEF6ADF745EDA400E06D008
:100D00005BDA880EEF6EDF7457DAC80EEF6E040EF2
:100D1000E15C02E2E16AE552E16E57D2800E040125
:100D2000205D3CE10001C00E736F04012351030AF2
:100D30001EE0010A09E0030A2FE10001CA0E716FEB
:100D4000250E726F120E22D0C3DA780EF626260E0A
:100D5000A2DA020E0001F76A7125F66E7251F722CF
:100D60000900F5CF74F00A00F5CF75F01200030EFC
:100D7000225D0FE2ADDA7A0EF626260E8CDA71C00D
:100D8000F6FF72C0F7FF0800F5500001746F756B35
:100D900012000001736B12000001736B120011DA74
:100DA0000401286B296B20511F0B020A11E0030A72
:100DB0000CE0010A22E10001738F04012881000187
:100DC0007F051BE10401288318D00001738F15D023
:100DD0000001738F040124BF05D00ADA670EE926EB
:100DE000000E04D005DA6B0EE926000E38DAE4D9DD
:100DF000EF50040B02E0010E286F000173AF07D023
:100E0000280E716F040E726F7381020E746F020EE2
:100E1000E15C02E2E16AE552E16ED7D16D98000132
:100E200073BF08D078AF02D061DA2AD07EDABBD99E
:100E3000840E27D078BF2BD0040120AF24D000012E
:100E400074510401265D000175510401275904E223
:100E500026C474F027C475F01BD80001010E706F12
:100E6000A1DA800EEF6E816BBED9EE52080EEF6EE6
:100E700091DAB9D9840EEF6E010E816F8FDA93D9B2
:100E8000C80EEF6E1200000131DAC80EEF6E1200CC
:100E900098D90001080E745D000E75590DE274C0FA
:100EA000DEFF75C0DDFF6F5102E1010E03D06F055B
:100EB00006E1020E6F6F03D0080EDE6EDD6A73D995
:100EC000EF9271D9EF906FD9010EDB50EF126BD911
:100ED000EE52DFCFEFFF000EDB50745F010EDB50F0
:100EE000755B280E7D6F040E7E6F73B10FD0F7D93E
:100EF0001BE071C0F6FF72C0F7FF712B000E72236A
:100F00000800F55096D9F3E2DB06F1D7E8D90CE0FA
:100F100071C0E9FF72C0EAFF712B000E7223EF501F
:100F200088D9F4E2DB06F2D7020EE15C02E2E16A64
:100F3000E552E16E4AD145D956D9EE52EFCFDFFFE7
:100F4000DFCF14F014500001795D000E7A5903E2EE
:100F500079C0DFFF09D0DF50146E156AE850795D63
:100F6000796F15507A597A6F010EDB6ADF50F36E94
:100F7000010EDBCFF4FFF350F45C10E2010EDB5006
:100F800082D976C0E9FF77C0EAFF762B000E77237F
:100F9000E552E750EF6E010EDB2AE8D7000ED8804D
:100FA0007955000E7A550DE2F4D854D91CD9EF507A
:100FB000400B03E1EAD9C80E02D0E7D9880EEF6EE4
:100FC0000FD0F0D9840EEF6E7B517C1107E005D075
:100FD0007CC0FAFF00017B51F96EFADF0001789FB7
:100FE000020EE15C02E2E16AE552E16EEED0000140
:100FF000738F10D9010EE66EE66AE66A620EE66E3F
:10100000000EAFD922C461F00401225104E10001B5
:10101000100E606F12000001200E606F04D9150ED3
:10102000D8EF08F0CED8000EDE6E040EDD6EE8D8E4
:10103000040DF350146E156A020E0F0B05E0D890E4
:1010400015321432E806FBE1D89014361536D890E4
:1010500014361536D9CFE9FFDACFEAFF1450EE2661
:101060001550ED22A9D8EF9EFD0EDB5002E16AD9A2
:1010700001D06DD9EA22DECFEEFFDDCFEDFF9CD8A7
:10108000EF9C9AD8040EE926000EEA22EF8C020E9D
:10109000E15C02E2E16AE552E16E97D092D8FE0E81
:1010A000DB50156A700F146E0F0EDFD885D8FD0E59
:1010B000DBCFEFFFDBA402D0E66AF5D8FD0EDBA2A2
:1010C00003D0010EE66EEFD8020EE15C02E2E16AA7
:1010D000E552E16E7AD075D8FE0EDB5005E125D9D8
:1010E00062D8840EEF6E05D08BD80CD989D8010F49
:1010F00009D9020EE15C02E2E16AE552E16E65D0D7
:1011000060D8FD0EDB5002E022D901D01BD9A7D850
:1011100053D806D9FB0EDBCFEEFFFC0EDBCFEDFF85
:101120004BD8EE52FA0EDBCFEFFF400E45D8E85019
:10113000EF16880E41D8E850EF12FD0EDB5002E0AA
:1011400006D901D0FFD8EA22EF74DECF14F0DDCF4C
:1011500015F014C0F3FF15C0F4FF020EE15C02E2CB
:10116000E16AE552E16E31D0F7D8010EF36EFC0E64
:10117000DB5004E0D890F336E806FCE1F31C146E73
:10118000FD0EDBCFE9FFFE0EDBCFEAFF1450EF16BA
:101190001CD0FBD8EE52080EEF6EF7D890EF09F096
:1011A000E66E99EF09F06BC0E9FF6CC0EAFF120030
:1011B000E66EE66AB9EF09F0DECFE9FFDDCFEAFFC0
:1011C0001200CAD8020EE1261200E552E7CFD9FF7D
:1011D0001200D6D8C5EF09F0FE0EEA6ADB34FE0B2A
:1011E000EA36E96E120063C0E9FF64C0EAFF12004C
:1011F00024510F0BE96EEA6AD890E936EA361200FC
:10120000FD0EDB50E824166EFE0EDB50040DF3508D
:1012100016241200000EE66EE66AE66A710EE66EAD
:101220000F0EB1EF09F0000EE66EE66AE66EE66AB2
:101230001200E66E7DC0E9FF7EC0EAFF7D2B000E46
:101240007E23E552E750EF6EDF06010E120084D8D0
:10125000E6521200280EEE6E040EED6E1200EA2227
:10126000EECFDEFFEDCFDDFF1200152214C0DEFF52
:1012700015C0DDFF1200DF50146E156A080E145CF5
:10128000000E15581200EA6A280FE96E040EEA22D1
:10129000EF50E66E1200F7220900F5CF71F00A0058
:1012A000F5CF72F01200FE0EDBCFE6FFBBDEE5529B
:1012B000E5521200160E6F6E9F0E6B6E7B0E696EFE
:1012C0001200010EE66EE66A000EE66EE66A120095
:1012D0002251F66EF76AD890F636F7361200D9CF5B
:1012E000E9FFDACFEAFFEE50ED101200020E706F48
:1012F0005ADFEE52EF6A57DFC80EEF6E4ADFAADF01
:10130000C5EF09F0040DF3CF14F0F4CF15F0000E83
:101310001426040EAADF840E4FDFE850EF121200ED
:10132000020EE926000EEA2212003CD88C0EEF6E67
:101330001200680EE66E0F0EE66E16DFE552E552FD
:10134000E552120049DF670EE926000E120044DF65
:101350006B0EE926000E1200D9CFE6FFE1CFD9FFD0
:101360001200E66EC6EC13F0146E050EE15E14502A
:101370001200EDEC0DF0146E060EE15E145012003A
:10138000200EEE6E040EED6E120065C0E9FF66C021
:10139000EAFF120028DFC4DFC0EF09F004DFC0DF7E
:0A13A0002AEF09F0F6DEE9EF08F08D
:0613AA00DACFE4FFE2CF00
:1013B000DAFFE9CFE4FFEACFE4FFF6CFE4FFF7CFAF
:1013C000E4FFF5CFE4FFF3CFE4FFF4CFE4FFFACF7F
:1013D000E4FF00EE00F0140EE80403E3EECFE4FFB8
:1013E000FBD700EE14F0140EE80403E3EECFE4FFA5
:1013F000FBD761EC0EF09EA01AD06BEC0EF00A0E3B
:101400000001C327000EC423E80EC35D030EC459B8
:1014100005E3C36BC46BC52B000EC6230EEC11F0A5
:101420000001C75102E052DB01D082949E9074EC1F
:101430000EF002E2E16AE552E16EE552E7CFD9FF34
:10144000E55200EE27F0140EE80403E3E5CFEDFFCC
:10145000FBD700EE13F0140EE80403E3E5CFEDFF35
:10146000FBD7E5CFFAFFE5CFF4FFE5CFF3FFE5CFFC
:10147000F5FFE5CFF7FFE5CFF6FFE5CFEAFFE5CFD4
:10148000E9FFE5CFDAFF1100D8CFE4FFE0CFE4FFBA
:10149000E46EDACFE4FFE2CFDAFFF3CFE4FFF4CF7C
:1014A000E4FF61EC0EF074EC0EF002E2E16AE5524A
:1014B000E16EE552E7CFD9FFE552E5CFF4FFE5CF86
:1014C000F3FFE5CFDAFFE550E5CFE0FFE5CFD8FF4A
:1014D000100004D85EEC04F04BD8FCD70F0EC112FC
:1014E000958602D828EF04F084EC0EF0E652C0DBBB
:1014F0000001D86F070ED85D10E1E66A1CEC14F00D
:10150000E552DF6E000EDF807CEC0EF0E66AC1EC87
:1015100014F0E552DF707CEC0EF0D08EF28EF28C7F
:101520009D80F50EE66E32EC14F0E552D4DBFC0E35
:101530008B1694160001BD6BBE6BBF6BC06B010EAA
:10154000C16F63EC11F0010EE66E1CEC14F0E55275
:10155000010B0001C76FC75105E08284E66AC1EC48
:1015600014F0E5528294E552E552E7CFD9FF12001C
:10157000D9CFE6FFE1CFD9FF090EE1260001C15125
:1015800001E0BBDA200E0001605D03E36D50020B49
:1015900001E092D20001BF51C01102E1000E08D05B
:1015A000BFC0E9FFC0C0EAFFEF50800B01E0010EB1
:1015B000000947E10001A651EA6A860FE96E000EB4
:1015C000EA22EF5000083DE20501406B0001C251E4
:1015D000C22B0501416F0501040E426F0001A651A7
:1015E000EA6A860FE96E000EEA22EFCF43F5400E5D
:1015F000E66E400EE66E050EE66E010EE66E010E1C
:10160000E66E80EC08F0146E050EE15E1450F3CF28
:10161000BFF0F4CFC0F00001A651EA6A860FE96E70
:10162000000EEA22EF6A0001A651000803E2000161
:10163000A60707D00001A551000803E200011F0E14
:10164000A66F0001BD51BE1102E1000E08D0BDC061
:10165000E9FFBEC0EAFFEF50800B01E0010E000978
:1016600001E02AD205010251060A01E164D1040A0F
:1016700017E0030A05E0010A01E0DDD1FF001CD2FA
:10168000E66A1CEC14F0E552DF6E000EDB80DFCF63
:10169000E6FFE66AFCEC13F0E552E552FF000CD2DF
:1016A0000001BF51C01102E1000E08D0BFC0E9FF28
:1016B000C0C0EAFFEF50800B01E0010E000901E01D
:1016C00039D100C540F50501416B0501030E426F9C
:1016D0000501436B050108510E0A01E1FCD0030A24
:1016E00001E1F4D0010A01E1D6D0070A01E17ED080
:1016F0000F0A71E0070A64E0010A20E0030A06E02D
:10170000010A01E0EDD0D8C048F5EDD00501486BE5
:10171000BD0E146E280E156E166A14C0E6FF15C0B5
:10172000E6FF16C0E6FF480EE66E050EE66EE0EC3C
:1017300013F0176E050EE15E1750D5D00501486B0A
:10174000B10E146E280E156E166A14C0E6FF15C091
:10175000E6FF16C0E6FF480EE66E050EE66EE0EC0C
:1017600013F0176E050EE15E1750AF0E146E280EC3
:10177000156E166A14C0E6FF15C0E6FF16C0E6FF38
:10178000480EE66E050EE66EE0EC13F0176E050EE1
:10179000E15E1750A60E146E280E156E166A14C060
:1017A000E6FF15C0E6FF16C0E6FF480EE66E050E22
:1017B000E66EE0EC13F0176E050EE15E175093D065
:1017C00092CF48F593CF49F594CF4AF595CF4BF595
:1017D00096CF4CF588D080CF48F581CF49F582CFA0
:1017E0004AF583CF4BF584CF4CF57DD0070EDB6AED
:1017F000080EDB6A070EDBCF14F0080EDBCF15F006
:10180000D890155004E6080E145C000E155842E2FC
:10181000070EDBCFE6FF71EC11F0E552DE52F3CF9D
:10182000DEFFF4CFDDFFDD52020E086E096A070EFF
:10183000DBCF0DF0080EDBCF0EF0F5EC0FF006C09D
:10184000E9FF07C0EAFF480EE926050EEA22020E6C
:10185000DBCFEFFF020E086E096A070EDBCF0DF03B
:10186000080EDBCF0EF0F5EC0FF006C0E9FF07C065
:10187000EAFF010EE926000EEA22480EE926050ECF
:10188000EA22010EDBCFEFFF070EDB2A080E01E391
:10189000DB2AB0D728D0ABEC11F0030E06C0DBFF7B
:1018A000040E07C0DBFF050E08C0DBFF060E09C0F3
:1018B000DBFF060EDBCF48F5050EDBCF49F5040E46
:1018C000DBCF4AF5030EDBCF4BF50DD0EEEC11F07C
:1018D0000501486F08D0F8EC11F00501486F03D0FE
:1018E0000501020E436F400EE66E400EE66E050ED9
:1018F000E66E010EE66E010EE66E80EC08F0146EE8
:10190000050EE15E1450F3CFBFF0F4CFC0F0400EEF
:10191000E66E000EE66E050EE66EE66A010EE66EF7
:1019200080EC08F0146E050EE15E1450F3CFBDF0AC
:10193000F4CFBEF0C1D005010851060A49E0050AFE
:1019400037E0010A25E0030A13E0010A01E05AD05A
:1019500005010951921205010A51931205010B511B
:10196000941205010C51951205010D5196124FD09C
:101970000501091D921605010A1D931605010B1D8F
:10198000941605010C1D951605010D1D96163FD0E8
:101990000501091D891605010A1D8A1605010B1D81
:1019A0008B1605010C1D8C1605010D1D8D162FD0F3
:1019B00005010951891205010A518A1205010B51CD
:1019C0008B1205010C518C1205010D518D121FD087
:1019D000010EE66E1CEC14F0E552DF6E05010951B4
:1019E00003E0000EDB8001D0DF70DFCFE6FF010EE9
:1019F000E66EFCEC13F0E552E552010EDF14000137
:101A0000C76F05D0030EE66E8EEC14F0E552400E63
:101A1000E66E000EE66E050EE66EE66A010EE66EF6
:101A200080EC08F0146E050EE15E1450F3CFBDF0AB
:101A3000F4CFBEF041D00001BF51C01102E1000E51
:101A400008D0BFC0E9FFC0C0EAFFEF50800B01E043
:101A5000010E000931E100C540F50501416B0501AA
:101A6000030E426F0501010E436F400EE66E400EFD
:101A7000E66E050EE66E010EE66E010EE66E80EC79
:101A800008F0146E050EE15E1450F3CFBFF0F4CFF2
:101A9000C0F0400EE66E000EE66E050EE66EE66ADB
:101AA000010EE66E80EC08F0146E050EE15E145037
:101AB000F3CFBDF0F4CFBEF0090EE15C02E2E16AC3
:101AC000E552E16EE552E7CFD9FF12000001CA519D
:101AD000CB110FE1F8EC11F0010A04E0010A04E176
:101AE000827403D0828401D08294320E0001CA6FC6
:101AF000CB6BCA07000ECB5B12000001CC51CD119D
:101B000004E1100ECC6F270ECD6FCC07000ECD5B1D
:101B10006DA207D0CC51CD112EE18B728BB213D0B8
:101B200027D00001605102E18B9222D0600502E1D2
:101B30008B8209D0020E605D02E18B8219D0040E07
:101B4000605D03E18B928B801200100E605D06E1F8
:101B50000001CC51CD110FE18B720AD0200E605DD7
:101B60000AE10001CC51CD1106E18B728BA202D0AB
:101B70008B9012008B8012001200120012001200D3
:101B80007EEF12F012001E0EE66E010EE66E4EECB7
:101B900008F0E552E552400EE66E000EE66E050EC8
:101BA000E66EE66A010EE66E80EC08F0146E050E35
:101BB000E15E1450F3CFBDF0F4CFBEF012006D849F
:101BC0000001080ED96F070EDA6FD907000EDA5B35
:101BD000D951DA11FAE16D941200D9CFE6FFE1CFC5
:101BE000D9FFFD0EDBCF08F0FE0EDBCF09F0010EB2
:101BF000081801E1095033E0E868081802E1E868D4
:101C000009182BE0030E081801E1095024E0040E26
:101C1000081801E109501DE0020E081801E1095001
:101C200016E0170E081801E109500FE0160E08180B
:101C300001E1095008E0150E081801E1095001E022
:101C400010D0A1DF0FD09EDF0DD09ADF0BD096DF32
:101C500009D092DF07D091DF05D091DF03D00000DB
:101C600001D000D0010E00D0E552E7CFD9FF12001D
:101C70004BD8E652D0B202D0010E15D0D0B802D067
:101C8000020E11D0D0B002D0030E0DD0D0B602D0CB
:101C9000040E09D0FCAE02D0050E05D0FCAC02D07B
:101CA000060E01D0070EDF6ED088D086D084D08299
:101CB000D080FC9EFC9CDF50E552E552E7CFD9FF77
:101CC0001200E65221D8020EE126F350DF6E010E1B
:101CD000F4CFDBFF1200F00EE66ED80EE66E72EC6B
:101CE00014F0E552E5521200DF50F36E010EDB50A6
:101CF000F46E020EE15C1200DFCFE6FFE66AFCEC58
:101D000013F0E552E5521200D9CFE6FFE1CFD9FF3B
:021D10001200BF
:0E1D1200019E08D0019E09AE05D0086C091E86
:101D2000E86A0922018E09C003F008C002F0136AB4
:101D3000126A8E0E046E056AA4EF10F0016AE0ECE0
:101D400010F0F8EC10F001B688EF10F001A205D009
:101D500001BA88EF10F08FEF10F001BA9BEF10F08E
:101D600001A005D001B888EF10F09BEF10F001B88A
:101D70008FEF10F0056A7F0E0A24046EE86A0522D0
:101D80000F50045EE86A055A1A0E106E0A6A126A4B
:101D9000136A026A036A0C50075E0D50085A0E500F
:101DA000095A000E0A5A09E70C5007260D5008225E
:101DB0000E500922000E0A2201D0128AD89007364E
:101DC000083609360A36D8901236133602360336EC
:101DD000102EE1D7095008100710D8A4128AA4EFDA
:101DE00010F0016AE0EC10F0F8EC10F001B688EFAA
:101DF00010F001A205D001B888EF10F08FEF10F0BD
:101E000001AA05D001B088EF10F08FEF10F001B0FB
:101E100002D001A802D09BEF10F0056A0F500A24EF
:101E2000046EE86A05227E0E045EE86A055A126AAC
:101E3000136A026A036A0E500902F4CF03F0F3CF6B
:101E400002F00D500902F3501326F4500222000E46
:101E500003220E500802F3501326F4500222000E03
:101E600003220C500902F3501226F4501322000EE4
:101E7000022203220D500802F3501226F4501322BE
:101E8000000E022203220E500702F3501226F450D5
:101E90001322000E022203220C500802F4501226D4
:101EA000000E1322022203220D500702F4501226C4
:101EB000000E132202220322A4EF10F00F7E016A0B
:101EC000E0EC10F0F8EC10F001B688EF10F001A291
:101ED0000AD001AA03D001BE88EF10F001A494EF4C
:101EE00010F091EF10F001AA05D001AC94EF10F0C2
:101EF00091EF10F001A00AD001A808D001BE04D0D3
:101F000001A402D09DEF10F0A1EF10F0126A056A53
:101F10000F500A5C116E10E307C013F008C002F006
:101F200009C003F00AC010F00CC007F00DC008F0A3
:101F30000EC009F0013A09D00CC013F00DC002F038
:101F40000EC003F00FC010F0116C019E01BC018E99
:101F500010C004F001B0D0EF10F01A0E1160D0EFF5
:101F600010F0046A0A6A01A408D0076C081E091E52
:101F70000A1EE86A082209220A2201AC08D0136C62
:101F8000021E031E041EE86A022203220422066ABD
:101F9000115207E00A340932083207320632112E94
:101FA000F9D70750132608500222095003220A507D
:101FB000042206C012F0019E04AE0BD0126C131E58
:101FC000021E031E041EE86A1322022203220422B8
:101FD000018E04A006D0D8800332023213321232AE
:101FE000102A10C004F0A4EF10F009C013F008C0CC
:101FF00012F008500D02F4CF07F0F3CF06F00950AD
:102000000E02F4CF09F0F3CF08F00D02F3500726CB
:10201000F4500822E86A092212500E02F3500726F3
:10202000F4500822E86A09220EAE1BEF10F012509D
:10203000085E1350095A13AE000C0D50085E0E5086
:10204000095A000C016AE0EC10F001B62CEF10F018
:1020500001A20ED001B405D07F0E096EFF0E086EEE
:102060001FD0800E096E086A1BD0096A086A18D052
:1020700001B0FBD78F0E0A60EDD77E0E0A64F5D74C
:102080008E0E0A5C05E0D890093208320A2AF8D789
:1020900001A406D0086C091EE86A092209AEE5D73A
:1020A0001200016AE0EC10F001B65BEF10F001A243
:1020B0000FD001B407D07F0E096EFF0E086E076EB9
:1020C000066E25D0800E096E01D0096A000EF6D783
:1020D00001B0FBD7066A9F0E0A60EBD77E0E0A643A
:1020E000F4D79E0E0A5C07E0D89009320832073216
:1020F00006320A2AF6D701A40AD0066C071E081E6B
:10210000091EE86A07220822092209AEDED712005A
:102110007F0E0A6EFF0E096E086E076E12007F0EAC
:1021200001BEFF0E0A6E02D07F0E0A6E800E096E8F
:10213000086A076AF3D701AE04D0800E0A6E096AF6
:10214000F7D70A6A096AF4D7035002101310121065
:10215000F8E005BEF0D703BE0CD004500510EBE04C
:10216000D89012361336023603360406D8A0050678
:10217000F2D70550D4E10428D2E012AE11D07F0E80
:10218000121402E113A00CD0132AE86A02220322DF
:1021900007E3D880033202321332042A0428BFE056
:1021A0000450C9E013C007F002C008F00334096E00
:1021B00004300A6E09320A9E01BE0A8E8EEF10F0BC
:1021C00009360A3602E30184017E06E101800A6ACB
:1021D000096A086A076A12000A2803E0D8800932EF
:1021E0001200D890093202E1018212000186120029
:1021F0000E360F3602E3018C017E06E101880F6A7C
:102200000E6A0D6A0C6A12000F2803E0D8800E32A5
:0C2210001200D8900E32EAE1018A1200A0
:04221C000001BB51B1
:10222000010A32E0010A4DE1BC51090A24E0010A29
:1022300020E00F0A1CE0010A18E0030A14E0010A7A
:1022400010E0070A0CE0010A08E0030A04E0010AB2
:1022500017E1870E11D08F0E0FD0970E0DD09F0E65
:102260000BD0A70E09D0AF0E07D0B70E05D0BF0E0A
:1022700003D0C70E01D0CF0EE66EA9EC14F0E552E4
:102280000001010EBB6F120001EC15F000091AE10C
:10229000F1EC14F0F3CF14F0F4CF15F0BCC0E9FF6B
:1022A000EA6AE9BEEA681DD914C0EEFF15C0EDFF69
:1022B000090E0001BC5D02E1BC6B01D0BC2BBB6B05
:1022C0001200BB6B120094948294050EE66E7C0E95
:1022D000E66EEF0EE66E8FEC13F0E552E552E55236
:1022E0001200D9CFE6FFE1CFD9FFFE0EDBCFE9FF29
:1022F000EA6AE9BEEA68F5D8EECF22F0EFCF23F024
:1023000022C008F023C009F08BEC0EF007C01EF0CD
:1023100008C01FF009C020F00AC021F0D2D807C0C1
:102320001AF008C01BF009C01CF00AC01DF0C0D88C
:1023300007C016F008C017F009C018F00AC019F05D
:10234000C8D822EC10F008C0F3FF09C0F4FFE55232
:10235000E7CFD9FF1200B7C008F0B8C009F08BEC86
:102360000EF007C024F008C025F009C026F00AC00E
:1023700027F0A7D807C020F008C021F009C022F03C
:102380000AC023F095D807C01CF008C01DF009C092
:102390001EF00AC01FF00C6A0D6A200E0E6E400E71
:1023A0000F6E5EEC0FF007C018F008C019F009C0FE
:1023B0001AF00AC01BF08DD807C014F008C015F041
:1023C00009C016F00AC017F0550E0C6E0D6E0E6E99
:1023D000410E0F6EF1EC0EF051EF10F00001BA3526
:1023E00004E2B9519008010EBA5501E3000C010C4A
:1023F000D9CFE6FFE1CFD9FF050EE126030E79D84C
:10240000DE6ADD6ADECF14F0DDCF15F0D89015500E
:1024100004E6080E145C000E155833E2DFCFE6FF29
:1024200060DFE552020EF3CFDBFF030EF4CFDBFFDC
:1024300036D804E6E40E145C0C0E155806E2040EC1
:10244000DB50020802E2020E54D829D804E6F00E4E
:10245000145C0A0E155806E2040EDB50010802E275
:10246000010E47D81CD804E6640E145C000E155803
:1024700003E2040EDB6A05D0DF2A010EC3E3DB2A88
:10248000C1D7040EDB50146E050EE15C02E2E16A76
:10249000E552E16E1450E552E7CFD9FF1200020E6B
:1024A000DBCF14F0030EDBCF15F0D89015501200DF
:1024B0000C6AC00E0D6E7F0E0E6E440E0F6E9EEFF8
:1024C0000EF00C6A0D6AA00E0E6E400E0F6EF1EF4C
:1024D0000EF00C6A0D6A7A0E0E6E440E0F6EF1EF5E
:1024E0000EF0D890E936EA36A70EE926000EEA2269
:0C24F0001200F36E040EF3CFDBFF1200AD
:0424FC000401205166
:102500001F0B010801E01200245101E01200060E29
:10251000215D21E12351230A1BE0010A0CE0030A9B
:102520001AE10001610517E10001EE0E716F250E41
:10253000726F090E09D0000161050DE100015B0E0B
:10254000716F260E726F1D0E746F756BC00E02D008
:102550000001800E736F04012051600BE842E842D5
:10256000E842E842E842010801E0120021510B0A6A
:1025700026E0080A19E0090A11E0080A05E00B0A3A
:1025800023E0080A21E012000001DB0E716F000E4B
:10259000726F010E746F756BC10E0FD00001800E4B
:1025A000736F23C4DBF012000001DC0E716F000EAC
:1025B000726F010E746F756B810E736F12000001E4
:0A25C000800E736F22C4DCF01200DD
:0625CA00120100020000F6
:1025D0000008D804050002000102000109022900D8
:1025E000010100C0320904000002030000000921BB
:1025F00011010001221D00070581034000010705AC
:102600000103400001040309042C034D006F006224
:102610000069006C006500200052006F0062006FCE
:10262000007400200050006C006100740066006FB0
:102630000072006D002603420061007400740065A2
:10264000007200790020004D006F006E0069007478
:10265000006F00720069006E0067000600FF09014C
:10266000A10119012940150026FF00750895408138
:1026700000190129409100C0DC25052609263526D0
:102680002A0EF66E080EF76E000EF86E00010900B5
:10269000F550D36F0900F550D46F03E1D36701D033
:1026A0003DD00900F550CE6F0900F550CF6F0900FD
:1026B000F550D06F09000900F550E96E0900F5509A
:1026C000EA6E090009000900F550D16F0900F550C4
:1026D000D26F09000900F6CFD5F0F7CFD6F0F8CFCA
:1026E000D7F0CEC0F6FFCFC0F7FFD0C0F8FF000193
:1026F000D15302E1D25307E00900F550EE6ED10745
:10270000F8E2D207F9D7D5C0F6FFD6C0F7FFD7C099
:0E271000F8FF0001D307000ED45BBFD7120004
:02271E00D9CF11
:10272000E6FFDACFE6FFE1CFD9FFE2CFDAFFC26AF8
:10273000C06AFC0EDB407F0B3C0BC26EFB0EDBCF96
:10274000E6FFFC0EDB38F00B300BE552E710C16EF4
:10275000FD0EDB50040DF350380B156EFD0EDB380B
:102760000F0B070B146EFD0EDB50800B14101510B1
:10277000C06EFC0EDBAE03D09E9C9D8CF28CC280A2
:0C278000E552E5CFDAFFE7CFD9FF1200E9
:04278C00FE0EE3CF8B
:10279000E9FFFF0EE3CFEAFFE9CFF3FFEACFF4FF53
:1027A000FB0EE35003E1FC0EE35009E0FB0EE306F1
:1027B00002E2FC0EE306FD0EE350EE6EF1D71200CE
:1027C000FB0EE3CFF6FFFC0EE3CFF7FFFD0EE3CFEA
:1027D000F8FFFE0EE3CFE9FFFF0EE3CFEAFFE9CFFC
:1027E000F3FFEACFF4FFEE66FED7ED520900F5CF16
:0827F000EFFFEE66FBD71200BB
:0827F8002DD8FD0EDB50A86E88
:10280000A69EA69CA684F250800B01E0010E00015A
:10281000DD6FF29E550EA76EAA0EA76EA682DD5141
:10282000E8B0F28EE8A0F29EA6B2FED7A198A694D8
:10283000E552E7CFD9FF12000DD8A69EA69CA68030
:10284000020EE66EE6EC14F0E552A850E552E7CF32
:10285000D9FF1200D9CFE6FFE1CFD9FFFE0EDB5042
:04286000A96E12004B
:0C286400D9CFE6FFDACFE6FFE1CFD9FFC5
:10287000E2CFDAFFFD0EDB507E0BCD6EFD0EDBAC42
:1028800002D0CD8E01D0CD9ECF6ACE6A9E90DBAEB7
:1028900002D09D8001D09D90CD80E552E5CFDAFF3A
:0628A000E7CFD9FF120092
:0A28A60032313A33323A313000206B
:1028B000004D617920303420323031300042617473
:1028C00074657279204D6F6E69746F72696E6720DE
:1028D000312E300A4F6C697669657220424943484F
:0428E0004C45520011
:0C28E400D9CFE6FFDACFE6FFE1CFD9FF45
:1028F000E2CFDAFFE652E652FC0EDBCFDEFFDBCFA3
:10290000DDFF010EDB50CF6EDF50CE6EE552E5529B
:0C291000E552E5CFDAFFE7CFD9FF120057
:04291C00D9CFE6FF2A
:10292000E1CFD9FF00010ED8EF50000803E2A6293D
:102930001F0BA66F07D8FE0EDBCFEFFFE552E7CFE8
:10294000D9FF1200A651EA6A860FE96E000EEA224C
:02295000120073
:0E295200D9CFE6FFDACFE6FFE1CFD9FFE2CF23
:10296000DAFFFD0EDB407F0B3C0B146EC30EC2146E
:102970001410C26EC282E552E5CFDAFFE7CFD9FF6D
:02298000120043
:0E298200FF0EE350296EEF0E01D0F30EE76E4C
:10299000E72EC8EF14F00C0E286EE76AE72ECEEF94
:1029A00014F0282ECDEF14F0292EC6EF14F01200EB
:1029B00013EE00F023EE00F0F86A019C40EC13F0F7
:0C29C00006EC15F069EC0AF0FBD71200E1
:0429CC00FF0EE350C7
:1029D000E84E1200000000D000D000D0E82EFAD758
:0229E0001200E3
:0E29E200C450176E166AC3501610F36E17C05D
:0429F000F4FF1200DE
:0C29F40000EE00F00F0EEE6AEA62FDD764
:022A00001200C2
:0A2A0200C250020B01E0010E1200A9
:022A0C001200B6
:022A0E000000C6
:102A100000000000000000000000000000000000B6
:042A200000000000B2
:0C2A2400000000000100000000000100A4
:052A30000000000000A1
:0B2A3500000000000000000000000096
:102A40000000000000000000000000000000000086
:062A500000000000000080
:00000001FF
