:020000040000FA
:0600000055EF34F0120080
:0600080004EF04F01200F9
:060018000CEF04F01200E1
:0608000055EF34F0120078
:060808000FEF14F01200D6
:060818007EEF14F0120057
:06082A0004003F6900001C
:10083000260100002100000034690000640100006E
:100840000B00000027690000570100000D000000A8
:0C085000246900007C010000030000008F
:04085C0079EC0FF034
:10086000030EE126010EE66E04DBE552DF6E020E9A
:10087000E66EFFDAE552E76E010EE7CFDBFF020E10
:10088000DF1404E1010EDB50020B06E00A0E76ECE9
:1008900012F0020EB5EC12F0020EDB6ADFB4DB8060
:1008A000010EDBA402D0020EDB8247EC11F0E8AEB1
:1008B00002D0003403D0E750D880005407E2020E83
:1008C000DB5001016613040EBDEC13F0200EDF14A3
:1008D00004E1010EDB50200B06E00B0E76EC12F06B
:1008E000200EB5EC12F0020EDB6ADFBCDB80010EDD
:1008F000DBAC02D0020EDB8247EC11F0E8AE02D096
:10090000003403D0E750D88000540BE20101645159
:1009100005E0A5EC12F09AEC09F0E552400EBDECB2
:1009200013F0030EE15C02E2E16AE552E16E7EEF54
:100930000FF079EC0FF0FE0EDB5006E1F80E961684
:100940003C0E9416959808D0FE0EDB0405E1070EC8
:100950009612C30E941295887EEF0FF0D9CFE6FF62
:10096000E1CFD9FFE652010EE66EE3DFE552809853
:10097000FE0EDBA00FD0839C808A0000839E0000C7
:10098000000000008450010BDF6E838E0000000029
:10099000DF04F4E0FE0EDBA20FD0838C809A00000F
:1009A000839E0000000000008450010BDF6E838EE8
:1009B00000000000DF04F4E0E552E552E7CFD9FF84
:1009C0001200D9CFE6FFE1CFD9FFE652FD0EDB5092
:1009D000DF6EF250800B01E0010E0101476FF29EC5
:1009E000FE0EDBCFE6FFBADFE552E66AA2DFE55294
:1009F000FE0EDB50010B02E0000E01D0010EE8B04C
:100A0000838CE8A0839CFE0EDB50020B02E0000EFC
:100A100001D0010EE8B0808AE8A0809A809800009A
:100A20008096D9CFE9FFDACFEAFFEF50010B02E061
:100A3000848001D08490D9CFE9FFDACFEAFFEF506C
:100A4000020B02E0848201D08492D9CFE9FFDACF91
:100A5000EAFFEF50040B02E0848401D08494D9CFE4
:100A6000E9FFDACFEAFFEF50080B02E0838801D0FC
:100A70008398D9CFE9FFDACFEAFFEF50100B02E0FD
:100A8000828201D08292D9CFE9FFDACFEAFFEF501C
:100A9000200B02E0828E01D0829ED9CFE9FFDACF0F
:100AA000EAFFEF50400B02E0828001D08290D9CF64
:100AB000E9FFDACFEAFFEF50800B02E0828C01D031
:100AC000829C00000000808601014751E8B0F28E50
:100AD000E8A0F29EE552E552E7CFD9FF1200D9CF48
:100AE000E6FFE1CFD9FF020EE126FC0EDBCFDEFFF1
:100AF000DBCFDDFFF250800B01E0010E0101486FFA
:100B0000F29EFE0EDBCFE6FF29DFE552E66A11DF3B
:100B1000E552FE0EDB50010B02E0000E01D0010E8B
:100B2000E8B0838CE8A0839CFE0EDB50020B02E051
:100B3000000E01D0010EE8B0808AE8A0809A80887B
:100B400000008096D9CFE9FFDACFEAFFEE52EF50EE
:100B5000010B02E0848001D08490D9CFE9FFDACF85
:100B6000EAFFEE52EF50020B02E0848201D0849241
:100B7000D9CFE9FFDACFEAFFEE52EF50040B02E0E3
:100B8000848401D08494D9CFE9FFDACFEAFFEE5212
:100B9000EF50080B02E0838801D08398D9CFE9FF9A
:100BA000DACFEAFFEE52EF50100B02E0828201D062
:100BB0008292D9CFE9FFDACFEAFFEE52EF50200B55
:100BC00002E0828E01D0829ED9CFE9FFDACFEAFF20
:100BD000EE52EF50400B02E0828001D08290D9CFDC
:100BE000E9FFDACFEAFFEE52EF50800B02E0828C91
:100BF00001D0829C000000008086000000008096EA
:100C0000D9CFE9FFDACFEAFFEF50010B02E0848091
:100C100001D08490D9CFE9FFDACFEAFFEF50020B81
:100C200002E0848201D08492D9CFE9FFDACFEAFFD3
:100C3000EF50040B02E0848401D08494D9CFE9FF03
:100C4000DACFEAFFEF50080B02E0838801D08398E7
:100C5000D9CFE9FFDACFEAFFEF50100B02E0828232
:100C600001D08292D9CFE9FFDACFEAFFEF50200B13
:100C700002E0828E01D0829ED9CFE9FFDACFEAFF6F
:100C8000EF50400B02E0828001D08290D9CFE9FF83
:100C9000DACFEAFFEF50800B02E0828C01D0829C19
:100CA00000000000808601014851E8B0F28EE8A003
:100CB000F29E020EE15C02E2E16AE552E16EE5526B
:100CC000E7CFD9FF1200D9CFE6FFE1CFD9FF020E5F
:100CD000E126FE0EDB040DE0FE0EDB50020809E00B
:100CE0000C0EE66EF5EC33F0E552F36AF46AB7D019
:100CF000B6D0F250800B01E0010E0101496FF29E67
:100D0000FE0EDBCFE6FF2ADEE552010EE66E11DEB7
:100D1000E552FE0EDB50020B02E1000E01D0010E87
:100D2000E8B0838CE8A0839CFE0EDB50010B02E14F
:100D3000000E01D0010EE8B0808AE8A0809A808879
:100D40000000839E0000000000008450010B066E2E
:100D50008450020B01E0010EE824056E8450040B60
:100D600001E0010E040DF3CF04F08350100B01E0FD
:100D7000010E080DF3CF03F08250020B01E0010ECB
:100D8000100DF3CF02F08250800B01E0010E200D18
:100D9000F3CF01F08250010B400DF3CF00F08250F1
:100DA000400B01E0010E800DF35000100110021005
:100DB0000310041005100610E76E010EE7CFDBFFED
:100DC000838E00000000839E00000000000084501D
:100DD000010B066E8450020B01E0010EE824056E43
:100DE0008450040B01E0010E040DF3CF04F0835096
:100DF000100B01E0010E080DF3CF03F08250020B3F
:100E000001E0010E100DF3CF02F08250800B01E0E3
:100E1000010E200DF3CF01F08250010B400DF3CFF6
:100E200000F08250400B01E0010E800DF3500010E5
:100E3000011002100310041005100610DF6E838EDF
:100E400001014951E8B0F28EE8A0F29EDECF00F039
:100E5000DDCF01F000C0F3FF01C0F4FF00D0020EAF
:100E6000E15C02E2E16AE552E16EE552E7CFD9FFCB
:100E70001200D9CFE6FFE1CFD9FFE652DF6AFE0EBE
:100E8000DB040CE0FE0EDB50020808E00C0EE66E00
:100E9000F5EC33F0E552000E6ED06DD0F250800BC1
:100EA00001E0010E01014A6FF29EFE0EDBCFE6FF6C
:100EB00055DDE552010EE66E3CDDE552FE0EDB50DF
:100EC000020B02E1000E01D0010EE8B0838CE8A015
:100ED000839CFE0EDB50010B02E1000E01D0010EDF
:100EE000E8B0808AE8A0809A80980000839E000085
:100EF000000000008450010B066E8450020B01E0DC
:100F0000010EE824056E8450040B01E0010E040D6F
:100F1000F3CF04F08350100B01E0010E080DF3CF66
:100F200003F08250020B01E0010E100DF3CF02F02E
:100F30008250800B01E0010E200DF3CF01F08250B2
:100F4000010B400DF3CF00F08250400B01E0010E89
:100F5000800DF35000100110021003100410051052
:100F60000610DF6E838E01014A51E8B0F28EE8A0D0
:100F7000F29EDF5000D0E552E552E7CFD9FF1200D4
:100F800079EC0FF0FE0EDB0407E036EC11F004E024
:100F90000C0E76EC12F008D0FD0EDBCFE6FF4BEC2A
:100FA00010F0E552E71402E1000E01D0010E7EEFD1
:100FB0000FF095EC12F001E0010E01014B6FF29E73
:100FC0001D0E3CEC0FF0FC0EDB1C006EFD0EDB1C5E
:100FD000016E00C0E6FFE66E2FEC0FF001014B51F1
:100FE000E8B0F28EE8A0F29E7EEF0FF095EC12F0E2
:100FF00001E0010E01014C6FF29E1D0E3CEC0FF062
:10100000000E99EC12F001014C51E8B0F28EE8A00C
:10101000F29E7EEF0FF095EC12F001E0010E01015F
:101020004D6FF29E4BEC10F084080DE04BEC10F08D
:10103000C40809E0E66A9FEC13F04EEC11F028ECCE
:1010400034F0E552EFD71C0E3CEC0FF0660E99EC35
:1010500012F055EC11F04BEC10F0800804E04BEC72
:1010600010F0C008E7E14BEC10F0C00802E155ECCD
:1010700011F01E0E3CEC0FF00F0E99EC12F0C2ECCA
:1010800013F0FA0EDBCFE6FFFB0E0FEC12F0F80EBA
:10109000DBCFE6FFF90E0FEC12F0F60EDBCFE6FF2A
:1010A000F70E0FEC12F0040E3CEC0FF01A0E3CECB5
:1010B0000FF0100EE66E270EE66E2FEC0FF001011A
:1010C000646B656B666B01014D51E8B0F28EE8A070
:1010D000F29E7EEF0FF079EC0FF0080EE126010E84
:1010E00093EC0FF0010EE7CFDBFF020ED6EC12F00F
:1010F000DF6E030E93EC0FF0030EE7CFDBFF040E61
:1011000093EC0FF0020EE7CFDBFF050E93EC0FF030
:10111000050EE7CFDBFF060E93EC0FF0040EE7CFD2
:10112000DBFF070E93EC0FF0070EE7CFDBFF080E97
:1011300093EC0FF022EC10F0010E3AEC11F0090ED6
:1011400093EC0FF0010EE7CFDBFF0A0ED6EC12F0A6
:10115000DF6E0B0E93EC0FF0030EE7CFDBFF0C0EF0
:1011600093EC0FF0020EE7CFDBFF0D0E93EC0FF0C8
:10117000050EE7CFDBFF0E0E93EC0FF0040EE7CF6A
:10118000DBFF0F0E93EC0FF0070EE7CFDBFF100E27
:1011900093EC0FF022EC10F0020E3AEC11F0020E7C
:1011A000E66E030EE66E4EEC11F0010E5AEC11F0F5
:1011B00005E1020EE66E5AEC11F002E0000E01D0DD
:1011C000010E006E080EE15C02E2E16AE552E16E9A
:1011D00000507EEF0FF079EC0FF00C0EE12654EC8E
:1011E00010F0D950F20F9DEC12F0080EEECFDBFF9D
:1011F000090EEECFDBFF0A0EEECFDBFF0B0EEECFBC
:10120000DBFFF250800B01E0010E01014E6FDBECC1
:1012100012F0B5EC10F000500110021003100CE0B9
:101220002B0E99EC12F00A0EDBCFE6FF0B0E0FEC43
:1012300012F061EC11F003D00B0EE66EE66A2FECB3
:101240000FF087EC13F096EC0FF0D2EC0FF02FECD0
:101250000FF0B6EC13F001014E51E8B0F28EE8A0A9
:10126000F29E0C0EE15C02E2E16AE552E16E7EEF75
:101270000FF079EC0FF00A0EE1266BEC10F054EC55
:1012800010F0080EF36EDB6E090EF3CFDBFFF250A9
:10129000800B01E0010E01014F6FDBEC12F07CECE2
:1012A00010F007E0D950080FE96EDACFEAFFEE8AB6
:1012B000ED52F50EDB50FF0807E1D950080FE96E3B
:1012C000DACFEAFFEE52ED8861EC11F02FEC0FF06F
:1012D0007CEC10F002E087EC13F0A5EC12F0030EAA
:1012E0000FEC12F0B6EC13F001014F51E8B0F28EA2
:1012F000E8A0F29E0A0EE15C02E2E16AE552E16ECC
:101300007EEF0FF079EC0FF0F90EDBCFE6FFE66A27
:10131000E66AE66AE66AD950FA0F9DEC12F084ECB0
:1013200012F09FEC13F0A5DF006E0A0EE15E005094
:101330007EEF0FF079EC0FF0FE0EDBA00BD0010E6C
:1013400027EC11F02DC067F12EC068F12FC069F1B4
:1013500030C06AF1FE0EDBA20BD0020E27EC11F0BA
:101360002DC06BF12EC06CF12FC06DF130C06EF14D
:101370000101646BA9EC12F07EEF0FF095EC12F016
:1013800001E0010E0101506FDBEC12F0C2EC13F032
:10139000A9EC12F001015051E8B0F28EE8A0F29EE3
:1013A0007EEF0FF079EC0FF0040EE126F250800B87
:1013B00001E0010E0101516FF29EF90EDB500FE0CA
:1013C0006BEC10F0210E3CEC0FF0A5EC12F0030ECC
:1013D0000FEC12F07BEC12F09FEC13F023D0200EF8
:1013E0003CEC0FF0FE0EDBA20ED096EC0FF06B0E75
:1013F000E96E010E54EC12F0020E02EC11F0020E36
:10140000E66E63EC12F0FE0EDBA00ED096EC0FF051
:10141000670EE96E010E54EC12F0010E02EC11F0B1
:10142000010EE66E63EC12F001015151E8B0F28E4C
:10143000E8A0F29E040EE15C02E2E16AE552E16E90
:101440007EEF0FF0A2EC12F006E036EC11F003E0B4
:1014500036EC10F012D0F250800B01E0010E0101C9
:10146000526FF29E080EDFEC12F001015251E8B00B
:10147000F28EE8A0F29E09EC10F0040EE15C02E2AC
:10148000E16AE552E16E7EEF0FF0A2EC12F006E0A9
:1014900036EC11F003E036EC10F012D0F250800B75
:1014A00001E0010E0101536FF29E0A0EDFEC12F013
:1014B00001015351E8B0F28EE8A0F29E09EC10F061
:1014C000040EE15C02E2E16AE552E16E7EEF0FF0AC
:1014D000A2EC12F006E036EC11F003E036EC10F06E
:1014E00012D0F250800B01E0010E0101546FF29E08
:1014F000070EDFEC12F001015451E8B0F28EE8A0C3
:10150000F29E09EC10F0040EE15C02E2E16AE552A1
:10151000E16E7EEF0FF0A2EC12F006E036EC11F077
:1015200003E036EC10F018D0F250800B01E0010E11
:101530000101556FF29E0B0E3CEC0FF038EC12F0EF
:10154000BBEC12F0DE6ADD6A01015551E8B0F28EA3
:10155000E8A0F29E09EC10F0040EE15C02E2E16A00
:10156000E552E16E7EEF0FF079EC0FF0020EE1260E
:10157000FE0EDB0406E036EC11F003E042EC11F065
:101580001AD0F250800B01E0010E0101566FF29E5D
:101590000D0E3CEC0FF0C8EC13F001015651E8B011
:1015A000F28EE8A0F29EDECF00F0DDCF01F000C0A9
:1015B000F3FF01C0F4FF020EE15C02E2E16AE552D2
:1015C000E16E7EEF0FF079EC0FF0FE0EDB040FE121
:1015D000010E27EC11F0010167512D5C0A6E685174
:1015E0002E580B6E69512F580C6E6A5111D036EC83
:1015F00011F032E1020E27EC11F001016B512D5C6C
:101600000A6E6C512E580B6E6D512F580C6E6E5128
:1016100030580D6E0AC02DF00BC02EF00CC02FF00C
:10162000306E7FEC25F014EC10F028EC13F02FEC6A
:1016300026F02EC002F02FC003F030C004F031C0FD
:1016400005F064EC10F082EC26F0EFEC26F02FC0F1
:10165000F3FF30C0F4FF02D042EC11F07EEF0FF048
:10166000C2EC12F024EC13F0030E40EC10F07EEF0D
:101670000FF0C2EC12F0F8EC0FF0030E40EC10F09B
:101680007EEF0FF079EC0FF079EC11F0F8EC0FF041
:10169000010EDCEC13F031EC11F079EC11F03DECC3
:1016A00010F05FEF12F079EC0FF079EC11F047ECED
:1016B00010F031EC11F079EC11F0F8EC0FF0020EB3
:1016C0005FEF12F079EC0FF01C0EE126F60EDB5006
:1016D0001EE0006A800E016E010E026E430E036E64
:1016E000FAEC13F0336A346AC80E356E420E366E69
:1016F0002FEC26F035EC13F0A9DB71EC13F0EFECD6
:1017000026F0F70E2FC0DBFFF80E30C0DBFF3DECFC
:1017100012F0DFDBC6EC12F00C6A800E0D6E010ECB
:101720000E6E430E0F6EB1EC13F031EC13F0FDECC6
:1017300011F006EC11F08ADB71EC13F02EC0DEFF25
:101740002FC0DEFF30C0DEFF31C0DDFFDD52DD52D5
:101750008DEC10F064EC10F082EC26F035EC13F018
:10176000C6EC12F0106A800E116E010E126E430E5E
:10177000136EB1EC13F00BEC12F0EEEC13F071EC15
:1017800013F0040E2EC0DBFF050E2FC0DBFF060E8C
:1017900030C0DBFF070E31C0DBFFDECF2EF0DECF27
:1017A0002FF0DECF30F0DDCF31F0DD52DD52040E10
:1017B000DBCF33F0050EDBCF34F0060EDBCF35F098
:1017C000070ECEEC13F0080E2EC0DBFF090E2FC063
:1017D000DBFF0A0E30C0DBFF0B0E31C0DBFF080E53
:1017E000DBCF04F0090EDBCF05F00A0EDBCF06F0ED
:1017F0000B0EDBCF07F0336A346A356A366A4DDB8D
:1018000055EC27F0010A03E0B5EC10F013D0080EF8
:10181000DBCF08F0090EDBCF09F00A0EDBCF0AF0B0
:101820000B0EDBCF0BF064EC10F075EC13F082ECD8
:1018300026F019DB080E00C0DBFF090E01C0DBFF3C
:101840000A0E02C0DBFF0B0E03C0DBFF92DB90EC45
:1018500010F070EC11F0CCEC11F0DCEC10F0046A3C
:10186000056A066A400E076E42EC12F031EC13F086
:1018700070EC11F099EC13F0F6DA0C0EDBCF0CF0F3
:101880000D0EDBCF0DF00E0EDBCF0EF00F0EDBCF0B
:101890000FF00AEC11F0C2EC10F06BDB35EC13F03A
:1018A000DFEC13F0CCEC11F093EC10F0066A400E74
:1018B000076EDFEC13F099EC13F0E2EC12F00AEC97
:1018C00011F0CFEC10F0140EDBCF08F0150EDBCFCB
:1018D00009F0160EDBCF0AF0170EEDDA0C0EDBCF97
:1018E00014F00D0EDBCF15F00E0EDBCF16F00F0E41
:1018F000E9DAD9CFE9FFDACFEAFFEECF20F0EECF79
:1019000021F0EECF22F0EFCF23F02BEC12F0BFDB73
:10191000246E0D0EE15E2450180EDBCF08F0190E78
:10192000DBCF09F01A0EDBCF0AF01B0EC4DA100E63
:10193000DBCF14F0110EDBCF15F0120EDBCF16F05B
:10194000130EC0DA040EDBCF20F0050EDBCF21F042
:10195000060EDBCF22F0070EDBCF23F02BEC12F0CC
:101960008CDBDCEC13F0246E0D0EE15E2450ABEC4E
:1019700013F01C0EE15C02E2E16AE552E16EBED2B8
:10198000B8DA3C0EE126C9DB05EC14F03EEC13F0AE
:1019900075EC13F082EC26F0C3DB5AEC13F042EC4A
:1019A00012F031EC13F018EC11F050DA13EC12F0E5
:1019B0004DDA73DA99EC25F056DA336A346A800E20
:1019C000FDEC10F0380E2EC0DBFF390E2FC0DBFF10
:1019D0003A0E30C0DBFF3B0E31C0DBFF05EC14F0EC
:1019E00042DA5EDB42EC12F074DA5ADBDAEC2EF00B
:1019F000086E080EE15E0850080E2DC0DBFF090ED0
:101A00002EC0DBFF0A0E2FC0DBFF0B0E30C0DBFF4A
:101A1000F60EDB5007E0D950F40F9DEC12F0EE50BB
:101A2000ED1039E1B7DA080EDBCF0EF0090EDBCF8F
:101A30000FF00A0EDBCF10F00B0E94EC11F0DFD993
:101A400047EC12F02E6A2F6A800E306E400E316E17
:101A5000380EDBCF33F0390EDBCF34F03A0EDBCF6C
:101A600035F03B0E80EC12F0DFDA1ADB74DB2DC0B0
:101A700002F02EC003F02FC004F030C005F02DC0DE
:101A80002EF0CBEC12F066EC12F0EADD0A6E060ED8
:101A9000E15E0A50A3D1380EDBCF04F0390EDBCF64
:101AA00005F03A0EDBCF06F03B0EDBCF07F0C9DBCB
:101AB00008EC14F082EC26F070EC11F0E6EC13F078
:101AC000BCDAB6DBE5EC12F05AEC13F0BFD9DCD986
:101AD00099EC25F028DBE8EC12F03DEC12F00BEC71
:101AE00012F071EC13F05BDB046A056AE8EC12F0AB
:101AF00042EC12F00BEC12F071EC13F01C0E2EC045
:101B0000DBFF1D0E2FC0DBFF1E0E30C0DBFF1F0EE4
:101B100031C0DBFF1C0EDBCF00F01D0EDBCF01F070
:101B20001E0EDBCF02F01F0EDBCF03F0CDDA71EC1F
:101B300013F0200E2EC0DBFF210E2FC0DBFF220E84
:101B400030C0DBFF230E31C0DBFFD950180FE96E28
:101B5000DACFEAFF240EEECFDBFF250EEECFDBFF60
:101B6000260EEECFDBFF270EEECFDBFF3DEC12F0B3
:101B700092EC13F0200EDBCF33F0210EDBCF34F0EC
:101B8000220EDBCF35F0230ED4EC13F0280E2EC03E
:101B9000DBFF290E2FC0DBFF2A0E30C0DBFF2B0E30
:101BA00031C0DBFF42EC12F092EC13F0240EDBCFDD
:101BB00033F0250EDBCF34F0260EDBCF35F0270EC9
:101BC000D4EC13F02C0E2EC0DBFF2D0E2FC0DBFF4C
:101BD0002E0E30C0DBFF2F0E31C0DBFF2C0EDBCF13
:101BE00004F02D0EDBCF05F02E0EDBCF06F02F0E0E
:101BF000DBCF07F069DA51D982EC26F01FEC12F046
:101C0000300E2EC0DBFF310E2FC0DBFF320E30C096
:101C1000DBFF330E31C0DBFF280EDBCF2EF0290EA9
:101C2000DBCF2FF02A0EDBCF30F02B0EDBCF31F0E5
:101C30001FEC12F0340E2EC0DBFF350E2FC0DBFF81
:101C4000360E30C0DBFF370E31C0DBFFD950300F0E
:101C500082D9D950340F7FD9DAEC2EF0006E080EFD
:101C6000E15E00500C0E2DC0DBFF0D0E2EC0DBFF21
:101C70000E0E2FC0DBFF0F0E30C0DBFF006A016AC3
:101C8000026A400E036E00C0E6FF01C0E6FF02C01C
:101C9000E6FFE66E97D908EC14F0B8DA01DA71ECD9
:101CA00012F02DC014F02EC015F02FC016F030C069
:101CB00017F024EC13F0DAEC2EF0186E080EE15E4B
:101CC0001850E552E7CF03F0E552E7CF02F0E552B6
:101CD000E7CF01F0E552E7CF00F02DC004F02EC0B1
:101CE00005F02FC006F030C007F02CDA71EC13F0CD
:101CF00049DAF60EDB5002081FE163EC13F098ECB2
:101D000025F0A3EC13F099EC25F0FCD862DA060E6E
:101D10002FC0DBFF070E30C0DBFF000EDFCF2FF040
:101D2000010ED7D8020EB0EC12F0DADA6ADB040E3C
:101D30002FC0DBFF050E35D01CD995D80C0EDBCF9C
:101D400004F00D0EDBCF05F00E0EDBCF06F00F0E0C
:101D5000DBCF07F004C033F005C034F006C035F027
:101D600007C036F098EC25F027DA63EC13F099EC15
:101D700025F0A3EC13F098EC25F0C4D82ADA040E71
:101D80002FC0DBFF050E30C0DBFF020EDBCF2FF0D4
:101D9000030E9FD8C2DBA4DA34DB060E2FC0DBFFB4
:101DA000070E30C0DBFF2BD881D8040EDBCF2FF01D
:101DB000050E8EDA24EC13F0B0DB33D868D9206E30
:101DC0000D0EE15E205072D8060EDBCF2FF0070E0D
:101DD0007FDA53D9C5DB25D850D952D93C0EE15C06
:101DE00002E2E16AE552E16E89D0010E0101661559
:101DF00005E0020E661502E0656B010C000CF5DFD4
:101E00000009FDE01200010165511200DFEC13F042
:101E100028EC13F0ABDA36DB5BDA24EC13F02DDBC5
:101E200082D32EC01CF02FC01DF030C01EF031C078
:101E30001FF028EC13F00BEC14F02DC018F02EC09E
:101E400019F02FC01AF030C01BF012002EC033F072
:101E50002FC034F030C035F031C036F012009FECA6
:101E600013F063EF12F02EC000F02FC001F030C06D
:101E700002F031C003F01200E66E9FEC13F0E1ECCB
:101E800004F0E552E552120000C02EF001C02FF020
:101E900002C030F003C031F0120004C02EF005C0C3
:101EA0002FF006C030F007C031F01200FAEC13F04A
:101EB000CFDBB6EF11F0DBCF0BF0CADB75EC13F024
:101EC000B6EF11F0DBCF17F0C3DBADDAE1DB24EFC7
:101ED00013F0C7DB35EF13F002C02EF05CDB98EC9B
:101EE00025F0F4DA42EC0BF0126E060EE15E1250B1
:101EF0001200D9CFE6FFE1CFD9FF1200E552E7CFBC
:101F0000D9FF1200100EDBCF33F0110EDBCF34F00F
:101F1000120EDBCF35F0130EF3DAEFEF26F0A8DA6E
:101F20002ADBC8EF13F042DBE76E1200FA0EDBCFBC
:101F300000F0FB0EDBCF01F0FC0EDBCF02F0FD0E5C
:101F4000DBCF03F0000E006C011E0122021E0222F4
:101F5000031E03221200E96EDACFEAFF84EF12F0CB
:101F60000CC02EF00DC02FF00EC030F00FC031F0BD
:101F700012002E6A2F6A306A400E316E080EDBCFD7
:101F800033F0090EDBCF34F00A0EDBCF35F00B0E49
:101F900080EF12F07CDA026A036AB40E046E420E1D
:101FA000056E120000C0DFFF010E01C0DBFF020E54
:101FB00002C0DBFF030E03C0DBFFC7DA030EDBCF7B
:101FC000E6FF1200140EDBCF0CF0150EDBCF0DF088
:101FD000160EDBCF0EF0170EDBCF0FF01200350E12
:101FE000336EFA0E346E0E0E356E3C0E366E1200E7
:101FF000000E186C191E19221A1E1A221B1E1B22F3
:1020000018C0E6FF19C0E6FF1AC0E6FF1BC0E6FFD6
:102010001200DECF2DF0DECF2EF0DECF2FF0DDCFA1
:1020200030F0DD52DD5212002EC006F02FC007F056
:1020300030C008F031C009F01200F40EDBCF2FF0F1
:10204000F50E71D2060EE7CFDBFFDBCFE6FF070E02
:10205000DBCFE6FF040EDBCFE6FF050EDBCFE6FFAE
:1020600074DA030EDBCFE6FF7BEF12F00C0E3EDAE4
:102070002D6A2E6A2F6A306A1200E6DA020E12000A
:102080009BDB206E0D0EE15E2050ABEF13F0DCDA2F
:10209000010EDCEF13F053DB39EC07F0E5521200D0
:1020A000ADDB31C0E6FF1200D950F60F46DA040E60
:1020B000EECFDBFF050EEECFDBFF060EEECFDBFF34
:1020C000070EEECFDBFF1200336A346A800E356EE6
:1020D000BF0E366E1200D9CFE9FFDACFEAFFFA0E53
:1020E000DBCFEEFFFB0EDBCFEEFFFC0EDBCFEEFF18
:1020F000FD0EDBCFEEFF1200040EDBCF00F0050E6D
:10210000DBCF01F0060EDBCF02F0070EDBCF03F0D2
:102110000050011002100310120077DB70EF11F075
:10212000A4DAB0D900D2140E2EC0DBFF150E2FC0DA
:10213000DBFF160E30C0DBFF170E31C0DBFF046A79
:10214000056A12002DC033F02EC034F02FC035F0D8
:1021500030C036F01200F4EC2AF0E55229D3336A8D
:10216000346A356A400E366E1200080EDBCF00F07E
:10217000090EDBCF01F00A0EDBCF02F00B0EDBCF36
:1021800003F01200100E2EC0DBFF110E2FC0DBFF7C
:10219000120E30C0DBFF130E31C0DBFF1200180E31
:1021A0002EC0DBFF190E2FC0DBFF1A0E30C0DBFF85
:1021B0001B0E31C0DBFF12000C0E2EC0DBFF0D0E1C
:1021C0002FC0DBFF0E0E30C0DBFF0F0E31C0DBFF78
:1021D0001200020E2FC0DBFF030E30C0DBFFF90E32
:1021E000DBCF2FF0FA0EDBCF30F01200356E430E4E
:1021F000366E1200D9EC07F0DBD2356E400E366E2B
:102200002FEF26F0E66E5FD97BEF12F098EC25F009
:1022100070EF11F00CC033F00DC034F00EC035F08B
:102220000FC036F098EF25F0336A800E346E12003E
:102230002EC018F02FC019F030C01AF031C01BF0BA
:1022400012000C6A0D6A0E6A400E0F6E1200E66EE6
:1022500045EC0AF0E5521200040EE126FE0EDB0406
:102260001200286E0D0EE15E28501200FE0EDB50AB
:1022700002081200E66E0BEC08F0006E090EE15E3B
:10228000005012000C0E32D9F36AF46A1200020EEA
:10229000DBCF00F0000EE76E00181200E1EC04F056
:1022A000E552E552020EE66E120049DAF6EC07F04E
:1022B000E5521200E66EC0EC07F0E552E552000967
:1022C0001200080EDBCFE6FF090EDBCFE6FF12009F
:1022D000C8D9F0D9BDD982EC26F010DA48EF13F056
:1022E0002EC008F02FC009F030C00AF031C00BF04A
:1022F00012008CDD2EC024F02FC025F030C026F057
:1023000031C027F06CDE82EC26F02EC020F02FC00A
:1023100021F030C022F031C023F086DF810E66DF6D
:1023200082EC26F011EF0FF0DBCF11F0336A346A44
:10233000340E5CDF0EC02EF00FC02FF010C030F056
:1023400011C031F082EC26F02EC00AF02FC00BF045
:1023500030C00CF031C00DF0DB0E336E0F0E346E5A
:10236000490E4BDF61DE72DD6CEF0FF082EC26F080
:102370007CD9CC0E336EBC0E346E8C0E356E3B0E9B
:10238000366E49DA2DC000F02EC001F02FC002F0E9
:1023900030C003F024EF13F0CCD965DD106A116A68
:1023A000800E126E3F0E136E080EDBCF14F0090E76
:1023B000DBCF15F00A0EDBCF16F00B0EDBCF17F0DC
:1023C00014C033F015C034F016C035F017C036F025
:1023D00005DA5ADD2FEF26F0140EDBCF00F0150ED4
:1023E000DBCF01F0160EDBCF02F0170EDBCF03F0D0
:1023F0001BDF010EFBDE44EF0FF080D927DDB0EFCD
:102400000FF0E4D9F90EDBCF2FF0FA0E2AD936D926
:1024100068D9EFEF26F025D94DD926EF0FF0DBCFA5
:10242000E6FF2FEF0FF014C02EF015C02FF016C0EE
:1024300030F017C031F082EC26F07EEF13F0140E6E
:10244000DBCF33F0150EDBCF34F0160EDBCF35F0DB
:10245000170ECEEF13F0C3DD20C02EF021C02FF0F9
:1024600022C030F023C031F082EC26F011EF0FF0E3
:1024700066D963EC06F0E5521200FD0EDBCF2FF0BB
:10248000FE0E1200FB0EDBCF2FF0FC0E1200F70E3B
:10249000DBCFE6FFF80EDBCFE6FFF90EDBCFE6FF82
:1024A000FA0EDBCFE6FF1200EA6EEE500026EE5089
:1024B0000122EE500222EE500322D2EF0FF07CD91F
:1024C000D0DE49D91BD56FEC05F072D1EFEC26F0C8
:1024D0002FC000F030C001F02FC0E6FF30C0E6FF93
:1024E0001200D950380F37DDABEF10F0E66EF5EC87
:1024F00033F0E5521200DECFE6FFDDCFE6FF12003B
:10250000DBCF36F082EF26F0EECFE6FFEECFE6FF30
:10251000EECFE6FFEFCFE6FF1200000EDFCF2FF089
:10252000010E31EF13F031EF13F0E3DCF250800BCA
:102530001200E66EE66A2FEF0FF0E96EFF0EDA206A
:10254000EA6E1200D6DC2CEF11F0020EDBCFE6FFB4
:102550001200010E91DC0101010E656F666B120025
:10256000DBCF2FF0030E31EF13F0E66EE66A030EB9
:10257000E66EFAEF10F0020EF3CFDBFF030EF4CF9E
:10258000DBFF1200B6DC42DC11EF0FF0E8DD82EC7D
:1025900026F033EF0FF003C02FF004C030F005C079
:1025A00031F0120053DC70DC98EF25F0E66E47EC5A
:1025B00033F0E5521200F29E1F0E3CEF0FF05CDC90
:1025C0008FEF0FF050DCE2EF0FF0C9DD2FEF26F0B8
:1025D000800E066E3F0E076E34DE04C0E6FF05C0B7
:1025E000E6FF06C0E6FF07C0E6FF0CC0E6FF0DC031
:1025F000E6FF0EC0E6FFE66E74DFE552E7CF0FF0B0
:10260000E552E7CF0EF0E552E7CF0DF0E552E7CF08
:102610000CF0E552E7CF07F0E552E7CF06F0E552C0
:10262000E7CF05F0E552E7CF04F02DC010F02EC043
:1026300011F02FC012F030C013F084DD91DC82EC79
:1026400026F04EDEE6EF13F02DC0E6FFFEEF13F0AE
:10265000330E336EE20E346EC20E356E420E366E9F
:102660001200DBCF30F06AEF25F02EC004F02FC04F
:1026700005F030C006F031C007F012002EC00CF09B
:102680002FC00DF030C00EF031C00FF026EF0FF06C
:10269000BD0E336E370E346E860E356E410E366EBD
:1026A000BAD82DC00CF02EC00DF02FC00EF030C0E7
:1026B0000FF012002EC014F02FC015F030C016F02D
:1026C00031C017F0120066DC0C0EDBCF0EF00D0EE1
:1026D000DBCF0FF00E0EDBCF10F00F0E25DEECEF90
:1026E00011F044EC0FF082EF26F008C02EF009C084
:1026F0002FF00AC030F00BC031F012002EC010F0E5
:102700002FC011F030C012F031C013F01200060ECD
:10271000DBCFE6FF070E83DE040EDBCFE6FF050E00
:102720000FEF12F069EC0FF050DF4CDF71D898EF2B
:1027300025F026EC0FF04DEC0FF082EF26F0FE0EA8
:10274000DBCFE6FF120082EC0FF02FC0DEFF30C0BF
:10275000DDFFECEF11F0030EE66E9AEC09F0E552A6
:102760001200F70EDBCF2FF0F80E1200C4DE2FECB4
:102770000FF00101010E646F1200E66EE66AE5DEFD
:10278000FAEF10F0FC0EDBCFE6FFFD0E0FEF12F0BC
:102790006FDEF3CFDEFFF4CFDDFF1200DBCF36F0CC
:1027A0002FEC26F033EF0FF0ABDE9ADDD2EF12F014
:1027B000E552E552E5521200E66EEBEF08F0F90E35
:1027C000DBCF2FF0FA0E4DDF70EF11F026EC0FF09B
:1027D0004DEC0FF02FEC26F033EF0FF010C02EF081
:1027E00011C02FF012C030F013C031F099EC25F079
:1027F0003EEF13F0B6DF35DF70EF11F02EC0E6FFCD
:102800002FC0E6FF30C0E6FF120037DE31EF13F0D5
:0E28100014DCFDEF11F082EC26F01EEF27F035
:02281E00DACF0F
:10282000E4FFE2CFDAFFE9CFE4FFEACFE4FFF6CF3F
:10283000E4FFF7CFE4FFF5CFE4FFF3CFE4FFF4CFFD
:10284000E4FFFACFE4FF00EE29F0140EE80403E3FE
:10285000EECFE4FFFBD700EE00F0290EE80403E31F
:10286000EECFE4FFFBD7E652A9EC1FF0030EB6EC67
:102870001FF09EA013D0A0EC1FF001015D2B000EF5
:102880005E23E80E5D5D030E5E5905E35D6B5E6BD6
:102890005F2B000E602315EC2DF09E90DF50F36E41
:1028A000010EDB50F46E030EE15C02E2E16AE552D8
:1028B000BDEC1FF0E55200EE28F0290EE80403E31A
:1028C000E5CFEDFFFBD700EE3CF0140EE80403E388
:1028D000E5CFEDFFFBD7E5CFFAFFE5CFF4FFE5CF7E
:1028E000F3FFE5CFF5FFE5CFF7FFE5CFF6FFE5CF47
:1028F000EAFFE5CFE9FFE5CFDAFF1100D8CFE4FF2B
:10290000E0CFE4FFE46EDACFE4FFE2CFDAFFF3CF0B
:10291000E4FFF4CFE4FFE652A9EC1FF0020EB6ECA0
:102920001FF0DF50F36E010EDB50F46E020EE15C1F
:1029300002E2E16AE552BDEC1FF0E552E5CFF4FF9B
:10294000E5CFF3FFE5CFDAFFE550E5CFE0FFE5CFD8
:10295000D8FF100004D8F8EC1FF062D8FCD70F0E97
:10296000C11202D8C2EF1FF0A9EC1FF0020EE1263F
:1029700077EC1FF00101796F070E795D10E1E66ACF
:1029800047EC33F0E552DF6E000EDF80AEEC1FF057
:10299000E66A28EC34F0E552DF70AEEC1FF0F28E00
:1029A000F28CF30E8C1695160101576B586B596B10
:1029B0005A6B010E5B6F92948094939881980D0EE0
:1029C000E66E7C0EE66EE10EE66EBAEC32F0E55293
:1029D000E552E552C70E921694943F0E9516010EDD
:1029E000E66E99EC04F0E552838C808A82848088BC
:1029F000838E80868294010EE66E63EC34F0E5529D
:102A000082849D80C50EE66EB8EC33F0E552A0ECF2
:102A10001FF0020EE15C02E2E16AE552BDEF1FF039
:102A2000D9CFE6FFE1CFD9FF0F0EE12601015B51BF
:102A300002E0BCEC1EF0200E0101005D03E36D50CE
:102A4000020B12E003EC0FF000090CE0E66A010E45
:102A5000E66E030EE66EBEEC09F0E552E552E55275
:102A6000FFEC0EF0B2EF1EF08150040B03E1815039
:102A7000080B02E02EEC04F0010159515A1102E159
:102A8000000E08D059C1E9FF5AC1EAFFEF50800B90
:102A900001E0010E000947E101014651EA6A260FF3
:102AA000E96E010EEA22EF5000083DE20501406B9D
:102AB00001015C515C2B0501416F0501040E426F61
:102AC00001014651EA6A260FE96E010EEA22EFCFB4
:102AD00043F5400EE66E400EE66E050EE66E010E04
:102AE000E66E010EE66E13EC24F0006E050EE15E5C
:102AF0000050F3CF59F1F4CF5AF101014651EA6A7F
:102B0000260FE96E010EEA22EF6A01014651000824
:102B100003E20101460707D001014551000803E225
:102B200001011F0E466F010159515A1102E1000EB9
:102B300008D059C1E9FF5AC1EAFFEF50800B01E00C
:102B4000010E00092BE103EC0FF0000927E0F5EC82
:102B50000EF0000923E00501406B01015C515C2B84
:102B60000501416F05010A0E426F0501436B050126
:102B7000010E486F400EE66E400EE66E050EE66EE4
:102B8000010EE66E010EE66E13EC24F0006E050EEB
:102B9000E15E0050F3CF59F1F4CF5AF101016151D8
:102BA000020A10E0030A01E021D0030EE66E6CEC8D
:102BB0002EF0E5526BEC08F0000903E00101020E73
:102BC000616F16D0200EE66E030EE66EC80EE66E3E
:102BD000E66AE80EE66E030EE66E30EC0BF0006E71
:102BE000060EE15E00500101616B02D00101616BD4
:102BF00001015751581102E1000E08D057C1E9FFF9
:102C000058C1EAFFEF50800B01E0010E000902E01D
:102C1000B2EF1EF005010251070A02E113EF1EF0A8
:102C20000D0A01E16AD2010A01E12AD20D0A01E18D
:102C3000C2D1040A1AE0030A07E0010A02E071EFB8
:102C40001EF0FF00B2EF1EF0E66A47EC33F0E552EB
:102C5000DF6E000EDB80DFCFE6FFE66A27EC33F0A5
:102C6000E552E552FF00B2EF1EF0010159515A1131
:102C700002E1000E08D059C1E9FF5AC1EAFFEF5046
:102C8000800B01E0010E000901E093D100C540F581
:102C90000501416B0501030E426F0501436B050100
:102CA0000851100A01E138D11F0A01E1FAD0080ADF
:102CB00001E1BCD0010A01E17ED0020A71E0070AFD
:102CC00064E0010A20E0030A06E0010A01E047D1BE
:102CD00079C148F547D10501486B4B0E006E670E70
:102CE000016E026A00C0E6FF01C0E6FF02C0E6FF17
:102CF000480EE66E050EE66E0BEC33F0036E050E25
:102D0000E15E03502FD10501486B3F0E006E670E48
:102D1000016E026A00C0E6FF01C0E6FF02C0E6FFE6
:102D2000480EE66E050EE66E0BEC33F0036E050EF4
:102D3000E15E03503D0E006E670E016E026A00C038
:102D4000E6FF01C0E6FF02C0E6FF480EE66E050E94
:102D5000E66E0BEC33F0036E050EE15E0350340EAD
:102D6000006E670E016E026A00C0E6FF01C0E6FF5A
:102D700002C0E6FF480EE66E050EE66E0BEC33F081
:102D8000036E050EE15E0350EDD092CF48F593CF70
:102D900049F594CF4AF595CF4BF596CF4CF5E2D057
:102DA00080CF48F581CF49F582CF4AF583CF4BF5E7
:102DB00084CF4CF5D7D0010EE66EBBEC2DF0E5527A
:102DC000010E2DC0DBFF020E2EC0DBFF030E2FC055
:102DD000DBFF040E30C0DBFF040EDBCF48F5030E33
:102DE000DBCF49F5020EDBCF4AF5010EDBCF4BF509
:102DF000020EE66EBBEC2DF0E552010E2DC0DBFF9E
:102E0000020E2EC0DBFF030E2FC0DBFF040E30C00E
:102E1000DBFF040EDBCF4CF5030EDBCF4DF5020ECE
:102E2000DBCF4EF5010EDBCF4FF59CD0010EE66EE9
:102E300045EC0AF0E552010E2DC0DBFF020E2EC05C
:102E4000DBFF030E2FC0DBFF040E30C0DBFF040EE0
:102E5000DBCF48F5030EDBCF49F5020EDBCF4AF599
:102E6000010EDBCF4BF5020EE66E45EC0AF0E552A3
:102E7000010E2DC0DBFF020E2EC0DBFF030E2FC0A4
:102E8000DBFF040E30C0DBFF040EDBCF4CF5030E7E
:102E9000DBCF4DF5020EDBCF4EF5010EDBCF4FF54C
:102EA00061D0010EE66E8BEC0AF0E552010E2DC0EA
:102EB000DBFF020E2EC0DBFF030E2FC0DBFF040E74
:102EC00030C0DBFF040EDBCF48F5030EDBCF49F546
:102ED000020EDBCF4AF5010EDBCF4BF5020EE66E9C
:102EE0008BEC0AF0E552010E2DC0DBFF020E2EC066
:102EF000DBFF030E2FC0DBFF040E30C0DBFF040E30
:102F0000DBCF4CF5030EDBCF4DF5020EDBCF4EF5DC
:102F1000010EDBCF4FF526D0010EE66EB4EC0AF0C1
:102F2000E552050EF3CFDBFF060EF4CFDBFF060EF6
:102F3000DBCF48F5050EDBCF49F5020EE66EB4ECAB
:102F40000AF0E552050EF3CFDBFF060EF4CFDBFFF0
:102F5000060EDBCF4AF5050EDBCF4BF503D005019E
:102F6000020E436F400EE66E400EE66E050EE66EF4
:102F7000010EE66E010EE66E13EC24F0006E050EF7
:102F8000E15E0050F3CF59F1F4CF5AF1400EE66EF6
:102F9000000EE66E050EE66EE66A010EE66E13ECB6
:102FA00024F0006E050EE15E0050F3CF57F1F4CF30
:102FB00058F1B2EF1EF005010851030A37E0010A8B
:102FC00025E0030A13E0010A01E040D005010951A0
:102FD000921205010A51931205010B519412050139
:102FE0000C51951205010D51961235D00501091DA0
:102FF000921605010A1D931605010B1D9416050175
:103000000C1D951605010D1D961625D00501091DEF
:10301000891605010A1D8A1605010B1D8B1605016F
:103020000C1D8C1605010D1D8D1615D005010951BD
:10303000891205010A518A1205010B518B120501F3
:103040000C518C1205010D518D1205D0030EE66E48
:10305000F5EC33F0E552400EE66E000EE66E050E1E
:10306000E66EE66A010EE66E13EC24F0006E050EC5
:10307000E15E0050F3CF57F1F4CF58F1B2EF1EF0FC
:1030800005010851020A09E0030A01E01CD009C544
:10309000E6FF6CEC2EF0E5521BD009C5E6FF73ECA1
:1030A0002EF0E55203EC0FF000090CE0E66A010E89
:1030B000E66E030EE66EBEEC09F0E552E552E5520F
:1030C000FFEC0EF005D0010EE66EF5EC33F0E552A4
:1030D000400EE66E000EE66E050EE66EE66A010E26
:1030E000E66E13EC24F0006E050EE15E0050F3CFA7
:1030F00057F1F4CF58F1B2EF1EF005010851060A5E
:1031000002E1D2EF1DF0080A02E192EF1DF0030A7E
:1031100002E18CEF1DF0070A02E12DEF1DF0030A1A
:1031200001E1E8D3010A01E1FAD20F0A01E1E3D299
:10313000020A01E19BD2150A01E15FD2140A01E102
:1031400031D2070A01E103D2010A01E1D5D1030A14
:1031500001E1A7D1010A01E1A1D10C0A01E127D1C6
:10316000030A01E195D0040A02E0FAEF1DF005011F
:10317000090504E0030E0501095D40E10AC5E6FF0B
:10318000010EE66E27EC33F0E552E5520BC5E6FF83
:10319000020EE66E27EC33F0E552E5520CC5E6FF71
:1031A000030EE66E27EC33F0E552E5520DC5E6FF5F
:1031B000040EE66E27EC33F0E552E5520EC5E6FF4D
:1031C000050EE66E27EC33F0E552E5520FC5E6FF3B
:1031D000060EE66E27EC33F0E552E55210C5E6FF29
:1031E000070EE66E27EC33F0E552E55211C5E6FF17
:1031F000080EE66E27EC33F0E552E552020E0501AB
:10320000095D04E0030E0501095D40E10AC5E6FF22
:10321000090EE66E27EC33F0E552E5520BC5E6FFEA
:103220000A0EE66E27EC33F0E552E5520CC5E6FFD8
:103230000B0EE66E27EC33F0E552E5520DC5E6FFC6
:103240000C0EE66E27EC33F0E552E5520EC5E6FFB4
:103250000D0EE66E27EC33F0E552E5520FC5E6FFA2
:103260000E0EE66E27EC33F0E552E55210C5E6FF90
:103270000F0EE66E27EC33F0E552E55211C5E6FF7E
:10328000100EE66E27EC33F0E552E552FFEF1DF02D
:1032900000C540F50501416B0501030E426F0501B4
:1032A000436B010EE66E47EC33F0E5520501486FC3
:1032B000020EE66E47EC33F0E5520501496F030E4E
:1032C000E66E47EC33F0E55205014A6F040EE66EF8
:1032D00047EC33F0E55205014B6F050EE66E47EC07
:1032E00033F0E55205014C6F060EE66E47EC33F005
:1032F000E55205014D6F070EE66E47EC33F0E552DF
:1033000005014E6F080EE66E47EC33F0E5520501FD
:103310004F6F090EE66E47EC33F0E5520501506F32
:103320000A0EE66E47EC33F0E5520501516F0B0EC5
:10333000E66E47EC33F0E5520501526F0C0EE66E77
:1033400047EC33F0E5520501536F0D0EE66E47EC86
:1033500033F0E5520501546F0E0EE66E47EC33F084
:10336000E5520501556F0F0EE66E47EC33F0E5525E
:103370000501566F100EE66E47EC33F0E55205017D
:10338000576F400EE66E400EE66E050EE66E010EBD
:10339000E66E010EE66E13EC24F0006E050EE15EA3
:1033A0000050F3CF59F1F4CF5AF1FFEF1DF0E66A68
:1033B000010EE66E27EC33F0E552E552010EE66EA3
:1033C000020EE66E27EC33F0E552E552E66A030E94
:1033D000E66E27EC33F0E552E552E66A040EE66E3F
:1033E00027EC33F0E552E552E66A050EE66E27EC6F
:1033F00033F0E552E552E66A060EE66E27EC33F04E
:10340000E552E552030EE66E070EE66E27EC33F04A
:10341000E552E552E80EE66E080EE66E27EC33F054
:10342000E552E552E66A090EE66E27EC33F0E55206
:10343000E552010EE66E0A0EE66E27EC33F0E55219
:10344000E552E66A0B0EE66E27EC33F0E552E552E4
:10345000E66A0C0EE66E27EC33F0E552E552E66ABA
:103460000D0EE66E27EC33F0E552E552E66A0E0EDD
:10347000E66E27EC33F0E552E552030EE66E0F0ED2
:10348000E66E27EC33F0E552E552E80EE66E100EDC
:10349000E66E27EC33F0E552E552B1D36BEC08F061
:1034A000AED3060E09C5DBFF050E0AC5DBFF080E0D
:1034B0000BC5DBFF070E0CC5DBFF0A0E0DC5DBFFDE
:1034C000090E0EC5DBFF090EDBCFE6FF0A0EDBCFD0
:1034D000E6FF070EDBCFE6FF080EDBCFE6FF050EAB
:1034E000DBCFE6FF060EDBCFE6FF30EC0BF0006E25
:1034F000060EE15E005083D3060E09C5DBFF050E04
:103500000AC5DBFF080E0BC5DBFF070E0CC5DBFF92
:103510000A0E0DC5DBFF090E0EC5DBFF090EDBCF62
:10352000E6FF0A0EDBCFE6FF070EDBCFE6FF080E55
:10353000DBCFE6FF050EDBCFE6FF060EDBCFE6FFB7
:1035400039EC0BF0006E060EE15E005058D3060E0B
:1035500009C5DBFF050E0AC5DBFF080E0BC5DBFF47
:10356000070E0CC5DBFF0A0E0DC5DBFF090E0EC5ED
:10357000DBFF090EDBCFE6FF0A0EDBCFE6FF070E0F
:10358000DBCFE6FF080EDBCFE6FF050EDBCFE6FF65
:10359000060EDBCFE6FF42EC0BF0006E060EE15E9E
:1035A00000502DD3060E09C5DBFF050E0AC5DBFF53
:1035B000080E0BC5DBFF070E0CC5DBFF0A0E0DC5A1
:1035C000DBFF090E0EC5DBFF090EDBCFE6FF0A0E9F
:1035D000DBCFE6FF070EDBCFE6FF080EDBCFE6FF13
:1035E000050EDBCFE6FF060EDBCFE6FF53EC0BF05C
:1035F000006E060EE15E005002D3060E09C5DBFF29
:10360000050E0AC5DBFF080E0BC5DBFF070E0CC558
:10361000DBFF0A0E0DC5DBFF090E0EC5DBFF0C0E2E
:103620000FC5DBFF0B0E10C5DBFF11C5E6FF0B0E50
:10363000DBCFE6FF0C0EDBCFE6FF090EDBCFE6FFAC
:103640000A0EDBCFE6FF070EDBCFE6FF080EDBCF6F
:10365000E6FF050EDBCFE6FF060EDBCFE6FF62ECF2
:103660000BF0006E090EE15E0050C9D2060E09C5CE
:10367000DBFF050E0AC5DBFF080E0BC5DBFF070EDF
:103680000CC5DBFF0A0E0DC5DBFF090E0EC5DBFF07
:103690000C0E0FC5DBFF0B0E10C5DBFF0E0E12C5A7
:1036A000DBFF0D0E13C5DBFF0D0EDBCFE6FF0E0EAD
:1036B000DBCFE6FF11C5E6FF0B0EDBCFE6FF0C0EFE
:1036C000DBCFE6FF090EDBCFE6FF0A0EDBCFE6FF1E
:1036D000070EDBCFE6FF080EDBCFE6FF050EDBCFE4
:1036E000E6FF060EDBCFE6FFC0EC0CF0006E0B0E23
:1036F000E15E005084D2060E0AC5DBFF050E0BC545
:10370000DBFF050EDBCFE6FF060EDBCFE6FF09C5CC
:10371000E6FFBEEC09F0E552E552E55270D2060E26
:103720000AC5DBFF050E0BC5DBFF080E0CC5DBFF72
:10373000070E0DC5DBFF0A0E0EC5DBFF090E0FC518
:10374000DBFF090EDBCF2FF00A0EDBCF30F068EC89
:1037500025F02EC008F02FC009F030C00AF031C0AB
:103760000BF0330E336EE20E346EC20E356E420E27
:10377000366E08C02EF009C02FF00AC030F00BC022
:1037800031F082EC26F02EC004F02FC005F030C0DE
:1037900006F031C007F0CC0E336EBC0E346E8C0ECA
:1037A000356E3B0E366E04C02EF005C02FF006C0FD
:1037B00030F007C031F082EC26F01EEC27F02DC06F
:1037C00000F02EC001F02FC002F030C003F000C0A6
:1037D000E6FF01C0E6FF02C0E6FF03C0E6FF070EFA
:1037E000DBCF2FF0080EDBCF30F068EC25F02EC0D9
:1037F00014F02FC015F030C016F031C017F0330EA2
:10380000336EE20E346EC20E356E420E366E14C04A
:103810002EF015C02FF016C030F017C031F082EC3A
:1038200026F02EC010F02FC011F030C012F031C0C1
:1038300013F0BD0E336E370E346E860E356E410EAC
:10384000366E10C02EF011C02FF012C030F013C031
:1038500031F082EC26F01EEC27F02DC00CF02EC0CB
:103860000DF02FC00EF030C00FF00CC0E6FF0DC001
:10387000E6FF0EC0E6FF0FC0E6FF050EDBCF2FF020
:10388000060EDBCF30F068EC25F02EC01CF02FC008
:103890001DF030C01EF031C01FF0330E336EE20E4B
:1038A000346EC20E356E420E366E1CC02EF01DC038
:1038B0002FF01EC030F01FC031F082EC26F01EEC5D
:1038C00027F02DC018F02EC019F02FC01AF030C00C
:1038D0001BF018C0E6FF19C0E6FF1AC0E6FF1BC0C8
:1038E000E6FF09C5E6FFEBEC08F0206E0D0EE15E89
:1038F000205085D1060E0AC5DBFF050E0BC5DBFF88
:10390000080E0CC5DBFF070E0DC5DBFF0EC5E6FF7D
:10391000070EDBCF2FF0080EDBCF30F068EC25F080
:103920002EC008F02FC009F030C00AF031C00BF0F3
:10393000330E336EE20E346EC20E356E420E366EAC
:1039400008C02EF009C02FF00AC030F00BC031F0D3
:1039500082EC26F02EC004F02FC005F030C006F037
:1039600031C007F0CC0E336EBC0E346E8C0E356E4B
:103970003B0E366E04C02EF005C02FF006C030F0AE
:1039800007C031F082EC26F01EEC27F02DC000F0CD
:103990002EC001F02FC002F030C003F000C0E6FFDF
:1039A00001C0E6FF02C0E6FF03C0E6FF050EDBCF65
:1039B0002FF0060EDBCF30F068EC25F02EC014F0AF
:1039C0002FC015F030C016F031C017F0330E336E33
:1039D000E20E346EC20E356E420E366E14C02EF0FC
:1039E00015C02FF016C030F017C031F082EC26F071
:1039F0002EC010F02FC011F030C012F031C013F003
:103A0000BD0E336E370E346E860E356E410E366E39
:103A100010C02EF011C02FF012C030F013C031F0E2
:103A200082EC26F01EEC27F02DC00CF02EC00DF01D
:103A30002FC00EF030C00FF00CC0E6FF0DC0E6FF47
:103A40000EC0E6FF0FC0E6FF09C5E6FF39EC09F03E
:103A5000186E0A0EE15E1850D2D0060E0AC5DBFFC2
:103A6000050E0BC5DBFF0CC5E6FF050EDBCF2FF007
:103A7000060EDBCF30F068EC25F02EC008F02FC02A
:103A800009F030C00AF031C00BF0330E336EE20E95
:103A9000346EC20E356E420E366E08C02EF009C06E
:103AA0002FF00AC030F00BC031F082EC26F02EC0AF
:103AB00004F02FC005F030C006F031C007F0BD0E95
:103AC000336E370E346E860E356E410E366E04C080
:103AD0002EF005C02FF006C030F007C031F082ECA8
:103AE00026F01EEC27F02DC000F02EC001F02FC0F4
:103AF00002F030C003F000C0E6FF01C0E6FF02C0E4
:103B0000E6FF03C0E6FF09C5E6FF82EC09F00C6E94
:103B1000060EE15E0C5073D009C5E6FF9AEC09F081
:103B2000E5526DD000C540F50501416B0501030E5E
:103B3000426F0501436B010EE66EE3EC0AF0E552BD
:103B4000050EF3CFDBFF060EF4CFDBFF060EDBCF57
:103B500048F5050EDBCF49F5020EE66EE3EC0AF000
:103B6000E552050EF3CFDBFF060EF4CFDBFF080EA8
:103B7000DBCF4AF5070EDBCF4BF5400EE66E400E6D
:103B8000E66E050EE66E010EE66E010EE66E13ECB5
:103B900024F0006E050EE15E0050F3CF59F1F4CF32
:103BA0005AF12DD000C540F50501416B0501030E0A
:103BB000426F0501436BF5EC0EF0000904E00501CE
:103BC000010E486F02D00501486B400EE66E400EB4
:103BD000E66E050EE66E010EE66E010EE66E13EC65
:103BE00024F0006E050EE15E0050F3CF59F1F4CFE2
:103BF0005AF105D0010EE66EF5EC33F0E552400EB9
:103C0000E66E000EE66E050EE66EE66A010EE66EE4
:103C100013EC24F0006E050EE15E0050F3CF57F177
:103C2000F4CF58F19FD0010159515A1102E1000E11
:103C300008D059C1E9FF5AC1EAFFEF50800B01E0FB
:103C4000010E00094DE10101010E616F0501406B9C
:103C500001015C515C2B0501416F0501050E426FAE
:103C60000501436B0501486B200E006E670E016E67
:103C7000026A00C0E6FF01C0E6FF02C0E6FF480E90
:103C8000E66E050EE66E0BEC33F0036E050EE15E9C
:103C90000350400EE66E400EE66E050EE66E010E17
:103CA000E66E010EE66E13EC24F0006E050EE15E8A
:103CB0000050F3CF59F1F4CF5AF1400EE66E000EEA
:103CC000E66E050EE66EE66A010EE66E13EC24F073
:103CD000006E050EE15E0050F3CF57F1F4CF58F1BE
:103CE00041D0010159515A1102E1000E08D059C1C9
:103CF000E9FF5AC1EAFFEF50800B01E0010E000915
:103D000031E100C540F50501416B0501030E426F2D
:103D10000501010E436F400EE66E400EE66E050E85
:103D2000E66E010EE66E010EE66E13EC24F0006EF8
:103D3000050EE15E0050F3CF59F1F4CF5AF1400E79
:103D4000E66E000EE66E050EE66EE66A010EE66EA3
:103D500013EC24F0006E050EE15E0050F3CF57F136
:103D6000F4CF58F10F0EE15C02E2E16AE552E16E38
:103D7000E552E7CFD9FF120001016251631104E15E
:103D8000100E626F270E636F6207000E635B6DA2F9
:103D900007D0625163112EE18C748CB413D027D0FC
:103DA0000101005102E18C9422D0000502E18C84D3
:103DB00009D0020E005D02E18C8419D0040E005D72
:103DC00003E18C948C861200100E005D06E1010167
:103DD000625163110FE18C740AD0200E005D0AE17C
:103DE00001016251631106E18C748CA402D08C969F
:103DF00012008C8612001200120012001200ABEFAB
:103E000031F012001E0EE66E010EE66EE1EC23F0BC
:103E1000E552E552400EE66E000EE66E050EE66EC9
:103E2000E66A010EE66E13EC24F0006E050EE15E0C
:103E30000050F3CF57F1F4CF58F112006D84010117
:103E4000080E7A6F070E7B6F7A07000E7B5B7A5144
:103E50007B11FAE16D941200D9CFE6FFE1CFD9FFD3
:103E6000FD0EDBCF2FF0FE0EDBCF30F0010E2F1852
:103E700001E1305033E0E8682F1802E1E8683018BB
:103E80002BE0030E2F1801E1305024E0040E2F1810
:103E900001E130501DE0020E2F1801E1305016E014
:103EA000170E2F1801E130500FE0160E2F1801E108
:103EB000305008E0150E2F1801E1305001E010D00D
:103EC000A1DF0FD09EDF0DD09ADF0BD096DF09D097
:103ED00092DF07D091DF05D091DF03D0000001D041
:103EE00000D0010E00D0E552E7CFD9FF120031D843
:103EF000E652D0B202D0010E15D0D0B802D0020ED8
:103F000011D0D0B002D0030E0DD0D0B602D0040E26
:103F100009D0FCAE02D0050E05D0FCAC02D0060ED6
:103F200001D0070EDF6ED088D086D084D082D080BA
:103F3000FC9EFC9CDF50E552E552E7CFD9FF120012
:103F4000C00EE66EE00EE66ED9EC33F0E552E552B7
:103F50001200D9CFE6FFE1CFD9FF1200DFCFE6FF95
:103F6000E66A27EC33F0E552E5521200E126F35001
:103F7000DF6E010EF4CFDBFF1200E16EE552E7CFFA
:043F8000D9FF120053
:0C3F8400BAEC24F06A6A686AEDEC24F0E4
:103F90006D8C6E6A9DEC24F06D9CDF6ACEEC24F093
:103FA00010E2DF50040DF3CFE9FFF4CFEAFF000E7B
:103FB000E926040EEA22EE6AEE6AEE6AEE6ADF2A6B
:103FC000EDD7160E706E68A604D0030E63EC24F0D5
:103FD000FAD70101136B186B196B1A6B6D98080EE9
:103FE0000B6F040E0C6F016B006BE55278EF24F041
:103FF000BAEC24F0010100510BE16D6A696AEDEC45
:1040000024F06DB602D06D86FCD70101010E006F61
:10401000000508E16DBA06D0686A696A6980698836
:10402000020E006F6850040B07E06950040B04E0B7
:10403000020E63EC24F089D86DB247D06850010BB2
:1040400014E06950010B11E09DDF0101040E006FC7
:104050000401200E026F040E036F080E016F006B47
:104060008C0E0013E66A2CEC25F06850100B07E06C
:104070006950100B04E060D8040E63EC24F0685023
:10408000400B0BE06950400B08E0F4EC24F0020E0A
:104090006BEC24F0060E63EC24F06850200B04E077
:1040A0006950200B01E035D86850020B0AE06950D6
:1040B000020B07E0F4EC24F0E668E6684CEC25F02F
:1040C0006A6A040E0101005D02E2A19A1FD069A68E
:1040D0001CD0DF6A040EDF5C18E268A616D06CCF35
:1040E00020F1030E63EC24F0780E0101201502E1AB
:1040F00038D809D0000EE66EE66A200EE66E010E94
:10410000E66E010EE8DBDF2AE5D7A19AE55278EFEB
:1041100024F070A00ED086EC24F0EF50800808E167
:10412000D5DBEF50840804E186EC24F08C0EEF6EB2
:104130007090050E63EF24F06984040EC4DB6D8279
:10414000A6EC24F0040E6BEF24F0A6EC24F0030E92
:10415000C2DB6D92699468A403D0020EB4DBFBD776
:104160001200BAEC24F0FD0E010120153DE17E0E97
:104170002015E8407F0B040DF3CF03F1F4CF04F1D9
:10418000000E0327040E042303C105F104C106F148
:104190000575BCDBEF503C0BE842E8420D0822E11C
:1041A000B5DB23EC25F0EECF00F0EFCF01F0280EC9
:1041B000001816E1040E011813E15DEC25F0DF6A2A
:1041C000EDDB0EE2DF50D6EC24F0DF50EA6A200F80
:1041D000E96E040EEA22E552E750EF6EDF2AF0D7CF
:1041E0000AD807D01AD805D0FD0E2015040801E121
:1041F00022D8E5527DD36ADBEF50800B02E066DB0C
:10420000EF6A01010F6B106B146B156B136B64D8A5
:104210009DDB170E60DBA1EF22F0020E0101105DA5
:1042200002E12EEF23F034D80101215102E128EF01
:1042300025F0216B12009EDB49DBEF50400B01E0C3
:10424000010EDF6E01010B75080E005D09E122C44D
:104250006EFF6E50000802E2100E01D0040E006FD7
:10426000100513E161EC25F0A6D9020E01010F5DE6
:1042700003E12CDB840E07D0DF5003E127DBC80EFF
:1042800002D024DB880EEF6E01D002D8E55230D385
:104290002BDB0101106B1ADBEF6A040E0B19006EA9
:1042A0000CC101F0DE6E0CC1DDFF19DBEF6A18AF47
:1042B0000CD01B511C1107E005D01CC1FAFF0101F5
:1042C0001B51F96EFADF0101189F020EE15C02E258
:1042D000E16AE552E16E0CD304012051600BE84223
:1042E000E842E842E842E842000901E012002151B8
:1042F0000C0A45E00B0A3FE00C0A31E0010A22E01B
:104300000B0A1EE0020A1CE0030A18E0080A10E08B
:10431000010A0CE00F0A08E0030A01E012000101A3
:10432000138F080E006F120021EF22F08AEF23F0A6
:104330000101010E116F010E126F0CD062EF22F01D
:10434000C0EF21F024510101116F126B020E1127F1
:10435000010E12231381010E146F138F120001013D
:10436000138F04012451EA6A020FE96E010EEA225A
:1043700022C4EFFF1200EADA160E6BEF24F01200EF
:104380007EDB040EE1260401220510E120511F0B03
:1043900000090CE10101138F030E0401215D04E10A
:1043A0000101010E1F6F02D001011F6B0401225198
:1043B00041E120511F0B02083DE124510F0B000980
:1043C00039E00101138F040124BF05D0A4DA070EE0
:1043D000E926010E04D09FDA0B0EE926010ED2DA8F
:1043E000030E215D03E17BDA840E23D024510F0BF1
:1043F000016A700F006E0F0E0122020E00C0DBFF7B
:10440000030E01C0DBFF020EDBCFE9FF030EDBCFA3
:10441000EAFFEE90ED5224AF06D061DAEF6ADF7466
:104420005EDA400E06D05BDA880EEF6EDF7457DA84
:10443000C80EEF6E040EE15C02E2E16AE552E16E45
:1044400057D2800E0401205D3CE10101C00E136FC4
:1044500004012351030A1EE0010A09E0030A2FE1C7
:104460000101240E116F640E126F120E22D0C3DAF6
:10447000CE0EF626640EA2DA020E0101F76A1125AD
:10448000F66E1251F7220900F5CF14F10A00F5CFAC
:1044900015F11200030E225D0FE2ADDAD00EF62602
:1044A000640E8CDA11C1F6FF12C1F7FF0800F55057
:1044B0000101146F156B12000101136B1200010151
:1044C000136B120011DA0401286B296B20511F0BAA
:1044D000020A11E0030A0CE0010A22E10101138F34
:1044E0000401288101011F051BE10401288318D064
:1044F0000101138F15D00101138F040124BF05D0D2
:104500000ADA070EE926010E04D005DA0B0EE926B9
:10451000010E38DAE4D9EF50040B02E0010E286FE7
:10452000010113AF07D0280E116F040E126F138113
:10453000020E146F020EE15C02E2E16AE552E16EE6
:10454000D7D16D98010113BF08D018AF02D061DA3E
:104550002AD07EDABBD9840E27D018BF2BD0040115
:1045600020AF24D0010114510401265D0101155131
:104570000401275904E226C414F127C415F11BD8FD
:104580000101010E106FA1DA800EEF6E216BBED912
:10459000EE52080EEF6E91DAB9D9840EEF6E010E6D
:1045A000216F8FDA93D9C80EEF6E1200010131DA54
:1045B000C80EEF6E120098D90101080E145D000EAE
:1045C00015590DE214C1DEFF15C1DDFF0F5102E1E7
:1045D000010E03D00F0506E1020E0F6F03D0080E87
:1045E000DE6EDD6A73D9EF9271D9EF906FD9010E4B
:1045F000DB50EF126BD9EE52DFCFEFFF000EDB5036
:10460000145F010EDB50155B280E1D6F040E1E6F2C
:1046100013B10FD0F7D91BE011C1F6FF12C1F7FF9C
:10462000112B000E12230800F55096D9F3E2DB0699
:10463000F1D7E8D90CE011C1E9FF12C1EAFF112B53
:10464000000E1223EF5088D9F4E2DB06F2D7020EF7
:10465000E15C02E2E16AE552E16E4AD145D956D900
:10466000EE52EFCFDFFFDFCF00F000500101195D08
:10467000000E1A5903E219C1DFFF09D0DF50006EA6
:10468000016AE850195D196F01501A591A6F010E2D
:10469000DB6ADF50F36E010EDBCFF4FFF350F45C06
:1046A00010E2010EDB5082D916C1E9FF17C1EAFF03
:1046B000162B000E1723E552E750EF6E010EDB2A92
:1046C000E8D7000ED8801955000E1A550DE2F4D81F
:1046D00054D91CD9EF50400B03E1EAD9C80E02D0DF
:1046E000E7D9880EEF6E0FD0F0D9840EEF6E1B5114
:1046F0001C1107E005D01CC1FAFF01011B51F96E26
:10470000FADF0101189F020EE15C02E2E16AE55264
:10471000E16EEED00101138F10D9010EE66EE66A4C
:10472000E66A020EE66E010EAFD922C401F1040161
:10473000225104E10101100E006F12000101200E50
:10474000006F04D9150E6BEF24F0CED8000EDE6E8C
:10475000040EDD6EE8D8040DF350006E016A020EFF
:104760000F0B05E0D89001320032E806FBE1D8904B
:1047700000360136D89000360136D9CFE9FFDACFBE
:10478000EAFF0050EE260150ED22A9D8EF9EFD0E63
:10479000DB5002E16AD901D06DD9EA22DECFEEFF0B
:1047A000DDCFEDFF9CD8EF9C9AD8040EE926000ED1
:1047B000EA22EF8C020EE15C02E2E16AE552E16E70
:1047C00097D092D8FE0EDB50016A700F006E0F0E6C
:1047D000DFD885D8FD0EDBCFEFFFDBA402D0E66A81
:1047E000F5D8FD0EDBA203D0010EE66EEFD8020E67
:1047F000E15C02E2E16AE552E16E7AD075D8FE0E24
:10480000DB5005E125D962D8840EEF6E05D08BD838
:104810000CD989D8010F09D9020EE15C02E2E16AE4
:10482000E552E16E65D060D8FD0EDB5002E022D982
:1048300001D01BD9A7D853D806D9FB0EDBCFEEFF8A
:10484000FC0EDBCFEDFF4BD8EE52FA0EDBCFEFFFC5
:10485000400E45D8E850EF16880E41D8E850EF12C8
:10486000FD0EDB5002E006D901D0FFD8EA22EF743A
:10487000DECF00F0DDCF01F000C0F3FF01C0F4FF98
:10488000020EE15C02E2E16AE552E16E31D0F7D856
:10489000010EF36EFC0EDB5004E0D890F336E80610
:1048A000FCE1F31C006EFD0EDBCFE9FFFE0EDBCF5B
:1048B000EAFF0050EF161CD0FBD8EE52080EEF6E48
:1048C000F7D823EF25F0E66E2CEF25F00BC1E9FFBA
:1048D0000CC1EAFF1200E66EE66A4CEF25F0DECF6F
:1048E000E9FFDDCFEAFF1200CAD8020EE12612006E
:1048F000E552E7CFD9FF1200D6D858EF25F0FE0ECB
:10490000EA6ADB34FE0BEA36E96E120003C1E9FF06
:1049100004C1EAFF120024510F0BE96EEA6AD89035
:10492000E936EA361200FD0EDB50E824026EFE0E78
:10493000DB50040DF35002241200000EE66EE66A0E
:10494000E66A710EE66E0F0E44EF25F0000EE66E7D
:10495000E66AE66EE66A1200E66E1DC1E9FF1EC158
:10496000EAFF1D2B000E1E23E552E750EF6EDF0617
:10497000010E120084D8E6521200280EEE6E040ECC
:10498000ED6E1200EA22EECFDEFFEDCFDDFF12006A
:10499000012200C0DEFF01C0DDFF1200DF50006E0B
:1049A000016A080E005C000E01581200EA6A280F26
:1049B000E96E040EEA22EF50E66E1200F7220900BB
:1049C000F5CF11F10A00F5CF12F11200FE0EDBCF88
:1049D000E6FFBBDEE552E5521200160E6F6E9F0E2B
:1049E0006B6E7B0E696E1200010EE66EE66A000EBB
:1049F000E66EE66A12002251F66EF76AD890F63635
:104A0000F7361200D9CFE9FFDACFEAFFEE50ED100A
:104A10001200020E106F5ADFEE52EF6A57DFC80E17
:104A2000EF6E4ADFAADF58EF25F0040DF3CF00F058
:104A3000F4CF01F0000E0026040EAADF840E4FDF33
:104A4000E850EF121200020EE926000EEA221200D0
:104A50003CD88C0EEF6E1200680EE66E0F0EE66EFE
:104A600016DFE552E552E552120049DF070EE9264E
:104A7000010E120044DF0B0EE926010E1200D9CF01
:104A8000E6FFE1CFD9FF1200E66EF1EC32F0006EE6
:104A9000050EE15E005012002CEC1FF0006E060EB9
:104AA000E15E00501200200EEE6E040EED6E12005C
:104AB00005C1E9FF06C1EAFF120028DFC4DF53EF9A
:104AC00025F004DFC0DFBDEF24F0F6DE7CEF24F03C
:104AD000389E08D0389E30AE05D02F6C301EE86A64
:104AE0003022388E30C02AF02FC029F03C6A3B6A51
:104AF0008E0E2B6E2C6ACFEF27F0389E0CD0389E8E
:104B000030AE09D02D6C2E1E2F1E301EE86A2E22CC
:104B10002F223022388E30C02AF02FC029F02EC02C
:104B20003CF02DC03BF09E0E2B6E2C6ACFEF27F091
:104B3000367E386A0BEC28F023EC28F038B6B3EF59
:104B400027F038A20AD038AA03D038BEB3EF27F036
:104B500038A4BFEF27F0BCEF27F038AA05D038AC57
:104B6000BFEF27F0BCEF27F038A00AD038A808D054
:104B700038BE04D038A402D0C8EF27F0CCEF27F01D
:104B80003B6A2C6A3650315C3A6E10E32EC03CF022
:104B90002FC029F030C02AF031C039F033C02EF0D8
:104BA00034C02FF035C030F0383A09D033C03CF073
:104BB00034C029F035C02AF036C039F03A6C389E3E
:104BC00038BC388E39C02BF038B0FBEF27F01A0E06
:104BD0003A60FBEF27F02B6A316A38A408D02E6CBC
:104BE0002F1E301E311EE86A2F223022312238ACAF
:104BF00008D03C6C291E2A1E2B1EE86A29222A2274
:104C00002B222D6A3A5207E0313430322F322E32C5
:104C10002D323A2EF9D72E503C262F5029223050D3
:104C20002A2231502B222DC03BF0389E2BAE0BD0C8
:104C30003B6C3C1E291E2A1E2B1EE86A3C222922A0
:104C40002A222B22388E2BA006D0D8802A32293255
:104C50003C323B32392A39C02BF0CFEF27F0386A8B
:104C60000BEC28F023EC28F038B6B3EF27F038A28D
:104C700005D038BAB3EF27F0BAEF27F038BAC6EF4D
:104C800027F038A005D038B8B3EF27F0C6EF27F0EB
:104C900038B8BAEF27F02C6A7F0E31242B6EE86A01
:104CA0002C2236502B5EE86A2C5A1A0E396E316A65
:104CB0003B6A3C6A296A2A6A33502E5E34502F5A66
:104CC0003550305A000E315A09E733502E263450F1
:104CD0002F2235503022000E312201D03B8AD8904D
:104CE0002E362F3630363136D8903B363C36293684
:104CF0002A36392EE1D730502F102E10D8A43B8AF7
:104D0000CFEF27F0386A0BEC28F023EC28F038B608
:104D1000B3EF27F038A205D038B8B3EF27F0BAEFD9
:104D200027F038AA05D038B0B3EF27F0BAEF27F054
:104D300038B002D038A802D0C6EF27F02C6A36501F
:104D400031242B6EE86A2C227E0E2B5EE86A2C5AE8
:104D50003B6A3C6A296A2A6A35503002F4CF2AF04D
:104D6000F3CF29F034503002F3503C26F45029227E
:104D7000000E2A2235502F02F3503C26F4502922EF
:104D8000000E2A2233503002F3503B26F4503C22CE
:104D9000000E29222A2234502F02F3503B26F450D1
:104DA0003C22000E29222A2235502E02F3503B26A7
:104DB000F4503C22000E29222A2233502F02F450B4
:104DC0003B26000E3C2229222A2234502E02F45087
:104DD0003B26000E3C2229222A22CFEF27F0386AF8
:104DE0000BEC28F038B6F9EF26F038A20ED038B424
:104DF00005D07F0E306EFF0E2F6E1FD0800E306EEE
:104E00002F6A1BD0306A2F6A18D038B0FBD78F0EAC
:104E10003160EDD77E0E3164F5D78E0E315C05E042
:104E2000D89030322F32312AF8D738A406D02F6CE0
:104E3000301EE86A302230AEE5D71200386A0BEC3B
:104E400028F038B628EF27F038A20FD038B407D0B2
:104E50007F0E306EFF0E2F6E2E6E2D6E25D0800EC3
:104E6000306E01D0306A000EF6D738B0FBD72D6A0D
:104E70009F0E3160EBD77E0E3164F4D79E0E315C0D
:104E800007E0D89030322F322E322D32312AF6D729
:104E900038A40AD02D6C2E1E2F1E301EE86A2E223A
:104EA0002F22302230AEDED712005EEC27F038B66B
:104EB000000C38B0000C38A4000C010C386A0BEC64
:104EC00028F023EC28F038B6120038AE08D038A00D
:104ED00004D038A802D03880120038901200365022
:104EE000315C0BE13550305C08E134502F5C05E15A
:104EF00033502E5C02E138801200D8A002D0388EE8
:104F000010D0315036C031F0366E305035C030F0F0
:104F1000356E2F5034C02FF0346E2E5033C02EF02B
:104F2000336E3650315C10E0FF0F09E0389038B432
:104F300003D038AE3884120038AE38941200362AC6
:104F4000D89035323432333233502E5E34502F5AAB
:104F50003550305A30BEEAD7D8902E362F363036FC
:104F6000312EF8D7C8D77F0E316EFF0E306E2F6E00
:104F70002E6E12007F0E38BEFF0E316E02D07F0EF5
:104F8000316E800E306E2F6A2E6AF3D738AE04D0A1
:104F9000800E316E306AF7D7316A306AF4D72A5002
:104FA00029103C103B10F8E02CBEF0D72ABE0CD0E4
:104FB0002B502C10EBE0D8903B363C3629362A3665
:104FC0002B06D8A02C06F2D72C50D4E12B28D2E007
:104FD0003BAE11D07F0E3B1402E13CA00CD03C2A2A
:104FE000E86A29222A2207E3D8802A3229323C3271
:104FF0002B2A2B28BFE02B50C9E03CC02EF029C043
:105000002FF02A34306E2B30316E3032319E38BE64
:10501000318EB9EF27F03036313602E33884387EEE
:1050200006E13880316A306A2F6A2E6A1200312810
:1050300003E0D88030321200D890303202E138825A
:105040001200388612003536363602E3388C387E48
:1050500006E13888366A356A346A336A12003628BF
:1050600003E0D88035321200D8903532EAE1388A30
:1050700012005EEC27F038B6000C38B0000C38B4E3
:10508000000C010C376A35AE4BEF28F0346C351E3E
:10509000E86A3522371E30AE53EF28F02F6C301EF1
:1050A000E86A3022371E3FEC34F030BE63EF28F060
:1050B00037AE000C2F6C301EE86A30222B6C2C1E91
:1050C000E86A2C22000C37BE5AEF28F03888FF0C13
:1050D000D9CFE6FFDACFE6FFE1CFD9FFE2CFDAFFA3
:1050E0001D0EE12402E3E168E652E16E67DAFA0E92
:1050F000DBCFEEFFFB0EDBCFEEFFFC0EDBCFEEFFD8
:10510000FD0EDBCFEEFFD950040FE66E000EDA2065
:10511000E66E0BDA90EC30F0006E060EE15C02E217
:10512000E16AE552E16E0050E76E0B0EE7CFDBFF60
:10513000DB50800807E10A0EDB6ADE68DE68DE68A5
:105140007F0E13D00B0EDB0405E1DE6ADE6ADE6A39
:10515000DD6AA6D10B0EDB50040809E1DB0EDE6E22
:105160000F0EDE6EC90EDE6E3F0EDD6E99D1DDD9FB
:105170001EDA2DC0DEFF2EC0DEFF2FC0DEFF30C0E6
:10518000DDFFDD52DD52DBD90DDA3F0E20DA23E1FF
:105190002E6A2F6A800E306E3F0E316EDECF33F0F6
:1051A000DECF34F0DECF35F0DDCF36F0DD52DD522C
:1051B0002FEC26F02EC0DFFF010E2FC0DBFF020E0A
:1051C00030C0DBFF030E31C0DBFF020EF36E0C0EAE
:1051D000F3CFDBFF02D00C0EDB6AB1D9A30E336E26
:1051E000300E346E890E356E3E0EF1D96CE1AF0E85
:1051F0002E6E670E2F6E3B0E306E3F0E316EB2D9A3
:105200002EC008F02FC009F030C00AF031C00BF0FA
:10521000C9D93F0E366E98EC25F02EC004F02FC091
:1052200005F030C006F031C007F0C8D9EECF0CF061
:10523000EECF0DF0EECF0EF0EFCF0FF00CC033F04D
:105240000DC034F00EC035F00FC036F099EC25F0EB
:1052500080D9D70E146EB30E156EDD0E166E3F0E8E
:10526000176EACD9EECF18F0EECF19F0EECF1AF0E2
:10527000EFCF1BF018C033F019C034F01AC035F06E
:105280001BC036F014C02EF015C02FF016C030F041
:10529000316E99EC25F02EC010F02FC011F030C007
:1052A00012F031C013F02EC033F02FC034F030C0F4
:1052B00035F031C036F035D92FEC26F05FD9DD520C
:1052C000DD520C0EDB2A31D972D92DC000F02EC070
:1052D00001F02FC002F030C003F064D9390E366EF1
:1052E0002DC02EF07AD955EC27F0010A01E1B5D096
:1052F0004ED938D90D0E2EC0DBFF0E0E2FC0DBFFAE
:105300000F0E30C0DBFF100E31C0DBFF910E2E6E92
:10531000860E2F6E500E306EBD0E316E0D0EDBCF31
:1053200033F00E0EDBCF34F00F0EDBCF35F0100E66
:105330004AD90FD9F60E336E100E346EF10E356E5B
:10534000BE0E366E99EC25F0110E2EC0DBFF120E4C
:105350002FC0DBFF130E30C0DBFF140E31C0DBFFAC
:105360000D0EDBCF00F00E0EDBCF01F00F0EDBCF0A
:1053700002F0100EDBCF03F0D30E336ECC0E346E82
:10538000B40E356E3F0E366ECCD899EC25F0150E66
:105390002EC0DBFF160E2FC0DBFF170E30C0DBFF69
:1053A000180E31C0DBFF0D0EDBCF2EF00E0EDBCF63
:1053B0002FF00F0EDBCF30F0100EDBCF31F0110EDF
:1053C000DBCF33F0120EDBCF34F0130EDBCF35F032
:1053D000140EF9D8150EDBCF33F0160EDBCF34F0F8
:1053E000170EDBCF35F0180EDBCF36F02FEC26F0A2
:1053F000B0D8190E2EC0DBFF1A0E2FC0DBFF1B0E1C
:1054000030C0DBFF1C0E31C0DBFFC1D8190EDBCF73
:1054100033F01A0EDBCF34F01B0EDBCF35F01C0E51
:10542000D2D897D8CBD8EECF2EF0EECF2FF0EECF4C
:1054300030F0EFCF31F000C033F001C034F002C0E3
:1054400035F003C036F099EC25F031C0EDFF30C0E7
:10545000EDFF2FC0EDFF2EC0EFFF0C0EDB0409E1C6
:10546000920E006E0A0E016E060E3FD899EC25F0E2
:1054700016D00C0EDB50020806E1DB0E006E0F0E9C
:10548000016EC90E09D00C0EDB5003080BE1920E21
:10549000006E0A0E016E860E28D898EC25F06ED8A4
:1054A000DD52DD520A0EDB500AE049D87BD8BF0E30
:1054B000366E37D882EC26F061D8DD52DD52DECF71
:1054C0002DF0DECF2EF0DECF2FF0DDCF30F0DD522D
:1054D000DD521D0EE15C02E2E16AE552E16EE55249
:1054E000E5CFDAFFE7CFD9FF1200026E3F0E036E61
:1054F00065D8EECF04F0EECF05F0EECF06F0EFCF9B
:1055000007F004C033F005C034F006C035F007C022
:1055100036F000C02EF001C02FF002C030F0316E26
:10552000120000C02EF0EDEF2AF048D8EECFE6FFD3
:10553000EECFE6FFEECFE6FFEFCFE6FF12003ED85C
:10554000EECF00F0EECF01F0EECF02F0EFCF03F0A0
:1055500012002EC000F02FC001F030C002F031C0A8
:1055600003F01200000EDFCF33F0010EDBCF34F07A
:10557000020EDBCF35F0030EE3EF2AF02EC0DEFF84
:105580002FC0DEFF30C0DEFF31C0DDFF1200DECFF6
:105590002EF0DECF2FF0DECF30F0DDCF31F0DD5258
:1055A000DD521200336A346A800E356E12005DECF3
:1055B00033F0E552E552E552E5521200D9CFE9FF4A
:1055C000DACFEAFF1200DBCF36F082EF26F0366E3C
:1055D000A8DF39EC28F0010A120001C02FF002C048
:0855E00030F003C031F01200AD
:0855E800D9CFE6FFDACFE6FFA0
:1055F000E1CFD9FFE2CFDAFF240EE12402E3E16834
:10560000E652E16ED950FA0FE96EFF0EDA20EA6E2B
:10561000020EEECFDBFF030EEECFDBFF040EEECF6C
:10562000DBFF050EEECFDBFFE8D9F2D990EC30F0CE
:10563000006E060EE15C02E2E16AE552E16E0050A6
:10564000E76E0D0EE7CFDBFFDB50800815E0A0D939
:10565000336A346A356A366A00C02EF001C02FF012
:1056600002C030F003C031F055EC27F0010A10E120
:10567000210E0101466F476B020EDB68030EDB68EB
:10568000040EDB687F0EF36E050EF3CFDBFF66D1F1
:105690000D0EDB50050B01E061D10A0EDBCF00F0EF
:1056A0000B0EDBCF01F0830E0026FF0E012200C09F
:1056B000DEFF01C0DDFFD950060F65D976D9DF5076
:1056C000010B0FE0DF06010E01E2DB06D950180FD7
:1056D0005AD9D890EF36010EEB36020EEB36030E98
:1056E000EB36D9CFE9FFDACFEAFF020E346E356A26
:1056F000EECF2FF0EDCF30F042EC28F02FC0EEFFD0
:1057000030C0EDFF140EDB6A150EDB6A160EDB6A85
:10571000170EDB6A1C0EDB6A1D0EDB6A1E0EDB6ACF
:10572000010EF36E1F0EF3CFDBFF010EF36E0E0EB4
:10573000F3CFDBFF0F0EDB6A0E0EDBCF00F00F0E98
:10574000DBCF01F0D890015004E61A0E005C000E89
:10575000015801E398D0180EDBCF00F0190EDBCF13
:1057600001F01A0EDBCF02F01B0EDBCF03F0010EAF
:105770001F0B07E0D8900036013602360336E806E4
:10578000F9E1180E00C0DBFF190E01C0DBFF1A0E95
:1057900002C0DBFF1B0E03C0DBFF140EDBCF08F0E3
:1057A000150EDBCF09F0160EDBCF0AF0170EDBCF9C
:1057B0000BF0010E1F0B07E0D890083609360A36A9
:1057C0000B36E806F9E1D9501C0FDDD80850EE245D
:1057D000046E0950EE20056E0A50EE20066E0B5046
:1057E000EE20076ED950180FCED80450EE5C006E34
:1057F0000550EE58016E0650EE58026E0750EE58F6
:10580000036E200E00C0DBFF210E01C0DBFF220E65
:1058100002C0DBFF230E03C0DBFF200EDBCF2EF028
:10582000210EDBCF2FF0220EDBCF30F0230EDBCFAB
:1058300031F03134000E311809E6D880000E2E54B4
:10584000000E2F54000E3054000E315411E2D95086
:10585000200F99D8AAD8D8D81C0EDB50EE121D0EF6
:10586000DB50EE121E0EDB50EE121F0EDB50EE125E
:10587000D9501C0F88D8AFD80E0EDB2A0F0E01E2CC
:105880005BD7DB2A59D7C9D8100E00C0DBFF110E39
:1058900001C0DBFF180EDBCF2FF0190EDBCF30F08D
:1058A000120E2FC0DBFF130E30C0DBFFADD893D834
:1058B000D950100F68D8EE50ED1012E0D950120FE9
:1058C00062D8EE50ED1006E1A8D800500110021089
:1058D000031006E099D8EE2A000EEE22EE22EE2208
:1058E0000C0EDB6A91D8060EEECFDBFF070EEECF73
:1058F000DBFF080EEECFDBFF090EEECFDBFF7E0EE7
:10590000F36E0A0EF3CFDBFF0B0EDB6AD950020FEA
:10591000E66E000EDA20E66E70D81EEC31F0E5522D
:10592000E552E552E552DECFE6FFDDCFE6FF70D867
:10593000F4EC2FF0006E060EE15C02E2E16AE55243
:10594000E16E0050020E2DC0DBFF030E2EC0DBFF08
:10595000040E2FC0DBFF050E30C0DBFF19D800C0DE
:105960002DF001C02EF002C02FF003C030F0240E45
:10597000E15C02E2E16AE552E16EE552E5CFDAFF71
:10598000E7CFD9FF1200E96E000EDA20EA6E1200AE
:10599000020EDBCF00F0030EDBCF01F0040EDBCFF5
:1059A00002F0050EDBCF03F01200180EEECFDBFF86
:1059B000190EEECFDBFF1A0EEECFDBFF1B0EEECF84
:1059C000DBFF1200EECFE6FFEECFE6FFEECFE6FF05
:1059D000EFCFE6FF1200D890030EEB32020EEB324F
:1059E000010EEB32EF321200EE500016EE500116AF
:1059F000EE500216EE5003161200D950060FE66E56
:105A0000000EDA20E66E1200D950140FC3EF2CF00E
:105A1000D950020FB8DFE2EF2CF0010E006E016AE0
:0A5A2000026A036AF1DFF4EF2CF0D4
:065A2A009ED9E6520101C5
:105A30007C51040A45E0070A2DE0010A23E0030A2D
:105A40000BE0010A01E094D0870EE66E10EC34F012
:105A5000E5520101010E32D08CEC34F0000901E076
:105A600088D06BD901AE02D0026803687DC1E9FF1E
:105A7000EA6AE9BEEA683ED9B00EE926000E4FD9BF
:105A8000020E1CD08F0EE66E10EC34F0E5520101D0
:105A9000030E14D08CEC34F000096BE14ED901AE4A
:105AA00002D0026803687DC1E9FFEA6AE9BEEA68DC
:105AB00021D9D80EE926000E32D9040E7C6F59D0B8
:105AC0007D2B0A0EE76E7D19E8AE02D0E73402D0D6
:105AD000E7507D5D4BE37D6B7EC1E9FFEA6AE9BE7D
:105AE000EA685ED9EA22EE6AEE6AEE6AEE6A7EC182
:105AF000E9FFEA6AE9BEEA6858D9EA22EE6AEE6A84
:105B0000EE6AEE6ADF6A2AD9E8AE02D0E73402D044
:105B1000E750005C1EE2DFCFE9FFEA6AE9BEEA680F
:105B2000E9D8B00EE926000EF5D8E9BEEA6838D902
:105B300001D9DFCFE9FFEA6AE9BEEA68DBD8D80E0F
:105B4000E926000EE7D8E9BEEA682FD9F3D8DF2AA4
:105B5000DAD701017E2B0A0EE76E7E19E8AE02D07D
:105B6000E73402D0E7507E5D01E37E6B7C6B01D0B1
:105B70007C6BE552FED0F8D8050EE126010EDB6AFB
:105B8000020EDB6A030EDB6A040EDB6AFE0EDB0428
:105B900011E1DF6AE3D8E8AE02D0E73402D0E75083
:105BA000005C27E2DFCFE9FFEA6AE9BEEA68F8D8DD
:105BB000A8D8F0D7FE0EDB50020811E1DF6ACED87C
:105BC000E8AE02D0E73402D0E750005C12E2DFCF4B
:105BD000E9FFEA6AE9BEEA68E8D893D8F0D70C0E84
:105BE000E66EF5EC33F0E5522D6A2E6A2F6A306AC4
:105BF0006CD0010EDBCF18F0020EDBCF19F0030ED4
:105C0000DBCF1AF0040EDBCF1BF018C02DF019C04B
:105C10002EF01AC02FF01BC030F07FEC25F02EC004
:105C200014F02FC015F030C016F031C017F08ED828
:105C30002EC010F02FC011F030C012F031C013F0A0
:105C400085D82EC00CF02FC00DF030C00EF031C042
:105C50000FF0336A346AA00E356E400E366E82EC59
:105C600026F02EC008F02FC009F030C00AF031C075
:105C70000BF0336AC00E346E7F0E356E440E366EF6
:105C80002FEC26F02EC004F02FC005F030C006F037
:105C900031C007F0336A346A200E356E400E366E1E
:105CA00098EC25F02EC000F02FC001F030C002F0BB
:105CB00031C003F0336A500E346E430E356E460E1B
:105CC000366E82EC26F01EEC27F0050EE15C02E257
:105CD000E16AE552E16E4DD047D8FE0EDBB080841C
:105CE000DBB2818846D040D8FE0EDBB08094DBB2B8
:105CF00081983FD0D890E936EA36D890E936EA362E
:105D000012003BD8D950010FE96EDACFEAFF3FD835
:105D1000DF2A120032D87EC1E9FFEA6A1200EA22C5
:105D200000C0EEFF01C0EEFF02C0EEFF03C0EEFFB9
:105D300001011200EA22C7EF2EF07CEC34F0F3CF21
:105D400000F0F4CF01F0026A036A1200336A346A89
:105D5000200E356E410E366E2FEF26F0DFCF00F0AD
:105D60000A0EE76E00181200D9CFE6FFE1CFD9FF87
:105D70001200E552E7CFD9FF1200EA22EECF00F081
:105D8000EECF01F0EECF02F0EFCF03F012000050A3
:105D9000EE260150EE220250EE220350EE221200B7
:105DA000A9DF600EE926000E1200A4DF880EE926A6
:045DB000000E1200CF
:0C5DB400D9CFE6FFDACFE6FFE1CFD9FF40
:105DC000E2CFDAFF140EE12402E3E168E652E16E6D
:105DD000D950040FE66E000EDA20E66ED950F60FA9
:105DE000DAD802E2E16AE552E16E0050E76E120E87
:105DF000E7CFDBFFD9500B0FE66E000EDA20E66E20
:105E0000D950FA0FC8D802E2E16AE552E16E0050BB
:105E1000E76E130EE7CFDBFFDBCFE6FF120EDB50A2
:105E2000E552E710800B0EE1120EDB50040804E18E
:105E3000130EDB50040806E0120EDB040DE1130E16
:105E4000DB040AE1210E0101466F476BDE68DE6864
:105E5000DE687F0EDD6E87D0FA0EDBCF2EF0FB0EF4
:105E6000DBCF2FF0FC0EDBCF30F0FD0EDBCF31F0BF
:105E7000F60EDBCF33F0F70EDBCF34F0F80EDBCFCE
:105E800035F0F90EDBCF36F02FEC26F02EC004F003
:105E90002FC005F030C006F031C007F097D831C0F0
:105EA000E6FF5DEC33F0E552E552E552E5522DC0D8
:105EB00000F02EC001F02FC002F030C003F02DC062
:105EC000E6FF84D868EC28F0E552E552E552E55249
:105ED0002DC0DEFF2EC0DEFF2FC0DEFF30C0DDFF95
:105EE000DD52DD520A0EDB5023E0DB0E006E0F0E9A
:105EF000016E490E026E400E036ED9CFE9FFDACF74
:105F0000EAFFEECF04F0EECF05F0EECF06F0EFCFD4
:105F100007F004C033F005C034F006C035F007C008
:105F200036F05BD8316E98EC25F047D8DD52DD5263
:105F3000110EDB501AE0D9CFE9FFDACFEAFFEECF3E
:105F400000F0EECF01F0EECF02F0EFCF03F0336AB6
:105F5000346A800E356EBF0E366E3FD803C031F006
:105F600082EC26F02AD8DD52DD52DECF2DF0DECFD6
:105F70002EF0DECF2FF0DDCF30F0DD52DD52140EEB
:105F8000E15C02E2E16AE552E16EE552E5CFDAFF5B
:105F9000E7CFD9FF1200E96EFF0EDA20EA6EEECFEE
:105FA000E6FFEECFE6FFEECFE6FFEFCFE6FF90ECA9
:105FB00030F0006E060EE15C12002EC0DEFF2FC036
:105FC000DEFF30C0DEFF31C0DDFF12002EC0E6FF75
:105FD0002FC0E6FF30C0E6FF120000C02EF001C067
:085FE0002FF002C030F01200A6
:085FE80096D8E1CFD9FFE2CF0A
:105FF000DAFF0C0EE12402E3E168E652E16ED950CB
:10600000FA0FE96EFF0EDA20EA6E080EEECFDBFF24
:10601000090EEECFDBFF0A0EEECFDBFF0B0EEECF4D
:10602000DBFF79D8D950080FE96E000EDA20EA6E4E
:10603000EECFE6FFEECFE6FFEECFE6FFEFCFE6FFD7
:1060400090EC30F0006E060EE15C02E2E16AE5528F
:10605000E16E0050E76E070EE7CFDBFFDB50840BED
:106060003AE1070EDB041AE1060EDB5006E0006A97
:10607000016A026A800E036E04D0006A016A026A35
:10608000036A080E00C0DBFF090E01C0DBFF0A0E29
:1060900002C0DBFF0B0E03C0DBFF1DD0F80EDBCF11
:1060A00000F0F90EDBCF01F0D950040FE96E000EBD
:1060B000DA20EA6E0050EE260150ED22D950080F8A
:1060C000E66E000EDA20E66E26D81EEC31F0E552C0
:1060D000E552E552E552080EDBCF00F0090EDBCFAA
:1060E00001F00A0EDBCF02F00B0EDBCF03F000C095
:1060F0002DF001C02EF002C02FF003C030F00C0EC6
:10610000E15C02E2E16AE552E16EE552E5CFDAFFD9
:10611000E7CFD9FF1200D9CFE6FFDACFE6FF1200B2
:10612000D9CFE6FFDACFE6FFE1CFD9FFE2CFDAFF42
:10613000E652006801687F0E026E036AD950FA0FBA
:10614000E96EFF0EDA20EA6EEE500016EE500116F0
:10615000EE500216EE5003166AD800C0EEFF01C0E2
:10616000EEFF02C0EEFF03C0EEFFFD0EDB50800B22
:1061700002E0010E01D0000EE66E59D8060EE926A7
:10618000000EEA22E552E750EF6EFC0EDBCF00F086
:10619000FD0EDBCF01F0D89000360136FC0E00C0BA
:1061A000DBFFFD0E01C0DBFFDB50E66E40D8040EC6
:1061B000E926000EEA22E552E750EE6EED6AFD0E8A
:1061C000DB50006E016AFF0E001818E1015016E165
:1061D0002ED8EECF00F0EECF01F0EECF02F0EFCFF1
:1061E00003F0005001100210031006E0210E01011F
:1061F000466F476B800E0BD0040E09D0FD0EDB50AE
:1062000008E115D8EE6AEE6AEE6AEE6A010EDF6EFC
:1062100006D0020EDF6E0BD8EE52EE52EE8EDF503D
:10622000E552E552E5CFDAFFE7CFD9FF1200F80ECD
:0C623000DBCFE9FFF90EDBCFEAFF120024
:04623C00D9CFE6FFD1
:10624000DACFE6FFE1CFD9FFE2CFDAFF5BD8013446
:1062500011E20050FE08000E01540CE276D805E071
:106260006CD8800EEE6EEE6847D067D8800EEE6E6A
:106270007F0E0ED047D8D890015004E6010E005C86
:10628000000E01580BE261D805E057D8EE6A800E87
:10629000EE6E32D052D8EE6AEE6A2ED047D8EECFEC
:1062A00000F0EECF01F0EECF02F0EFCF03F032D8E6
