:020000040000FA
:06000000EEEF11F012000A
:0600080004EF04F01200F9
:060018000CEF04F01200E1
:06080000EEEF11F0120002
:06080800CFEF09F0120021
:0608180036EF0AF01200A9
:06082A0002003C24000066
:10083000860000002100000030240000A700000016
:040840000C000000A8
:0C08440021EC09F06A6A686A54EC09F0C3
:100850006D8C6E6A04EC09F06D9CDF6A35EC09F072
:1008600010E2DF50040DF3CFE9FFF4CFEAFF000EF2
:10087000E926040EEA22EE6AEE6AEE6AEE6ADF2AE2
:10088000EDD7160E706E68A604D0030ECAEC08F001
:10089000FAD70001736B786B796B7A6B6D98080EE1
:1008A0006B6F040E6C6F616B606BE552DFEF08F0ED
:1008B00021EC09F083B605D06D6A696A0001606BAE
:1008C0006BD0000160510BE16D6A696A54EC09F06C
:1008D0006DB602D06D86FCD70001010E606F600519
:1008E00008E16DBA06D0686A696A69806988020E93
:1008F000606F6850040B07E06950040B04E0020EBF
:10090000CAEC08F089D86DB247D06850010B14E0EA
:100910006950010B11E096DF0001040E606F0401C5
:10092000200E026F040E036F080E016F006B8C0E19
:100930000013E66A93EC09F06850100B07E0695069
:10094000100B04E060D8040ECAEC08F06850400BAD
:100950000BE06950400B08E05BEC09F0020ED2ECB2
:1009600008F0060ECAEC08F06850200B04E069504D
:10097000200B01E035D86850020B0AE06950020BE9
:1009800007E05BEC09F0E668E668B3EC09F06A6A38
:10099000040E0001605D02E2A19A1FD069A61CD07E
:1009A000DF6A040EDF5C18E268A616D06CCF80F018
:1009B000030ECAEC08F0780E0001801502E138D869
:1009C00009D0000EE66EE66A800EE66E000EE66E58
:1009D000010EE8DBDF2AE5D7A19AE552DFEF08F048
:1009E00070A00ED0EDEC08F0EF50800808E1D5DBE8
:1009F000EF50840804E1EDEC08F08C0EEF6E70907F
:100A0000050ECAEF08F06984040EC4DB6D820DEC9C
:100A100009F0040ED2EF08F00DEC09F0030EC2DB72
:100A20006D92699468A403D0020EB4DBFBD7120068
:100A300021EC09F0FD0E000180153DE17E0E8015D0
:100A4000E8407F0B040DF3CF63F0F4CF64F0000EA9
:100A50006327040E642363C065F064C066F06575A7
:100A6000BCDBEF503C0BE842E8420D0822E1B5DB6D
:100A70008AEC09F0EECF0BF0EFCF0CF0280E0B183C
:100A800016E1040E0C1813E1C4EC09F0DF6AEDDB8B
:100A90000EE2DF503DEC09F0DF50EA6A200FE96E0C
:100AA000040EEA22E552E750EF6EDF2AF0D70AD8AB
:100AB00007D01AD805D0FD0E8015040801E122D810
:100AC000E5527DD36ADBEF50800B02E066DBEF6A14
:100AD00000016F6B706B746B756B736B64D89DDB0F
:100AE000170E60DB08EF07F0020E0001705D02E1F7
:100AF00095EF07F034D80001815102E18FEF09F042
:100B0000816B12009EDB49DBEF50400B01E0010ED0
:100B1000DF6E00016B75080E605D09E122C46EFF97
:100B20006E50000802E2100E01D0040E606F7005D6
:100B300013E1C8EC09F0A6D9020E00016F5D03E1D4
:100B40002CDB840E07D0DF5003E127DBC80E02D078
:100B500024DB880EEF6E01D002D8E55230D32BDBB8
:100B60000001706B1ADBEF6A040E6B190B6E6CC020
:100B70000CF0DE6E6CC0DDFF19DBEF6A78AF0CD0D5
:100B80007B517C1107E005D07CC0FAFF00017B514E
:100B9000F96EFADF0001789F020EE15C02E2E16A81
:100BA000E552E16E0CD304012051600BE842E842AB
:100BB000E842E842E842000901E0120021510C0A33
:100BC00045E00B0A3FE00C0A31E0010A22E00B0A83
:100BD0001EE0020A1CE0030A18E0080A10E0010AFD
:100BE0000CE00F0A08E0030A01E012000001738F15
:100BF000080E606F120088EF06F0F1EF07F00001B9
:100C0000610E716F000E726F0CD0C9EF06F027EF06
:100C100006F024510001716F726B620E7127000E95
:100C200072237381010E746F738F12000001738F32
:100C300004012451EA6A620FE96E000EEA2222C41E
:100C4000EFFF1200EADA160ED2EF08F012007EDB98
:100C5000040EE1260401220510E120511F0B0009BA
:100C60000CE10001738F030E0401215D04E100011A
:100C7000010E7F6F02D000017F6B0401225141E120
:100C800020511F0B02083DE124510F0B000939E0F0
:100C90000001738F040124BF05D0A4DA670EE92692
:100CA000000E04D09FDA6B0EE926000ED2DA030E96
:100CB000215D03E17BDA840E23D024510F0B0C6AF3
:100CC000700F0B6E0F0E0C22020E0BC0DBFF030E1B
:100CD0000CC0DBFF020EDBCFE9FF030EDBCFEAFF28
:100CE000EE90ED5224AF06D061DAEF6ADF745EDA7F
:100CF000400E06D05BDA880EEF6EDF7457DAC80E4E
:100D0000EF6E040EE15C02E2E16AE552E16E57D259
:100D1000800E0401205D3CE10001C00E736F0401F0
:100D20002351030A1EE0010A09E0030A2FE1000132
:100D3000240E716F200E726F120E22D0C3DACE0E07
:100D4000F626200EA2DA020E0001F76A7125F66E71
:100D50007251F7220900F5CF74F00A00F5CF75F053
:100D60001200030E225D0FE2ADDAD00EF626200E41
:100D70008CDA71C0F6FF72C0F7FF0800F550000171
:100D8000746F756B12000001736B12000001736BBE
:100D9000120011DA0401286B296B20511F0B020A83
:100DA00011E0030A0CE0010A22E10001738F040143
:100DB000288100017F051BE10401288318D0000170
:100DC000738F15D00001738F040124BF05D00ADA98
:100DD000670EE926000E04D005DA6B0EE926000E38
:100DE00038DAE4D9EF50040B02E0010E286F00015D
:100DF00073AF07D0280E716F040E726F7381020EED
:100E0000746F020EE15C02E2E16AE552E16ED7D155
:100E10006D98000173BF08D078AF02D061DA2AD094
:100E20007EDABBD9840E27D078BF2BD0040120AF47
:100E300024D0000174510401265D000175510401A4
:100E4000275904E226C474F027C475F01BD80001AA
:100E5000010E706FA1DA800EEF6E816BBED9EE527B
:100E6000080EEF6E91DAB9D9840EEF6E010E816F24
:100E70008FDA93D9C80EEF6E1200000131DAC80E76
:100E8000EF6E120098D90001080E745D000E7559BE
:100E90000DE274C0DEFF75C0DDFF6F5102E1010E8F
:100EA00003D06F0506E1020E6F6F03D0080EDE6EF1
:100EB000DD6A73D9EF9271D9EF906FD9010EDB50D3
:100EC000EF126BD9EE52DFCFEFFF000EDB50745FF5
:100ED000010EDB50755B280E7D6F040E7E6F73B1C3
:100EE0000FD0F7D91BE071C0F6FF72C0F7FF712B6E
:100EF000000E72230800F55096D9F3E2DB06F1D715
:100F0000E8D90CE071C0E9FF72C0EAFF712B000E56
:100F10007223EF5088D9F4E2DB06F2D7020EE15CCF
:100F200002E2E16AE552E16E4AD145D956D9EE5264
:100F3000EFCFDFFFDFCF0BF00B500001795D000E2C
:100F40007A5903E279C0DFFF09D0DF500B6E0C6ADB
:100F5000E850795D796F0C507A597A6F010EDB6A2F
:100F6000DF50F36E010EDBCFF4FFF350F45C10E2C0
:100F7000010EDB5082D976C0E9FF77C0EAFF762BFD
:100F8000000E7723E552E750EF6E010EDB2AE8D71B
:100F9000000ED8807955000E7A550DE2F4D854D958
:100FA0001CD9EF50400B03E1EAD9C80E02D0E7D9B3
:100FB000880EEF6E0FD0F0D9840EEF6E7B517C114E
:100FC00007E005D07CC0FAFF00017B51F96EFADF23
:100FD0000001789F020EE15C02E2E16AE552E16EF7
:100FE000EED00001738F10D9010EE66EE66AE66A54
:100FF000620EE66E000EAFD922C461F004012251E8
:1010000004E10001100E606F12000001200E606FFD
:1010100004D9150ED2EF08F0CED8000EDE6E040E05
:10102000DD6EE8D8040DF3500B6E0C6A020E0F0B48
:1010300005E0D8900C320B32E806FBE1D8900B3675
:101040000C36D8900B360C36D9CFE9FFDACFEAFF51
:101050000B50EE260C50ED22A9D8EF9EFD0EDB5072
:1010600002E16AD901D06DD9EA22DECFEEFFDDCFF1
:10107000EDFF9CD8EF9C9AD8040EE926000EEA22D8
:10108000EF8C020EE15C02E2E16AE552E16E97D07C
:1010900092D8FE0EDB500C6A700F0B6E0F0EDFD86D
:1010A00085D8FD0EDBCFEFFFDBA402D0E66AF5D8D2
:1010B000FD0EDBA203D0010EE66EEFD8020EE15C5E
:1010C00002E2E16AE552E16E7AD075D8FE0EDB509D
:1010D00005E125D962D8840EEF6E05D08BD80CD9E6
:1010E00089D8010F09D9020EE15C02E2E16AE552FA
:1010F000E16E65D060D8FD0EDB5002E022D901D050
:101100001BD9A7D853D806D9FB0EDBCFEEFFFC0EB8
:10111000DBCFEDFF4BD8EE52FA0EDBCFEFFF400EE8
:1011200045D8E850EF16880E41D8E850EF12FD0E72
:10113000DB5002E006D901D0FFD8EA22EF74DECFFF
:101140000BF0DDCF0CF00BC0F3FF0CC0F4FF020E70
:10115000E15C02E2E16AE552E16E31D0F7D8010EBE
:10116000F36EFC0EDB5004E0D890F336E806FCE1A9
:10117000F31C0B6EFD0EDBCFE9FFFE0EDBCFEAFFAB
:101180000B50EF161CD0FBD8EE52080EEF6EF7D8BE
:101190008AEF09F0E66E93EF09F06BC0E9FF6CC0CF
:1011A000EAFF1200E66EE66AB3EF09F0DECFE9FF70
:1011B000DDCFEAFF1200CAD8020EE1261200E55286
:1011C000E7CFD9FF1200D6D8BFEF09F0FE0EEA6ACA
:1011D000DB34FE0BEA36E96E120063C0E9FF64C03F
:1011E000EAFF120024510F0BE96EEA6AD890E93643
:1011F000EA361200FD0EDB50E8240D6EFE0EDB50C9
:10120000040DF3500D241200000EE66EE66AE66A45
:10121000710EE66E0F0EABEF09F0000EE66EE66A99
:10122000E66EE66A1200E66E7DC0E9FF7EC0EAFF68
:101230007D2B000E7E23E552E750EF6EDF06010E98
:10124000120084D8E6521200280EEE6E040EED6EE7
:101250001200EA22EECFDEFFEDCFDDFF12000C22FE
:101260000BC0DEFF0CC0DDFF1200DF500B6E0C6AFE
:10127000080E0B5C000E0C581200EA6A280FE96E8B
:10128000040EEA22EF50E66E1200F7220900F5CFB5
:1012900071F00A00F5CF72F01200FE0EDBCFE6FF10
:1012A000BBDEE552E5521200160E6F6E9F0E6B6E9E
:1012B0007B0E696E1200010EE66EE66A000EE66EA7
:1012C000E66A12002251F66EF76AD890F636F736C3
:1012D0001200D9CFE9FFDACFEAFFEE50ED1012008D
:1012E000020E706F5ADFEE52EF6A57DFC80EEF6ED4
:1012F0004ADFAADFBFEF09F0040DF3CF0BF0F4CF04
:101300000CF0000E0B26040EAADF840E4FDFE8500F
:10131000EF121200020EE926000EEA2212003CD85B
:101320008C0EEF6E1200680EE66E0F0EE66E16DF84
:10133000E552E552E552120049DF670EE926000E3C
:10134000120044DF6B0EE926000E1200D9CFE6FF33
:10135000E1CFD9FF1200E66EBAEC10F00B6E050E6D
:10136000E15E0B5012007DEC0EF00B6E060EE15E9E
:101370000B501200200EEE6E040EED6E120065C0D2
:10138000E9FF66C0EAFF120028DFC4DFBAEF09F008
:0E13900004DFC0DF24EF09F0F6DEE3EF08F023
:02139E00DACFA4
:1013A000E4FFE2CFDAFFE9CFE4FFEACFE4FFF6CFD4
:1013B000E4FFF7CFE4FFF5CFE4FFF3CFE4FFF4CF92
:1013C000E4FFFACFE4FF00EE00F00B0EE80403E3C5
:1013D000EECFE4FFFBD700EE0BF0070EE80403E3CB
:1013E000EECFE4FFFBD7F1EC0EF09EA012D0FBECA9
:1013F0000EF00A0E0001AD27000EAE23E80EAD5D23
:10140000030EAE5905E3AD6BAE6BAF2B000EB023F0
:101410009E9004EC0FF002E2E16AE552E16EE552C3
:10142000E7CFD9FFE55200EE11F0070EE80403E321
:10143000E5CFEDFFFBD700EE0AF00B0EE80403E367
:10144000E5CFEDFFFBD7E5CFFAFFE5CFF4FFE5CF22
:10145000F3FFE5CFF5FFE5CFF7FFE5CFF6FFE5CFEB
:10146000EAFFE5CFE9FFE5CFDAFF1100D8CFE4FFCF
:10147000E0CFE4FFE46EDACFE4FFE2CFDAFFF3CFB0
:10148000E4FFF4CFE4FFF1EC0EF004EC0FF002E225
:10149000E16AE552E16EE552E7CFD9FFE552E5CFCB
:1014A000F4FFE5CFF3FFE5CFDAFFE550E5CFE0FF4E
:1014B000E5CFD8FF100004D858EC04F042D8FCD790
:1014C0000F0EC112958602D822EF04F014EC0FF033
:1014D000E652C8EC0EF00001BD6F070EBD5D11E1D4
:1014E000E66A10EC11F0E552DF6E000EDF800CECC6
:1014F0000FF0E66AD7EC11F0E552000EDF900CEC2D
:101500000FF093809382948C948ED08EF28EF28C16
:101510009D80F50EE66E26EC11F0E552FBEC0EF028
:10152000770EC86EFC0E8B1694160001A76BA86B85
:10153000A96BAA6B010EAB6FE552E552E7CFD9FF5D
:101540001200D9CFE6FFE1CFD9FF080EE126000156
:10155000AB5101E062DB200E0001605D03E36D50E2
:10156000020B01E050D30001A951AA1102E1000EC3
:1015700008D0A9C0E9FFAAC0EAFFEF50800B01E044
:10158000010E000947E10001A651EA6A860FE96EE3
:10159000000EEA22EF5000083DE20501406B000119
:1015A000AC51AC2B0501416F0501040E426F0001E7
:1015B000A651EA6A860FE96E000EEA22EFCF43F5E4
:1015C000400EE66E400EE66E050EE66E010EE66E0D
:1015D000010EE66E7AEC08F00B6E050EE15E0B5024
:1015E000F3CFA9F0F4CFAAF00001A651EA6A860F62
:1015F000E96E000EEA22EF6A0001A651000803E23C
:101600000001A60707D00001A551000803E2000170
:101610001F0EA66F0001A751A81102E1000E08D00D
:10162000A7C0E9FFA8C0EAFFEF50800B01E0010E60
:10163000000901E0E8D2050102510E0A01E140D2A1
:10164000080A01E1D9D1040A17E0030A05E0010AFA
:1016500001E098D2FF00D7D2E66A10EC11F0E55213
:10166000DF6E000EDB80DFCFE6FFE66AF0EC10F005
:10167000E552E552FF00C7D20001A951AA1102E1CB
:10168000000E08D0A9C0E9FFAAC0EAFFEF50800B06
:1016900001E0010E000901E0AED100C540F50501F1
:1016A000416B0501030E426F0501436B05010851B3
:1016B0000A0A01E1F6D0030A01E17ED00D0A71E0C9
:1016C000070A64E0010A20E0030A06E0010A01E0DB
:1016D00068D1BDC048F568D10501486BA50E0B6EF9
:1016E000220E0C6E0D6A0BC0E6FF0CC0E6FF0DC0AB
:1016F000E6FF480EE66E050EE66ED4EC10F00E6EB8
:10170000050EE15E0E5050D10501486B990E0B6E2F
:10171000220E0C6E0D6A0BC0E6FF0CC0E6FF0DC07A
:10172000E6FF480EE66E050EE66ED4EC10F00E6E87
:10173000050EE15E0E50970E0B6E220E0C6E0D6ABA
:101740000BC0E6FF0CC0E6FF0DC0E6FF480EE66EDC
:10175000050EE66ED4EC10F00E6E050EE15E0E5036
:101760008E0E0B6E220E0C6E0D6A0BC0E6FF0CC0C7
:10177000E6FF0DC0E6FF480EE66E050EE66ED4EC01
:1017800010F00E6E050EE15E0E500ED192CF48F5B0
:1017900093CF49F594CF4AF595CF4BF596CF4CF5BD
:1017A00003D180CF48F581CF49F582CF4AF583CF69
:1017B0004BF584CF4CF5F8D08050010B116E805062
:1017C000020B01E0010EE824106E8050040B01E0D2
:1017D000010E040DF3CF0FF08050080B01E0010E55
:1017E000080DF3CF0EF08050100B01E0010E100D2C
:1017F000F3CF0DF08050200B01E0010E200DF3CF50
:101800000CF08450010B400DF3CF0BF08450020B11
:1018100001E0010E800DF3500B100C100D100E1096
:101820000F10101011100501486F8450040B01E0D7
:10183000010E116E8350010BE824106E8350020BD1
:1018400001E0010E040DF3CF0FF08350040B01E013
:10185000010E080DF3CF0EF08350100B01E0010EC6
:10186000100DF3CF0DF08350200B01E0010E200D81
:10187000F3CF0CF08350400B01E0010E400DF3CF8D
:101880000BF08350800B01E0010E800DF3500B1024
:101890000C100D100E100F10101011100501496FD3
:1018A00083D0800EE66E080EE66EA1EC11F0E552D4
:1018B000E552C58007EC12F0C00EE66E67EC11F041
:1018C000E552E66A67EC11F0E552C58207EC12F0CA
:1018D000C10EE66E67EC11F0E552010EDB6A020EF6
:1018E000DB6A010EDBCF0BF0020EDBCF0CF0040E37
:1018F0000B5C000E0C584FE2010EF36E050EF3CF99
:10190000DBFFC586030EDB6A040EDB6A030EDBCF4A
:101910000BF0040EDBCF0CF0E80E0B5C030E0C5842
:1019200017E2C7A00FD0010EDBCFE9FF020EDBCF1D
:10193000EAFF480EE926050EEA22C9CFEFFF050EA1
:10194000DB6A06D0030EDB2A040E01E3DB2ADED7B6
:10195000050EDB5008E00501080E436FC58AC588F7
:1019600007EC12F018D0010EDBCF0BF0020EDBCF2C
:101970000CF0030E0B5C000E0C5803E2C59AC588F0
:1019800002D0C58AC58807EC12F0010EDB2A020ED0
:1019900001E3DB2AA6D7C58407EC12F015EC12F0A0
:1019A00003D00501020E436F400EE66E400EE66E58
:1019B000050EE66E010EE66E010EE66E7AEC08F09C
:1019C0000B6E050EE15E0B50F3CFA9F0F4CFAAF039
:1019D000400EE66E000EE66E050EE66EE66A010E3D
:1019E000E66E7AEC08F00B6E050EE15E0B50F3CF5D
:1019F000A7F0F4CFA8F007D105010851030A37E09A
:101A0000010A25E0030A13E0010A01E040D00501C4
:101A10000951921205010A51931205010B519412BA
:101A200005010C51951205010D51961235D0050195
:101A3000091D921605010A1D931605010B1D94162A
:101A400005010C1D951605010D1D961625D00501E5
:101A5000091D891605010A1D8A1605010B1D8B1625
:101A600005010C1D8C1605010D1D8D1615D00501E7
:101A70000951891205010A518A1205010B518B1275
:101A800005010C518C1205010D518D1205D0030E6C
:101A9000E66EBCEC11F0E552400EE66E000EE66E0E
:101AA000050EE66EE66A010EE66E7AEC08F00B6E45
:101AB000050EE15E0B50F3CFA7F0F4CFA8F0A3D052
:101AC0000001A951AA1102E1000E08D0A9C0E9FF46
:101AD000AAC0EAFFEF50800B01E0010E000951E1BE
:101AE00000C540F50501416B0501030E426F05017C
:101AF000436B05010851010A0BE0010A01E01AD00D
:101B000009C5E6FF19EC0FF0E5520501486912D04E
:101B100009C5E6FF29EC0FF0E552060EF3CFDBFF17
:101B2000070EF4CFDBFF070EDBCF48F5060EDBCF49
:101B300049F500D0400EE66E400EE66E050EE66EEC
:101B4000010EE66E010EE66E7AEC08F00B6E050EE5
:101B5000E15E0B50F3CFA9F0F4CFAAF0400EE66E91
:101B6000000EE66E050EE66EE66A010EE66E7AEC93
:101B700008F00B6E050EE15E0B50F3CFA7F0F4CF2B
:101B8000A8F041D00001A951AA1102E1000E08D02D
:101B9000A9C0E9FFAAC0EAFFEF50800B01E0010EE7
:101BA000000931E100C540F50501416B0501030E57
:101BB000426F0501010E436F400EE66E400EE66E69
:101BC000050EE66E010EE66E010EE66E7AEC08F08A
:101BD0000B6E050EE15E0B50F3CFA9F0F4CFAAF027
:101BE000400EE66E000EE66E050EE66EE66A010E2B
:101BF000E66E7AEC08F00B6E050EE15E0B50F3CF4B
:101C0000A7F0F4CFA8F0080EE15C02E2E16AE55229
:101C1000E16EE552E7CFD9FF12000001B151B211D8
:101C200004E1100EB16F270EB26FB107000EB25B68
:101C30006DA207D0B151B2112EE18B728BB213D0CD
:101C400027D00001605102E18B9222D0600502E1B1
:101C50008B8209D0020E605D02E18B8219D0040EE6
:101C6000605D03E18B928B801200100E605D06E1D7
:101C70000001B151B2110FE18B720AD0200E605DEC
:101C80000AE10001B151B21106E18B728BA202D0C0
:101C90008B9012008B8012001200120012001200B2
:101CA000ABEF0FF012001E0EE66E010EE66E48EC72
:101CB00008F0E552E552400EE66E000EE66E050EA7
:101CC000E66EE66A010EE66E7AEC08F00B6E050E23
:101CD000E15E0B50F3CFA7F0F4CFA8F012006D84B3
:101CE0000001080EBE6F070EBF6FBE07000EBF5B80
:101CF000BE51BF11FAE16D941200D9CFE6FFE1CFDA
:101D0000D9FFFD0EDBCF06F0FE0EDBCF07F0010E94
:101D1000061801E1075033E0E868061802E1E868B8
:101D200007182BE0030E061801E1075024E0040E0B
:101D3000061801E107501DE0020E061801E10750E8
:101D400016E0170E061801E107500FE0160E0618F0
:101D500001E1075008E0150E061801E1075001E007
:101D600010D0A1DF0FD09EDF0DD09ADF0BD096DF11
:101D700009D092DF07D091DF05D091DF03D00000BA
:101D800001D000D0010E00D0E552E7CFD9FF1200FC
:101D90004BD8E652D0B202D0010E15D0D0B802D046
:101DA000020E11D0D0B002D0030E0DD0D0B602D0AA
:101DB000040E09D0FCAE02D0050E05D0FCAC02D05A
:101DC000060E01D0070EDF6ED088D086D084D08278
:101DD000D080FC9EFC9CDF50E552E552E7CFD9FF56
:101DE0001200E65221D8020EE126F350DF6E010EFA
:101DF000F4CFDBFF1200F00EE66ED80EE66E85EC37
:101E000011F0E552E5521200DF50F36E010EDB5087
:101E1000F46E020EE15C1200DFCFE6FFE66AF0EC42
:101E200010F0E552E5521200D9CFE6FFE1CFD9FF1D
:021E300012009E
:0E1E3200D9CFE6FFE1CFD9FF62D8620E86D885
:101E4000C58407EC12F015EC12F0E552E7CFD9FF8C
:101E50001200D9CFE6FFE1CFD9FF050EE12650D819
:101E6000670E74D8C58207EC12F0FE0EDB50E82432
:101E7000010B6CD855D85FD80EE2C7A006D0010E72
:101E8000C9CFDBFF040EDB6A06D0020EDB2A030E8D
:101E9000F2E3DB2AF0D7040EDB5012E1C59AC588C5
:101EA0003FD849D80DE2C7A005D0C950DF6E040E57
:101EB000DB6A06D0020EDB2A030EF3E3DB2AF1D73E
:101EC000040EDB5002E0DE6ADD6AC58AC58807ECD5
:101ED00012F0C58407EC12F015EC12F0DECF0BF017
:101EE000DDCF0CF00BC0F3FF0CC0F4FF050EE15C7E
:101EF00002E2E16AE552E16EE552E7CFD9FF120056
:101F0000800EE66E080EE66EA1EC11F0E552E55289
:101F1000C58007EC12F0FE0EDB50E824A6EF0FF0B0
:101F2000C586010EF36E040EF3CFDBFF020EDB6AF3
:101F3000030EDB6A1200020EDBCF0BF0030EDBCFC9
:101F40000CF0E80E0B5C030E0C581200E66E67EC0A
:061F500011F0E552120041
:0A1F5600040120511F0B010801E0F7
:101F60001200245101E01200060E215D21E12351EF
:101F7000230A1BE0010A0CE0030A1AE100016105D3
:101F800017E10001480E716F200E726F090E09D023
:101F9000000161050DE10001B10E716F200E726F3D
:101FA0001D0E746F756BC00E02D00001800E736F32
:101FB00004012051600BE842E842E842E842E8426E
:101FC000010801E0120021510B0A26E0080A19E07D
:101FD000090A11E0080A05E00B0A23E0080A21E0DB
:101FE00012000001C00E716F000E726F010E746F4F
:101FF000756BC10E0FD00001800E736F23C4C0F04B
:1020000012000001C10E716F000E726F010E746F2D
:10201000756B810E736F12000001800E736F22C406
:04202000C1F01200F9
:0C2024001201000200000008D8040600B1
:1020300002000102000109022900010100C0320969
:102040000400000203000000092111010001221D0B
:10205000000705810340000107050103400001045A
:102060000309042C034D006F00620069006C0065D9
:1020700000200052006F0062006F007400200050CA
:10208000006C006100740066006F0072006D002239
:1020900003530065006E0073006F0072002000495A
:1020A000006E0074006500720066006100630065E8
:1020B000000600FF0901A10119012940150026FFB2
:1020C00000750895408100190129409100C0362013
:0620D0005F2063208F2059
:0A20D6002A0EF66E080EF76E000EDB
:1020E000F86E00010900F550B86F0900F550B96F9E
:1020F00003E1B86701D03DD00900F550B36F090086
:10210000F550B46F0900F550B56F09000900F5509E
:10211000E96E0900F550EA6E090009000900F55062
:10212000B66F0900F550B76F09000900F6CFBAF095
:10213000F7CFBBF0F8CFBCF0B3C0F6FFB4C0F7FFE9
:10214000B5C0F8FF0001B65302E1B75307E009003C
:10215000F550EE6EB607F8E2B707F9D7BAC0F6FF4A
:10216000BBC0F7FFBCC0F8FF0001B807000EB95BA9
:04217000BFD71200C3
:0C217400FE0EE3CFE9FFFF0EE3CFEAFF11
:10218000E9CFF3FFEACFF4FFFB0EE35003E1FC0ECF
:10219000E35009E0FB0EE30602E2FC0EE306FD0E4F
:1021A000E350EE6EF1D71200FB0EE3CFF6FFFC0E0C
:1021B000E3CFF7FFFD0EE3CFF8FFFE0EE3CFE9FF1D
:1021C000FF0EE3CFEAFFE9CFF3FFEACFF4FFEE66BD
:1021D000FED7ED520900F5CFEFFFEE66FBD71200F8
:1021E0002DD8FD0EDB50A86EA69EA69CA684F250AC
:1021F000800B01E0010E0001C26FF29E550EA76E2A
:10220000AA0EA76EA682C251E8B0F28EE8A0F29E96
:10221000A6B2FED7A198A694E552E7CFD9FF120047
:102220000DD8A69EA69CA680020EE66EFCEC11F0D0
:10223000E552A850E552E7CFD9FF1200D9CFE6FF0B
:0C224000E1CFD9FFFE0EDB50A96E1200AA
:04224C00D9CFE6FF01
:10225000DACFE6FFE1CFD9FFE2CFDAFFFD0EDB50A8
:102260007E0BCD6EFD0EDBAC02D0CD8E01D0CD9EAF
:10227000CF6ACE6A9E90DBAE02D09D8001D09D9049
:0E228000CD80E552E5CFDAFFE7CFD9FF12009F
:02228E003131EC
:102290003A31373A32370020004D6179203133200E
:1022A000323031300053656E736F7220496E746541
:1022B000726661636520312E300A4E69636F6C610E
:0D22C000732044414E4452494D4F4E54008E
:0222CE00D9CF66
:1022D000E6FFDACFE6FFE1CFD9FFE2CFDAFFFD0E6E
:1022E000DB50C96EC6AE02D0FF0E09D0C7B0FED714
:1022F00007EC12F0C5AC02D0FE0E01D0000EE55284
:0A230000E5CFDAFFE7CFD9FF1200A6
:06230A00D9CFE6FFDACF97
:10231000E6FFE1CFD9FFE2CFDAFFE652E652FC0E4C
:10232000DBCFDEFFDBCFDDFF010EDB50CF6EDF50FA
:10233000CE6EE552E552E552E5CFDAFFE7CFD9FFA1
:02234000120089
:0E234200D9CFE6FFDACFE6FFE1CFD9FFE2CF39
:10235000DAFF3F0EC716C66AC56AFD0EDB50C6120D
:10236000FC0EDB50C71293829380C68AE552E5CFFC
:08237000DAFFE7CFD9FF1200EC
:08237800D9CFE6FFE1CFD9FF48
:1023800000010ED8EF50000803E2A6291F0BA66F2C
:1023900007D8FE0EDBCFEFFFE552E7CFD9FF1200E3
:0E23A000A651EA6A860FE96E000EEA221200CC
:0223AE00FF0E20
:1023B000E350136EEF0E01D0F30EE76EE72EDEEF63
:1023C00011F00C0E126EE76AE72EE4EF11F0122EF8
:0C23D000E3EF11F0132EDCEF11F012000F
:0423DC0013EE00F00C
:1023E00023EE00F0F86A0A9C6BEC10F017EC12F088
:0823F0005BEC0AF0FBD71200C0
:0823F800FF0EE350E84E120055
:0E240000000000D000D000D0E82EFAD7120065
:02240E001F0E9F
:0C241000C514FDE1C750040BFAE11200F6
:04241C0000EE00F0DE
:0A2420000F0EEE6AEA62FDD712000B
:04242A00C69A12003C
:02242E0012009A
:0C2430000000000001000000000000009F
:04243C00000000009C
:10244000000000000000000000000000000000008C
:0D245000000000000000000000000000007F
:00000001FF
