:020000040000FA
:060000007EEF17F0120074
:0600080004EF04F01200F9
:060018000CEF04F01200E1
:060800007EEF17F012006C
:06080800D9EF09F0120017
:060818003FEF0AF01200A0
:06082A0003005E2F000038
:100830008600000021000000502F0000C7000000CB
:100840000E000000FB280000E8000000010000008E
:100850002BEC09F06A6A686A5EEC09F06D8C6E6ACE
:100860000EEC09F06D9CDF6A3FEC09F010E2DF50FE
:10087000040DF3CFE9FFF4CFEAFF000EE926040EE2
:10088000EA22EE6AEE6AEE6AEE6ADF2AEDD7160E0B
:10089000706E68A604D0030ED4EC08F0FAD70001FD
:1008A000736B786B796B7A6B6D98080E6B6F040EB7
:1008B0006C6F616B606BE552E9EF08F02BEC09F0AF
:1008C00081BC05D06D6A696A0001606B6BD0000164
:1008D00060510BE16D6A696A5EEC09F06DB602D099
:1008E0006D86FCD70001010E606F600508E16DBAEE
:1008F00006D0686A696A69806988020E606F68500C
:10090000040B07E06950040B04E0020ED4EC08F07D
:100910008AD86DB247D06850010B14E06950010BC2
:1009200011E096DF0001040E606F0401200E026FDB
:10093000040E036F080E016F006B8C0E0013E66A45
:100940009DEC09F06850100B07E06950100B04E0B3
:1009500061D8040ED4EC08F06850400B0BE06950ED
:10096000400B08E065EC09F0020EDCEC08F0060E26
:10097000D4EC08F06850200B04E06950200B01E033
:1009800036D86850020B0AE06950020B07E065ECAC
:1009900009F0E668E668BDEC09F06A6A040E000139
:1009A000605D02E2A19A20D069A61DD0DF6A040E24
:1009B000DF5C19E268A617D06CCF80F0030ED4EC90
:1009C00008F0780E0001801502E139D80AD0000E37
:1009D000E66EE66A800EE66E000EE66E010EDCEC58
:1009E00008F0DF2AE4D7A19AE552E9EF08F070A0F9
:1009F0000ED0F7EC08F0EF50800808E1D8DBEF509C
:100A0000840804E1F7EC08F08C0EEF6E7090050E90
:100A1000D4EF08F06984040EC7DB6D8217EC09F08F
:100A2000040EDCEF08F017EC09F0030EC5DB6D9245
:100A3000699468A403D0020EB7DBFBD712002BEC3D
:100A400009F0FD0E000180153EE17E0E8015E840A4
:100A50007F0B040DF3CF63F0F4CF64F0000E632737
:100A6000040E642363C065F064C066F06575BFDB87
:100A7000EF503C0BE842E8420D0823E1B8DB94EC70
:100A800009F0EECF0BF0EFCF0CF0280E0B1817E1AA
:100A9000040E0C1814E1CEEC09F0DF6A3FEC09F00B
:100AA0000EE2DF5047EC09F0DF50EA6A200FE96EF2
:100AB000040EEA22E552E750EF6EDF2AEFD70AD89C
:100AC00007D01AD805D0FD0E8015040801E122D800
:100AD000E5527FD36CDBEF50800B02E068DBEF6AFE
:100AE00000016F6B706B746B756B736B64D89FDBFD
:100AF000170E62DB12EF07F0020E0001705D02E1DB
:100B00009FEF07F034D80001815102E199EF09F01D
:100B1000816B1200A0DB4BDBEF50400B01E0010EBC
:100B2000DF6E00016B75080E605D09E122C46EFF87
:100B30006E50000802E2100E01D0040E606F7005C6
:100B400013E1D2EC09F0A8D9020E00016F5D03E1B8
:100B50002EDB840E07D0DF5003E129DBC80E02D064
:100B600026DB880EEF6E01D002D8E55232D32DDBA2
:100B70000001706B1CDBEF6A040E6B190B6E6CC00E
:100B80000CF0DE6E6CC0DDFF1BDBEF6A78AF0CD0C3
:100B90007B517C1107E005D07CC0FAFF00017B513E
:100BA000F96EFADF0001789F020EE15C02E2E16A71
:100BB000E552E16E0ED304012051600BE842E84299
:100BC000E842E842E842000901E0120021510C0A23
:100BD00045E00B0A3FE00C0A31E0010A22E00B0A73
:100BE0001EE0020A1CE0030A18E0080A10E0010AED
:100BF0000CE00F0A08E0030A01E012000001738F05
:100C0000080E606F120090EF06F0FBEF07F0000196
:100C1000610E716F000E726F0CD0D1EF06F02FEFE6
:100C200006F024510001716F726B620E7127000E85
:100C300072237381010E746F738F12000001738F22
:100C400004012451EA6A620FE96E000EEA2222C40E
:100C5000EFFF1200ECDA160EDCEF08F0120080DB7A
:100C6000040EE1260401220510E120511F0B0009AA
:100C70000CE10001738F030E0401215D04E100010A
:100C8000010E7F6F02D000017F6B0401225141E110
:100C900020511F0B02083DE124510F0B000939E0E0
:100CA0000001738F040124BF05D0A6DA670EE92680
:100CB000000E04D0A1DA6B0EE926000ED4DA030E82
:100CC000215D03E17DDA840E23D024510F0B0C6AE1
:100CD000700F0B6E0F0E0C22020E0BC0DBFF030E0B
:100CE0000CC0DBFF020EDBCFE9FF030EDBCFEAFF18
:100CF000EE90ED5224AF06D063DAEF6ADF7460DA6B
:100D0000400E06D05DDA880EEF6EDF7459DAC80E39
:100D1000EF6E040EE15C02E2E16AE552E16E59D247
:100D2000800E0401205D3CE10001C00E736F0401E0
:100D30002351030A1EE0010A09E0030A2FE1000122
:100D4000CA0E716F290E726F120E22D0C5DA7E0E96
:100D5000F6262A0EA4DA020E0001F76A7125F66E55
:100D60007251F7220900F5CF74F00A00F5CF75F043
:100D70001200030E225D0FE2AFDA800EF6262A0E75
:100D80008EDA71C0F6FF72C0F7FF0800F55000015F
:100D9000746F756B12000001736B12000001736BAE
:100DA000120013DA0401286B296B20511F0B020A71
:100DB00013E0030A0EE0010A24E10001738F81AE03
:100DC00002D00401288100017F051BE10401288372
:100DD00018D00001738F15D00001738F040124BF58
:100DE00005D00ADA670EE926000E04D005DA6B0E8C
:100DF000E926000E38DAE4D9EF50040B02E0010EC8
:100E0000286F000173AF07D0280E716F040E726F48
:100E10007381020E746F020EE15C02E2E16AE55238
:100E2000E16ED7D16D98000173BF08D078AF02D0C2
:100E300061DA2AD07EDABBD9840E27D078BF2BD0D6
:100E4000040120AF24D0000174510401265D00018B
:100E500075510401275904E226C474F027C475F0C3
:100E60001BD80001010E706FA1DA800EEF6E816B4E
:100E7000BED9EE52080EEF6E91DAB9D9840EEF6E3C
:100E8000010E816F8FDA93D9C80EEF6E1200000148
:100E900031DAC80EEF6E120098D90001080E745DA9
:100EA000000E75590DE274C0DEFF75C0DDFF6F5195
:100EB00002E1010E03D06F0506E1020E6F6F03D051
:100EC000080EDE6EDD6A73D9EF9271D9EF906FD99B
:100ED000010EDB50EF126BD9EE52DFCFEFFF000EA9
:100EE000DB50745F010EDB50755B280E7D6F040EC6
:100EF0007E6F73B10FD0F7D91BE071C0F6FF72C0DF
:100F0000F7FF712B000E72230800F55096D9F3E21B
:100F1000DB06F1D7E8D90CE071C0E9FF72C0EAFF47
:100F2000712B000E7223EF5088D9F4E2DB06F2D762
:100F3000020EE15C02E2E16AE552E16E4AD145D976
:100F400056D9EE52EFCFDFFFDFCF0BF00B50000191
:100F5000795D000E7A5903E279C0DFFF09D0DF50D6
:100F60000B6E0C6AE850795D796F0C507A597A6F84
:100F7000010EDB6ADF50F36E010EDBCFF4FFF3509E
:100F8000F45C10E2010EDB5082D976C0E9FF77C035
:100F9000EAFF762B000E7723E552E750EF6E010E45
:100FA000DB2AE8D7000ED8807955000E7A550DE27D
:100FB000F4D854D91CD9EF50400B03E1EAD9C80E3C
:100FC00002D0E7D9880EEF6E0FD0F0D9840EEF6E05
:100FD0007B517C1107E005D07CC0FAFF00017B51FA
:100FE000F96EFADF0001789F020EE15C02E2E16A2D
:100FF000E552E16EEED00001738F10D9010EE66E5E
:10100000E66AE66A620EE66E000EAFD922C461F0AF
:101010000401225104E10001100E606F1200000172
:10102000200E606F04D9150EDCEF08F0CED8000E4C
:10103000DE6E040EDD6EE8D8040DF3500B6E0C6A04
:10104000020E0F0B05E0D8900C320B32E806FBE1E4
:10105000D8900B360C36D8900B360C36D9CFE9FF2A
:10106000DACFEAFF0B50EE260C50ED22A9D8EF9E06
:10107000FD0EDB5002E16AD901D06DD9EA22DECF44
:10108000EEFFDDCFEDFF9CD8EF9C9AD8040EE92649
:10109000000EEA22EF8C020EE15C02E2E16AE55208
:1010A000E16E97D092D8FE0EDB500C6A700F0B6E7B
:1010B0000F0EDFD885D8FD0EDBCFEFFFDBA402D00B
:1010C000E66AF5D8FD0EDBA203D0010EE66EEFD87E
:1010D000020EE15C02E2E16AE552E16E7AD075D877
:1010E000FE0EDB5005E125D962D8840EEF6E05D0E7
:1010F0008BD80CD989D8010F09D9020EE15C02E224
:10110000E16AE552E16E65D060D8FD0EDB5002E089
:1011100022D901D01BD9A7D853D806D9FB0EDBCFD3
:10112000EEFFFC0EDBCFEDFF4BD8EE52FA0EDBCF1D
:10113000EFFF400E45D8E850EF16880E41D8E85032
:10114000EF12FD0EDB5002E006D901D0FFD8EA22F3
:10115000EF74DECF0BF0DDCF0CF00BC0F3FF0CC053
:10116000F4FF020EE15C02E2E16AE552E16E31D089
:10117000F7D8010EF36EFC0EDB5004E0D890F33686
:10118000E806FCE1F31C0B6EFD0EDBCFE9FFFE0E63
:10119000DBCFEAFF0B50EF161CD0FBD8EE52080E47
:1011A000EF6EF7D894EF09F0E66E9DEF09F06BC093
:1011B000E9FF6CC0EAFF1200E66EE66ABDEF09F0D7
:1011C000DECFE9FFDDCFEAFF1200CAD8020EE1262A
:1011D0001200E552E7CFD9FF1200D6D8C9EF09F0C7
:1011E000FE0EEA6ADB34FE0BEA36E96E120063C0DB
:1011F000E9FF64C0EAFF120024510F0BE96EEA6AAE
:10120000D890E936EA361200FD0EDB50E8240D6E68
:10121000FE0EDB50040DF3500D241200000EE66E9E
:10122000E66AE66A710EE66E0F0EB5EF09F0000E83
:10123000E66EE66AE66EE66A1200E66E7DC0E9FFDB
:101240007EC0EAFF7D2B000E7E23E552E750EF6E55
:10125000DF06010E120084D8E6521200280EEE6E50
:10126000040EED6E1200EA22EECFDEFFEDCFDDFFC1
:1012700012000C220BC0DEFF0CC0DDFF1200DF509D
:101280000B6E0C6A080E0B5C000E0C581200EA6A1A
:10129000280FE96E040EEA22EF50E66E1200F722E4
:1012A0000900F5CF71F00A00F5CF72F01200FE0EC2
:1012B000DBCFE6FFBBDEE552E5521200160E6F6E85
:1012C0009F0E6B6E7B0E696E1200010EE66EE66A73
:1012D000000EE66EE66A12002251F66EF76AD890AA
:1012E000F636F7361200D9CFE9FFDACFEAFFEE5033
:1012F000ED101200020E706F5ADFEE52EF6A57DFE8
:10130000C80EEF6E4ADFAADFC9EF09F0040DF3CF74
:101310000BF0F4CF0CF0000E0B26040EAADF840EA7
:101320004FDFE850EF121200020EE926000EEA220B
:1013300012003CD88C0EEF6E1200680EE66E0F0E97
:10134000E66E16DFE552E552E552120049DF670E00
:10135000E926000E120044DF6B0EE926000E120093
:10136000D9CFE6FFE1CFD9FF1200E66E11EC13F002
:101370000B6E050EE15E0B5012003FEC0EF00B6E93
:10138000060EE15E0B501200200EEE6E040EED6EA6
:10139000120065C0E9FF66C0EAFF120028DFC4DF63
:1013A000C4EF09F004DFC0DF2EEF09F0F6DEEDEF49
:0213B00008F043
:0E13B200DACFE4FFE2CFDAFFE9CFE4FFEACFC3
:1013C000E4FFF6CFE4FFF7CFE4FFF5CFE4FFF3CF80
:1013D000E4FFF4CFE4FFFACFE4FF00EE00F00B0EE1
:1013E000E80403E3EECFE4FFFBD700EE0BF0040EBE
:1013F000E80403E3EECFE4FFFBD7C0EC0EF09EA0C1
:1014000011D0D1EC0EF00001CD2B000ECE23E80E52
:10141000CD5D030ECE5905E3CD6BCE6BCF2B000E09
:10142000D0239E90E0EC0EF002E2E16AE552E16E1C
:10143000E552E7CFD9FFE55200EE0EF0040EE804C6
:1014400003E3E5CFEDFFFBD700EE0AF00B0EE80457
:1014500003E3E5CFEDFFFBD7E5CFFAFFE5CFF4FFE0
:10146000E5CFF3FFE5CFF5FFE5CFF7FFE5CFF6FFDB
:10147000E5CFEAFFE5CFE9FFE5CFDAFF1100D8CFEE
:10148000E4FFE0CFE4FFE46EDACFE4FFE2CFDAFF7F
:10149000F3CFE4FFF4CFE4FFC0EC0EF0E0EC0EF08D
:1014A00002E2E16AE552E16EE552E7CFD9FFE5528B
:1014B000E5CFF4FFE5CFF3FFE5CFDAFFE550E5CF69
:1014C000E0FFE5CFD8FF100004D85EEC04F066D84A
:1014D000FCD70F0EC112938C938E02D828EF04F024
:1014E000F5EC0EF0E6528AEC0EF00001E16F070E0B
:1014F000E15D10E1E66A32EC16F0E552DF6E000EB7
:10150000DF80E8EC0EF0E66A50EC17F0E552DF7091
:10151000E8EC0EF093809382948C948ED08EF28EB1
:10152000F28C9D80C50EE66EA0EC16F0E552D1EC73
:101530000EF0190EE66EE66A3C0EE66E92EC15F0C1
:10154000E552E552E552770EC86EB3EC0EF0F0ECC2
:101550000EF0F0EC0EF0F0EC0EF0DAEC0EF0430EC4
:10156000CAEC0EF0F80E8B1694169388938A81506D
:10157000100B01E0010E0001DF6F8150200B01E034
:10158000010EE06F0001C76BC86BC96BCA6B010E1F
:10159000CB6FE552E552E7CFD9FF1200D9CFE6FF76
:1015A000E1CFD9FF060EE1269EAA09D08B84FAEC82
:1015B0000EF00001E80ED16F030ED26F10D00001C3
:1015C000000ED880D155000ED25509E20001D10796
:1015D000000ED25B0001D151D21101E18B940001C8
:1015E000CB5101E0D4DA200E0001605D03E36D50C1
:1015F000020B01E0A4D20001C951CA1102E1000EA0
:1016000008D0C9C0E9FFCAC0EAFFEF50800B01E073
:10161000010E000947E10001A651EA6A860FE96E52
:10162000000EEA22EF5000083DE20501406B000188
:10163000CC51CC2B0501416F0501040E426F000116
:10164000A651EA6A860FE96E000EEA22EFCF43F553
:10165000400EE66E400EE66E050EE66E010EE66E7C
:10166000010EE66E84EC08F00B6E050EE15E0B5089
:10167000F3CFC9F0F4CFCAF00001A651EA6A860F91
:10168000E96E000EEA22EF6A0001A651000803E2AB
:101690000001A60707D00001A551000803E20001E0
:1016A0001F0EA66F0001C751C81102E1000E08D03D
:1016B000C7C0E9FFC8C0EAFFEF50800B01E0010E90
:1016C000000901E03CD205010251050A01E1C8D13F
:1016D000030A01E161D1040A17E0030A05E0010AE7
:1016E00001E0ECD1FF002BD2E66A32EC16F0E552B5
:1016F000DF6E000EDB80DFCFE6FFE66A12EC16F04D
:10170000E552E552FF001BD20001C951CA1102E1A6
:10171000000E08D0C9C0E9FFCAC0EAFFEF50800B35
:1017200001E0010E000901E036D100C540F50501D8
:10173000416B0501030E426F0501436B0501085122
:101740000A0A01E17ED00E0A71E0070A64E0010A8C
:1017500020E0030A06E0010A01E0F3D0E1C048F509
:10176000F3D00501486B1B0E0B6E280E0C6E0D6A34
:101770000BC0E6FF0CC0E6FF0DC0E6FF480EE66EAC
:10178000050EE66E4FEC13F00E6E050EE15E0E5088
:10179000DBD00501486B0F0E0B6E280E0C6E0D6A28
:1017A0000BC0E6FF0CC0E6FF0DC0E6FF480EE66E7C
:1017B000050EE66E4FEC13F00E6E050EE15E0E5058
:1017C0000D0E0B6E280E0C6E0D6A0BC0E6FF0CC0E2
:1017D000E6FF0DC0E6FF480EE66E050EE66E4FEC26
:1017E00013F00E6E050EE15E0E50040E0B6E280E09
:1017F0000C6E0D6A0BC0E6FF0CC0E6FF0DC0E6FFE5
:10180000480EE66E050EE66E4FEC13F00E6E050EFA
:10181000E15E0E5099D092CF48F593CF49F594CF21
:101820004AF595CF4BF596CF4CF58ED080CF48F545
:1018300081CF49F582CF4AF583CF4BF584CF4CF564
:1018400083D0800EE66E080EE66E1AEC17F0E552B5
:10185000E552C58097EC17F0C00EE66EE0EC16F08E
:10186000E552E66AE0EC16F0E552C58297EC17F017
:10187000C10EE66EE0EC16F0E552010EDB6A020ED8
:10188000DB6A010EDBCF0BF0020EDBCF0CF0040E97
:101890000B5C000E0C584FE2010EF36E050EF3CFF9
:1018A000DBFFC586030EDB6A040EDB6A030EDBCFAB
:1018B0000BF0040EDBCF0CF0E80E0B5C030E0C58A3
:1018C00017E2C7A00FD0010EDBCFE9FF020EDBCF7E
:1018D000EAFF480EE926050EEA22C9CFEFFF050E02
:1018E000DB6A06D0030EDB2A040E01E3DB2ADED717
:1018F000050EDB5008E00501080E436FC58AC58858
:1019000097EC17F018D0010EDBCF0BF0020EDBCFF7
:101910000CF0030E0B5C000E0C5803E2C59AC58850
:1019200002D0C58AC58897EC17F0010EDB2A020E9B
:1019300001E3DB2AA6D7C58497EC17F0A5EC17F0D6
:1019400003D00501020E436F400EE66E400EE66EB8
:10195000050EE66E010EE66E010EE66E84EC08F0F2
:101960000B6E050EE15E0B50F3CFC9F0F4CFCAF059
:10197000400EE66E000EE66E050EE66EE66A010E9D
:10198000E66E84EC08F00B6E050EE15E0B50F3CFB3
:10199000C7F0F4CFC8F0D3D005010851030A37E0EF
:1019A000010A25E0030A13E0010A01E040D0050125
:1019B0000951921205010A51931205010B5194121B
:1019C00005010C51951205010D51961235D00501F6
:1019D000091D921605010A1D931605010B1D94168B
:1019E00005010C1D951605010D1D961625D0050146
:1019F000091D891605010A1D8A1605010B1D8B1686
:101A000005010C1D8C1605010D1D8D1615D0050147
:101A10000951891205010A518A1205010B518B12D5
:101A200005010C518C1205010D518D1205D0030ECC
:101A3000E66E35EC17F0E552400EE66E000EE66EEF
:101A4000050EE66EE66A010EE66E84EC08F00B6E9B
:101A5000050EE15E0B50F3CFC7F0F4CFC8F06FD0A6
:101A6000800EE66E080EE66E1AEC17F0E552E552AF
:101A7000C58097EC17F0E66AE0EC16F0E552080E28
:101A8000E66E050EE66ED7EC15F0E552E552C5841C
:101A9000A5EC17F0400EE66E000EE66E050EE66E43
:101AA000E66A010EE66E84EC08F00B6E050EE15E50
:101AB0000B50F3CFC7F0F4CFC8F041D00001C951AB
:101AC000CA1102E1000E08D0C9C0E9FFCAC0EAFF8E
:101AD000EF50800B01E0010E000931E100C540F537
:101AE0000501416B0501030E426F0501010E436FB5
:101AF000400EE66E400EE66E050EE66E010EE66ED8
:101B0000010EE66E84EC08F00B6E050EE15E0B50E4
:101B1000F3CFC9F0F4CFCAF0400EE66E000EE66EC9
:101B2000050EE66EE66A010EE66E84EC08F00B6EBA
:101B3000050EE15E0B50F3CFC7F0F4CFC8F0060EF0
:101B4000E15C02E2E16AE552E16EE552E7CFD9FFDE
:101B500012008150100B01E0010E0001DF5D07E073
:101B60008150100B01E0010EDF6F81A8010C000C09
:101B70008150200B01E0010E0001E05D07E0815083
:101B8000200B01E0010EE06F81AA010C000C0001A6
:101B9000D351D41104E1100ED36F270ED46FD307A5
:101BA000000ED45B6DA207D0D351D4112EE18B70FF
:101BB0008BB013D027D00001605102E18B9022D06E
:101BC000600502E18B8009D0020E605D02E18B802E
:101BD00019D0040E605D03E18B908B821200100E11
:101BE000605D06E10001D351D4110FE18B700AD082
:101BF000200E605D0AE10001D351D41106E18B7023
:101C00008BA002D08B9212008B821200ACD8D2D85B
:101C1000620ECAEF0EF0A7D8CDD8420ECAEF0EF072
:101C2000120012007EEF14F012001E0EE66E010E7E
:101C3000E66E52EC08F0E552E552400EE66E000EFC
:101C4000E66E050EE66EE66A010EE66E84EC08F0BE
:101C50000B6E050EE15E0B50F3CFC7F0F4CFC8F06A
:101C600012006D840001080EE26F070EE36FE207B9
:101C7000000EE35BE251E311FAE16D941200D9CF5B
:101C8000E6FFE1CFD9FFFD0EDBCF06F0FE0EDBCF86
:101C900007F0010E061801E1075033E0E868061866
:101CA00002E1E86807182BE0030E061801E107506F
:101CB00024E0040E061801E107501DE0020E06188C
:101CC00001E1075016E0170E061801E107500FE07A
:101CD000160E061801E1075008E0150E061801E17E
:101CE000075001E010D0A1DF0FD09EDF0DD09ADFAA
:101CF0000BD096DF09D08ADF07D08DDF05D091DFCA
:101D000003D0000001D000D0010E00D0E552E7CF93
:101D1000D9FF12006AD8E652D0B202D0010E15D017
:101D2000D0B802D0020E11D0D0B002D0030E0DD028
:101D3000D0B602D0040E09D0FCAE02D0050E05D0FC
:101D4000FCAC02D0060E01D0070EDF6ED088D08624
:101D5000D084D082D080FC9EFC9CDF50E552E552BE
:101D6000E7CFD9FF1200800EE66E080EE66E1AEC81
:101D700017F0E552E552C58097EC17F0F0EF0EF042
:101D8000E65233D8020EE126F350DF6E010EF4CF97
:101D9000DBFF1200E66EE0EC16F0E552C584A5EF1D
:101DA00017F0C00EE66EE00EE66EFEEC16F0E552A1
:101DB000E55212001B0EE66EE0EC16F0E552120042
:101DC000DF50F36E010EDB50F46E020EE15C120088
:101DD000DFCFE6FFE66A12EC16F0E552E55212009C
:101DE000E66AE0EC16F0E5521200D9CFE6FFE1CF4B
:041DF000D9FF120005
:0C1DF400D9CFE6FFE1CFD9FF110EE126A8
:101E0000ACA2FED7C1EC16F0DF6EDF502AE0200E48
:101E10000001E76EE819E8AE02D0E73402D0E750DF
:101E2000E85D0EE2E8C0E9FFEA6AE9BEEA68A70EEB
:101E3000E926000EEA22DFCFEFFF0001E82B10D0E9
:101E4000C80E0B6E280E0C6E0D6A0BC0E6FF0CC0A0
:101E5000E6FF0DC0E6FF48EC16F0E552E552E5520C
:101E6000B7D3E8C0E9FFEA6AE9BEEA68A70EE92647
:101E7000000EEA22EF6A0001E86BC20E0B6E280E1C
:101E80000C6E0D6A0BC0E6FF0CC0E6FF0DC0E6FF4E
:101E9000A70EE66E000EE66E6BEC13F00E6E050EEE
:101EA000E15E0E50000902E1FF0092D3BD0E0B6E01
:101EB000280E0C6E0D6A0BC0E6FF0CC0E6FF0DC0CD
:101EC000E6FFA70EE66E000EE66E6BEC13F00E6EEC
:101ED000050EE15E0E50000913E1ACA2FED7B80E6C
:101EE0000B6E280E0C6E0D6A0BC0E6FF0CC0E6FFF1
:101EF0000DC0E6FF48EC16F0E552E552E55268D316
:101F0000030EE66EE66AB40E0B6E280E0C6E0D6ABA
:101F10000BC0E6FF0CC0E6FF0DC0E6FFA70EE66EA5
:101F2000000EE66EF2EC12F00E6E070EE15E0E5041
:101F3000000901E01AD1DE52520EDD6E520EF36E30
:101F4000020EF3CFDBFF540EF36E030EF3CFDBFF75
:101F50003A0EF36E040EF3CFDBFF050EAAC0DBFFD3
:101F60003A0EF36E060EF3CFDBFF070EDB6AACA270
:101F7000FED70001AA51450A01E1BAD0010A01E1E8
:101F80008BD0070A5DE0010A2FE0030A01E0DCD0F4
:101F9000D9500C0FE66E000EDA20E66E9250E66E17
:101FA00081EC13F0E552E552E552F3CF0BF0F4CF9C
:101FB0000CF00BC0E6FF0CC0E6FFD950010FE66E37
:101FC000000EDA20E66E2BEC13F0E552E552E552F6
:101FD000E552D950010FE66E000EDA20E66E7AEC7B
:101FE00016F0E552E552C0D0D9500C0FE66E000E47
:101FF000DA20E66E9350E66E81EC13F0E552E5527E
:10200000E552F3CF0BF0F4CF0CF00BC0E6FF0CC0A1
:10201000E6FFD950010FE66E000EDA20E66E2BECDB
:1020200013F0E552E552E552E552D950010FE66E44
:10203000000EDA20E66E7AEC16F0E552E55294D006
:10204000D9500C0FE66E000EDA20E66E9450E66E64
:1020500081EC13F0E552E552E552F3CF0BF0F4CFEB
:102060000CF00BC0E6FF0CC0E6FFD950010FE66E86
:10207000000EDA20E66E2BEC13F0E552E552E55245
:10208000E552D950010FE66E000EDA20E66E7AECCA
:1020900016F0E552E55268D0D9500C0FE66E000EEE
:1020A000DA20E66E9550E66E81EC13F0E552E552CB
:1020B000E552F3CF0BF0F4CF0CF00BC0E6FF0CC0F1
:1020C000E6FFD950010FE66E000EDA20E66E2BEC2B
:1020D00013F0E552E552E552E552D950010FE66E94
:1020E000000EDA20E66E7AEC16F0E552E5523CD0AE
:1020F000D9500C0FE66E000EDA20E66E9650E66EB2
:1021000081EC13F0E552E552E552F3CF0BF0F4CF3A
:102110000CF00BC0E6FF0CC0E6FFD950010FE66ED5
:10212000000EDA20E66E2BEC13F0E552E552E55294
:10213000E552D950010FE66E000EDA20E66E7AEC19
:1021400016F0E552E55210D09A0E0B6E280E0C6E6A
:102150000D6A0BC0E6FF0CC0E6FF0DC0E6FF48ECC1
:1021600016F0E552E552E55233D2030EE66EE66A0A
:10217000960E0B6E280E0C6E0D6A0BC0E6FF0CC09F
:10218000E6FF0DC0E6FFA70EE66E000EE66EF2EC6F
:1021900012F00E6E070EE15E0E50000963E1300E84
:1021A0000001AC5D0B6E010E0B5204E0E846FE0B25
:1021B0000B06FCE1DF6E0001AB51450A31E0010A7C
:1021C00025E0070A19E0010A0DE0030A01E039D011
:1021D000310E0001AE5D03E1DF50921202D0DF1C30
:1021E00092163FD0310E0001AE5D03E1DF50931235
:1021F00002D0DF1C931635D0310E0001AE5D03E135
:10220000DF50941202D0DF1C94162BD0310E000147
:10221000AE5D03E1DF50951202D0DF1C951621D090
:10222000630E0B6E280E0C6E0D6A0BC0E6FF0CC021
:10223000E6FF0DC0E6FF48EC16F0E552E552E55228
:1022400010D09A0E0B6E280E0C6E0D6A0BC0E6FFB6
:102250000CC0E6FF0DC0E6FF48EC16F0E552E55273
:10226000E552B6D1020EE66EE66A600E0B6E280EDF
:102270000C6E0D6A0BC0E6FF0CC0E6FF0DC0E6FF5A
:10228000A70EE66E000EE66EF2EC12F00E6E070E72
:10229000E15E0E50000901E015D1DE52520EDD6EF6
:1022A000520EF36E020EF3CFDBFF3A0EF36E030E07
:1022B000F3CFDBFF040EA9C0DBFF3A0EF36E050E71
:1022C000F3CFDBFF060EDB6AACA2FED70001A951FB
:1022D000450A01E1BAD0010A01E18BD0070A5DE0AD
:1022E000010A2FE0030A01E0DCD0D9500C0FE66EA2
:1022F000000EDA20E66E8050E66E81EC13F0E552B7
:10230000E552E552F3CF0BF0F4CF0CF00BC0E6FF33
:102310000CC0E6FFD950010FE66E000EDA20E66E23
:102320002BEC13F0E552E552E552E552D950010F7E
:10233000E66E000EDA20E66E7AEC16F0E552E55213
:10234000C0D0D9500C0FE66E000EDA20E66E815038
:10235000E66E81EC13F0E552E552E552F3CF0BF057
:10236000F4CF0CF00BC0E6FF0CC0E6FFD950010F14
:10237000E66E000EDA20E66E2BEC13F0E552E55225
:10238000E552E552D950010FE66E000EDA20E66EF6
:102390007AEC16F0E552E55294D0D9500C0FE66E67
:1023A000000EDA20E66E8250E66E81EC13F0E55204
:1023B000E552E552F3CF0BF0F4CF0CF00BC0E6FF83
:1023C0000CC0E6FFD950010FE66E000EDA20E66E73
:1023D0002BEC13F0E552E552E552E552D950010FCE
:1023E000E66E000EDA20E66E7AEC16F0E552E55263
:1023F00068D0D9500C0FE66E000EDA20E66E8350DE
:10240000E66E81EC13F0E552E552E552F3CF0BF0A6
:10241000F4CF0CF00BC0E6FF0CC0E6FFD950010F63
:10242000E66E000EDA20E66E2BEC13F0E552E55274
:10243000E552E552D950010FE66E000EDA20E66E45
:102440007AEC16F0E552E5523CD0D9500C0FE66E0E
:10245000000EDA20E66E8450E66E81EC13F0E55251
:10246000E552E552F3CF0BF0F4CF0CF00BC0E6FFD2
:102470000CC0E6FFD950010FE66E000EDA20E66EC2
:102480002BEC13F0E552E552E552E552D950010F1D
:10249000E66E000EDA20E66E7AEC16F0E552E552B2
:1024A00010D09A0E0B6E280E0C6E0D6A0BC0E6FF54
:1024B0000CC0E6FF0DC0E6FF48EC16F0E552E55211
:1024C000E55286D0020EE66EE66A5D0E0B6E280EB1
:1024D0000C6E0D6A0BC0E6FF0CC0E6FF0DC0E6FFF8
:1024E000A70EE66E000EE66EF2EC12F00E6E070E10
:1024F000E15E0E5000095CE1300E0001AB5D0B6E39
:10250000010E0B5204E0E846FE0B0B06FCE1DF6E09
:102510000001AA51450A31E0010A25E0070A19E045
:10252000010A0DE0030A01E032D0310E0001AD5D79
:1025300003E1DF50891202D0DF1C891638D0310E3A
:102540000001AD5D03E1DF508A1202D0DF1C8A1664
:102550002ED0310E0001AD5D03E1DF508B1202D0B1
:10256000DF1C8B1624D0310E0001AD5D03E1DF507E
:102570008C1202D0DF1C8C161AD0310E0001AD5D1A
:1025800003E1DF508D1202D0DF1C8D1610D09A0EA1
:102590000B6E280E0C6E0D6A0BC0E6FF0CC0E6FF3A
:1025A0000DC0E6FF48EC16F0E552E552E55210D0BA
:1025B0003E0E0B6E280E0C6E0D6A0BC0E6FF0CC0B3
:1025C000E6FF0DC0E6FF48EC16F0E552E552E55295
:1025D000110EE15C02E2E16AE552E16EE552E7CFFD
:0425E000D9FF12000D
:0C25E400FB0EE3CFF6FFFC0EE3CFF7FF89
:1025F000FD0EE3CFF8FFFE0EE3CFE9FFFF0EE3CFC2
:10260000EAFFF90EE35003E1FA0EE35009E0F90E98
:10261000E30602E2FA0EE3060900F550EE5CF1E093
:102620001200FE0EE3CFE9FFFF0EE3CFEAFFE9CF92
:10263000F3FFEACFF4FFFB0EE35003E1FC0EE3509F
:1026400009E0FB0EE30602E2FC0EE306FD0EE3509A
:10265000EE6EF1D71200D9CFE6FFDACFE6FFFA0E21
:10266000E3CFD9FFFB0EE3CFDAFFFC0EE3CFE9FFA8
:10267000FD0EE3CFEAFFE9CFF3FFEACFF4FFEE660A
:10268000FED7ED52DFCFEEFFDE66FCD7FF0EE3CFC5
:10269000DAFFE552FF0EE3CFD9FFE5521200FB0E41
:1026A000E3CFF6FFFC0EE3CFF7FFFD0EE3CFF8FF1D
:1026B000FE0EE3CFE9FFFF0EE3CFEAFFE9CFF3FF22
:1026C000EACFF4FFEE66FED7ED520900F5CFEFFF3B
:1026D000EE66FBD71200FB0EE3CFF6FFFC0EE3CF56
:1026E000F7FFFD0EE3CFF8FFFE0EE3CFE9FFFF0E8D
:1026F000E3CFEAFF0900F550EF5C02E1EE66FAD79E
:022700001200C5
:0E270200D9CFE6FFDACFE6FFFB0EE3CFD9FF1B
:10271000FC0EE3CFDAFFFD0EE35205E72D0EDE6E71
:10272000FD0EE31EE32AE652E652FE0EE124E76EBA
:10273000FF0EE220E46EE652F90EE3CFE6FFDFEC97
:1027400013F0FB0EE124E96EFF0EE220EA6ECFECFF
:1027500013F004E1CCEC13F003E104D0DAEC13F055
:10276000D5EC13F0DAEC13F0DE6AFB0EE126FF0E77
:10277000E222FF0EE3CFDAFFE552FF0EE3CFD9FFEF
:10278000E552FD0EE124E96EFF0EE220EA6EEECF87
:10279000F3FFEFCFF4FF1200EF380F0B1200EF50F2
:1027A0000F0B02E1EE52D8841200EF380F0B300FFE
:1027B000DE6E1200EE500F0B300FDE6E1200FD0EBB
:1027C000E3CFE9FFFE0EE3CFEAFF080EE66EEE6A06
:1027D000EF6AD890FE0EE336ED36EF36FF0EE306D5
:1027E00006E0F9EC13F0EE52F9EC13F0F3D7E56ED6
:1027F0001200030EEF24E8B6EF6E300EEF24E8BEB1
:04280000EF6E000C6B
:0C28040030303A31313A34360020004FB9
:102810006374203234203230303900436172746581
:1028200020642765737361697320322E300A4F6C00
:10283000697669657220424943484C4552004552C9
:1028400052455552203A20436F6D6D616E6465208C
:102850006E6F6E207265636F6E6E756500573A001D
:10286000523A00455252455552203A204C65205468
:1028700052495320647520706F72742045206E6534
:1028800020706575742070617320EA74726520632E
:1028900068616E67E90057543A00455252455552F7
:1028A000203A204D61757661697320617267756D9C
:1028B000656E740052543A00504F4E470050494ED6
:1028C0004700524553455400455252455552203A0F
:1028D000204C6F6E6775657572206D6178696D61EA
:1028E0006C65206465206C6120636F6D6D616E6442
:0B28F000652064E970617373E9650006
:0128FB0000DC
:0428FC000401205162
:102900001F0B010801E01200245101E01200060E25
:10291000215D21E12351230A1BE0010A0CE0030A97
:102920001AE10001610517E10001EE0E716F290E39
:10293000726F090E09D0000161050DE10001610E01
:10294000716F2A0E726F1D0E746F756BC00E02D000
:102950000001800E736F04012051600BE842E842D1
:10296000E842E842E842010801E0120021510B0A66
:1029700026E0080A19E0090A11E0080A05E00B0A36
:1029800023E0080A21E012000001E40E716F000E3E
:10299000726F010E746F756BC10E0FD00001800E47
:1029A000736F23C4E4F012000001E50E716F000E96
:1029B000726F010E746F756B810E736F12000001E0
:0A29C000800E736F22C4E5F01200D0
:0629CA00120100020000F2
:1029D0000008D804010002000102000109022900D8
:1029E000010100C0320904000002030000000921B7
:1029F00011010001221D00070581034000010705A8
:102A00000103400001040309042C034D006F006220
:102A10000069006C006500200052006F0062006FCA
:102A2000007400200050006C006100740066006FAC
:102A30000072006D002C035500530042002000443A
:102A4000006500760065006C006F0070006D006529
:102A5000006E007400200042006F0061007200648C
:102A6000000600FF0901A10119012940150026FFF8
:102A700000750895408100190129409100C0DC29AA
:062A8000052A092A352A8F
:0A2A86002A0EF66E080EF76E000E21
:102A9000F86E00010900F550DA6F0900F550DB6FA0
:102AA00003E1DA6701D03DD00900F550D56F090088
:102AB000F550D66F0900F550D76F09000900F550A1
:102AC000E96E0900F550EA6E090009000900F550A9
:102AD000D86F0900F550D96F09000900F6CFDCF076
:102AE000F7CFDDF0F8CFDEF0D5C0F6FFD6C0F7FFA8
:102AF000D7C0F8FF0001D85302E1D95307E009001D
:102B0000F550EE6ED807F8E2D907F9D7DCC0F6FF2A
:102B1000DDC0F7FFDEC0F8FF0001DA07000EDB5B67
:042B2000BFD7120009
:0C2B2400D9CFE6FFDACFE6FFE1CFD9FF02
:102B3000E2CFDAFFAC6AAB6AFD0EDBB0AC88DBA299
:102B400002D0AC8CAB8CDBB4AC8EDBA602D0AB88F5
:102B500001D0AB8ADBB8AC849E98DBBAAC86DBAC28
:102B600002D09D8A01D09D9A9E9ADBAE02D09D88AC
:102B700001D09D98FB0EDB50AF6EFB0EFC0EDBCF41
:102B80000CF00CC00BF00C6A0B50B06EAC8AAB8E24
:102B9000949C948EAC50100B04E0AC50800B01E17F
:0E2BA000948CE552E5CFDAFFE7CFD9FF1200A3
:022BAE00D9CF7D
:102BB000E6FFDACFE6FFE1CFD9FFE2CFDAFFE65258
:102BC00029D820E0C6A60AD025D8E66EE0EC16F09B
:102BD000E552DF6EDF5010E0DF5015D09E961AD818
:102BE000C96EC6889EA6FED7C750040B05E1C75024
:102BF000010B02E1FE0E07D0FC0EDB2AFD0EE0E326
:102C0000DB2ADED7000EE552E552E5CFDAFFE7CF4B
:102C1000D9FF1200FC0EDBCFE9FFFD0EDBCFEAFF90
:042C2000EF5012005F
:0C2C24002DD8FD0EDB50A86EA69EA69CCD
:102C3000A684F250800B01E0010E0001E76FF29EC6
:102C4000550EA76EAA0EA76EA682E751E8B0F28EC7
:102C5000E8A0F29EA6B2FED7A198A694E552E7CFCF
:102C6000D9FF12000DD8A69EA69CA680020EE66E85
:102C70008CEC17F0E552A850E552E7CFD9FF1200CF
:102C8000D9CFE6FFE1CFD9FFFE0EDB50A96E1200CF
:102C9000D9CFE6FFDACFE6FFE1CFD9FFE2CFDAFF07
:102CA000ACA2FED7FB0EDBCFF6FFFC0EDBCFF7FFAF
:102CB000FD0EDBCFF8FF0800F550E66E67EC17F06D
:102CC000E552D950FB0FE96EFF0EDA20EA6EEFCF26
:102CD000F6FFEE2AEFCFF7FF000EEE22EFCFF8FF60
:102CE000EE220800F550DCE1E552E5CFDAFFE7CF50
:042CF000D9FF1200F6
:0C2CF400D9CFE6FFDACFE6FFE1CFD9FF31
:102D0000E2CFDAFFACA2FED7FC0EDBCFE9FFFD0E6F
:102D1000DBCFEAFFEF50E66E67EC17F0E552FC0EF2
:102D2000DBCFE9FFDB2AFD0EDBCFEAFF01E3DB2A85
:102D3000EF50E8E1E552E5CFDAFFE7CFD9FF120027
:102D4000D9CFE6FFDACFE6FFE1CFD9FFE2CFDAFF56
:102D5000FD0EDB507E0BCD6EFD0EDBAC02D0CD8EBA
:102D600001D0CD9ECF6ACE6A9E90DBAE02D09D8010
:102D700001D09D90CD80E552E5CFDAFFE7CFD9FFB6
:022D800012003F
:0E2D8200D9CFE6FFDACFE6FFE1CFD9FFE2CFEF
:102D9000DAFFE652F20E0001E617ABAC03D0E69183
:102DA000ABB0E681ABB4E685ABB2E687AE50DF6E82
:102DB000DF50E552E552E5CFDAFFE7CFD9FF120049
:102DC000D9CFE6FFDACFE6FFE1CFD9FFE2CFDAFFD6
:102DD000FD0EDB50C96EC6AE02D0FF0E09D0C7B0E3
:102DE000FED797EC17F0C5AC02D0FE0E01D0000E56
:0C2DF000E552E5CFDAFFE7CFD9FF120073
:042DFC00D9CFE6FF46
:102E0000DACFE6FFE1CFD9FFE2CFDAFFE652E652B2
:102E1000FC0EDBCFDEFFDBCFDDFF010EDB50CF6E24
:102E2000DF50CE6EE552E552E552E5CFDAFFE7CF4F
:042E3000D9FF1200B4
:0C2E3400D9CFE6FFDACFE6FFE1CFD9FFEF
:102E4000E2CFDAFF3F0EC716C66AC56AFD0EDB5039
:102E5000C612FC0EDB50C71293829380C68AE552DD
:0A2E6000E5CFDAFFE7CFD9FF12003B
:062E6A00D9CFE6FFE1CF25
:102E7000D9FF00010ED8EF50000803E2A6291F0B6E
:102E8000A66F07D8FE0EDBCFEFFFE552E7CFD9FFE5
:102E90001200A651EA6A860FE96E000EEA221200BD
:102EA000FF0EE350106EEF0E01D0F30EE76EE72E2B
:102EB00057EF17F00C0E0F6EE76AE72E5DEF17F075
:0E2EC0000F2E5CEF17F0102E55EF17F01200DA
:022ECE00D9CF5A
:102ED000E6FFDACFE6FFE1CFD9FFE2CFDAFFACAC15
:102EE00004D0AC900001E6B3AC80FD0EDB50AD6EBB
:0C2EF000E552E5CFDAFFE7CFD9FF120072
:042EFC0013EE00F0E1
:102F000023EE00F0F86A0A9C43EC15F0A7EC17F0EA
:082F100064EC0AF0FBD712008B
:082F1800FF0EE350E84E120029
:0E2F2000000000D000D000D0E82EFAD712003A
:022F2E001F0E74
:0C2F3000C514FDE1C750040BFAE11200CB
:042F3C0000EE00F0B3
:0A2F40000F0EEE6AEA62FDD71200E0
:042F4A00C69A120011
:022F4E0012006F
:0E2F5000000000000100000000000000000072
:022F5E00000071
:102F60000000000000000000000000000000000061
:0F2F700000000000000000000000000000000052
:00000001FF
