:020000040000FA
:060000004FEF22F0120098
:0600080004EF04F01200F9
:060018000CEF04F01200E1
:060800004FEF22F0120090
:060808003AEF04F01200BB
:060818009CEF04F0120049
:06082A0006005445000029
:100830002601000024000000334500006B01000089
:100840002100000030450000BB0100000300000053
:1008500027450000AF010000090000001745000017
:100860008C010000100000000E450000A6010000F1
:04087000090000007B
:0C087400DACFE4FFE2CFDAFFE9CFE4FFC7
:10088000EACFE4FFF6CFE4FFF7CFE4FFF5CFE4FFD4
:10089000F3CFE4FFF4CFE4FFFACFE4FF00EE22F061
:1008A000140EE80403E3EECFE4FFFBD700EE00F004
:1008B000220EE80403E3EECFE4FFFBD7A4EC0DF037
:1008C000A1A203D01BEC1BF0A1929EAA03D0BFEC07
:1008D00013F09E9A6FEC19F0F2A403D05AEC1CF0BE
:1008E000F294B7EC0DF002E2E16AE552B5EC0DF0DE
:1008F000E55200EE21F0220EE80403E3E5CFEDFF20
:10090000FBD700EE35F0140EE80403E3E5CFEDFF6E
:10091000FBD7E5CFFAFFE5CFF4FFE5CFF3FFE5CF57
:10092000F5FFE5CFF7FFE5CFF6FFE5CFEAFFE5CF2F
:10093000E9FFE5CFDAFF1100D8CFE4FFE0CFE4FF15
:10094000E46EDACFE4FFE2CFDAFFF3CFE4FFF4CFD7
:10095000E4FFA4EC0DF0B7EC0DF002E2E16AE55221
:10096000B5EC0DF0E552E5CFF4FFE5CFF3FFE5CFB1
:10097000DAFFE550E5CFE0FFE5CFD8FF100004D85F
:100980004AEC0EF047D8FCD70F0EC11202D814EF74
:100990000EF0EFEC0DF0E6522BEC0DF00101B86F0C
:1009A000070EB85D10E1E66A65EC20F0E552DF6EF7
:1009B000000EDF80BFEC0DF0E66A21EC22F0E5527C
:1009C000DF70BFEC0DF093809382948C948ED08E68
:1009D000F28EF28C770EC86E070EE66EDEEC1DF01E
:1009E000E5523F0E8A1693160101AF6BB06BB16BE7
:1009F000B26B010EB36FBAEC13F006EC1BF0E66AB3
:100A000034EC1CF0E5524AEC1DF05FEC19F0E552B5
:100A100000EF0EF0D9CFE6FFE1CFD9FF170EE126A8
:100A2000160EDB6A0101B35102E01FEC0CF0200E40
:100A30000101005D03E36D50020B02E015EF0CF0C5
:100A4000160EDB5036E022EC1DF0000932E0010109
:100A5000B151B21102E1000E08D0B1C1E9FFB2C13B
:100A6000EAFFEF50800B01E0010E000922E10501D1
:100A7000406B0101B451B42B0501416F05010C0E0F
:100A8000426F0501436B400EE66E400EE66E050EAA
:100A9000E66E010EE66E010EE66E65EC12F0006E7B
:100AA000050EE15E0050F3CFB1F1F4CFB2F1160EB6
:100AB000DB6A0101B151B21102E1000E08D0B1C1EF
:100AC000E9FFB2C1EAFFEF50800B01E0010E00091F
:100AD0003DE10101B551EA6A6B0FE96E010EEA22B0
:100AE000EF5034E00501406B0101B451B42B050116
:100AF000416F0501040E426F0101B551EA6A6B0FA7
:100B0000E96E010EEA22EFCF43F5400EE66E400E8D
:100B1000E66E050EE66E010EE66E010EE66E65EC03
:100B200012F0006E050EE15E0050F3CFB1F1F4CF8C
:100B3000B2F10101B551EA6A6B0FE96E010EEA22CA
:100B4000EF6A0101B5291F0B0101B56F0101AF511A
:100B5000B01102E1000E08D0AFC1E9FFB0C1EAFF59
:100B6000EF50800B01E0010E000902E015EF0CF0E0
:100B700005010251070A02E17BEF0BF0020A02E1D4
:100B80004DEF0BF00E0A02E1F4EF0AF0060A02E163
:100B900079EF0AF0040A01E1A0D20F0A01E1F5D1D0
:100BA000040A1AE0030A07E0010A02E0D4EF0BF09E
:100BB000FF0015EF0CF0E66A65EC20F0E552DF6E01
:100BC000000EDB80DFCFE6FFE66A45EC20F0E55261
:100BD000E552FF0015EF0CF00101B151B21102E135
:100BE000000E08D0B1C1E9FFB2C1EAFFEF50800B9F
:100BF00001E0010E000901E0C6D100C540F5050184
:100C0000416B0501030E426F0501436B050108515D
:100C1000050A01E101D10F0A01E17ED00E0A71E05F
:100C2000070A64E0010A20E0030A06E0010A01E085
:100C300080D1B8C148F580D10501486B730E006EB4
:100C4000420E016E026A00C0E6FF01C0E6FF02C06C
:100C5000E6FF480EE66E050EE66E29EC20F0036E08
:100C6000050EE15E035068D10501486B670E006E0A
:100C7000420E016E026A00C0E6FF01C0E6FF02C03C
:100C8000E6FF480EE66E050EE66E29EC20F0036ED8
:100C9000050EE15E0350650E006E420E016E026AA3
:100CA00000C0E6FF01C0E6FF02C0E6FF480EE66EA8
:100CB000050EE66E29EC20F0036E050EE15E035092
:100CC0005C0E006E420E016E026A00C0E6FF01C0BB
:100CD000E6FF02C0E6FF480EE66E050EE66E29EC62
:100CE00020F0036E050EE15E035026D192CF48F549
:100CF00093CF49F594CF4AF595CF4BF596CF4CF568
:100D00001BD180CF48F581CF49F582CF4AF583CFFB
:100D10004BF584CF4CF510D1800EE66E080EE66ED2
:100D2000BBEC21F0E552E552C58071EC22F0C00E1B
:100D3000E66E10EC21F0E552E66A10EC21F0E55287
:100D4000C58271EC22F0C10EE66E10EC21F0E55286
:100D5000010EDB6A020EDB6A010EDBCF00F0020E31
:100D6000DBCF01F0040E005C000E01584FE2010ED3
:100D7000F36E150EF3CFDBFFC586130EDB6A140E80
:100D8000DB6A130EDBCF00F0140EDBCF01F0E80EB0
:100D9000005C030E015817E2C7A00FD0010EDBCF95
:100DA000E9FF020EDBCFEAFF480EE926050EEA2234
:100DB000C9CFEFFF150EDB6A06D0130EDB2A140E27
:100DC00001E3DB2ADED7150EDB5008E00501080E33
:100DD000436FC58AC58871EC22F018D0010EDBCFB5
:100DE00000F0020EDBCF01F0030E005C000E015894
:100DF00003E2C59AC58802D0C58AC58871EC22F085
:100E0000010EDB2A020E01E3DB2AA6D7C58471ECB2
:100E100022F084EC22F090D0010EDB6A020EDB6A35
:100E2000010EDBCF00F0020EDBCF01F0020E005C02
:100E3000000E015801E37CD0010EDBCFE6FF1FEC72
:100E40001AF0E5520B0E28C0DBFF0C0E29C0DBFFA9
:100E50000D0E2AC0DBFF0E0E2BC0DBFF040E2A6E28
:100E60002B6A010EDBCF2FF0020EDBCF30F055ECFA
:100E700018F028C0E9FF29C0EAFF480EE926050E50
:100E8000EA220E0EDBCFEFFF040E2A6E2B6A010E54
:100E9000DBCF2FF0020EDBCF30F055EC18F028C07E
:100EA000E9FF29C0EAFF010EE926000EEA22480EFA
:100EB000E926050EEA220D0EDBCFEFFF040E2A6EA7
:100EC0002B6A010EDBCF2FF0020EDBCF30F055EC9A
:100ED00018F028C0E9FF29C0EAFF020EE926000E3B
:100EE000EA22480EE926050EEA220C0EDBCFEFFFC0
:100EF000040E2A6E2B6A010EDBCF2FF0020EDBCF21
:100F000030F055EC18F028C0E9FF29C0EAFF030EC5
:100F1000E926000EEA22480EE926050EEA220B0E0B
:100F2000DBCFEFFF010EDB2A020E01E3DB2A78D7CD
:100F300003D00501020E436F400EE66E400EE66ED2
:100F4000050EE66E010EE66E010EE66E65EC12F021
:100F5000006E050EE15E0050F3CFB1F1F4CFB2F1B7
:100F6000400EE66E000EE66E050EE66EE66A010EB7
:100F7000E66E65EC12F0006E050EE15E0050F3CFF8
:100F8000AFF1F4CFB0F115EF0CF005010851050AEF
:100F900054E0010A49E0070A37E0010A25E0030AA4
:100FA00013E0010A01E080D0050109519212050108
:100FB0000A51931205010B51941205010C5195121F
:100FC00005010D51961275D00501091D92160501F6
:100FD0000A1D931605010B1D941605010C1D95168F
:100FE00005010D1D961665D00501091D891605011F
:100FF0000A1D8A1605010B1D8B1605010C1D8C168A
:1010000005010D1D8D1655D00501095189120501E7
:101010000A518A1205010B518B1205010C518C12D9
:1010200005010D518D1245D0050109510101AB1B80
:1010300005010A510101AB133CD0050109A107D0FC
:101040000AC5E6FFE66AB0EC1BF0E552E552050181
:1010500009A308D00BC5E6FF010EE66EB0EC1BF04D
:10106000E552E552050109A508D00CC5E6FF020EC0
:10107000E66EB0EC1BF0E552E552050109A708D079
:101080000DC5E6FF030EE66EB0EC1BF0E552E5522F
:10109000050109A908D00EC5E6FF040EE66EB0EC06
:1010A0001BF0E552E55205D0030EE66ED6EC21F0BA
:1010B000E552400EE66E000EE66E050EE66EE66A3E
:1010C000010EE66E65EC12F0006E050EE15E00505A
:1010D000F3CFAFF1F4CFB0F1A8D30101B151B21108
:1010E00002E1000E08D0B1C1E9FFB2C1EAFFEF5042
:1010F000800B01E0010E000901E0FAD100C540F5C6
:101100000501416B0501030E426F0501436B0501AB
:1011100008510F0A01E1BCD1010A01E1B3D1030A70
:1011200001E1AAD1010A01E190D1070A01E181D1CF
:10113000010A01E1E1D0030A01E1C3D0010A01E1A2
:10114000A8D00F0A01E18DD0010A68E0030A4FE040
:10115000010A41E0070A24E0010A11E0030A01E064
:101160009DD105010A51E66EE66A09C5E6FFD2EC9B
:1011700014F0E552E552E5520501486F92D10501A0
:101180000C51E66EE66A0AC5E6FF09C5E6FF2CECDF
:1011900015F0E552E552E552E5520501486F81D15F
:1011A00005010C51E66EE66A0AC5E6FF09C5E6FFD1
:1011B0008FEC15F0E552E552E552E5520F0EF3CFF4
:1011C000DBFF100EF4CFDBFF100EDBCF48F50F0E68
:1011D000DBCF49F566D10CC5E6FF0AC5E6FF09C5B8
:1011E000E6FF21EC15F0E552E552E5525AD1100E1A
:1011F0000CC5DBFF0F0E0DC5DBFF0F0EDBCFE6FFCF
:10120000100EDBCFE6FF0AC5E6FF09C5E6FF25ECB9
:1012100015F0E552E552E552E55243D1100E0AC5EC
:10122000DBFF0F0E0BC5DBFF120E0CC5DBFF110E33
:101230000DC5DBFF0EC5E6FF110EDBCFE6FF120E7C
:10124000DBCFE6FF0F0EDBCFE6FF100EDBCFE6FFB6
:1012500009C5E6FF10EC16F0006E060EE15E0050C8
:1012600020D105010A51E66EE66A09C5E6FF33ECB6
:1012700016F0E552E552E5520F0EF3CFDBFF100EEC
:10128000F4CFDBFF100EDBCF48F50F0EDBCF49F5B7
:1012900008D105010A51E66EE66A09C5E6FF36EC9B
:1012A00016F0E552E552E5520F0EF3CFDBFF100EBC
:1012B000F4CFDBFF100EDBCF48F50F0EDBCF49F587
:1012C000F0D005010A51E66EE66A280EE66E09C501
:1012D000E6FF8FEC15F0E552E552E552E5520F0EB0
:1012E000F3CFDBFF100EF4CFDBFF100EDBCF48F5A2
:1012F0000F0EDBCF49F5D5D005010A51E66EE66A3F
:1013000009C5E6FF33EC16F0E552E552E5520F0E43
:10131000F3CFDBFF100EF4CFDBFF100EDBCF48F571
:101320000F0EDBCF49F505010A51E66EE66A09C5E5
:10133000E6FF36EC16F0E552E552E5520F0EF3CF1C
:10134000DBFF100EF4CFDBFF100EDBCF4AF50F0EE4
:10135000DBCF4BF505010A51E66EE66A280EE66E14
:1013600009C5E6FF8FEC15F0E552E552E552E5526E
:101370000F0EF3CFDBFF100EF4CFDBFF100EDBCF31
:101380004CF50F0EDBCF4DF505010A51E66EE66A0E
:101390002A0EE66E09C5E6FF2CEC15F0E552E55283
:1013A000E552E55205014E6F05010A51E66EE66A07
:1013B0002B0EE66E09C5E6FF2CEC15F0E552E55262
:1013C000E552E55205014F6F05010A51E66EE66AE6
:1013D000060EE66E09C5E6FF8FEC15F0E552E55204
:1013E000E552E5520F0EF3CFDBFF100EF4CFDBFF1B
:1013F000100EDBCF50F50F0EDBCF51F505010A5172
:10140000E66EE66A080EE66E09C5E6FF8FEC15F09B
:10141000E552E552E552E5520F0EF3CFDBFF100E19
:10142000F4CFDBFF100EDBCF52F50F0EDBCF53F501
:1014300038D00CC5E6FF0AC5E6FF09C5E6FFFFEC9C
:1014400015F0E552E552E5522CD0100E0CC5DBFF2D
:101450000F0E0DC5DBFF0F0EDBCFE6FF100EDBCF4F
:10146000E6FF0AC5E6FF09C5E6FF03EC16F0E55204
:10147000E552E552E55215D009C5E6FF0BEC16F032
:10148000E5520FD009C5E6FF1CEC15F0E55209D076
:1014900009C5E6FFC0EC14F0E55203D00501010ECA
:1014A000436F400EE66E400EE66E050EE66E010ED0
:1014B000E66E010EE66E65EC12F0006E050EE15E62
:1014C0000050F3CFB1F1F4CFB2F1400EE66E000E52
:1014D000E66E050EE66EE66A010EE66E65EC12F04B
:1014E000006E050EE15E0050F3CFAFF1F4CFB0F126
:1014F0009CD105010851070A4FE0010A41E0030AA7
:1015000033E0010A29E0070A1EE0010A14E0030A99
:1015100009E0010A01E04FD0070EE66EE5EC1DF090
:10152000E5524ED0010EE66E070EE66EE8EC1DF0B9
:10153000E552E55245D0E66A070EE66EE8EC1DF08E
:10154000E552E5523DD0010EE66E070EE66EF0EC78
:101550001DF0E552E55234D0E66A070EE66EF0EC77
:101560001DF0E552E5522CD00AC5E6FF09C5E6FF9D
:10157000070EE66EFBEC1DF0E552E552E55220D079
:10158000090EE66E050EE66E070EE66E08EC1EF01E
:10159000E552E552E55214D00A0EE66E050EE66EEF
:1015A00009C5E6FF070EE66E0EEC1EF0E552E552A9
:1015B000E552E55205D0010EE66ED6EC21F0E5527B
:1015C000400EE66E000EE66E050EE66EE66A010E51
:1015D000E66E65EC12F0006E050EE15E0050F3CF92
:1015E000AFF1F4CFB0F121D105010851030A11E0A8
:1015F000010A09E0030A01E037D009C5E6FF75ECEE
:101600001CF0E55236D009C5E6FF79EC1CF0E55236
:1016100030D00E0E0CC5DBFF0D0E0DC5DBFF0C0E22
:101620000EC5DBFF0B0E0FC5DBFFD9500B0FE96EAC
:10163000DACFEAFFEECFE6FFEECFE6FFEECFE6FF32
:10164000EFCFE6FF0BC5E6FF0AC5E6FF09C5E6FFDB
:101650007DEC1CF0006E070EE15E0050010EF36E93
:10166000160EF3CFDBFF05D0010EE66ED6EC21F0AF
:10167000E552400EE66E000EE66E050EE66EE66A78
:10168000010EE66E65EC12F0006E050EE15E005094
:10169000F3CFAFF1F4CFB0F1C8D0800EE66E080EF4
:1016A000E66EBBEC21F0E552E552C58071EC22F00C
:1016B000E66A10EC21F0E552080EE66E050EE66EC5
:1016C0009DEC1FF0E552E552C58484EC22F0400EFB
:1016D000E66E000EE66E050EE66EE66A010EE66E3A
:1016E00065EC12F0006E050EE15E0050F3CFAFF135
:1016F000F4CFB0F19AD04F0EAB16AC9ACF0E9D1628
:10170000020EE66EE66A7C0EE66E58EC1FF0E552BD
:10171000E552E552040EE66EE66AB4EC14F0E552CA
:10172000E552100EE66E010EE66EB4EC14F0E552D2
:10173000E552020EE66E030EE66E010EE66E2FEC2B
:1017400014F0E552E552E552040EE66EE66AB4EC9A
:1017500014F0E552E552100EE66E010EE66EB4ECA2
:1017600014F0E552E552020EE66E030EE66E010E2F
:10177000E66E2FEC14F0E552E552E552BAEC13F0A8
:10178000400EE66E000EE66E050EE66EE66A010E8F
:10179000E66E65EC12F0006E050EE15E0050F3CFD0
:1017A000AFF1F4CFB0F141D00101B151B21102E17A
:1017B000000E08D0B1C1E9FFB2C1EAFFEF50800BC3
:1017C00001E0010E000931E100C540F50501416B62
:1017D0000501030E426F0501010E436F400EE66ED8
:1017E000400EE66E050EE66E010EE66E010EE66E2A
:1017F00065EC12F0006E050EE15E0050F3CFB1F122
:10180000F4CFB2F1400EE66E000EE66E050EE66E07
:10181000E66A010EE66E65EC12F0006E050EE15E02
:101820000050F3CFAFF1F4CFB0F1170EE15C02E25C
:10183000E16AE552E16EE552E7CFD9FF12000101FE
:10184000B651B71104E1100EB66F270EB76FB60789
:10185000000EB75B6DA207D0B651B7112EE18A7C9E
:101860008ABC13D027D00101005102E18A9C22D00A
:10187000000502E18A8C09D0020E005D02E18A8C2B
:1018800019D0040E005D03E18A9C8A8E1200100EAE
:10189000005D06E10101B651B7110FE18A7C0AD063
:1018A000200E005D0AE10101B651B71106E18A7C04
:1018B0008AAC02D08A9E12008A8E120010D9210EA4
:1018C0009BD9500E82D9A9D9630E48D9630EEE6E0A
:1018D000740EEE6E690EEE6E760EEE6E690EEE6EA4
:1018E000740E64D981D924D926D951D9E66AD9D8B8
:1018F00002E2E16AE552B5EF0DF0F1D82D0E7CD988
:10190000430E2CD9780EEE6E690EEE6E6F0EEE6EF3
:101910006E0EEE6E200E59D9740E7BD9620EEE6EED
:101920006C0EEE6E690E42D9EE6E5ED9EE6E71D916
:10193000760E4BD9630EEE6E200EEE6E6C0E69D9EC
:10194000200EEE6EF8D8070EE66EE5EC1DF0E552BF
:101950001ED9010EE66EA5D802E2E16AE552B5EFA6
:101960000DF0120012004AEF1EF012001E0EE66E7D
:10197000010EE66E33EC12F0E552E552400EE66ED3
:10198000000EE66E050EE66EE66A010EE66E65EC8A
:1019900012F0006E050EE15E0050F3CFAFF1F4CF10
:1019A000B0F112006D840101080EB96F070EBA6F15
:1019B000B907000EBA5BB951BA11FAE16D94120081
:1019C000D9CFE6FFE1CFD9FFFD0EDBCF2AF0FE0E27
:1019D000DBCF2BF0010E2A1801E12B5033E0E86831
:1019E0002A1802E1E8682B182BE0030E2A1801E1FF
:1019F0002B5024E0040E2A1801E12B501DE0020EAA
:101A00002A1801E12B5016E0170E2A1801E12B507D
:101A10000FE0160E2A1801E12B5008E0150E2A18C7
:101A200001E12B5001E010D0A1DF0FD09EDF0DD0DF
:101A30009ADF0BD096DF09D041DF07D05EDF05D0FB
:101A400091DF03D0000001D000D0010E00D0E5529C
:101A5000E7CFD9FF1200C3D8E652D0B202D0010EB0
:101A600015D0D0B802D0020E11D0D0B002D0030EE3
:101A70000DD0D0B602D0040E09D0FCAE02D0050EB7
:101A800005D0FCAC02D0060E01D0070EDF6ED08868
:101A9000D086D084D082D080FC9EFC9CDF50E55262
:101AA000AFD0070EE66EF0EC1DF0E552E552D9CF4F
:101AB000E6FFDACFE6FF010E7ED8D950150FA4D885
:101AC000020E79D8D9502A0F9FD8030E74D8D95056
:101AD0003F0F9AD8040E6FD8540EE15C12007FD8E5
:101AE000540EE126D9CFE9FFDACFEAFF5B0EEE6EA6
:101AF0004B0EEE6E720EEE6E6F0EEE6E5D0EEE6EB5
:101B0000620EEE6E6F0EEE6E740EEE6E200E61D8EB
:101B1000EE6EEE6E570E7DD86C0EEE6EEE6E790E9A
:101B2000EE6EEE6AD950150FE96EDACFEAFF1200B9
:101B300050D8E9EF0DF0630E6CD86FD86D0E45D814
:101B4000720E43D8EE6A1200E65249D8020EE12620
:101B5000F350DF6E010EF4CFDBFF1200EE6E6F0E5E
:101B6000EE6E6E0EEE6EE5EF0DF0E16E49D0DF50D9
:101B7000F36E010EDB50F46E020EE15C1200DFCF5B
:101B8000E6FFE66A45EC20F0E552E5521200E66A0F
:101B9000070EE66EE8EC1DF0E552E5521200EE6A23
:101BA000D9502A0FE96EDACFEAFF12000ED8200EC4
:101BB000EE6EEE6E1200E66E070EE66E0EEC1EF096
:101BC000E552E552E552E5521200EE6E650EEE6EFC
:101BD0001200EE6EEE6EEE6EEE6EEE6E1200D9CF6D
:101BE000E6FFE1CFD9FF1200EE6AD9503F0FE96E50
:101BF000DACFEAFF200E12009BDF9ADFCFEF0DF065
:101C0000E552E7CFD9FF1200E66E000EDA20E66E4D
:101C10001200EE6E610EEE6E1200720EEE6E740E1B
:081C2000D4DF200EEE6E12006D
:081C28000CEC13F06A6A686A13
:101C30003FEC13F06D8C6E6AEFEC12F06D9CDF6A76
:101C400020EC13F010E2DF50040DF3CFE9FFF4CFE6
:101C5000EAFF000EE926040EEA22EE6AEE6AEE6A58
:101C6000EE6ADF2AEDD7160E706E68A604D0030E5A
:101C7000B5EC12F0FAD70101136B186B196B1A6BE4
:101C80006D98080E0B6F040E0C6F016B006BE55224
:101C9000CAEF12F00CEC13F0010100510BE16D6A78
:101CA000696A3FEC13F06DB602D06D86FCD7010176
:101CB000010E006F000508E16DBA06D0686A696A16
:101CC00069806988020E006F6850040B07E0695054
:101CD000040B04E0020EB5EC12F089D86DB247D0C7
:101CE0006850010B14E06950010B11E09DDF010108
:101CF000040E006F0401200E026F040E036F080E25
:101D0000016F006B8C0E0013E66A7EEC13F06850D6
:101D1000100B07E06950100B04E060D8040EB5EC1E
:101D200012F06850400B0BE06950400B08E046ECA5
:101D300013F0020EBDEC12F0060EB5EC12F0685076
:101D4000200B04E06950200B01E035D86850020BED
:101D50000AE06950020B07E046EC13F0E668E6681B
:101D60009EEC13F06A6A040E0101005D02E2A19A82
:101D70001FD069A61CD0DF6A040EDF5C18E268A6DB
:101D800016D06CCF20F1030EB5EC12F0780E0101E5
:101D9000201502E138D809D0000EE66EE66A200E62
:101DA000E66E010EE66E010EE8DBDF2AE5D7A19AAA
:101DB000E552CAEF12F070A00ED0D8EC12F0EF503E
:101DC000800808E1D5DBEF50840804E1D8EC12F07C
:101DD0008C0EEF6E7090050EB5EF12F06984040E54
:101DE000C4DB6D82F8EC12F0040EBDEF12F0F8ECDB
:101DF00012F0030EC2DB6D92699468A403D0020E48
:101E0000B4DBFBD712000CEC13F0FD0E0101201522
:101E10003DE17E0E2015E8407F0B040DF3CF03F16A
:101E2000F4CF04F1000E0327040E042303C105F1CF
:101E300004C106F10575BCDBEF503C0BE842E842FB
:101E40000D0822E1B5DB75EC13F0EECF00F0EFCF1B
:101E500001F0280E001816E1040E011813E1AFEC92
:101E600013F0DF6AEDDB0EE2DF5028EC13F0DF50F9
:101E7000EA6A200FE96E040EEA22E552E750EF6E9F
:101E8000DF2AF0D70AD807D01AD805D0FD0E2015C2
:101E9000040801E122D8E5527DD36ADBEF50800BC4
:101EA00002E066DBEF6A01010F6B106B146B156BC0
:101EB000136B64D89DDB170E60DBF3EF10F0020E9E
:101EC0000101105D02E180EF11F034D801012151D0
:101ED00002E17AEF13F0216B12009EDB49DBEF5039
:101EE000400B01E0010EDF6E01010B75080E005D75
:101EF00009E122C46EFF6E50000802E2100E01D00C
:101F0000040E006F100513E1B3EC13F0A6D9020E16
:101F100001010F5D03E12CDB840E07D0DF5003E1EC
:101F200027DBC80E02D024DB880EEF6E01D002D86A
:101F3000E55230D32BDB0101106B1ADBEF6A040E84
:101F40000B19006E0CC101F0DE6E0CC1DDFF19DB58
:101F5000EF6A18AF0CD01B511C1107E005D01CC153
:101F6000FAFF01011B51F96EFADF0101189F020E01
:101F7000E15C02E2E16AE552E16E0CD3040120511A
:101F8000600BE842E842E842E842E842000901E02A
:101F9000120021510C0A45E00B0A3FE00C0A31E027
:101FA000010A22E00B0A1EE0020A1CE0030A18E004
:101FB000080A10E0010A0CE00F0A08E0030A01E039
:101FC00012000101138F080E006F120073EF10F062
:101FD000DCEF11F00101010E116F010E126F0CD038
:101FE000B4EF10F012EF10F024510101116F126BD9
:101FF000020E1127010E12231381010E146F138F8D
:1020000012000101138F04012451EA6A020FE96EE4
:10201000010EEA2222C4EFFF1200EADA160EBDEF2B
:1020200012F012007EDB040EE1260401220510E10D
:1020300020511F0B00090CE10101138F030E040155
:10204000215D04E10101010E1F6F02D001011F6B30
:102050000401225141E120511F0B02083DE12451AE
:102060000F0B000939E00101138F040124BF05D0D3
:10207000A4DA070EE926010E04D09FDA0B0EE9263A
:10208000010ED2DA030E215D03E17BDA840E23D048
:1020900024510F0B016A700F006E0F0E0122020E09
:1020A00000C0DBFF030E01C0DBFF020EDBCFE9FF48
:1020B000030EDBCFEAFFEE90ED5224AF06D061DADB
:1020C000EF6ADF745EDA400E06D05BDA880EEF6EE0
:1020D000DF7457DAC80EEF6E040EE15C02E2E16ACB
:1020E000E552E16E57D2800E0401205D3CE1010112
:1020F000C00E136F04012351030A1EE0010A09E018
:10210000030A2FE10101620E116F3D0E126F120ED4
:1021100022D0C3DA0A0EF6263E0EA2DA020E010122
:10212000F76A1125F66E1251F7220900F5CF14F166
:102130000A00F5CF15F11200030E225D0FE2ADDAB1
:102140000C0EF6263E0E8CDA11C1F6FF12C1F7FF17
:102150000800F5500101146F156B12000101136B9B
:1021600012000101136B120011DA0401286B296BB4
:1021700020511F0B020A11E0030A0CE0010A22E1C0
:102180000101138F0401288101011F051BE10401D6
:10219000288318D00101138F15D00101138F04017A
:1021A00024BF05D00ADA070EE926010E04D005DAAD
:1021B0000B0EE926010E38DAE4D9EF50040B02E0E9
:1021C000010E286F010113AF07D0280E116F040E06
:1021D000126F1381020E146F020EE15C02E2E16ADB
:1021E000E552E16ED7D16D98010113BF08D018AF49
:1021F00002D061DA2AD07EDABBD9840E27D018BF8C
:102200002BD0040120AF24D0010114510401265D1C
:10221000010115510401275904E226C414F127C411
:1022200015F11BD80101010E106FA1DA800EEF6EBF
:10223000216BBED9EE52080EEF6E91DAB9D9840E39
:10224000EF6E010E216F8FDA93D9C80EEF6E120078
:10225000010131DAC80EEF6E120098D90101080EA3
:10226000145D000E15590DE214C1DEFF15C1DDFF2E
:102270000F5102E1010E03D00F0506E1020E0F6FB0
:1022800003D0080EDE6EDD6A73D9EF9271D9EF903C
:102290006FD9010EDB50EF126BD9EE52DFCFEFFF9B
:1022A000000EDB50145F010EDB50155B280E1D6F16
:1022B000040E1E6F13B10FD0F7D91BE011C1F6FF4A
:1022C00012C1F7FF112B000E12230800F55096D90A
:1022D000F3E2DB06F1D7E8D90CE011C1E9FF12C146
:1022E000EAFF112B000E1223EF5088D9F4E2DB062F
:1022F000F2D7020EE15C02E2E16AE552E16E4AD1F8
:1023000045D956D9EE52EFCFDFFFDFCF00F00050B6
:102310000101195D000E1A5903E219C1DFFF09D04E
:10232000DF50006E016AE850195D196F01501A59AB
:102330001A6F010EDB6ADF50F36E010EDBCFF4FF84
:10234000F350F45C10E2010EDB5082D916C1E9FFB4
:1023500017C1EAFF162B000E1723E552E750EF6E68
:10236000010EDB2AE8D7000ED8801955000E1A5549
:102370000DE2F4D854D91CD9EF50400B03E1EAD94F
:10238000C80E02D0E7D9880EEF6E0FD0F0D9840EB8
:10239000EF6E1B511C1107E005D01CC1FAFF0101B3
:1023A0001B51F96EFADF0101189F020EE15C02E297
:1023B000E16AE552E16EEED00101138F10D9010EF2
:1023C000E66EE66AE66A020EE66E010EAFD922C438
:1023D00001F10401225104E10101100E006F12000D
:1023E0000101200E006F04D9150EBDEF12F0CED8FA
:1023F000000EDE6E040EDD6EE8D8040DF350006EA4
:10240000016A020E0F0B05E0D89001320032E80697
:10241000FBE1D89000360136D89000360136D9CF8E
:10242000E9FFDACFEAFF0050EE260150ED22A9D8ED
:10243000EF9EFD0EDB5002E16AD901D06DD9EA2290
:10244000DECFEEFFDDCFEDFF9CD8EF9C9AD8040ED7
:10245000E926000EEA22EF8C020EE15C02E2E16A5C
:10246000E552E16E97D092D8FE0EDB50016A700FF4
:10247000006E0F0EDFD885D8FD0EDBCFEFFFDBA49B
:1024800002D0E66AF5D8FD0EDBA203D0010EE66E9F
:10249000EFD8020EE15C02E2E16AE552E16E7AD029
:1024A00075D8FE0EDB5005E125D962D8840EEF6E9B
:1024B00005D08BD80CD989D8010F09D9020EE15C5F
:1024C00002E2E16AE552E16E65D060D8FD0EDB50B4
:1024D00002E022D901D01BD9A7D853D806D9FB0EC8
:1024E000DBCFEEFFFC0EDBCFEDFF4BD8EE52FA0E4A
:1024F000DBCFEFFF400E45D8E850EF16880E41D8ED
:10250000E850EF12FD0EDB5002E006D901D0FFD8F3
:10251000EA22EF74DECF00F0DDCF01F000C0F3FF60
:1025200001C0F4FF020EE15C02E2E16AE552E16EF5
:1025300031D0F7D8010EF36EFC0EDB5004E0D890DA
:10254000F336E806FCE1F31C006EFD0EDBCFE9FF7D
:10255000FE0EDBCFEAFF0050EF161CD0FBD8EE5288
:10256000080EEF6EF7D875EF13F0E66E7EEF13F0FE
:102570000BC1E9FF0CC1EAFF1200E66EE66A9EEFAE
:1025800013F0DECFE9FFDDCFEAFF1200CAD8020E5A
:10259000E1261200E552E7CFD9FF1200D6D8AAEF04
:1025A00013F0FE0EEA6ADB34FE0BEA36E96E120027
:1025B00003C1E9FF04C1EAFF120024510F0BE96EC9
:1025C000EA6AD890E936EA361200FD0EDB50E824BC
:1025D000026EFE0EDB50040DF35002241200000EBA
:1025E000E66EE66AE66A710EE66E0F0E96EF13F07F
:1025F000000EE66EE66AE66EE66A1200E66E1DC141
:10260000E9FF1EC1EAFF1D2B000E1E23E552E75015
:10261000EF6EDF06010E120084D8E6521200280E7B
:10262000EE6E040EED6E1200EA22EECFDEFFEDCF6D
:10263000DDFF1200012200C0DEFF01C0DDFF12003D
:10264000DF50006E016A080E005C000E0158120097
:10265000EA6A280FE96E040EEA22EF50E66E1200D5
:10266000F7220900F5CF11F10A00F5CF12F112009F
:10267000FE0EDBCFE6FFBBDEE552E5521200160E82
:102680006F6E9F0E6B6E7B0E696E1200010EE66E12
:10269000E66A000EE66EE66A12002251F66EF76AEE
:1026A000D890F636F7361200D9CFE9FFDACFEAFF35
:1026B000EE50ED101200020E106F5ADFEE52EF6A6C
:1026C00057DFC80EEF6E4ADFAADFAAEF13F0040D42
:1026D000F3CF00F0F4CF01F0000E0026040EAADFC5
:1026E000840E4FDFE850EF121200020EE926000EB2
:1026F000EA2212003CD88C0EEF6E1200680EE66ED5
:102700000F0EE66E16DFE552E552E552120049DF84
:10271000070EE926010E120044DF0B0EE926010E1A
:102720001200D9CFE6FFE1CFD9FF1200E66E0FEC21
:1027300020F0006E050EE15E00501200E0EC0CF09F
:10274000006E060EE15E00501200200EEE6E040ECA
:10275000ED6E120005C1E9FF06C1EAFF120028DF95
:10276000C4DFA5EF13F004DFC0DF0FEF13F0F6DED8
:04277000CEEF12F0A6
:0C277400959A838A190E61EF16F0CFDAF7
:10278000030EE126ACA2FED7F1EC20F0DF6E0101D2
:10279000485104E1265102E1010E496F490558E113
:1027A0004851A8DADFCFEFFF020E485D08E2FF0EC6
:1027B000DF5C05E0050EABDA0101496B486B030EE7
:1027C000485D04E1030EDF2401016A6F030E01017D
:1027D000485D3DE301016A510101485D38E1010EA8
:1027E000DB6A020EDB6E01016A51F36E020EDBCF73
:1027F000F4FFF350F45C0EE2020EDB507BDA010EC4
:10280000DBCFE7FFEF50E726010EE7CFDBFF020E3D
:10281000DB2AE9D76A516EDAEFCF00F0010EDB1C3C
:10282000005C05E0070E73DA0101266B0DD0010193
:102830002B5102E0060E6BDA2BC1E6FFD6EC21F03D
:10284000E5520101010E266F496B486B01D0482B00
:10285000030EE15C02E2E16AE552E16E24D25FDA46
:10286000220EE126010EDB68020EDB68FE0EDB5055
:10287000E76E030EE7CFDBFFFC0EDB50020FE76EC7
:10288000040EE7CFDBFFFD0EDB50E76E050EE7CF52
:10289000DBFFDF6AFC0EDB50DF5C13E2DF50EA6A2D
:1028A0004A0FE96E010EEA22EF50E66ED950010F91
:1028B000006E050EDF2410DAE552E750EF6EDF2AD6
:1028C000E9D7210EDB6A020EDF6EFC0EDB50050F2E
:1028D000DF5C0FE2D950010F006EDF50FDD9210EF1
:1028E000DBCFE7FFEF50E726210EE7CFDBFFDF2A44
:1028F000ECD7210EDB1CE66ED950010F006EFC0EEA
:10290000DB50050FE9D9E552E750EF6E839ADF6A95
:10291000FC0EDB50060FDF5C11E2ACA2FED7D950F3
:10292000010F006EDACF01F0DF500F01D5D9EF5063
:10293000E66E38EC22F0E552DF2AEAD7ACA2FED7E9
:10294000838A0101266B220EE15C02E2E16AE55214
:10295000E16EA9D101012651120001014751120077
:1029600001012651FDE01200DAD9FE0EDB50EA6AC1
:102970004A0FE96E010EEA22FD0EDBCFEFFF93D185
:10298000CED9020E9ED9A4D9A3D988D987D9190E38
:1029900098D984D983D987D10101265102E02B51DE
:1029A0001200000CD9CFE6FFE1CFD9FF020EE126DD
:1029B000E66A010EE66EFE0EDBCFE6FF50DFE55263
:1029C000E552E552DE6ADD6ADECF00F0DDCF01F0D0
:1029D000FC0EDBCF02F0FD0EDBCF03F00250005CFB
:1029E0000350015818E20101265104E00101476B30
:1029F000010E16D0000000000000000000000000E2
:102A0000000000000000000000000000DF2A010EAE
:102A100001E3DB2AD9D70101010E476F000E00D078
:102A2000006E020EE15C02E2E16AE552E16E0050E6
:102A3000E552E7CFD9FF120072D9E66A060E19D91E
:102A400032D135D9030E15D92ED119D982D902E246
:102A5000E16AE552E16E27D1D9CFE6FFE1CFD9FF98
:102A6000020EE126FD0EDBCFE6FFE66A7DDFE552D2
:102A7000E552010EE66E010EE66E76DFE552E55296
:102A8000020EE66E020EE66EFE0EDBCFE6FFE7DE1E
:102A9000E552E552E552DE6ADD6ADECF00F0DDCFB9
:102AA00001F00A0E2A6E2B6AFB0EDBCF2FF0FC0E14
:102AB000DBCF30F055EC18F028C002F029C003F04D
:102AC0000250005C0350015819E20101265105E053
:102AD0000101476B01012C5116D0000000000000DD
:102AE00000000000000000000000000000000000E6
:102AF0000000DF2A010E01E3DB2ACFD70101010E1E
:102B0000476F000E00D0006E020EE15C02E2E16A47
:102B1000E552E16E0050E552E7CFD9FF1200D9CF60
:102B2000E6FFE1CFD9FF040EE126FD0EDBCFE6FF85
:102B3000E66A1ADFE552E552020EE66E010EE66E17
:102B400013DFE552E552020EE66E020EE66EFE0E51
:102B5000DBCFE6FF84DEE552E552E552DE6ADD6A50
:102B6000DECF00F0DDCF01F00A0E2A6E2B6AFB0EDD
:102B7000DBCF2FF0FC0EDBCF30F055EC18F028C087
:102B800002F029C003F00250005C0350015827E214
:102B90000101265113E00101476B030E2DC1DBFF3C
:102BA000020E2CC1DBFF020EDBCF00F0030EDBCFE9
:102BB00001F000C0F3FF01C0F4FF17D000000000D7
:102BC0000000000000000000000000000000000005
:102BD00000000000DF2A010E01E3DB2AC1D701015A
:102BE000010E476FF36AF46A00D0040EE15C02E262
:102BF000E16AE552E16EE552E7CFD9FF120057D8FE
:102C0000040E37D850D03BD8040EA3D802E2E16AB4
:102C1000E552E16E48D083D8E66A050E2AD843D043
:102C20007ED8020EE1261E0EE66EE66A9ED8FC0EE7
:102C300067D893D8FA0E64D8030E6ED8010EDBCF96
:102C4000E6FF040E69D8F90EDB5004E1050EE66ECE
:102C5000030E03D0050EE66E040E7BD802E2E16A95
:102C6000E552E16E20D03ED8240E5ED03BD8260E31
:102C70005BD0E66EFE0EDBCFE6FFF1DD7AD04FD8FB
:102C8000020EE126FB0EDBCFDEFFDBCFDDFF5BD8E4
:102C9000DFCFE6FF62D8030EE66E1200FE0EDBCF3A
:102CA000E6FF030E4BD0E552E7CFD9FF120037D82D
:102CB0004AD8FC0EDBCFE6FF010E2ED8020EE66EE0
:102CC0001200E66EE66A7C0EE66E58EC1FF051D0FC
:102CD000100EE66E040E32D00024E96E000EDA20EB
:102CE000EA6E12001CD8FC0EDBCFE6FFFD0EDBCF38
:102CF000E6FF1200EA6A270FE96E010EEA221200CF
:102D0000DBCFDEFFDBCFDDFFDFCFE6FF1200E66EBD
:102D1000D6EC21F0E5521200E66EB5EF16F0D9CFF1
:102D2000E6FFE1CFD9FF1200E66EFE0EDBCFE6FF35
:102D3000F6DEE552E552E552E552B5D7E66EFE0EF7
:102D4000E66E7FDE16D0FD0EDBCFE6FFE66AB5EF5E
:102D500016F08FDF020EE15C1200010EDDDF010EC6
:102D6000DBCFE6FF020E8CEF16F0FEDDE552E552FA
:0A2D70001200E552E552E552120090
:062D7A00239E05D0239EFC
:102D80002BAE02D02B6C238E2BC025F0246A356A23
:102D9000346A860E266E276AF5EF18F0239E08D057
:102DA000239E2BAE05D02A6C2B1EE86A2B22238E85
:102DB0002BC025F02AC024F0356A346A8E0E266EA8
:102DC000276AF5EF18F0239E0CD0239E2BAE09D076
:102DD000286C291E2A1E2B1EE86A29222A222B2251
:102DE000238E2BC025F02AC024F029C035F028C03E
:102DF00034F09E0E266E276AF5EF18F0317E236AB6
:102E000031EC19F049EC19F023B6D9EF18F023A2F0
:102E10000AD023AA03D023BED9EF18F023A4E5EFEC
:102E200018F0E2EF18F023AA05D023ACE5EF18F074
:102E3000E2EF18F023A00AD023A808D023BE04D0C4
:102E400023A402D0EEEF18F0F2EF18F0346A276AEC
:102E500031502C5C336E10E329C035F02AC024F0C9
:102E60002BC025F02CC032F02EC029F02FC02AF044
:102E700030C02BF0233A09D02EC035F02FC024F0FB
:102E800030C025F031C032F0336C239E23BC238E3A
:102E900032C026F023B021EF19F01A0E336021EF73
:102EA00019F0266A2C6A23A408D0296C2A1E2B1E2E
:102EB0002C1EE86A2A222B222C2223AC08D0356C47
:102EC000241E251E261EE86A242225222622286A80
:102ED000335207E02C342B322A3229322832332E57
:102EE000F9D7295035262A5024222B5025222C5040
:102EF000262228C034F0239E26AE0BD0346C351E1B
:102F0000241E251E261EE86A35222422252226227A
:102F1000238E26A006D0D880253224323532343292
:102F2000322A32C026F0F5EF18F0236A31EC19F09E
:102F300049EC19F023B6D9EF18F023A205D023BA33
:102F4000D9EF18F0E0EF18F023BAECEF18F023A057
:102F500005D023B8D9EF18F0ECEF18F023B8E0EF64
:102F600018F0276A7F0E2C24266EE86A272231503B
:102F7000265EE86A275A1A0E326E2C6A346A356A5F
:102F8000246A256A2E50295E2F502A5A30502B5A17
:102F9000000E2C5A09E72E5029262F502A22305095
:102FA0002B22000E2C2201D0348AD89029362A36C2
:102FB0002B362C36D8903436353624362536322EFC
:102FC000E1D72B502A102910D8A4348AF5EF18F035
:102FD000236A31EC19F049EC19F023B6D9EF18F057
:102FE00023A205D023B8D9EF18F0E0EF18F023AAF8
:102FF00005D023B0D9EF18F0E0EF18F023B002D0DD
:1030000023A802D0ECEF18F0276A31502C24266E4A
:10301000E86A27227E0E265EE86A275A346A356AF5
:10302000246A256A30502B02F4CF25F0F3CF24F028
:103030002F502B02F3503526F4502422000E252267
:1030400030502A02F3503526F4502422000E252257
:103050002E502B02F3503426F4503522000E242239
:1030600025222F502A02F3503426F4503522000E28
:103070002422252230502902F3503426F4503522E0
:10308000000E242225222E502A02F4503426000E4F
:103090003522242225222F502902F4503426000EF6
:1030A000352224222522F5EF18F02AC034F02A50C8
:1030B0002F02F4CF29F0F3CF28F02B503002F4CFB9
:1030C0002BF0F3CF2AF02F02F3502926F4502A22B6
:1030D000E86A2B2234503002F3502926F4502A2279
:1030E000E86A2B22000C236A31EC19F023B67DEF3D
:1030F00018F023A20ED023B405D07F0E2B6EFF0E46
:103100002A6E1FD0800E2B6E2A6A1BD02B6A2A6A69
:1031100018D023B0FBD78F0E2C60EDD77E0E2C6419
:10312000F5D78E0E2C5C05E0D8902B322A322C2A53
:10313000F8D723A406D02A6C2B1EE86A2B222BAECC
:10314000E5D71200236A31EC19F023B6ACEF18F082
:1031500023A20FD023B407D07F0E2B6EFF0E2A6E52
:10316000296E286E25D0800E2B6E01D02B6A000EA2
:10317000F6D723B0FBD7286A9F0E2C60EBD77E0EC4
:103180002C64F4D79E0E2C5C07E0D8902B322A32A8
:10319000293228322C2AF6D723A40AD0286C291EDB
:1031A0002A1E2B1EE86A29222A222B222BAEDED7CA
:1031B00012007F0E2C6EFF0E2B6E2A6E296E1200EF
:1031C0007F0E23BEFF0E2C6E02D07F0E2C6E800E63
:1031D0002B6E2A6A296AF3D723AE04D0800E2C6E98
:1031E0002B6AF7D72C6A2B6AF4D725502410351098
:1031F0003410F8E027BEF0D725BE0CD0265027109B
:10320000EBE0D89034363536243625362606D8A05D
:103210002706F2D72750D4E12628D2E034AE11D0C9
:103220007F0E341402E135A00CD0352AE86A24223E
:10323000252207E3D880253224323532262A262853
:10324000BFE02650C9E035C029F024C02AF025345B
:103250002B6E26302C6E2B322C9E23BE2C8EDFEF55
:1032600018F02B362C3602E32384237E06E12380DC
:103270002C6A2B6A2A6A296A12002C2803E0D8805B
:103280002B321200D8902B3202E1238212002386C7
:1032900012003036313602E3238C237E06E1238888
:1032A000316A306A2F6A2E6A1200312803E0D88012
:0E32B00030321200D8903032EAE1238A120048
:0232BE00FC0E04
:1032C0009516839083920D0EE66E7C0EE66EE10EEF
:1032D000E66ED8EC1FF0E552E552E5521200D9CF68
:1032E000E6FFE1CFD9FFE6520101BB51040A48E0F5
:1032F000070A30E0010A24E0030A0CE0010A01E0B9
:1033000098D08380870EE66E09EC22F0E552010129
:10331000010E34D07FEC22F0000901E08BD042D9BD
:1033200001AE02D002680368BCC1E9FFEA6AE9BEE7
:10333000EA6815D9B00EE926000E26D9020E1ED075
:10334000839083828F0EE66E09EC22F0E552010134
:10335000030E14D07FEC22F000096CE123D901AEFA
:1033600002D002680368BCC1E9FFEA6AE9BEEA6804
:10337000F6D8D80EE926000E07D9040EBB6F5AD036
:103380008392BC2B0A0EE76EBC19E8AE02D0E7347C
:1033900002D0E750BC5D4BE3BC6BBDC1E9FFEA6AFC
:1033A000E9BEEA6829D9EA22EE6AEE6AEE6AEE6AB6
:1033B000BDC1E9FFEA6AE9BEEA6823D9EA22EE6AFA
:1033C000EE6AEE6AEE6ADF6AFED8E8AE02D0E73453
:1033D00002D0E750005C1EE2DFCFE9FFEA6AE9BEF7
:1033E000EA68BDD8B00EE926000EC9D8E9BEEA6881
:1033F00003D9D5D8DFCFE9FFEA6AE9BEEA68AFD8DA
:10340000D80EE926000EBBD8E9BEEA68FAD8C7D8BC
:10341000DF2ADAD70101BD2B0A0EE76EBD19E8AE2F
:1034200002D0E73402D0E750BD5D01E3BD6BBB6B5A
:1034300001D0BB6BE552E552E7CFD9FF1200D9CFDF
:10344000E6FFE1CFD9FF050EE126010EDB6A020E91
:10345000DB6A030EDB6A040EDB6AFE0EDB5011E151
:10346000DF6AB1D8E8AE02D0E73402D0E750005CA2
:1034700021E2DFCFE9FFEA6AE9BEEA68BDD876D883
:10348000F0D7FE0EDB0411E1DF6A9DD8E8AE02D072
:10349000E73402D0E750005C0DE2DFCFE9FFEA6AD3
:1034A000E9BEEA68AED862D8F0D7286A296A2A6AE3
:1034B0002B6A4BD0010EDBCF10F0020EDBCF11F0E8
:1034C000030EDBCF12F0040EDBCF13F010C028F098
:1034D00011C029F012C02AF013C02BF0E5EC16F051
:1034E00029C00CF02AC00DF02BC00EF02CC00FF03C
:1034F00062D829C008F02AC009F02BC00AF02CC0FD
:103500000BF059D829C004F02AC005F02BC006F0F2
:103510002CC007F02E6A2F6AA00E306E400E316E5E
:10352000E8EC17F029C000F02AC001F02BC002F02F
:103530002CC003F02E6AC00E2F6E7F0E306E440E2C
:10354000316E95EC17F0A2EC18F0050EE15C02E28A
:10355000E16AE552E16EE552E7CFD9FF1200D8905B
:10356000E936EA36D890E936EA36120032D8D95030
:10357000010FE96EDACFEAFF36D8DF2A120029D828
:10358000BDC1E9FFEA6A1200EA2200C0EEFF01C0F5
:10359000EEFF02C0EEFF03C0EEFF01011200EA22BF
:1035A000F3EF1AF068EC22F0F3CF00F0F4CF01F063
:1035B000026A036A12002E6A2F6A200E306E410ED4
:1035C000316E95EF17F0DFCF00F00A0EE76E0018AE
:1035D0001200EA22EECF00F0EECF01F0EECF02F0C3
:1035E000EFCF03F012000050EE260150EE22025001
:1035F000EE220350EE221200B2DF600EE926000E2A
:0C3600001200ADDF880EE926000E12005B
:04360C00E30E95161E
:103610009492A082FD0EE66ECEEC20F0E552000EF4
:10362000E66EE66A4CEC21F0E552E552839483960F
:103630008398829212008394839683988292050ED7
:103640000101AC5D0EE2010EACC1E7FFE75204E000
:10365000E846FE0BE706FCE10101AB1502E1AC2BED
:10366000EED7050EAC5D5EE2AC51040A0EE0070A2F
:103670000DE0010A08E0030A04E0010A07E183847F
:1036800005D0838603D0838801D08282AC51D9D8FB
:10369000EFCF02F0036A02BE03680A0E2A6E2B6A9D
:1036A00002C02FF003C030F055EC18F028C000F035
:1036B00029C001F0DC0E0026050E01220050010198
:1036C000AD270150AE23A9D8800E126EBB0E136E2B
:1036D000440E146E196A1A6A200E1B6E410E1C6E7F
:1036E000AC51AFD8EFCF21F021C02BF0BFEC16F0DA
:1036F00029C01DF02AC01EF02BC01FF02CC020F0E6
:10370000AAD819C029F01AC02AF01BC02BF01CC07F
:103710002CF0E8EC17F06FD8FFEC16F040D8010160
:10372000AC2B1200AC6B200EAD5D4E0EAE5915E207
:1037300074D8400E126E9C0E136E460E146EADC100
:103740002AF0AEC12BF0CEEC16F055D8FEEC16F0F8
:1037500026D80101AD6BAE6B1200AD6BAE6B6FD7AF
:10376000D9CFE6FFE1CFD9FFFE0EDB506AD8FD0EC0
:10377000DBCFEFFF6CD05CD804E0D890F336E806DE
:10378000FCE1F3500101AB1362D052D804E0D890B1
:10379000F336E806FCE1F3500101AB1B58D029C019
:1037A0000DF02AC00EF02BC00FF02CC010F053D833
:1037B00009C029F00AC02AF00BC02BF00CC02CF075
:1037C000E8EC17F073EC18F02AC006F02BC007F0F5
:1037D000086A2A50035C006E2B500458016E085092
:1037E0000558026E00C0E6FF01C0E6FF4CEC21F078
:1037F000E552E552120029C015F02AC016F02BC080
:1038000017F02CC018F027D811C029F012C02AF0E8
:1038100013C02BF014C02CF0120003680468056A72
:10382000096A0A6AC00E0B6E3F0E0C6E116A120016
:10383000D9CFE6FFE1CFD9FF010EF36EFE0EDB50CC
:103840001200EA6AA60FE96E010EEA221200E552A2
:10385000E7CFD9FF120029C02EF02AC02FF02BC0CD
:0838600030F02CC031F0120021
:08386800D9CFE6FFE1CFD9FF43
:103870009290EB0E93169494060EE66EA0EC21F057
:10388000E552FE0EDBA00CD0AF0EE66E84EC21F00C
:10389000E552000EE66EE66A68EC21F0E55204D0CF
:1038A000820EE66E84EC21F0E55281948294819A36
:1038B0008198ECD0E2D8D880000E01019455000E1A
:1038C0009555000E9655000E97550EE29407000E82
:1038D000955B965B975B945195119611971104E156
:1038E000BD6A8294819A81981200D9CFE6FF8184C3
:1038F000CDD0D9CFE6FF8194C9D0D9CFE6FFE1CFB3
:10390000D9FFF80EDBCF94F1F90EDBCF95F1FA0E6B
:10391000DBCF96F1FB0EDBCF97F1280E2D6E2E6AD2
:103920002F6A306A94C128F095C129F096C12AF017
:1039300097C12BF0AAEC20F028C094F129C095F192
:103940002AC096F12BC097F198D8FD0EDB50E8B055
:10395000818AE8A0819AFD0EDB1CE8B08188E8A08E
:1039600081984A0EE66EF1EC21F0E552FC0EDBCFB9
:1039700016F016C02BF0BDEC16F029C012F02AC0CC
:1039800013F02BC014F02CC015F02E6A2F6A7F0E96
:10399000306E430E316E95EC17F029C00EF02AC040
:1039A0000FF02BC010F02CC011F02E6A2F6A200EE1
:1039B000306E3F0E316EE8EC17F029C00AF02AC0D5
:1039C0000BF02BC00CF02CC00DF02E6A1B0E2F6ECE
:1039D000370E306E4C0E316EE8EC17F029C006F051
:1039E0002AC007F02BC008F02CC009F02E6A400E48
:1039F0002F6E1C0E306E460E316E95EC17F073EC88
:103A000018F0CEEC16F029C002F02AC003F02BC04B
:103A100004F02CC005F02E6A2F6A800E306E410E25
:103A2000316E95EC17F073EC18F02AC000F02BC043
:103A300001F02AC0E6FF2BC0E6FF7BEC20F0E55248
:103A4000E55224D08150200B06E08150100B03E199
:103A50008350400B09E08150200B0EE18150100B88
:103A60000BE08350800B08E1BD6A82940101946BE6
:103A7000956B966B976B010C000CA00EE66E150E05
:103A8000E66E68EC21F0E552E5521200E552E7CF10
:043A9000D9FF120048
:0C3A9400050EE66E060E8CD8070E8AD8D0
:103AA000080E88D8090E7ED80A0E80D80B0E7AD858
:103AB0000C0E7CD80D0E76D80E0E78D80F0E72D85C
:103AC000100E74D8110EB6EF1DF0D9CFE6FFE1CF7E
:103AD000D9FF51D8FD0EDBCFE6FF10EC21F0E55207
:103AE000C58484EC22F0E552E7CFD9FF1200D9CF8C
:103AF000E6FFE1CFD9FF030EE126020EDB6A3BD8D9
:103B0000C58271EC22F0E90EE66E10EC21F0E55270
:103B1000C586DE6ADD6ADECF00F0DDCF01F0E80E9B
:103B2000005C030E01580BE2C7A004D0020EC9CFFF
:103B3000DBFF05D0DF2A010EEEE3DB2AECD7C58AD6
:103B4000C58871EC22F0C58471EC22F084EC22F07F
:103B5000020EDB50006E030EE15C02E2E16AE55208
:103B6000E16E0050E552E7CFD9FF1200E66EADDFFF
:103B7000E552E5521200800EE66E080EE66EBBECD2
:103B800021F0E552E552C58071EC22F0E80EE66EB8
:103B900010EC21F0E552FE0EDBCFE6FF10EC21F039
:103BA000E5521200E3DFC40EE66E1200DFDF090EFD
:0C3BB000E66E1200DBDF050EE66E120070
:043BBC0036D857D8C8
:103BC00056D855D84DD8430E54D057D8430E51D05F
:103BD00054D8FD0EDB5002E0530E01D0730E49D0D5
:103BE0004CD8FD0EDB5002E0420E01D0620E41D0F7
:103BF00044D8480E3ED041D84C0EE66E10EC21F071
:103C0000E55231D8FC0EDBCFE6FF10EC21F020D0DE
:103C10000CD8FC0EDBCFE6FFFD0E36D006D823D83D
:103C2000FB0EDBCFE6FFFC0E2FD0D9CFE6FFE1CFB6
:103C3000D9FF800EE66E080EE66EBBEC21F0E55271
:103C4000E552C58071EC22F0FE0EDBCFE6FF18D006
:103C5000E552C58484EC22F0E552E7CFD9FF12008B
:103C60001B0EE66E0DD0FD0EDBCFE6FF09D0E66A37
:103C700007D0E66E10EC21F0EBD7D7DF30EF1EF067
:103C800010EC21F0E5521200DBCFE6FF9DEC1FF0B7
:043C9000E552DED744
:0C3C9400040120511F0B010801E0120088
:103CA000245101E01200060E215D21E12351230A77
:103CB0001BE0010A0CE0030A1AE10101010517E10A
:103CC0000101860E116F3D0E126F090E09D0010120
:103CD00001050DE10101ED0E116F3D0E126F1D0E7C
:103CE000146F156BC00E02D00101800E136F04011A
:103CF0002051600BE842E842E842E842E84201080D
:103D000001E0120021510B0A26E0080A19E0090A15
:103D100011E0080A05E00B0A23E0080A21E012007E
:103D20000101BE0E116F010E126F010E146F156BA3
:103D3000C10E0FD00101800E136F23C4BEF112001B
:103D40000101BF0E116F010E126F010E146F156B82
:103D5000810E136F12000101800E136F22C4BFF198
:023D600012004F
:0E3D62001201000200000008D8040400020054
:103D70000102000109022900010100C0320904000A
:103D8000000203000000092111010001221D0007AB
:103D900005810340000107050103400001040309F8
:103DA000042C034D006F00620069006C0065002068
:103DB0000052006F0062006F007400200050006C21
:103DC000006100740066006F0072006D00200352F5
:103DD000006F0062006F007400200049006E0074E4
:103DE000006500720066006100630065000600FF68
:103DF0000901A10119012940150026FF0075089548
:103E0000408100190129409100C0743D9D3DA13DB4
:023E1000CD3DA6
:0E3E12002A0EF66E080EF76E000EF86E010115
:103E20000900F550A16F0900F550A26F03E1A167E9
:103E300001D03DD00900F5509C6F0900F5509D6FF1
:103E40000900F5509E6F09000900F550E96E090060
:103E5000F550EA6E090009000900F5509F6F09004E
:103E6000F550A06F09000900F6CFA3F1F7CFA4F138
:103E7000F8CFA5F19CC1F6FF9DC1F7FF9EC1F8FFE9
:103E800001019F5302E1A05307E00900F550EE6ED7
:103E90009F07F8E2A007F9D7A3C1F6FFA4C1F7FF77
:103EA000A5C1F8FF0101A107000EA25BBFD7120058
:103EB000D9CFE6FFDACFE6FFE1CFD9FFE2CFDAFFD5
:103EC000AC6AAB6AFD0EDBB0AC88DBA202D0AC8C76
:103ED000AB8CDBB4AC8EDBA602D0AB8801D0AB8A56
:103EE000DBB8AC849E98DBBAAC86DBAC02D09D8A92
:103EF00001D09D9A9E9ADBAE02D09D8801D09D98FC
:103F0000FB0EDB50AF6EFB0EFC0EDBCF01F001C0F1
:103F100000F0016A0050B06EAC8AAB8E949C948E17
:103F2000AC50100B04E0AC50800B01E1948CE552D6
:0A3F3000E5CFDAFFE7CFD9FF12005A
:063F3A00D9CFE6FFDACF4B
:103F4000E6FFE1CFD9FFE2CFDAFFE65229D820E041
:103F5000C6A60AD025D8E66E10EC21F0E552DF6E39
:103F6000DF5010E0DF5015D09E961AD8C96EC68873
:103F70009EA6FED7C750040B05E1C750010B02E116
:103F8000FE0E07D0FC0EDB2AFD0EE0E3DB2ADED7B7
:103F9000000EE552E552E5CFDAFFE7CFD9FF120078
:103FA000FC0EDBCFE9FFFD0EDBCFEAFFEF50120086
:103FB000D9CFE6FFDACFE6FFE1CFD9FFE2CFDAFFD4
:103FC000C26AC06AFC0EDB407F0B3C0BC26EFB0E6C
:103FD000DBCFE6FFFC0EDB38F00B300BE552E710D1
:103FE000C16EFD0EDB50040DF350380B016EFD0E5B
:103FF000DB380F0B070B006EFD0EDB50800B001043
:104000000110C06EFC0EDBAE03D09E9C9D8CF28C2A
:0E401000C280E552E5CFDAFFE7CFD9FF1200FC
:02401E00FE0E94
:10402000E3CFE9FFFF0EE3CFEAFFE9CFF3FFEACFEB
:10403000F4FFFB0EE35003E1FC0EE35009E0FB0E3E
:10404000E30602E2FC0EE306FD0EE350EE6EF1D74E
:104050001200FB0EE3CFF6FFFC0EE3CFF7FFFD0EE1
:10406000E3CFF8FFFE0EE3CFE9FFFF0EE3CFEAFF59
:10407000E9CFF3FFEACFF4FFEE66FED7ED52090079
:0A408000F5CFEFFFEE66FBD712004C
:06408A002DD8FD0EDB50F5
:10409000A86EA69EA69CA684F250800B01E0010E9D
:1040A0000101C16FF29E550EA76EAA0EA76EA682E1
:1040B000C151E8B0F28EE8A0F29EA6B2FED7A19858
:1040C000A694E552E7CFD9FF12000DD8A69EA69C74
:1040D000A680020EE66E5DEC22F0E552A850E55295
:1040E000E7CFD9FF1200D9CFE6FFE1CFD9FFFE0E0F
:0640F000DB50A96E120076
:0A40F600D9CFE6FFDACFE6FFE1CFF5
:10410000D9FFE2CFDAFFE652E652FC0EDBCF00F039
:10411000FD0EDBCF01F0060ED89000360136E80424
:10412000FBE100C0DEFF01C0DDFF010EDB50BE6E13
:10413000DF50E840E8403F0B300B006ECF0EBD145F
:104140000010BD6EE552E552E552E5CFDAFFE7CF4C
:04415000D9FF120081
:0C415400276A266A256A246A200EE76E9E
:10416000D890283629362A362B3624362536263658
:1041700027362D50245C2E5025582F50265830506D
:10418000275809E32D50245E2E50255A2F50265AC9
:0C4190003050275A282AE72EE4D71200EE
:04419C00D9CFE6FF92
:1041A000DACFE6FFE1CFD9FFE2CFDAFFFD0EDB5039
:1041B000360BB16EB36AB26AA192FD0EDBAE02D0CD
:1041C000A08201D0A092DBB2CD86DBA002D0B18E5E
:1041D00001D0B19EB180E552E5CFDAFFE7CFD9FF3C
:0241E0001200CB
:0E41E200D9CFE6FFDACFE6FFE1CFD9FFE2CF7B
:1041F000DAFFE652F20E0101C017ABAC03D0C0915A
:10420000ABB0C081ABB4C085ABB2C087AE50DF6E7F
:10421000DF50E552E552E5CFDAFFE7CFD9FF1200D4
:10422000D9CFE6FFDACFE6FFE1CFD9FFE2CFDAFF61
:10423000FD0EDB50C96EC6AE02D0FF0E09D0C7B06E
:10424000FED771EC22F0C5AC02D0FE0E01D0000EFC
:0C425000E552E5CFDAFFE7CFD9FF1200FE
:04425C0031383A308B
:10426000313A34340020004D61792030382032302A
:10427000313000526F626F7420496E7465726661EE
:10428000636520312E300A4F6C6976696572204271
:074290004943484C45520070
:08429800D9CFE6FFDACFE6FF03
:1042A000E1CFD9FFE2CFDAFFE652E652FC0EDBCFD8
:1042B000DEFFDBCFDDFF010EDB50B36EDF50B26EF1
:1042C000E552E552E552E5CFDAFFE7CFD9FF12001C
:1042D000D9CFE6FFDACFE6FFE1CFD9FFE2CFDAFFB1
:1042E000E652E652FC0EDBCFDEFFDBCFDDFF010E38
:1042F000DB50D76EDF50D66EE552E552E552E5CF82
:08430000DAFFE7CFD9FF12003C
:08430800D9CFE6FFDACFE6FF92
:10431000E1CFD9FFE2CFDAFFFD0EDB507F0BD56E88
:10432000D76AD66AF294FD0EDBAE02D0F28A01D0D3
:10433000F29AD58EE552E5CFDAFFE7CFD9FF12002A
:10434000D9CFE6FFDACFE6FFE1CFD9FFE2CFDAFF40
:10435000FD0EDB50FB0BCA6ECC6A9E92FD0EDBAEEF
:1043600002D09D8201D09D92CA84E552E5CFDAFF4A
:06437000E7CFD9FF1200A7
:0A437600D9CFE6FFDACFE6FFE1CF72
:10438000D9FFE2CFDAFF3F0EC716C66AC56AFD0E37
:10439000DB50C612FC0EDB50C71293829380C68A94
:0C43A000E552E5CFDAFFE7CFD9FF1200AD
:0443AC00D9CFE6FF80
:1043B000E1CFD9FF01010ED8EF50000803E28B29AD
:1043C0001F0B8B6F07D8FE0EDBCFEFFFE552E7CF59
:1043D000D9FF12008B51EA6A6B0FE96E010EEA22D7
:0243E0001200C9
:0E43E200D9CFE6FFDACFE6FFE1CFD9FFE2CF79
:1043F000DAFF0C0EBD129494CA94FD0EDB50CB6E06
:10440000CA84E552E5CFDAFFE7CFD9FF12009494D2
:02441000120098
:0E441200D9CFE6FFDACFE6FFE1CFD9FFE2CF48
:10442000DAFFFD0EDB407F0B3C0B006EC30EC214A7
:104430000010C26EC282E552E5CFDAFFE7CFD9FFA6
:02444000120068
:0E444200FF0EE350376EEF0E01D0F30EE76E63
:10445000E72E28EF22F00C0E366EE76AE72E2EEFDD
:1044600022F0362E2DEF22F0372E26EF22F012000A
:10447000D9CFE6FFDACFE6FFE1CFD9FFE2CFDAFF0F
:10448000ACAC04D0AC900101C0B3AC80FD0EDB50ED
:0E449000AD6EE552E5CFDAFFE7CFD9FF12009F
:02449E0013EE1B
:1044A00000F023EE00F0F86A239C09EC1FF086EC84
:0A44B00022F0BFEC04F0FBD712006D
:0644BA00FF0EE350E84E86
:1044C0001200000000D000D000D0E82EFAD7120071
:1044D000C450036E026AC3500210F36E03C0F4FFAF
:0244E0001200C8
:0E44E2001F0EC514FDE1C750040BFAE11200D5
:0E44F00000EE00F00F0EEE6AEA62FDD7120039
:0244FE00C250AA
:08450000020B01E0010E1200A4
:04450800C69A12003D
:02450C0012009B
:02450E000000AB
:0745100000000000000000A4
:094517000000000000000000009B
:074520000000000000000094
:094527000000000001000000008A
:0345300000000088
:0D453300000000000000000000000000007B
:10454000000000000000000000000000000000006B
:044550000000000067
:0C4554000000000000000000000000005B
:10456000000000000000000000000000000000004B
:08457000000000000000000043
:00000001FF
