:020000040000FA
:0600000000EF23F01200E6
:0600080004EF04F01200F9
:060018000CEF04F01200E1
:0608000000EF23F01200DE
:060808003AEF04F01200BB
:060818009AEF04F012004B
:06082A000600B6460000C6
:10083000860000002400000095460000CB00000068
:1008400021000000924600003C010000030000006F
:1008500089460000330100000900000079460000CD
:10086000EC00000010000000704600002A010000AB
:04087000090000007B
:0C087400DACFE4FFE2CFDAFFE9CFE4FFC7
:10088000EACFE4FFF6CFE4FFF7CFE4FFF5CFE4FFD4
:10089000F3CFE4FFF4CFE4FFFACFE4FF00EE22F061
:1008A000140EE80403E3EECFE4FFFBD700EE00F004
:1008B000220EE80403E3EECFE4FFFBD7EAEC0DF0F1
:1008C000A1A203D0CBEC1BF0A1929EAA03D005EC11
:1008D00014F09E9AF2A403D009EC1DF0F294FDEC02
:1008E0000DF002E2E16AE552FBEC0DF0E55200EE9C
:1008F00021F0220EE80403E3E5CFEDFFFBD700EE85
:1009000035F0140EE80403E3E5CFEDFFFBD7E5CFA8
:10091000FAFFE5CFF4FFE5CFF3FFE5CFF5FFE5CF35
:10092000F7FFE5CFF6FFE5CFEAFFE5CFE9FFE5CF3B
:10093000DAFF1100D8CFE4FFE0CFE4FFE46EDACFB6
:10094000E4FFE2CFDAFFF3CFE4FFF4CFE4FFEAEC19
:100950000DF0FDEC0DF002E2E16AE552FBEC0DF06A
:10096000E552E5CFF4FFE5CFF3FFE5CFDAFFE55041
:10097000E5CFE0FFE5CFD8FF100004D890EC0EF0F3
:1009800048D8FCD70F0EC11202D85AEF0EF035EC42
:100990000EF0E65271EC0DF00001FC6F070EFC5DED
:1009A00011E1E66A16EC21F0E552DF6E000EDF8001
:1009B00005EC0EF0E66AD2EC22F0E552000EDF9074
:1009C00005EC0EF093809382948C948ED08EF28EF0
:1009D000F28C770EC86E0E0EE66E8DEC1EF0E552B0
:1009E0003F0E8A1693160101336B346B356B366BF1
:1009F000010E376F00EC14F0B6EC1BF0E66AE4EC85
:100A00001CF0E552F9EC1DF093EC19F0E55246EFBD
:100A10000EF0D9CFE6FFE1CFD9FF170EE126160E73
:100A2000DB6A0101375102E065EC0CF0200E000199
:100A3000605D03E36D50020B02E05BEF0CF0A3EC92
:100A400019F0160EDB5036E0D1EC1DF0000932E053
:100A500001013551361102E1000E08D035C1E9FF20
:100A600036C1EAFFEF50800B01E0010E000922E1E0
:100A70000501406B01013851382B0501416F05011B
:100A80000C0E426F0501436B400EE66E400EE66EA3
:100A9000050EE66E010EE66E010EE66EABEC12F090
:100AA000006E050EE15E0050F3CF35F1F4CF36F164
:100AB000160EDB6A01013551361102E1000E08D035
:100AC00035C1E9FF36C1EAFFEF50800B01E0010EAE
:100AD00000093DE101013951EA6ACB0FE96E000ED0
:100AE000EA22EF5034E00501406B01013851382B08
:100AF0000501416F0501040E426F01013951EA6A97
:100B0000CB0FE96E000EEA22EFCF43F5400EE66E02
:100B1000400EE66E050EE66E010EE66E010EE66E06
:100B2000ABEC12F0006E050EE15E0050F3CF35F134
:100B3000F4CF36F101013951EA6ACB0FE96E000EAC
:100B4000EA22EF6A010139291F0B0101396F010106
:100B50003351341102E1000E08D033C1E9FF34C132
:100B6000EAFFEF50800B01E0010E000902E05BEFAD
:100B70000CF005010251070A02E1C1EF0BF0020A75
:100B800002E193EF0BF00E0A02E13AEF0BF0060AD6
:100B900002E1BFEF0AF0040A01E1A0D20F0A01E16D
:100BA000F5D1040A1AE0030A07E0010A02E01AEF8D
:100BB0000CF0FF005BEF0CF0E66A16EC21F0E5525A
:100BC000DF6E000EDB80DFCFE6FFE66AF6EC20F09A
:100BD000E552E552FF005BEF0CF001013551361193
:100BE00002E1000E08D035C1E9FF36C1EAFFEF503F
:100BF000800B01E0010E000901E0C6D100C540F5FF
:100C00000501416B0501030E426F0501436B0501B0
:100C10000851050A01E101D10F0A01E17ED00E0A57
:100C200071E0070A64E0010A20E0030A06E0010A15
:100C300001E080D1FCC048F580D10501486BD50E9C
:100C4000006E430E016E026A00C0E6FF01C0E6FFBF
:100C500002C0E6FF480EE66E050EE66EDAEC20F006
:100C6000036E050EE15E035068D10501486BC90EA5
:100C7000006E430E016E026A00C0E6FF01C0E6FF8F
:100C800002C0E6FF480EE66E050EE66EDAEC20F0D6
:100C9000036E050EE15E0350C70E006E430E016E3B
:100CA000026A00C0E6FF01C0E6FF02C0E6FF480E90
:100CB000E66E050EE66EDAEC20F0036E050EE15EE0
:100CC0000350BE0E006E430E016E026A00C0E6FFC6
:100CD00001C0E6FF02C0E6FF480EE66E050EE66EB6
:100CE000DAEC20F0036E050EE15E035026D192CFC0
:100CF00048F593CF49F594CF4AF595CF4BF596CF6C
:100D00004CF51BD180CF48F581CF49F582CF4AF50C
:100D100083CF4BF584CF4CF510D1800EE66E080ED4
:100D2000E66E6CEC22F0E552E552C58022EC23F031
:100D3000C00EE66EC1EC21F0E552E66AC1EC21F08E
:100D4000E552C58222EC23F0C10EE66EC1EC21F023
:100D5000E552010EDB6A020EDB6A010EDBCF00F00A
:100D6000020EDBCF01F0040E005C000E01584FE2D2
:100D7000010EF36E150EF3CFDBFFC586130EDB6A93
:100D8000140EDB6A130EDBCF00F0140EDBCF01F084
:100D9000E80E005C030E015817E2C7A00FD0010E49
:100DA000DBCFE9FF020EDBCFEAFF480EE926050E96
:100DB000EA22C9CFEFFF150EDB6A06D0130EDB2A3D
:100DC000140E01E3DB2ADED7150EDB5008E0050127
:100DD000080E436FC58AC58822EC23F018D0010E97
:100DE000DBCF00F0020EDBCF01F0030E005C000E43
:100DF000015803E2C59AC58802D0C58AC58822EC8D
:100E000023F0010EDB2A020E01E3DB2AA6D7C584FC
:100E100022EC23F035EC23F090D0010EDB6A020EB9
:100E2000DB6A010EDBCF00F0020EDBCF01F0040E17
:100E3000005C000E015801E37CD0010EDBCFE6FF21
:100E400097EC1AF0E5520B0E28C0DBFF0C0E29C000
:100E5000DBFF0D0E2AC0DBFF0E0E2BC0DBFF040EE6
:100E60002A6E2B6A010EDBCF2FF0020EDBCF30F0A3
:100E700089EC18F028C0E9FF29C0EAFF480EE926EE
:100E8000050EEA220E0EDBCFEFFF040E2A6E2B6A50
:100E9000010EDBCF2FF0020EDBCF30F089EC18F023
:100EA00028C0E9FF29C0EAFF010EE926000EEA2268
:100EB000480EE926050EEA220D0EDBCFEFFF040EE9
:100EC0002A6E2B6A010EDBCF2FF0020EDBCF30F043
:100ED00089EC18F028C0E9FF29C0EAFF020EE926D4
:100EE000000EEA22480EE926050EEA220C0EDBCFA0
:100EF000EFFF040E2A6E2B6A010EDBCF2FF0020EDD
:100F0000DBCF30F089EC18F028C0E9FF29C0EAFFF8
:100F1000030EE926000EEA22480EE926050EEA2213
:100F20000B0EDBCFEFFF010EDB2A020E01E3DB2A03
:100F300078D703D00501020E436F400EE66E400ED7
:100F4000E66E050EE66E010EE66E010EE66EABEC89
:100F500012F0006E050EE15E0050F3CF35F1F4CFD4
:100F600036F1400EE66E000EE66E050EE66EE66A9F
:100F7000010EE66EABEC12F0006E050EE15E005065
:100F8000F3CF33F1F4CF34F15BEF0CF005010851EE
:100F9000050A54E0010A49E0070A37E0010A25E0A2
:100FA000030A13E0010A01E080D005010951921201
:100FB00005010A51931205010B51941205010C51C0
:100FC000951205010D51961275D00501091D921655
:100FD00005010A1D931605010B1D941605010C1D34
:100FE000951605010D1D961665D00501091D89167A
:100FF00005010A1D8A1605010B1D8B1605010C1D26
:101000008C1605010D1D8D1655D00501095189124B
:1010100005010A518A1205010B518B1205010C5171
:101020008C1205010D518D1245D0050109510101A8
:101030002F1305010A1D01012F173CD0050109A13D
:1010400007D00AC5E6FFE66A60EC1CF0E552E552FF
:10105000050109A308D00BC5E6FF010EE66E60ECA2
:101060001CF0E552E552050109A508D00CC5E6FFC4
:10107000020EE66E60EC1CF0E552E552050109A790
:1010800008D00DC5E6FF030EE66E60EC1CF0E552DD
:10109000E552050109A908D00EC5E6FF040EE66E6B
:1010A00060EC1CF0E552E55205D0030EE66E87ECCD
:1010B00022F0E552400EE66E000EE66E050EE66E7C
:1010C000E66A010EE66EABEC12F0006E050EE15E14
:1010D0000050F3CF33F1F4CF34F1EDD301013551AA
:1010E000361102E1000E08D035C1E9FF36C1EAFF32
:1010F000EF50800B01E0010E000901E03FD200C576
:1011000040F50501416B0501030E426F0501436B7C
:10111000050108510F0A01E101D2010A01E1F8D1EC
:10112000030A01E1EFD1010A01E1D5D1070A01E18A
:10113000C6D1010A01E112D1030A01E1ECD0010A92
:1011400001E1C9D00F0A01E1A6D0010A01E180D076
:10115000030A67E0010A59E0070A34E0010A19E0CE
:10116000030A01E0E1D1100E0AC5DBFF0F0E0BC52B
:10117000DBFF0F0EDBCFE6FF100EDBCFE6FF09C56E
:10118000E6FF18EC15F0E552E552E5520501486F0F
:10119000CED1100E0BC5DBFF0F0E0CC5DBFF0F0E03
:1011A000DBCFE6FF100EDBCFE6FF0AC5E6FF09C581
:1011B000E6FF72EC15F0E552E552E552E552050105
:1011C000486FB5D1100E0BC5DBFF0F0E0CC5DBFF52
:1011D0000F0EDBCFE6FF100EDBCFE6FF0AC5E6FF02
:1011E00009C5E6FFCCEC15F0E552E552E552E552B3
:1011F000110EF3CFDBFF120EF4CFDBFF120EDBCFAD
:1012000048F5110EDBCF49F592D10BC5E6FF0AC5B3
:10121000E6FF09C5E6FF67EC15F0E552E552E55239
:1012200086D1100E0BC5DBFF0F0E0CC5DBFF0F0EBA
:10123000DBCFE6FF100EDBCFE6FF0AC5E6FF09C5F0
:10124000E6FF6BEC15F0E552E552E552E5526FD141
:10125000100E0AC5DBFF0F0E0BC5DBFF120E0CC50F
:10126000DBFF110E0DC5DBFF0EC5E6FF110EDBCF58
:10127000E6FF120EDBCFE6FF0F0EDBCFE6FF100E10
:10128000DBCFE6FF09C5E6FF44EC16F0006E060E64
:10129000E15E00504CD1100E0AC5DBFF0F0E0BC5EE
:1012A000DBFF0F0EDBCFE6FF100EDBCFE6FF09C53D
:1012B000E6FF67EC16F0E552E552E552110EF3CF6A
:1012C000DBFF120EF4CFDBFF120EDBCF48F5110E61
:1012D000DBCF49F52CD1100E0AC5DBFF0F0E0BC575
:1012E000DBFF0F0EDBCFE6FF100EDBCFE6FF09C5FD
:1012F000E6FF6AEC16F0E552E552E552110EF3CF27
:10130000DBFF120EF4CFDBFF120EDBCF48F5110E20
:10131000DBCF49F50CD1100E0AC5DBFF0F0E0BC554
:10132000DBFF0F0EDBCFE6FF100EDBCFE6FF280E54
:10133000E66E09C5E6FFCCEC15F0E552E552E55244
:10134000E552110EF3CFDBFF120EF4CFDBFF120ECE
:10135000DBCF48F5110EDBCF49F5E9D0100E0AC5F9
:10136000DBFF0F0E0BC5DBFF0F0EDBCFE6FF100E12
:10137000DBCFE6FF09C5E6FF67EC16F0E552E55264
:10138000E552110EF3CFDBFF120EF4CFDBFF120E8E
:10139000DBCF48F5110EDBCF49F50F0EDBCFE6FFB3
:1013A000100EDBCFE6FF09C5E6FF6AEC16F0E5524A
:1013B000E552E552110EF3CFDBFF120EF4CFDBFF47
:1013C000120EDBCF4AF5110EDBCF4BF50F0EDBCF44
:1013D000E6FF100EDBCFE6FF280EE66E09C5E6FF3E
:1013E000CCEC15F0E552E552E552E552110EF3CF83
:1013F000DBFF120EF4CFDBFF120EDBCF4CF5110E2C
:10140000DBCF4DF50F0EDBCFE6FF100EDBCFE6FF97
:101410002A0EE66E09C5E6FF72EC15F0E552E552BC
:10142000E552E55205014E6F0F0EDBCFE6FF100EC1
:10143000DBCFE6FF2B0EE66E09C5E6FF72EC15F07A
:10144000E552E552E552E55205014F6F0F0EDBCF35
:10145000E6FF100EDBCFE6FF060EE66E09C5E6FFDF
:10146000CCEC15F0E552E552E552E552110EF3CF02
:10147000DBFF120EF4CFDBFF120EDBCF50F5110EA7
:10148000DBCF51F50F0EDBCFE6FF100EDBCFE6FF13
:10149000080EE66E09C5E6FFCCEC15F0E552E55204
:1014A000E552E552110EF3CFDBFF120EF4CFDBFF56
:1014B000120EDBCF52F5110EDBCF53F538D00BC532
:1014C000E6FF0AC5E6FF09C5E6FF33EC16F0E55274
:1014D000E552E5522CD0100E0BC5DBFF0F0E0CC5EC
:1014E000DBFF0F0EDBCFE6FF100EDBCFE6FF0AC5FA
:1014F000E6FF09C5E6FF37EC16F0E552E552E55286
:10150000E55215D009C5E6FF3FEC16F0E5520FD0C5
:1015100009C5E6FF62EC15F0E55209D009C5E6FF02
:1015200006EC15F0E55203D00501010E436F400EA5
:10153000E66E400EE66E050EE66E010EE66E010EDC
:10154000E66EABEC12F0006E050EE15E0050F3CFDC
:1015500035F1F4CF36F1400EE66E000EE66E050E64
:10156000E66EE66A010EE66EABEC12F0006E050E5A
:10157000E15E0050F3CF33F1F4CF34F19CD105019B
:101580000851070A4FE0010A41E0030A33E0010A6B
:1015900029E0070A1EE0010A14E0030A09E0010A33
:1015A00001E04FD00E0EE66E94EC1EF0E5524ED0E8
:1015B000010EE66E0E0EE66E97EC1EF0E552E55259
:1015C00045D0E66A0E0EE66E97EC1EF0E552E55247
:1015D0003DD0010EE66E0E0EE66E9FEC1EF0E5525B
:1015E000E55234D0E66A0E0EE66E9FEC1EF0E55230
:1015F000E5522CD00AC5E6FF09C5E6FF0E0EE66EE1
:10160000AAEC1EF0E552E552E55220D0090EE66E36
:10161000050EE66E0E0EE66EB7EC1EF0E552E552D4
:10162000E55214D00A0EE66E050EE66E09C5E6FF19
:101630000E0EE66EBDEC1EF0E552E552E552E552A7
:1016400005D0010EE66E87EC22F0E552400EE66E04
:10165000000EE66E050EE66EE66A010EE66EABEC77
:1016600012F0006E050EE15E0050F3CF33F1F4CFBF
:1016700034F121D105010851030A11E0010A09E002
:10168000030A01E037D009C5E6FF24EC1DF0E5525E
:1016900036D009C5E6FF28EC1DF0E55230D00E0E1D
:1016A0000CC5DBFF0D0E0DC5DBFF0C0E0EC5DBFF01
:1016B0000B0E0FC5DBFFD9500B0FE96EDACFEAFF37
:1016C000EECFE6FFEECFE6FFEECFE6FFEFCFE6FF91
:1016D0000BC5E6FF0AC5E6FF09C5E6FF2CEC1DF0C9
:1016E000006E070EE15E0050010EF36E160EF3CF92
:1016F000DBFF05D0010EE66E87EC22F0E552400ECE
:10170000E66E000EE66E050EE66EE66A010EE66E09
:10171000ABEC12F0006E050EE15E0050F3CF33F13A
:10172000F4CF34F1C8D0800EE66E080EE66E6CEC95
:1017300022F0E552E552C58022EC23F0E66AC1ECC6
:1017400021F0E552080EE66E050EE66E4EEC20F036
:10175000E552E552C58435EC23F0400EE66E000EEE
:10176000E66E050EE66EE66A010EE66EABEC12F072
:10177000006E050EE15E0050F3CF33F1F4CF34F18B
:101780009AD04F0EAB16AC9ACF0E9D16020EE66E97
:10179000E66A7C0EE66E09EC20F0E552E552E55271
:1017A000040EE66EE66AFAEC14F0E552E552100E0D
:1017B000E66E010EE66EFAEC14F0E552E552020E0A
:1017C000E66E030EE66E010EE66E75EC14F0E55261
:1017D000E552E552040EE66EE66AFAEC14F0E552C4
:1017E000E552100EE66E010EE66EFAEC14F0E552CC
:1017F000E552020EE66E030EE66E010EE66E75EC25
:1018000014F0E552E552E55200EC14F0400EE66E9D
:10181000000EE66E050EE66EE66A010EE66EABECB5
:1018200012F0006E050EE15E0050F3CF33F1F4CFFD
:1018300034F141D001013551361102E1000E08D0DA
:1018400035C1E9FF36C1EAFFEF50800B01E0010E20
:10185000000931E100C540F50501416B0501030EAA
:10186000426F0501010E436F400EE66E400EE66EBC
:10187000050EE66E010EE66E010EE66EABEC12F0A2
:10188000006E050EE15E0050F3CF35F1F4CF36F176
:10189000400EE66E000EE66E050EE66EE66A010E7E
:1018A000E66EABEC12F0006E050EE15E0050F3CF79
:1018B00033F1F4CF34F1170EE15C02E2E16AE55254
:1018C000E16EE552E7CFD9FF120001013A513B1119
:1018D00004E1100E3A6F270E3B6F3A07000E3B5B98
:1018E0006DA207D03A513B112EE18A7C8ABC13D0FD
:1018F00027D00001605102E18A9C22D0600502E1FC
:101900008A8C09D0020E605D02E18A8C19D0040E27
:10191000605D03E18A9C8A8E1200100E605D06E114
:1019200001013A513B110FE18A7C0AD0200E605D23
:101930000AE101013A513B1106E18A7C8AAC02D0EE
:101940008A9E12008A8E120010D9210E9BD9500E49
:1019500082D9A9D9630E48D9630EEE6E740EEE6E6D
:10196000690EEE6E760EEE6E690EEE6E740E64D932
:1019700081D924D926D951D9E66AD9D802E2E16AB7
:10198000E552FBEF0DF0F1D82D0E7CD9430E2CD98A
:10199000780EEE6E690EEE6E6F0EEE6E6E0EEE6EE1
:1019A000200E59D9740E7BD9620EEE6E6C0EEE6E5F
:1019B000690E42D9EE6E5ED9EE6E71D9760E4BD9B4
:1019C000630EEE6E200EEE6E6C0E69D9200EEE6E7A
:1019D000F8D80E0EE66E94EC1EF0E5521ED9010EFC
:1019E000E66EA5D802E2E16AE552FBEF0DF01200C7
:1019F0001200FBEF1EF012001E0EE66E010EE66EE8
:101A000079EC12F0E552E552400EE66E000EE66EFD
:101A1000050EE66EE66A010EE66EABEC12F0006EA5
:101A2000050EE15E0050F3CF33F1F4CF34F1120034
:101A30006D840001080EFD6F070EFE6FFD07000E9E
:101A4000FE5BFD51FE11FAE16D941200D9CFE6FF65
:101A5000E1CFD9FFFD0EDBCF2AF0FE0EDBCF2BF05E
:101A6000010E2A1801E12B5033E0E8682A1802E140
:101A7000E8682B182BE0030E2A1801E12B5024E014
:101A8000040E2A1801E12B501DE0020E2A1801E174
:101A90002B5016E0170E2A1801E12B500FE0160EFE
:101AA0002A1801E12B5008E0150E2A1801E12B50ED
:101AB00001E010D0A1DF0FD09EDF0DD09ADF0BD058
:101AC00096DF09D041DF07D05EDF05D091DF03D07C
:101AD000000001D000D0010E00D0E552E7CFD9FFC1
:101AE0001200C3D8E652D0B202D0010E15D0D0B841
:101AF00002D0020E11D0D0B002D0030E0DD0D0B65D
:101B000002D0040E09D0FCAE02D0050E05D0FCAC0C
:101B100002D0060E01D0070EDF6ED088D086D084AA
:101B2000D082D080FC9EFC9CDF50E552AFD00E0EE0
:101B3000E66E9FEC1EF0E552E552D9CFE6FFDACF14
:101B4000E6FF010E7ED8D950150FA4D8020E79D821
:101B5000D9502A0F9FD8030E74D8D9503F0F9AD866
:101B6000040E6FD8540EE15C12007FD8540EE126AB
:101B7000D9CFE9FFDACFEAFF5B0EEE6E4B0EEE6EC9
:101B8000720EEE6E6F0EEE6E5D0EEE6E620EEE6E0D
:101B90006F0EEE6E740EEE6E200E61D8EE6EEE6E6F
:101BA000570E7DD86C0EEE6EEE6E790EEE6EEE6A0E
:101BB000D950150FE96EDACFEAFF120050D82FEF97
:101BC0000EF0630E6CD86FD86D0E45D8720E43D8E8
:101BD000EE6A1200E65249D8020EE126F350DF6E9B
:101BE000010EF4CFDBFF1200EE6E6F0EEE6E6E0E86
:101BF000EE6E2BEF0EF0E16E49D0DF50F36E010E6A
:101C0000DB50F46E020EE15C1200DFCFE6FFE66A05
:101C1000F6EC20F0E552E5521200E66A0E0EE66E92
:101C200097EC1EF0E552E5521200EE6AD9502A0FE9
:101C3000E96EDACFEAFF12000ED8200EEE6EEE6EDD
:101C40001200E66E0E0EE66EBDEC1EF0E552E55299
:101C5000E552E5521200EE6E650EEE6E1200EE6E6B
:101C6000EE6EEE6EEE6EEE6E1200D9CFE6FFE1CFB5
:101C7000D9FF1200EE6AD9503F0FE96EDACFEAFFC2
:101C8000200E12009BDF9ADF15EF0EF0E552E7CF32
:101C9000D9FF1200E66E000EDA20E66E1200EE6E3C
:101CA000610EEE6E1200720EEE6E740ED4DF200E18
:041CB000EE6E1200C2
:0C1CB40052EC13F06A6A686A85EC13F0C9
:101CC0006D8C6E6A35EC13F06D9CDF6A66EC13F078
:101CD00010E2DF50040DF3CFE9FFF4CFEAFF000E6E
:101CE000E926040EEA22EE6AEE6AEE6AEE6ADF2A5E
:101CF000EDD7160E706E68A604D0030EFBEC12F042
:101D0000FAD70001736B786B796B7A6B6D98080E5C
:101D10006B6F040E6C6F616B606BE55210EF13F02C
:101D200052EC13F0000160510BE16D6A696A85ECB9
:101D300013F06DB602D06D86FCD70001010E606F06
:101D4000600508E16DBA06D0686A696A69806988C9
:101D5000020E606F6850040B07E06950040B04E04A
:101D6000020EFBEC12F089D86DB247D06850010B1F
:101D700014E06950010B11E09DDF0001040E606F5B
:101D80000401200E026F040E036F080E016F006B3A
:101D90008C0E0013E66AC4EC13F06850100B07E0D9
:101DA0006950100B04E060D8040EFBEC12F0685090
:101DB000400B0BE06950400B08E08CEC13F0020E76
:101DC00003EC13F0060EFBEC12F06850200B04E05D
:101DD0006950200B01E035D86850020B0AE06950C9
:101DE000020B07E08CEC13F0E668E668E4EC13F015
:101DF0006A6A040E0001605D02E2A19A1FD069A622
:101E00001CD0DF6A040EDF5C18E268A616D06CCF27
:101E100080F0030EFBEC12F0780E0001801502E159
:101E200038D809D0000EE66EE66A800EE66E000E27
:101E3000E66E010EE8DBDF2AE5D7A19AE55210EF46
:101E400013F070A00ED01EEC13F0EF50800808E1E4
:101E5000D5DBEF50840804E11EEC13F08C0EEF6E1E
:101E60007090050EFBEF12F06984040EC4DB6D82E6
:101E70003EEC13F0040E03EF13F03EEC13F0030EF0
:101E8000C2DB6D92699468A403D0020EB4DBFBD769
:101E9000120052EC13F0FD0E000180153DE17E0EA4
:101EA0008015E8407F0B040DF3CF63F0F4CF64F0AE
:101EB000000E6327040E642363C065F064C066F0FF
:101EC0006575BCDBEF503C0BE842E8420D0822E1AF
:101ED000B5DBBBEC13F0EECF00F0EFCF01F0280E36
:101EE000001816E1040E011813E1F5EC13F0DF6A97
:101EF000EDDB0EE2DF506EEC13F0DF50EA6A200FEC
:101F0000E96E040EEA22E552E750EF6EDF2AF0D7C1
:101F10000AD807D01AD805D0FD0E8015040801E1B3
:101F200022D8E5527DD36ADBEF50800B02E066DBFE
:101F3000EF6A00016F6B706B746B756B736B64D8B9
:101F40009DDB170E60DB39EF11F0020E0001705DB2
:101F500002E1C6EF11F034D80001815102E1C0EF77
:101F600013F0816B12009EDB49DBEF50400B01E068
:101F7000010EDF6E00016B75080E605D09E122C481
:101F80006EFF6E50000802E2100E01D0040E606F6A
:101F9000700513E1F9EC13F0A6D9020E00016F5D94
:101FA00003E12CDB840E07D0DF5003E127DBC80EF2
:101FB00002D024DB880EEF6E01D002D8E55230D378
:101FC0002BDB0001706B1ADBEF6A040E6B19006EDD
:101FD0006CC001F0DE6E6CC0DDFF19DBEF6A78AF1C
:101FE0000CD07B517C1107E005D07CC0FAFF0001CA
:101FF0007B51F96EFADF0001789F020EE15C02E28C
:10200000E16AE552E16E0CD304012051600BE84215
:10201000E842E842E842E842000901E012002151AA
:102020000C0A45E00B0A3FE00C0A31E0010A22E00D
:102030000B0A1EE0020A1CE0030A18E0080A10E07E
:10204000010A0CE00F0A08E0030A01E01200000197
:10205000738F080E606F1200B9EF10F022EF12F0CC
:102060000001610E716F000E726F0CD0FAEF10F06C
:1020700058EF10F024510001716F726B620E7127DE
:10208000000E72237381010E746F738F12000001B2
:10209000738F04012451EA6A620FE96E000EEA228E
:1020A00022C4EFFF1200EADA160E03EF13F012005B
:1020B0007EDB040EE1260401220510E120511F0BF6
:1020C00000090CE10001738F030E0401215D04E19E
:1020D0000001010E7F6F02D000017F6B04012251CD
:1020E00041E120511F0B02083DE124510F0B000973
:1020F00039E00001738F040124BF05D0A4DA670E14
:10210000E926000E04D09FDA6B0EE926000ED2DA23
:10211000030E215D03E17BDA840E23D024510F0BE3
:10212000016A700F006E0F0E0122020E00C0DBFF6D
:10213000030E01C0DBFF020EDBCFE9FF030EDBCF96
:10214000EAFFEE90ED5224AF06D061DAEF6ADF7459
:102150005EDA400E06D05BDA880EEF6EDF7457DA77
:10216000C80EEF6E040EE15C02E2E16AE552E16E38
:1021700057D2800E0401205D3CE10001C00E736F58
:1021800004012351030A1EE0010A09E0030A2FE1BA
:102190000001C40E716F3E0E726F120E22D0C3DAB0
:1021A0006C0EF6263F0EA2DA020E0001F76A7125C8
:1021B000F66E7251F7220900F5CF74F00A00F5CFE0
:1021C00075F01200030E225D0FE2ADDA6E0EF626F8
:1021D0003F0E8CDA71C0F6FF72C0F7FF0800F550B1
:1021E0000001746F756B12000001736B1200000127
:1021F000736B120011DA0401286B296B20511F0B3D
:10220000020A11E0030A0CE0010A22E10001738FC7
:102210000401288100017F051BE10401288318D0F7
:102220000001738F15D00001738F040124BF05D006
:102230000ADA670EE926000E04D005DA6B0EE926ED
:10224000000E38DAE4D9EF50040B02E0010E286FDB
:10225000000173AF07D0280E716F040E726F738187
:10226000020E746F020EE15C02E2E16AE552E16E79
:10227000D7D16D98000173BF08D078AF02D061DA72
:102280002AD07EDABBD9840E27D078BF2BD00401A8
:1022900020AF24D0000174510401265D0001755166
:1022A0000401275904E226C474F027C475F01BD832
:1022B0000001010E706FA1DA800EEF6E816BBED946
:1022C000EE52080EEF6E91DAB9D9840EEF6E010E60
:1022D000816F8FDA93D9C80EEF6E1200000131DAE8
:1022E000C80EEF6E120098D90001080E745D000E42
:1022F00075590DE274C0DEFF75C0DDFF6F5102E15C
:10230000010E03D06F0506E1020E6F6F03D0080EB9
:10231000DE6EDD6A73D9EF9271D9EF906FD9010E3D
:10232000DB50EF126BD9EE52DFCFEFFF000EDB5028
:10233000745F010EDB50755B280E7D6F040E7E6F9F
:1023400073B10FD0F7D91BE071C0F6FF72C0F7FF71
:10235000712B000E72230800F55096D9F3E2DB06CC
:10236000F1D7E8D90CE071C0E9FF72C0EAFF712B28
:10237000000E7223EF5088D9F4E2DB06F2D7020E8A
:10238000E15C02E2E16AE552E16E4AD145D956D9F3
:10239000EE52EFCFDFFFDFCF00F000500001795D9C
:1023A000000E7A5903E279C0DFFF09D0DF50006EDA
:1023B000016AE850795D796F01507A597A6F010EA0
:1023C000DB6ADF50F36E010EDBCFF4FFF350F45CF9
:1023D00010E2010EDB5082D976C0E9FF77C0EAFF38
:1023E000762B000E7723E552E750EF6E010EDB2AC5
:1023F000E8D7000ED8807955000E7A550DE2F4D852
:1024000054D91CD9EF50400B03E1EAD9C80E02D0D1
:10241000E7D9880EEF6E0FD0F0D9840EEF6E7B51A6
:102420007C1107E005D07CC0FAFF00017B51F96EFA
:10243000FADF0001789F020EE15C02E2E16AE552F8
:10244000E16EEED00001738F10D9010EE66EE66AE0
:10245000E66A620EE66E000EAFD922C461F0040196
:10246000225104E10001100E606F12000001200EE5
:10247000606F04D9150E03EF13F0CED8000EDE6E98
:10248000040EDD6EE8D8040DF350006E016A020EF2
:102490000F0B05E0D89001320032E806FBE1D8903E
:1024A00000360136D89000360136D9CFE9FFDACFB1
:1024B000EAFF0050EE260150ED22A9D8EF9EFD0E56
:1024C000DB5002E16AD901D06DD9EA22DECFEEFFFE
:1024D000DDCFEDFF9CD8EF9C9AD8040EE926000EC4
:1024E000EA22EF8C020EE15C02E2E16AE552E16E63
:1024F00097D092D8FE0EDB50016A700F006E0F0E5F
:10250000DFD885D8FD0EDBCFEFFFDBA402D0E66A73
:10251000F5D8FD0EDBA203D0010EE66EEFD8020E59
:10252000E15C02E2E16AE552E16E7AD075D8FE0E16
:10253000DB5005E125D962D8840EEF6E05D08BD82B
:102540000CD989D8010F09D9020EE15C02E2E16AD7
:10255000E552E16E65D060D8FD0EDB5002E022D975
:1025600001D01BD9A7D853D806D9FB0EDBCFEEFF7D
:10257000FC0EDBCFEDFF4BD8EE52FA0EDBCFEFFFB8
:10258000400E45D8E850EF16880E41D8E850EF12BB
:10259000FD0EDB5002E006D901D0FFD8EA22EF742D
:1025A000DECF00F0DDCF01F000C0F3FF01C0F4FF8B
:1025B000020EE15C02E2E16AE552E16E31D0F7D849
:1025C000010EF36EFC0EDB5004E0D890F336E80603
:1025D000FCE1F31C006EFD0EDBCFE9FFFE0EDBCF4E
:1025E000EAFF0050EF161CD0FBD8EE52080EEF6E3B
:1025F000F7D8BBEF13F0E66EC4EF13F06BC0E9FF42
:102600006CC0EAFF1200E66EE66AE4EF13F0DECF7C
:10261000E9FFDDCFEAFF1200CAD8020EE126120060
:10262000E552E7CFD9FF1200D6D8F0EF13F0FE0E37
:10263000EA6ADB34FE0BEA36E96E120063C0E9FF9A
:1026400064C0EAFF120024510F0BE96EEA6AD890C9
:10265000E936EA361200FD0EDB50E824026EFE0E6B
:10266000DB50040DF35002241200000EE66EE66A01
:10267000E66A710EE66E0F0EDCEF13F0000EE66EEA
:10268000E66AE66EE66A1200E66E7DC0E9FF7EC08D
:10269000EAFF7D2B000E7E23E552E750EF6EDF064A
:1026A000010E120084D8E6521200280EEE6E040EBF
:1026B000ED6E1200EA22EECFDEFFEDCFDDFF12005D
:1026C000012200C0DEFF01C0DDFF1200DF50006EFE
:1026D000016A080E005C000E01581200EA6A280F19
:1026E000E96E040EEA22EF50E66E1200F7220900AE
:1026F000F5CF71F00A00F5CF72F01200FE0EDBCFBD
:10270000E6FFBBDEE552E5521200160E6F6E9F0E1D
:102710006B6E7B0E696E1200010EE66EE66A000EAD
:10272000E66EE66A12002251F66EF76AD890F63627
:10273000F7361200D9CFE9FFDACFEAFFEE50ED10FD
:102740001200020E706F5ADFEE52EF6A57DFC80EAA
:10275000EF6E4ADFAADFF0EF13F0040DF3CF00F0C5
:10276000F4CF01F0000E0026040EAADF840E4FDF26
:10277000E850EF121200020EE926000EEA221200C3
:102780003CD88C0EEF6E1200680EE66E0F0EE66EF1
:1027900016DFE552E552E552120049DF670EE926E1
:1027A000000E120044DF6B0EE926000E1200D9CF96
:1027B000E6FFE1CFD9FF1200E66EC0EC20F0006E1C
:1027C000050EE15E0050120026EC0DF0006E060EC4
:1027D000E15E00501200200EEE6E040EED6E12004F
:1027E00065C0E9FF66C0EAFF120028DFC4DFEBEF37
:1027F00013F004DFC0DF55EF13F0F6DE14EF13F033
:10280000959A838A190E95EF16F0BDDA030EE1262C
:10281000ACA2FED7A2EC21F0DF6E0001A85104E1CA
:10282000865102E1010EA96FA90558E1A85196DA77
:10283000DFCFEFFF020EA85D08E2FF0EDF5C05E0D0
:10284000050E99DA0001A96BA86B030EA85D04E1DF
:10285000030EDF240001CA6F030E0001A85D3DE3F3
:102860000001CA510001A85D38E1010EDB6A020EC9
:10287000DB6E0001CA51F36E020EDBCFF4FFF350A2
:10288000F45C0EE2020EDB5069DA010EDBCFE7FFEB
:10289000EF50E726010EE7CFDBFF020EDB2AE9D778
:1028A000CA515CDAEFCF00F0010EDB1C005C05E0E2
:1028B000070E61DA0001866B0DD000018B5102E03A
:1028C000060E59DA8BC0E6FF87EC22F0E5520001D4
:1028D000010E866FA96BA86B01D0A82B030EE15CDB
:1028E00002E2E16AE552E16E12D24DDA220EE126F1
:1028F000010EDB68020EDB68FE0EDB50E76E030E96
:10290000E7CFDBFFFC0EDB50020FE76E040EE7CFD4
:10291000DBFFFD0EDB50E76E050EE7CFDBFFDF6A66
:10292000FC0EDB50DF5C13E2DF50EA6AAA0FE96EAF
:10293000000EEA22EF50E66ED950010F006E050E30
:10294000DF24FED9E552E750EF6EDF2AE9D7210EEA
:10295000DB6A020EDF6EFC0EDB50050FDF5C0FE260
:10296000D950010F006EDF50EBD9210EDBCFE7FF0E
:10297000EF50E726210EE7CFDBFFDF2AECD7210E51
:10298000DB1CE66ED950010F006EFC0EDB50050F0C
:10299000D7D9E552E750EF6E839ADF6AFC0EDB5021
:1029A000060FDF5C11E2ACA2FED7D950010F006E1A
:1029B000DACF01F0DF500F01C3D9EF50E66EE9EC3A
:1029C00022F0E552DF2AEAD7ACA2FED7838A0001C3
:1029D000866B220EE15C02E2E16AE552E16E97D17C
:1029E0000001865112000001A7511200000186511A
:1029F000FDE01200C8D9FE0EDB50EA6AAA0FE96EAC
:102A0000000EEA22FD0EDBCFEFFF81D1BCD9020E12
:102A10008CD992D991D976D975D9190E86D972D90E
:102A200071D975D10001865102E08B511200000C62
:102A3000D9CFE6FFE1CFD9FF020EE126E66A010E0B
:102A4000E66EFE0EDBCFE6FF50DFE552E552E552C3
:102A5000DE6ADD6ADECF00F0DDCF01F0FC0EDBCFF9
:102A600002F0FD0EDBCF03F00250005C0350015872
:102A700018E20001865104E00001A76B010E16D098
:102A80000000000000000000000000000000000046
:102A90000000000000000000DF2A010E01E3DB2A35
:102AA000D9D70001010EA76F000E00D0006E020EF4
:102AB000E15C02E2E16AE552E16E0050E552E7CFE7
:102AC000D9FF120060D9E66A060E07D920D123D9B2
:102AD000030E03D91CD107D970D902E2E16AE5528D
:102AE000E16E15D1D9CFE6FFE1CFD9FF020EE12685
:102AF000FD0EDBCFE6FFE66A7DDFE552E552010E13
:102B0000E66E010EE66E76DFE552E552020EE66EE7
:102B1000020EE66EFE0EDBCFE6FFE7DEE552E55283
:102B2000E552DE6ADD6ADECF00F0DDCF01F0FB0E9C
:102B3000DBCF02F0FC0EDBCF03F00250005C035051
:102B4000015819E20001865105E00001A76B000160
:102B50008C5116D0000000000000000000000000B2
:102B6000000000000000000000000000DF2A010E4D
:102B700001E3DB2AD8D70001010EA76F000E00D0B9
:102B8000006E020EE15C02E2E16AE552E16E005085
:102B9000E552E7CFD9FF1200D9CFE6FFE1CFD9FF49
:102BA000040EE126FD0EDBCFE6FFE66A23DFE552E9
:102BB000E552020EE66E010EE66E1CDFE552E552AE
:102BC000020EE66E020EE66EFE0EDBCFE6FF8DDE37
:102BD000E552E552E552DE6ADD6ADECF00F0DDCF78
:102BE00001F0FB0EDBCF02F0FC0EDBCF03F0025056
:102BF000005C0350015827E20001865113E00001F8
:102C0000A76B030E8DC0DBFF020E8CC0DBFF020E34
:102C1000DBCF00F0030EDBCF01F000C0F3FF01C0FB
:102C2000F4FF17D0000000000000000000000000CA
:102C3000000000000000000000000000DF2A010E7C
:102C400001E3DB2ACAD70001010EA76FF36AF46A19
:102C500000D0040EE15C02E2E16AE552E16EE55269
:102C6000E7CFD9FF120057D8040E37D850D03BD841
:102C7000040EA3D802E2E16AE552E16E48D083D89F
:102C8000E66A050E2AD843D07ED8020EE1261E0E33
:102C9000E66EE66A9ED8FC0E67D893D8FA0E64D822
:102CA000030E6ED8010EDBCFE6FF040E69D8F90ED5
:102CB000DB5004E1050EE66E030E03D0050EE66E52
:102CC000040E7BD802E2E16AE552E16E20D03ED8E4
:102CD000240E5ED03BD8260E5BD0E66EFE0EDBCF18
:102CE000E6FF03DE7AD04FD8020EE126FB0EDBCFE3
:102CF000DEFFDBCFDDFF5BD8DFCFE6FF62D8030E60
:102D0000E66E1200FE0EDBCFE6FF030E4BD0E5525F
:102D1000E7CFD9FF120037D84AD8FC0EDBCFE6FF49
:102D2000010E2ED8020EE66E1200E66EE66A7C0EEA
:102D3000E66E09EC20F051D0100EE66E040E32D093
:102D40000024E96E000EDA20EA6E12001CD8FC0E98
:102D5000DBCFE6FFFD0EDBCFE6FF1200EA6A870F4E
:102D6000E96E000EEA221200DBCFDEFFDBCFDDFFD3
:102D7000DFCFE6FF1200E66E87EC22F0E55212008C
:102D8000E66EE9EF16F0D9CFE6FFE1CFD9FF1200EA
:102D9000E66EFE0EDBCFE6FFFFDEE552E552E552C2
:102DA000E552B5D7E66EFE0EE66E91DE16D0FD0E4C
:102DB000DBCFE6FFE66AE9EF16F08FDF020EE15C9B
:102DC0001200010EDDDF010EDBCFE6FF020EC0EFC9
:102DD00016F010DEE552E5521200E552E552E552DA
:022DE0001200DF
:0E2DE200239E05D0239E2BAE02D02B6C238E99
:102DF0002BC025F0246A356A346A860E266E276A4F
:102E000029EF19F0239E08D0239E2BAE05D02A6C03
:102E10002B1EE86A2B22238E2BC025F02AC024F01B
:102E2000356A346A8E0E266E276A29EF19F0239EC2
:102E30000CD0239E2BAE09D0286C291E2A1E2B1ED7
:102E4000E86A29222A222B22238E2BC025F02AC0B1
:102E500024F029C035F028C034F09E0E266E276A73
:102E600029EF19F0317E236A65EC19F07DEC19F039
:102E700023B60DEF19F023A20AD023AA03D023BE54
:102E80000DEF19F023A419EF19F016EF19F023AA8A
:102E900005D023AC19EF19F016EF19F023A00AD0D2
:102EA00023A808D023BE04D023A402D022EF19F017
:102EB00026EF19F0346A276A31502C5C336E10E328
:102EC00029C035F02AC024F02BC025F02CC032F0E8
:102ED0002EC029F02FC02AF030C02BF0233A09D0A1
:102EE0002EC035F02FC024F030C025F031C032F0B4
:102EF000336C239E23BC238E32C026F023B055EFC3
:102F000019F01A0E336055EF19F0266A2C6A23A4C3
:102F100008D0296C2A1E2B1E2C1EE86A2A222B227E
:102F20002C2223AC08D0356C241E251E261EE86AF0
:102F3000242225222622286A335207E02C342B3201
:102F40002A3229322832332EF9D7295035262A50F1
:102F500024222B5025222C50262228C034F0239ED8
:102F600026AE0BD0346C351E241E251E261EE86AA4
:102F70003522242225222622238E26A006D0D88080
:102F80002532243235323432322A32C026F029EF4B
:102F900019F0236A65EC19F07DEC19F023B60DEFFA
:102FA00019F023A205D023BA0DEF19F014EF19F090
:102FB00023BA20EF19F023A005D023B80DEF19F0A4
:102FC00020EF19F023B814EF19F0276A7F0E2C2494
:102FD000266EE86A27223150265EE86A275A1A0EC2
:102FE000326E2C6A346A356A246A256A2E50295E4C
:102FF0002F502A5A30502B5A000E2C5A09E72E50C7
:1030000029262F502A2230502B22000E2C2201D0AC
:10301000348AD89029362A362B362C36D890343636
:10302000353624362536322EE1D72B502A1029107A
:10303000D8A4348A29EF19F0236A65EC19F07DECE5
:1030400019F023B60DEF19F023A205D023B80DEF28
:1030500019F014EF19F023AA05D023B00DEF19F0E1
:1030600014EF19F023B002D023A802D020EF19F0FA
:10307000276A31502C24266EE86A27227E0E265EAF
:10308000E86A275A346A356A246A256A30502B0266
:10309000F4CF25F0F3CF24F02F502B02F350352638
:1030A000F4502422000E252230502A02F3503526F7
:1030B000F4502422000E25222E502B02F3503426E9
:1030C000F4503522000E242225222F502A02F350DC
:1030D0003426F4503522000E2422252230502902B5
:1030E000F3503426F4503522000E242225222E508F
:1030F0002A02F4503426000E3522242225222F5095
:103100002902F4503426000E35222422252229EFEC
:1031100019F02AC034F02A502F02F4CF29F0F3CF4F
:1031200028F02B503002F4CF2BF0F3CF2AF02F02EF
:10313000F3502926F4502A22E86A2B223450300218
:10314000F3502926F4502A22E86A2B22000C236A25
:1031500065EC19F023B6B1EF18F023A20ED023B41A
:1031600005D07F0E2B6EFF0E2A6E1FD0800E2B6EA9
:103170002A6A1BD02B6A2A6A18D023B0FBD78F0E7D
:103180002C60EDD77E0E2C64F5D78E0E2C5C05E0FE
:10319000D8902B322A322C2AF8D723A406D02A6CB6
:1031A0002B1EE86A2B222BAEE5D71200236A65ECB2
:1031B00019F023B6E0EF18F023A20FD023B407D004
:1031C0007F0E2B6EFF0E2A6E296E286E25D0800E84
:1031D0002B6E01D02B6A000EF6D723B0FBD7286ADE
:1031E0009F0E2C60EBD77E0E2C64F4D79E0E2C5CC9
:1031F00007E0D8902B322A32293228322C2AF6D7EF
:1032000023A40AD0286C291E2A1E2B1EE86A292214
:103210002A222B222BAEDED712007F0E2C6EFF0E41
:103220002B6E2A6E296E12007F0E23BEFF0E2C6EAF
:1032300002D07F0E2C6E800E2B6E2A6A296AF3D77D
:1032400023AE04D0800E2C6E2B6AF7D72C6A2B6A23
:10325000F4D72550241035103410F8E027BEF0D7ED
:1032600025BE0CD026502710EBE0D89034363536EA
:10327000243625362606D8A02706F2D72750D4E1D3
:103280002628D2E034AE11D07F0E341402E135A0EE
:103290000CD0352AE86A2422252207E3D88025327B
:1032A00024323532262A2628BFE02650C9E035C010
:1032B00029F024C02AF025342B6E26302C6E2B32B8
:1032C0002C9E23BE2C8E13EF19F02B362C3602E3E6
:1032D0002384237E06E123802C6A2B6A2A6A296ACA
:1032E00012002C2803E0D8802B321200D8902B3209
:1032F00002E123821200238612003036313602E3C7
:10330000238C237E06E12388316A306A2F6A2E6A75
:103310001200312803E0D88030321200D8903032C9
:06332000EAE1238A12001D
:0A332600FC0E9516838083820B0EC7
:10333000E66E7C0EE66EE10EE66E89EC20F0E5525C
:10334000E552E5521200D9CFE6FFE1CFD9FFE652B0
:1033500001013C51080A01E17AD00F0A61E0010A3B
:103360005BE0030A43E0010A3DE0070A25E0010AA9
:103370001FE0030A07E0010A01E0D3D0870EC2D99B
:10338000010E63D030EC23F0000901E0CBD0A2D9CC
:1033900001AE02D0026803683DC1E9FFEA6AE9BEF6
:1033A000EA6875D9100EE926010E86D9020E4DD0B5
:1033B0008F0EA8D9030E49D030EC23F0000901E0AC
:1033C000B1D088D901AE02D0026803683DC1E9FFDF
:1033D000EA6AE9BEEA685BD9140EE926010E6CD9E7
:1033E000040E33D0970E8ED9050E2FD030EC23F07B
:1033F000000901E097D06ED901AE02D002680368DF
:103400003DC1E9FFEA6AE9BEEA6841D9180EE9263A
:10341000010E52D9060E19D09F0E74D9070E15D081
:1034200030EC23F0000901E07DD054D901AE02D088
:10343000026803683DC1E9FFEA6AE9BEEA6827D984
:103440001C0EE926010E38D9080E3C6F6BD03D2BBF
:10345000010EE76E3D19E8AE02D0E73402D0E75026
:103460003D5D5DE33D6B3EC1E9FFEA6AE9BEEA68A6
:1034700066D939D9E9BEEA6867D935D9E9BEEA68BB
:1034800068D931D9E9BEEA6869D9EA22EE6AEE6AFA
:10349000EE6AEE6ADF6A30D9E8AE02D0E73402D0D5
:1034A000E750005C2FE234D9E9BEEA68F0D8100E8C
:1034B000E926010EFCD8E9BEEA6841D954D9E9BE33
:1034C000EA68E5D8140EE926010EF1D8E9BEEA68EB
:1034D0003BD949D9E9BEEA68DAD8180EE926010EC7
:1034E000E6D8E9BEEA6835D93ED9E9BEEA68CFD860
:1034F0001C0EE926010EDBD8E9BEEA682FD9E7D811
:10350000DF2AC9D701013E2B010EE76E3E19E8AE56
:1035100002D0E73402D0E7503E5D01E33E6B3C6BE6
:1035200001D03C6BE552E552E7CFD9FF1200D9CF6D
:10353000E6FFE1CFD9FF050EE126010EDB6A020EA0
:10354000DB6A030EDB6A040EDB6AFE0EDB500FE162
:10355000DF6AD2D8E8AE02D0E73402D0E750005C90
:1035600043E2D6D8E9BEEA68EAD898D8F2D7FE0E88
:10357000DB040FE1DF6AC0D8E8AE02D0E73402D046
:10358000E750005C31E2C4D8E9BEEA68DDD886D8ED
:10359000F2D7FE0EDB5002080FE1DF6AADD8E8AECD
:1035A00002D0E73402D0E750005C1EE2B1D8E9BE99
:1035B000EA68CFD873D8F2D7FE0EDB5003080FE1CC
:1035C000DF6A9AD8E8AE02D0E73402D0E750005C58
:1035D0000BE29ED8E9BEEA68C1D860D8F2D7286A63
:1035E000296A2A6A2B6A49D0010EDBCF0CF0020E41
:1035F000DBCF0DF0030EDBCF0EF0040EDBCF0FF0B0
:103600000CC028F00DC029F00EC02AF00FC02BF01E
:1036100019EC17F029C008F02AC009F02BC00AF0F5
:103620002CC00BF02E6A2F6AA00E306E400E316E49
:103630001CEC18F029C004F02AC005F02BC006F0DD
:103640002CC007F02E6AC00E2F6E7F0E306E440E17
:10365000316EC9EC17F029C000F02AC001F02BC070
:1036600002F02CC003F02E6A2F6A7A0E306E440EE0
:10367000316E1CEC18F0D6EC18F0050EE15C02E29D
:10368000E16AE552E16EE552E7CFD9FF1200D8902A
:10369000E936EA36D890E936EA3612003DD8D950F4
:1036A000010FE96EDACFEAFF41D8DF2A120034D8E1
:1036B0003EC1E9FFEA6A1200EA2200C0EEFF01C043
:1036C000EEFF02C0EEFF03C0EEFF01011200EA228E
:1036D00096EF1BF019EC23F0F3CF00F0F4CF01F0DC
:1036E000026A036A1200EA22EE6AEE6AEE6AEE6A83
:1036F0003EC1E9FFEA6A1200DFCF00F0010EE76E7B
:1037000000181200E66EBAEC22F0E5520101120038
:10371000DFCFE9FFEA6A1200EA22EECF00F0EECF37
:1037200001F0EECF02F0EFCF03F012000050EE26D2
:103730000150EE220250EE220350EE221200A7DFCB
:10374000000EE926010E1200A2DF040EE926010E8A
:1037500012009DDF080EE926010E120098DF0C0E04
:0C376000E926010E1200B3DF88EF1BF019
:04376C00E30E9516BD
:103770009492A082FD0EE66E7FEC21F0E552000EE1
:10378000E66EE66AFDEC21F0E552E55283948396FD
:103790008398829212008394839683988292050E76
:1037A0000101305D0EE2010E30C1E7FFE75204E097
:1037B000E846FE0BE706FCE101012F1502E1302B84
:1037C000EED7050E305D5EE23051040A0EE0070AC6
:1037D0000DE0010A08E0030A04E0010A07E183841E
:1037E00005D0838603D0838801D082823051D9D816
:1037F000EFCF02F0036A02BE03680A0E2A6E2B6A3C
:1038000002C02FF003C030F089EC18F028C000F09F
:1038100029C001F0DC0E0026050E01220050010136
:10382000312701503223A9D8800E126EBB0E136EC1
:10383000440E146E196A1A6A200E1B6E410E1C6E1D
:103840003051AFD8EFCF21F021C02BF0F3EC16F0C0
:1038500029C01DF02AC01EF02BC01FF02CC020F084
:10386000AAD819C029F01AC02AF01BC02BF01CC01E
:103870002CF01CEC18F06FD833EC17F040D8010195
:10388000302B1200306B200E315D4E0E325915E296
:1038900074D8400E126E9C0E136E460E146E31C11B
:1038A0002AF032C12BF002EC17F055D832EC17F0A9
:1038B00026D80101316B326B1200316B326B6FD73E
:1038C000D9CFE6FFE1CFD9FFFE0EDB506AD8FD0E5F
:1038D000DBCFEFFF6CD05CD804E0D890F336E8067D
:1038E000FCE1F35001012F1362D052D804E0D890CC
:1038F000F336E806FCE1F31C01012F1758D029C06C
:103900000DF02AC00EF02BC00FF02CC010F053D8D1
:1039100009C029F00AC02AF00BC02BF00CC02CF013
:103920001CEC18F0A7EC18F02AC006F02BC007F02A
:10393000086A2A50035C006E2B500458016E085030
:103940000558026E00C0E6FF01C0E6FFFDEC21F065
:10395000E552E552120029C015F02AC016F02BC01E
:1039600017F02CC018F027D811C029F012C02AF087
:1039700013C02BF014C02CF0120003680468056A11
:10398000096A0A6AC00E0B6E3F0E0C6E116A1200B5
:10399000D9CFE6FFE1CFD9FF010EF36EFE0EDB506B
:1039A0001200EA6A2A0FE96E010EEA221200E552BD
:1039B000E7CFD9FF120029C02EF02AC02FF02BC06C
:0839C00030F02CC031F01200C0
:0839C800D9CFE6FFE1CFD9FFE2
:1039D000CB0E93169494060EE66E51EC22F0E5524F
:1039E000FE0EDBA00CD0AF0EE66E35EC22F0E552F9
:1039F000000EE66EE66A19EC22F0E55204D0820E63
:103A0000E66E35EC22F0E55281948294819A819899
:103A1000ECD0E2D8D880000E0001F455000EF55528
:103A2000000EF655000EF7550EE2F407000EF55B9A
:103A3000F65BF75BF451F511F611F71104E1BD6A7D
:103A40008294819A81981200D9CFE6FF8184CDD0EB
:103A5000D9CFE6FF8194C9D0D9CFE6FFE1CFD9FF16
:103A6000F80EDBCFF4F0F90EDBCFF5F0FA0EDBCF7A
:103A7000F6F0FB0EDBCFF7F0280E2D6E2E6A2F6AC4
:103A8000306AF4C028F0F5C029F0F6C02AF0F7C07B
:103A90002BF05BEC21F028C0F4F029C0F5F02AC02F
:103AA000F6F02BC0F7F098D8FD0EDB50E8B0818A15
:103AB000E8A0819AFD0EDB1CE8B08188E8A081981F
:103AC0004A0EE66EA2EC22F0E552FC0EDBCF16F0B9
:103AD00016C02BF0F1EC16F029C012F02AC013F03A
:103AE0002BC014F02CC015F02E6A2F6A7F0E306E9A
:103AF000430E316EC9EC17F029C00EF02AC00FF04A
:103B00002BC010F02CC011F02E6A2F6A200E306EE0
:103B10003F0E316E1CEC18F029C00AF02AC00BF0E1
:103B20002BC00CF02CC00DF02E6A1B0E2F6E370E22
:103B3000306E4C0E316E1CEC18F029C006F02AC015
:103B400007F02BC008F02CC009F02E6A400E2F6E33
:103B50001C0E306E460E316EC9EC17F0A7EC18F053
:103B600002EC17F029C002F02AC003F02BC004F0C9
:103B70002CC005F02E6A2F6A800E306E410E316E19
:103B8000C9EC17F0A7EC18F02AC000F02BC001F028
:103B90002AC0E6FF2BC0E6FF2CEC21F0E552E552EF
:103BA00024D08150200B06E08150100B03E183509C
:103BB000400B09E08150200B0EE18150100B0BE00F
:103BC0008350800B08E1BD6A82940001F46BF56BB1
:103BD000F66BF76B010C000CA00EE66E150EE66E90
:103BE00019EC22F0E552E5521200E552E7CFD9FF79
:023BF0001200C1
:0E3BF200050EE66E060E8CD8070E8AD8080E59
:103C000088D8090E7ED80A0E80D80B0E7AD80C0EF2
:103C10007CD80D0E76D80E0E78D80F0E72D8100EF6
:103C200074D8110E65EF1EF0D9CFE6FFE1CFD9FFB2
:103C300051D8FD0EDBCFE6FFC1EC21F0E552C58483
:103C400035EC23F0E552E7CFD9FF1200D9CFE6FFDC
:103C5000E1CFD9FF030EE126020EDB6A3BD8C58215
:103C600022EC23F0E90EE66EC1EC21F0E552C586A8
:103C7000DE6ADD6ADECF00F0DDCF01F0E80E005C29
:103C8000030E01580BE2C7A004D0020EC9CFDBFF20
:103C900005D0DF2A010EEEE3DB2AECD7C58AC58802
:103CA00022EC23F0C58422EC23F035EC23F0020E45
:103CB000DB50006E030EE15C02E2E16AE552E16E68
:103CC0000050E552E7CFD9FF1200E66EADDFE552B6
:103CD000E5521200800EE66E080EE66E6CEC22F0E5
:103CE000E552E552C58022EC23F0E80EE66EC1EC09
:103CF00021F0E552FE0EDBCFE6FFC1EC21F0E552EC
:103D00001200E3DFC40EE66E1200DFDF090EE66E7E
:0A3D10001200DBDF050EE66E120064
:063D1A0036D859D858D834
:103D200057D84FD8430E56D059D8430E53D056D8F3
:103D3000FD0EDB5002E0530E01D0730E4BD04ED877
:103D4000FD0EDB5002E0420E01D0620E43D046D899
:103D5000480E40D043D84C0EE66EC1EC21F0E5523F
:103D600033D8FC0EDBCFE6FFC1EC21F020D00CD81D
:103D7000FC0EDBCFE6FFFD0E38D006D825D8FB0EB3
:103D8000DBCFE6FFFC0E31D0D9CFE6FFE1CFD9FF84
:103D9000800EE66E080EE66E6CEC22F0E552E552FF
:103DA000C58022EC23F0FE0EDBCFE6FF1AD0E552F1
:103DB000C58422EC23F035EC23F0E552E7CFD9FFA0
:103DC00012001B0EE66E0DD0FD0EDBCFE6FF09D014
:103DD000E66A07D0E66EC1EC21F0E9D7D5DFE1EF66
:103DE0001EF0C1EC21F0E5521200DBCFE6FF4EECF5
:063DF00020F0E552DCD7D3
:0A3DF600040120511F0B010801E039
:103E00001200245101E01200060E215D21E1235130
:103E1000230A1BE0010A0CE0030A1AE10001610514
:103E200017E10001E80E716F3E0E726F090E09D0A6
:103E3000000161050DE100014F0E716F3F0E726FC1
:103E40001D0E746F756BC00E02D00001800E736F73
:103E500004012051600BE842E842E842E842E842AF
:103E6000010801E0120021510B0A26E0080A19E0BE
:103E7000090A11E0080A05E00B0A23E0080A21E01C
:103E8000120000013F0E716F010E726F010E746F10
:103E9000756BC10E0FD00001800E736F23C43FF10C
:103EA00012000001400E716F010E726F010E746FEF
:103EB000756B810E736F12000001800E736F22C448
:043EC00040F11200BB
:0C3EC4001201000200000008D8040400F5
:103ED00002000102000109022900010100C03209AB
:103EE0000400000203000000092111010001221D4D
:103EF000000705810340000107050103400001049C
:103F00000309042C034D006F00620069006C00651A
:103F100000200052006F0062006F0074002000500B
:103F2000006C006100740066006F0072006D00207C
:103F30000352006F0062006F007400200049006EA1
:103F40000074006500720066006100630065000691
:103F500000FF0901A10119012940150026FF007584
:103F60000895408100190129409100C0D63EFF3ECE
:043F7000033F2F3F9D
:0C3F74002A0EF66E080EF76E000EF86EB6
:103F800001010900F550256F0900F550266F03E186
:103F9000256701D03DD00900F550206F0900F5508C
:103FA000216F0900F550226F09000900F550E96EF4
:103FB0000900F550EA6E090009000900F550236F69
:103FC0000900F550246F09000900F6CF27F1F7CF5B
:103FD00028F1F8CF29F120C1F6FF21C1F7FF22C156
:103FE000F8FF0101235302E1245307E00900F550D3
:103FF000EE6E2307F8E22407F9D727C1F6FF28C1A0
:10400000F7FF29C1F8FF01012507000E265BBFD786
:0240100012009C
:0E401200D9CFE6FFDACFE6FFE1CFD9FFE2CF4C
:10402000DAFFAC6AAB6AFD0EDBB0AC88DBA202D073
:10403000AC8CAB8CDBB4AC8EDBA602D0AB8801D0F1
:10404000AB8ADBB8AC849E98DBBAAC86DBAC02D022
:104050009D8A01D09D9A9E9ADBAE02D09D8801D0A8
:104060009D98FB0EDB50AF6EFB0EFC0EDBCF01F01C
:1040700001C000F0016A0050B06EAC8AAB8E949C17
:10408000948EAC50100B04E0AC50800B01E1948C8A
:0C409000E552E5CFDAFFE7CFD9FF1200C0
:04409C00D9CFE6FF93
:1040A000DACFE6FFE1CFD9FFE2CFDAFFE65229D837
:1040B00020E0C6A60AD025D8E66EC1EC21F0E55274
:1040C000DF6EDF5010E0DF5015D09E961AD8C96E13
:1040D000C6889EA6FED7C750040B05E1C750010B4A
:1040E00002E1FE0E07D0FC0EDB2AFD0EE0E3DB2A28
:1040F000DED7000EE552E552E5CFDAFFE7CFD9FF74
:104100001200FC0EDBCFE9FFFD0EDBCFEAFFEF5024
:0241100012009B
:0E411200D9CFE6FFDACFE6FFE1CFD9FFE2CF4B
:10412000DAFFC26AC06AFC0EDB407F0B3C0BC26E3A
:10413000FB0EDBCFE6FFFC0EDB38F00B300BE5525D
:10414000E710C16EFD0EDB50040DF350380B016E0D
:10415000FD0EDB380F0B070B006EFD0EDB50800BE6
:1041600000100110C06EFC0EDBAE03D09E9C9D8C37
:10417000F28CC280E552E5CFDAFFE7CFD9FF12001B
:10418000FE0EE3CFE9FFFF0EE3CFEAFFE9CFF3FF37
:10419000EACFF4FFFB0EE35003E1FC0EE35009E02D
:1041A000FB0EE30602E2FC0EE306FD0EE350EE6EAC
:1041B000F1D71200FB0EE3CFF6FFFC0EE3CFF7FFC3
:1041C000FD0EE3CFF8FFFE0EE3CFE9FFFF0EE3CFD6
:1041D000EAFFE9CFF3FFEACFF4FFEE66FED7ED5238
:0C41E0000900F5CFEFFFEE66FBD71200E0
:0441EC002DD8FD0EBF
:1041F000DB50A86EA69EA69CA684F250800B01E020
:10420000010E0101416FF29E550EA76EAA0EA76E18
:10421000A6824151E8B0F28EE8A0F29EA6B2FED787
:10422000A198A694E552E7CFD9FF12000DD8A69E1B
:10423000A69CA680020EE66E0EEC23F0E552A85076
:10424000E552E7CFD9FF1200D9CFE6FFE1CFD9FF82
:08425000FE0EDB50A96E120006
:08425800D9CFE6FFDACFE6FF43
:10426000E1CFD9FFE2CFDAFFE652E652FC0EDBCF18
:1042700000F0FD0EDBCF01F0060ED89000360136BF
:10428000E804FBE100C0DEFF01C0DDFF010EDB50F2
:10429000BE6EDF50E840E8403F0B300B006ECF0EA3
:1042A000BD140010BD6EE552E552E552E5CFDAFFD0
:0642B000E7CFD9FF120068
:0A42B600276A266A256A246A200E92
:1042C000E76ED890283629362A362B3624362536FE
:1042D000263627362D50245C2E5025582F50265830
:1042E0003050275809E32D50245E2E50255A2F5068
:0E42F000265A3050275A282AE72EE4D712000B
:0242FE00D9CF16
:10430000E6FFDACFE6FFE1CFD9FFE2CFDAFFFD0E1D
:10431000DB50360BB16EB36AB26AA192FD0EDBAE12
:1043200002D0A08201D0A092DBB2CD86DBA002D069
:10433000B18E01D0B19EB180E552E5CFDAFFE7CF73
:04434000D9FF12008F
:0C434400D9CFE6FFDACFE6FFE1CFD9FFCA
:10435000E2CFDAFFE652F20E0001FF17ABAC03D05A
:10436000FF91ABB0FF81ABB4FF85ABB2FF87AE501E
:10437000DF6EDF50E552E552E5CFDAFFE7CFD9FF38
:02438000120029
:0E438200D9CFE6FFDACFE6FFE1CFD9FFE2CFD9
:10439000DAFFFD0EDB50C96EC6AE02D0FF0E09D0AB
:1043A000C7B0FED722EC23F0C5AC02D0FE0E01D080
:0E43B000000EE552E5CFDAFFE7CFD9FF12008D
:0243BE0032319A
:1043C0003A33303A30340020004D617920323020C9
:1043D0003230313000526F626F7420496E746572F2
:1043E0006661636520312E300A4F6C6976696572AB
:0943F00020424943484C455200AB
:0643FA00D9CFE6FFDACF87
:10440000E6FFE1CFD9FFE2CFDAFFE652E652FC0E3B
:10441000DBCFDEFFDBCFDDFF010EDB50B36EDF5005
:10442000B26EE552E552E552E5CFDAFFE7CFD9FFAC
:02443000120078
:0E443200D9CFE6FFDACFE6FFE1CFD9FFE2CF28
:10444000DAFFE652E652FC0EDBCFDEFFDBCFDDFF0C
:10445000010EDB50D76EDF50D66EE552E552E552C5
:0A446000E5CFDAFFE7CFD9FF120025
:06446A00D9CFE6FFDACF16
:10447000E6FFE1CFD9FFE2CFDAFFFD0EDB507F0B85
:10448000D56ED76AD66AF294FD0EDBAE02D0F28A00
:1044900001D0F29AD58EE552E5CFDAFFE7CFD9FF0A
:0244A000120008
:0E44A200D9CFE6FFDACFE6FFE1CFD9FFE2CFB8
:1044B000DAFFFD0EDB50FB0BCA6ECC6A9E92FD0E3E
:1044C000DBAE02D09D8201D09D92CA84E552E5CF39
:0844D000DAFFE7CFD9FF12006B
:0844D800D9CFE6FFDACFE6FFC1
:1044E000E1CFD9FFE2CFDAFF3F0EC716C66AC56A31
:1044F000FD0EDB50C612FC0EDB50C7129382938078
:0E450000C68AE552E5CFDAFFE7CFD9FF1200F9
:02450E00D9CF03
:10451000E6FFE1CFD9FF00010ED8EF50000803E21B
:10452000EB291F0BEB6F07D8FE0EDBCFEFFFE55239
:10453000E7CFD9FF1200EB51EA6ACB0FE96E000E0C
:04454000EA22120059
:0C454400D9CFE6FFDACFE6FFE1CFD9FFC8
:10455000E2CFDAFF0C0EBD129494CA94FD0EDB502C
:10456000CB6ECA84E552E5CFDAFFE7CFD9FF120060
:04457000949412000D
:0C457400D9CFE6FFDACFE6FFE1CFD9FF98
:10458000E2CFDAFFFD0EDB407F0B3C0B006EC30E6B
:10459000C2140010C26EC282E552E5CFDAFFE7CF47
:0445A000D9FF12002D
:0C45A400FF0EE350376EEF0E01D0F30E57
:1045B000E76EE72ED9EF22F00C0E366EE76AE72E93
:1045C000DFEF22F0362EDEEF22F0372ED7EF22F08B
:0245D0001200D7
:0E45D200D9CFE6FFDACFE6FFE1CFD9FFE2CF87
:1045E000DAFFACAC04D0AC900001FFB3AC80FD0EA0
:1045F000DB50AD6EE552E5CFDAFFE7CFD9FF120011
:1046000013EE00F023EE00F0F86A239CBAEC1FF0E2
:0C46100037EC23F0BDEC04F0FBD71200E7
:04461C00FF0EE3505A
:10462000E84E1200000000D000D000D0E82EFAD7EB
:02463000120076
:0E463200C450036E026AC3500210F36E03C040
:04464000F4FF120071
:0C4644001F0EC514FDE1C750040BFAE185
:02465000120056
:0E46520000EE00F00F0EEE6AEA62FDD71200D5
:0A466000C250020B01E0010E12002F
:04466A00C69A1200DA
:02466E00120038
:0946700000000000000000000041
:07467900000000000000003A
:0946800000000000000000000031
:074689000000000001000029
:02469000000028
:0346920000000025
:0B46950000000000000000000000001A
:1046A000000000000000000000000000000000000A
:0646B00000000000000004
:0A46B60000000000000000000000FA
:1046C00000000000000000000000000000000000EA
:0A46D00000000000000000000000E0
:00000001FF
