:020000040000FA
:06000000F3EF22F01200F4
:0600080004EF04F01200F9
:060018000CEF04F01200E1
:06080000F3EF22F01200EC
:0608080078EF11F0120070
:06081800D3EF11F0120005
:06082A0003006746000018
:1008300033010000210000005B460000540100006D
:100840000C000000284600000001000033000000FA
:1008500029EC0FF0020EE12601010051030A64E0C9
:10086000010A15E0030A63E119EC11F0E9BEEA6838
:1008700015EC0EF0EFCFA5F00101016B026B036BDD
:10088000046BB8EC0FF0A08C0101020E4FD0012BCD
:10089000000E022303230423010E0001E76EA519B5
:1008A000E8AE02D0A53503D0E750D880A55501E2C7
:1008B000A507010EE76EA519E8AE02D0E73402D015
:1008C000E750A55D07E30F0EA515006EF00EB514F9
:1008D0000010B56ED89001010451000A08E6240EFC
:1008E000015D000E0259000E0359000E045919E370
:1008F000E5EC10F0E9BEEA6815EC0EF067EC0FF0DD
:10090000E9BEEA6815EC0EF01AEC0EF0A09C839C90
:10091000010125516EEC0FF0E9BEEA68F2EC0EF031
:1009200005D0B8EC0FF003D09D90040E006F020EBE
:10093000E15C02E2E16AE552E16E2EEF0FF029EC94
:100940000FF0020EE12653EC22F0F3CFDEFFF4CFDE
:10095000DDFFB450400B01E1CFD0020E0101005D7C
:1009600001E0CAD0D9CFE9FFDACFEAFF8F0EEE5E01
:10097000E80EED5AE5EC10F0E9BEEA6815EC0EF071
:1009800067EC0FF0E9BEEA6815EC0EF01AEC0EF019
:10099000006A016A2A0E026E430E036EB5EC10F077
:1009A00023C00CF024C00DF025C00EF026C00FF0BF
:1009B000286A1B0E296E370E2A6E4B0E71EC11F051
:1009C00089EC0FF07A0E2A6E440E2B6E00EC1FF0AD
:1009D000DAEC0EF000EC1FF0C2EC1FF02250000128
:1009E0006127235062232450632325506423A09C55
:1009F000839C0101255101E178D0010E006E19ECB4
:100A000011F0E9BEEA6859EC11F0005C0BE2080E47
:100A10006003F328E96EEA6AE9BEEA6815EC0EF0B5
:100A2000020EEF6E080E6003F350B4EC0FF0E9BE57
:100A3000EA6815EC0EF0EFCF04F004C005F0046A8C
:100A4000EBEC10F0E9BEEA6859EC11F0000104107B
:100A5000006E05C001F0026A036A035000016419C8
:100A6000E8AE02D0643508D06151005C6251015893
:100A700063510258645103581FE3E2EC10F0E9BEE1
:100A8000EA6815EC0EF0EFCF00F00F0E005C2DE2DF
:100A9000E2EC10F0E9BEEA6815EC0EF0EF28E66E25
:100AA000E2EC10F0E9BEEA6815EC0EF0E552E75012
:100AB000EF6E0101006B20D0E2EC10F0E9BEEA68B5
:100AC00059EC11F0010811E2E2EC10F0E9BEEA681D
:100AD00015EC0EF0EF04E66EE2EC10F0E9BEEA6809
:100AE00015EC0EF0E552E750EF6E6EEC0FF0E9BE3C
:100AF000EA68F2EC0EF0006F020EE15C02E2E16ADD
:100B0000E552E16E2EEF0FF029EC0FF001010051DC
:100B1000040A01E193D0050A01E194D0030A01E13E
:100B200091D0010A01E18ED0030A01E08AD0FE0EC5
:100B3000DBCF60F0FE0EDBCFE6FF87D8E552020E7A
:100B40000101E76E2E19E8AE02D0E73402D0E7507B
:100B50002E5D01E296D8838C19EC11F0E9BEEA68AB
:100B600059EC11F00F0B006EF00EB5140010B56EBD
:100B700003680468056A0D6A1B0E0E6E370E0F6E51
:100B80004B0E106E080E6003F3505FEC0FF0E9BEE1
:100B9000EA6815EC0EF0EFCF17F017C018F0176ADF
:100BA000080E6003F35063EC0FF0E9BEEA6859ECFD
:100BB00011F000011710156E18C016F0246E18C041
:100BC00025F0E6EC1DF023C011F024C012F025C082
:100BD00013F026C014F025EC11F0F2EC10F010C068
:100BE00026F000EC1FF023C009F024C00AF025C055
:100BF0000BF026C00CF0286A240E296E740E2A6EA3
:100C0000490E71EC11F093EC1FF024C006F025C0E2
:100C100007F0086A2450035C006E25500458016EEA
:100C200008500558026E00C0E6FF01C0E6FF1DEC4B
:100C300011F09D800101010E006F04D0006B010EC8
:100C400002D0006B000E2EEF0FF029EC0FF0FE0E1D
:100C5000DB50010BE8B08386E8A08396FE0EDB40F4
:100C60007F0B010BE8B08384E8A08394FE0EDB4089
:100C7000E8403F0B010BE8B0828CE8A0829C2EEF8D
:100C80000FF0D9CFE6FFE1CFD9FFE652838E0A0EEF
:100C9000006E004E77EF07F0838A0000000000002E
:100CA0000000000000000000000000000000000044
:100CB0000000000000000000000000000000000034
:100CC0000000000000000000000000000000000024
:100CD0000000000000000000000000000000000014
:100CE0000000000000000000000000000000000004
:100CF00000000000000000000000000000000000F4
:100D000000000000000000000000000000000000E3
:100D100000000000000000000000000000000000D3
:100D200000000000000000000000000000000000C3
:100D300000000000000000000000000000000000B3
:100D400000000000000000000000000000000000A3
:100D50000000000000000000000000000000000093
:100D60000000000000000000000000000000000083
:100D70000000000000000000000000000000000073
:100D80000000000000000000000000000000000063
:100D90000000000000000000000000000000000053
:100DA0000000000000000000000000000000000043
:100DB0000000000000000000000000000000000033
:100DC00000000000839A0000000000000000000006
:100DD0000000000000000000000000000000000013
:100DE0000000000000000000000000000000000003
:100DF00000000000000000000000000000000000F3
:100E000000000000000000000000000000000000E2
:100E100000000000000000000000000000000000D2
:100E200000000000000000000000000000000000C2
:100E300000000000000000000000000000000000B2
:100E400000000000000000000000000000000000A2
:100E50000000000000000000000000000000000092
:100E60000000000000000000000000000000000082
:100E70000000000000000000000000000000000072
:100E80000000000000000000000000000000000062
:100E90000000000000000000000000000000000052
:100EA0000000000000000000000000000000000042
:100EB0000000000000000000000000000000000032
:100EC0000000000000000000000000000000000022
:100ED0000000000000000000000000000000000012
:100EE000000000000000000000000000D2D6839E39
:100EF000E552E552E7CFD9FF120029EC0FF0FE0EC4
:100F0000DBCFE9FFEA6AE9BEEA685CEC11F018ECB5
:100F10000FF02EEF0FF029EC0FF00F0EE12601017C
:100F20002F51060A01E180D2030A01E199D1010A99
:100F300001E183D1070A01E10AD1010A01E1ABD045
:100F4000030A3BE0010A01E0C8D2010E2E6F25C161
:100F5000C2F0256B70EC0EF0E9BEEA68DAEC10F036
:100F600077EC0EF0E9BEEA68DAEC10F0140EDE6EF3
:100F7000DD6A60EC10F0E9BEEA6832EC10F0E9BE20
:100F8000EA6863EC10F0E9BEEA6878EC10F0E9BEBC
:100F9000EA68CBEC10F0040EDB6A050EDB6A88EC25
:100FA00010F0E9BEEA6838EC10F0E9BEEA688EECB1
:100FB00010F0010E2F6F050E92D297EC0EF006E0A6
:100FC000D0EC10F0E9BEEA687EEC0EF010EC10F008
:100FD000E8AE02D0E73402D0E750305D01E27ED2C5
:100FE000306B60EC10F0E9BEEA685AEC10F0E9BE34
:100FF000EA6815EC0EF0EFCFDFFFD8900001A951A1
:10100000000A02E632EC0FF01CE3D890AD51000A62
:1010100002E63BEC0FF015E3D890B151000A02E66E
:1010200044EC0FF00EE3D890B551000A02E64DEC07
:101030000FF007E3D890B951000A02E656EC0FF022
:1010400010E2F9EC10F001E32CD1140E37EC11F0A2
:10105000E9BEEA6832EC10F0E9BEEA6847EC11F04C
:101060003DD2280E37EC11F0E9BEEA6832EC10F000
:10107000E9BEEA6847EC11F070EC0EF0E9BEEA68F0
:10108000DEEC10F077EC0EF0E9BEEA68DEEC10F072
:101090000101020EC7D197EC0EF006E0D0EC10F083
:1010A000E9BEEA687EEC0EF010EC10F0E8AE02D07B
:1010B000E73402D0E750305D01E210D2306B70ECC3
:1010C0000EF0E9BEEA6815EC0EF0F0EC0FF002E667
:1010D00032EC0FF01CE3D890AD51000A02E63BEC75
:1010E0000FF015E3D890B151000A02E644EC0FF07E
:1010F0000EE3D890B551000A02E64DEC0FF007E37D
:10110000D890B951000A02E656EC0FF011E20AEC51
:101110000FF001E3C6D0030EA8EC0EF002E283EC60
:101120000FF070EC0EF0E9BEEA688BEC10F00CD01A
:10113000060EDB50010808E2060EDB0670EC0EF02E
:10114000E9AE5BD0EA6859D00101030E6BD197EC90
:101150000EF006E0D0EC10F0E9BEEA687EEC0EF08E
:1011600010EC10F0E8AE02D0E73402D0E750305D6A
:1011700001E2B4D1306B77EC0EF0E9BEEA6815EC11
:101180000EF0F0EC0FF002E632EC0FF01CE3D8901A
:10119000AD51000A02E63BEC0FF015E3D890B151D7
:1011A000000A02E644EC0FF00EE3D890B551000AB5
:1011B00002E64DEC0FF007E3D890B951000A02E6C1
:1011C00056EC0FF010E20AEC0FF06BE2030EA8EC05
:1011D0000EF002E283EC0FF077EC0EF0E9BEEA6865
:1011E0008BEC10F00ED0060EDB5001080AE2060E62
:1011F000DB0677EC0EF0E9BEEA688BEC10F0010E2E
:101200006ED1FD0EDB5014E060EC10F0E9BEEA6830
:101210005AEC10F0E9BEEA689BEC10F088EC10F094
:10122000E9BEEA6838EC10F0E9AEF8D0EA68F6D02A
:101230000101040E2F6F060E52D197EC0EF001E162
:101240004DD1A0EC10F022C0BAF023C0BBF024C0F6
:10125000BCF025C0BDF00101050E2F6F070E3FD178
:1012600097EC0EF001E13AD1A0EC10F022C0BEF0F4
:1012700023C0BFF024C0C0F025C0C1F015EC10F0B1
:10128000030EEB5000012518E8AE02D0C13508D09E
:10129000BE51EE5CBF51EE58C051EE58C151EE58F0
:1012A00007E301012E6B2F6BC2C025F1030E17D18E
:1012B000006A016A2F0E026E440E036E15EC10F0E8
:1012C000EE50BE5D0C6EEE50BF590D6EEE50C05923
:1012D0000E6EEE50C1590F6E0CC022F00DC023F0FF
:1012E0000EC024F0256EFDEC1DF089EC0FF004EC2F
:1012F00010F0DAEC0EF0ADEC1EF0070E23C0DBFFB1
:10130000080E24C0DBFF090E25C0DBFF0A0E26C035
:10131000DBFF046A800E056EA20E066E440E076E99
:10132000070EDBCF0CF0080EDBCF0DF0090EDBCF84
:101330000EF00A0EDBCF0FF015EC10F00001BE51DD
:10134000EE24186EBF51EE20196EC051EE201A6EB9
:10135000C151EE201B6E18C022F019C023F01AC034
:1013600024F0256EFDEC1DF023C014F024C015F010
:1013700025C016F026C017F0286A296A04EC10F080
:1013800048EC10F000EC1FF01FEC10F016EC1EF013
:101390003CEC11F02A6A400E71EC11F00B0E23C0E8
:1013A000DBFF0C0E24C0DBFF0D0E25C0DBFF0E0E95
:1013B00026C0DBFF070EDBCF23F0080EDBCF24F0C7
:1013C000090EDBCF25F00A0EDBCF26F093EC1FF0E1
:1013D000020E24C0DBFF030E25C0DBFF54EC11F02E
:1013E000E9BEEA6878EC10F0E9BEEA68CBEC10F0F0
:1013F0000B0EDBCF23F00C0EDBCF24F00D0EDBCF7A
:1014000025F00E0EDBCF26F0BDEC10F088EC10F0CE
:10141000E9BEEA6838EC10F0E9BEEA688EEC10F03C
:101420000101060E2F6F5AD070EC0EF0E9BEEA688B
:1014300059EC11F0E66EFE0EDB50080DF328ECECD3
:101440000EF077EC0EF0E9BEEA6844EC10F0020F03
:10145000ECEC0EF060EC10F0E9BEEA6844EC10F041
:10146000030FECEC0EF06EEC11F0E9BEEA6844EC10
:1014700010F0040FECEC0EF054EC11F0E9BEEA6849
:1014800044EC10F0050FECEC0EF061EC0EF0050FE3
:10149000E96EEA6AE9BEEA6844EC10F0060FECEC8B
:1014A0000EF088EC10F0E9BEEA6844EC10F0070F8B
:1014B000ECEC0EF061EC0EF0070FE96EEA6AE9BEA3
:1014C000EA6844EC10F0080FECEC0EF001012E6B12
:1014D0002F6BC2C025F1040E02D02F6B010E006EDF
:1014E0000F0EE15C02E2E16AE552E16E00502EEF80
:1014F0000FF029EC0FF0070EE12601013151040A2B
:1015000001E1A7D1070A01E124D1010A01E1B5D027
:10151000030A37E0010A01E0A2D1010E2E6F25C1B6
:10152000D7F0256B70EC0EF0E9BEEA68DAEC10F04B
:1015300077EC0EF0E9BEEA68DAEC10F0C80EDE6E69
:10154000DD6A60EC10F0E9BEEA6832EC10F0E9BE4A
:10155000EA6863EC10F0E9BEEA6878EC10F0E9BEE6
:10156000EA68CBEC10F02CDB88EC10F0E9BEEA68FE
:1015700038EC10F0E9BEEA688EEC10F00101010EC3
:1015800066D1D5DB05E0D5EC10F0E9BEEA68BEDB3C
:101590001AEC10F0E8AE02D0E73402D0E750325D2A
:1015A00001E25ED1326B60EC10F0E9BEEA685AEC01
:1015B00010F0E9BEEA689BEC10F077EC0FF0E8AEB3
:1015C00002D0C63502D0BEEC0FF024E28DEC0FF055
:1015D000E8AE02D0CA3502D0C7EC0FF01BE293ECA4
:1015E0000FF0E8AE02D0CE3502D0D0EC0FF012E210
:1015F0009EEC0FF0E8AE02D0D23502D0D9EC0FF05D
:1016000009E2A9EC0FF0E8AE02D0D63502D0E2EC48
:101610000FF010E3F9EC10F001E3F9D01E0E37ECF7
:1016200011F0E9BEEA6832EC10F0E9BEEA6847EC76
:1016300011F016D13C0E37EC11F0E9BEEA6832EC3D
:1016400010F0E9BEEA6847EC11F0BADA88EC10F065
:10165000E9BEEA6838EC10F0E9BEEA688EEC10F0FA
:101660003FDBE9BEEA68DEEC10F041DBE9BEEA6888
:10167000DEEC10F00101020EEAD059DB05E0D5ECFA
:1016800010F0E9BEEA6842DB1AEC10F0E8AE02D0D6
:10169000E73402D0E750325D01E2E2D0326B20DB6A
:1016A000E9BEEA68C2DA060EEFCFDBFF60EC10F0AD
:1016B000E9BEEA685AEC10F0E9BEEA689BEC10F06B
:1016C00077EC0FF0E8AE02D0C63502D0BEEC0FF0DA
:1016D00024E28DEC0FF0E8AE02D0CA3502D0C7ECA0
:1016E0000FF01BE293EC0FF0E8AE02D0CE3502D043
:1016F000D0EC0FF012E29EEC0FF0E8AE02D0D23543
:1017000002D0D9EC0FF009E2A9EC0FF0E8AE02D05C
:10171000D63502D0E2EC0FF00EE37CDB01E377D0AC
:10172000020E16DB02E283EC0FF0DADAE9BEEA68B9
:101730008BEC10F00BD0060EDB50010807E2060E12
:10174000DB06CEDAE9AE7DD0EA687BD00101030E7C
:101750007ED0020E2E6FEBDA05E0D5EC10F0E9BE7C
:10176000EA68D4DA1AEC10F0E8AE02D0E73402D01E
:10177000E750325D75E3326BBADAE9BEEA6855DAF2
:10178000060EEFCFDBFFD8900001C651000A08E635
:10179000B80EC35D0B0EC459000EC559000EC659D4
:1017A00034E3D890CA51000A08E6B80EC75D0B0EA4
:1017B000C859000EC959000ECA5927E3D890CE5116
:1017C000000A08E6B80ECB5D0B0ECC59000ECD59C1
:1017D000000ECE591AE3D890D251000A08E6B80E8E
:1017E000CF5D0B0ED059000ED159000ED2590DE32A
:1017F000D890D651000A08E6B80ED35D0B0ED45926
:10180000000ED559000ED65913E204DB07E301019F
:101810002E6B316BD7C025F1030E23D0020E98DA60
:1018200001E271DB64DAE9BEEA688BEC10F00DD0FE
:10183000060EDB50010809E2060EDB0658DAE9BEA7
:10184000EA688BEC10F0010E0CD00101040E316F30
:1018500007D02E6B316BD7C025F1040E02D0316B4F
:10186000010E006E070EE15C02E2E16AE552E16EF4
:101870000050F4D2EEDA280EE126DE6ADD6AFB0EB5
:10188000DBCF00F0FC0EDBCF01F0B2DB01C0DBFFF1
:1018900077DA040E24C0DBFF050E01C0DBFFFFEC8E
:1018A00010F003500118E8AE02D0013404D000500B
:1018B000025C015003582EE2FFEC10F0010E0226EC
:1018C000000E0322025000183BE10350011838E1DA
:1018D000D8DBA8DAE8AE02D0F33401D030DA1AE26D
:1018E00034EC11F00C0EEECFDBFF0D0EEECFDBFF74
:1018F0000E0EEECFDBFF0F0E62EC11F00C0EDBCF05
:10190000EEFF0D0EDBCFEEFF0E0EDBCFEEFF0F0E68
:10191000DBCFEEFF05EC11F0D89004360536D890F9
:1019200004360536FD0EDB500424E96EFE0EDB5056
:101930000520EA6E7DDA280EE15C01E33FD13CD15F
:101940001FDA060E24C0DBFF070E25C0DBFF2EECDE
:1019500011F080DB67DAE8AE02D0F33401D0EFD9C2
:101960001DE278DB100EEECFDBFF110EEECFDBFFBA
:10197000120EEECFDBFF130EEECFDBFF2EEC11F0DD
:1019800069DBE5DB100EDBCFEEFF110EDBCFEEFFE8
:10199000120EDBCFEEFF130EDBCFEEFF72DB42DA6F
:1019A000E8AE02D0F33401D0CAD91AE234EC11F017
:1019B000140EEECFDBFF150EEECFDBFF160EEECFD3
:1019C000DBFF170E62EC11F0140EDBCFEEFF150EED
:1019D000DBCFEEFF160EDBCFEEFF170EDBCFEEFFF9
:1019E00022EC11F037DB1EDAE8AE02D0F33401D07E
:1019F000A6D91FE22FDB180EEECFDBFF190EEECFBC
:101A0000DBFF1A0EEECFDBFF1B0EEECFDBFF22EC6F
:101A100011F020DB83D934EC11F0180EDBCFEEFF90
:101A2000190EDBCFEEFF1A0EDBCFEEFF1B0EDBCF66
:101A3000EEFF10DB1C0EEECFDBFF1D0EEECFDBFF4B
:101A40001E0EEECFDBFF1F0EEECFDBFFC4DA010E62
:101A50000626000E0722D2D8FDDA60D9DDDBBFD81A
:101A60001C0EDBCFEEFF1D0EDBCFEEFF1E0EDBCF1D
:101A7000EEFF1F0EDBCFEEFFCFDB080E00C0DBFF5B
:101A8000090E01C0DBFF020EDBCF24F0030EDBCF1B
:101A900025F00A0E24C0DBFF0B0E25C0DBFF080E6D
:101AA000DB2A090E01E3DB2A080EDBCF06F0090E64
:101AB00074EC11F0D9DBB6D9E8AE02D0F33401D022
:101AC0003ED9EDE30A0EDB060B0E01E2DB06BADBC4
:101AD00050D985D8A7D9E8AE02D0F33401D02FD998
:101AE000F1E347D9080EDBCF02F0090EDBCF03F09C
:101AF00001500318E8AE02D0033404D00250005C59
:101B00000350015822E2B0DB240EEECFDBFF250E9E
:101B1000EECFDBFF260EEECFDBFF270E04DB24D952
:101B200035DB240EDBCFEEFF250EDBCFEEFF260EDE
:101B3000DBCFEEFF270EDBCFEEFF1BD96ADA0350B7
:101B40000118E8AE1ED0013420D0C1DB48D8200EE9
:101B5000EECFDBFF210EEECFDBFF220EEECFDBFF61
:101B6000230EE1DAB4DB12DB200EDBCFEEFF210E19
:101B7000DBCFEEFF220EDBCFEEFF230EDBCFEEFF3F
:101B80008ED70050025C0150035805E3080EDBCFEE
:101B9000DEFFDBCFDDFFEDD83CDA01500318E8AE05
:101BA00002D0033404D00250005C0350015801E21B
:101BB00076D6DFD81DDA71D6E16AE552E16E4ED1F4
:101BC00031DB0C6A0D6A7A0E0E6E430E0F6ECDDAA3
:101BD0005FDA17EC1EF033DA83DABDEF10F0D8903D
:101BE00000360136D89000360136FD0EDB50002459
:101BF000E96EFE0EDB500120EA6E1200D890063628
:101C00000736D89006360736FD0EDB500624E96EFF
:101C1000FE0EDB500720EA6EEECF02F0EECF03F0AF
:101C2000EECF04F0EFCF05F01200650EE926000EAE
:101C3000EA221200EF5000011410106E15C011F0CE
:101C4000126A136AEFDA01C10CF002C10DF003C190
:101C50000EF004C10FF0F40E276E010E286E296AF3
:101C60002A6A0CC022F0BEDA8EEC21F01EC00CF005
:101C70001FC00DF020C00EF021C00FF01EC022F0DA
:101C80001FC023F020C024F021C025F0FDEC1DF082
:101C9000D6D926DAC2EC1FF0225000011024000130
:101CA000616F2350000111200001626F2450000178
:101CB00012200001636F2550000113200001646FA2
:101CC0001200FE0EDB50080DF350120039DA22C06C
:101CD00000F023C001F024C002F025C003F0120080
:101CE000FE0EDB50080DF3CFE9FFEA6A1200FE0E8C
:101CF000DB50080DF328E96EEA6A120002DAA60E3C
:101D0000E926000E28DA0101302B1200FAD9C30EA1
:101D1000E926000E20DA0101322B120002C0EEFF8C
:101D200003C0EEFF04C0EEFF05C0EEFF1200FE0E82
:101D3000DBCFE6FF84EC05F0E55200091200EE501F
:101D4000025CEE500358EE500458EE500558120055
:101D5000006E060EDBCFE7FF0050E726060EE7CF4A
:101D6000DBFFDB500F081200DECF00F0DDCF01F00B
:101D700012000A0EDBCF00F00B0EDBCF01F01200D9
:101D8000020EDBCF02F0030EDBCF03F0DE500224A5
:101D9000006EDD500320016E020E296E2A6A00C01B
:101DA00024F001C025F06DEC1FF024C000F025C028
:101DB00001F0120023C004F024C005F025C006F095
:101DC00026C007F042DA00C023F001C024F002C0B0
:101DD00025F003C026F01200E66EFCEC21F0E5527F
:101DE000E552120069DA61C0EEFF62C0EEFF63C027
:101DF000EEFF64C0EEFF0101030E1200020EDBCF06
:101E000000F0030EDBCF01F012006003F3CFE9FF17
:101E1000EA6A12000F0EF36E060EDBCFF4FFF350EA
:101E2000F45C1200030EEBCFF3FF0550F318120021
:101E3000EECF00F0EECF01F0EECF02F0EFCF03F0E7
:101E400000C022F001C023F002C024F003C025F03E
:101E50001200D9CFE6FFE1CFD9FF1200E552E7CF5C
:101E6000D9FF1200B80EA65D0B0EA759000EA85997
:101E7000000EA9591200B80EAA5D0B0EAB59000E48
:101E8000AC59000EAD591200B80EAE5D0B0EAF5935
:101E9000000EB059000EB1591200B80EB25D0B0E13
:101EA000B359000EB459000EB5591200B80EB65D04
:101EB0000B0EB759000EB859000EB9591200020F97
:101EC000E96EEA6A1200030FE96EEA6A1200EFCFC8
:101ED00014F014C015F0146AEBEF10F04F0EE66E1C
:101EE000FB0EE66EAAD960C0E9FFEA6A1200040E92
:101EF000DBCF00F0050EDBCF01F0026A036A03506E
:101F00000001C61912000F0EF36E060EF3CFDBFFB1
:101F10001200C1D9286A296A120077D9066A076AAD
:101F20000750CA191200040EDBCF08F0050EDBCFF4
:101F300009F00A6A0B6A0B50CE191200040EDBCFAF
:101F40000CF0050EDBCF0DF00E6A0F6A0F50D219A0
:101F50001200040EDBCF10F0050EDBCF11F0126A79
:101F6000136A1350D6191200060FE96EEA6A1200BE
:101F70008F0EE66EE80EE66E1DEF11F0C351005CA9
:101F8000C4510158C5510258C65103581200C751D7
:101F9000045CC8510558C9510658CA510758120067
:101FA000CB51085CCC510958CD510A58CE510B5831
:101FB0001200CF510C5CD0510D58D1510E58D25156
:101FC0000F581200D351105CD4511158D5511258EA
:101FD000D65113581200DECF06F0DDCF07F0120005
:101FE000060EEFCFDBFFD8900001A951000A1200C6
:101FF0000006000E015A020E00C0DBFF030E1200A5
:10200000060EDBCFEFFF1200AA0E2A6E430E71EF11
:1020100011F0040EDBCF02F0050EDBCF03F012004F
:10202000050E0101E76E30191200BA0EE96E000EBE
:10203000EA6E1200050E0101E76E321912002BD96B
:1020400004D904C023F005C024F006C025F007C061
:1020500026F01200060EDBCF00F0070EDBCF01F0FA
:10206000EFEF0DF0E2DD010EDBCFEFFF6EEF11F0D1
:10207000DCDD050EDBCFEFFF24DE070FE96EEA6A39
:102080001200ECD834EF11F014D9E66E61EF0EF0C7
:1020900023C010F024C011F025C012F026C013F0A8
:1020A000D4D80CC023F00DC024F00EC025F00FC012
:1020B00026F01200BADD010EEFCFDBFF6EEF11F05C
:1020C00000DE5FEF0FF0E3D8540EF36E020EF3CF95
:1020D000DBFF010EF36E030EF3CFDBFF54EF11F0C5
:1020E00000EC1FF0C9D87A0E2A6E440E71EF11F081
:1020F0009CDD030EDBCFEFFFE4DD050FE96EEA6A3E
:102100001200D890E936EA36D890E936EA3612005D
:10211000D8DDB4EF0FF089DD00EF10F086DD040E9E
:10212000DBCFEFFF1200EECFDBFF0A0EDBCF06F0B6
:102130000B0E74EF11F079DDEFCFDFFFE0EF0DF064
:10214000FE0EDBCFE6FF7DEC07F0E5521200E6DD88
:1021500055DEEFEF0DF0EA2200C0EEFF01C0EEFF0A
:1021600002C0EEFF03C0EEFF1200000EDFCF24F02E
:10217000010EDBCF25F0E6EF1DF093EC1FF0040E0F
:1021800024C0DBFF050E25C0DBFF120028DDC6DD05
:10219000F0DDEFEF0DF049DD020EDBCFEFFF1200B7
:1021A00095DD30C1E9FFEA6A120090DD32C1E9FF36
:1021B000EA6A12003ADD0C0EEF6E120036DD0F0EE9
:1021C000EF6E1200080E05EF0FF0080E000160031D
:1021D000F350B4EF0FF0080E6003F350070FE96EF1
:1021E000EA6A12000DC023F00EC024F00FC025F0E3
:1021F0001200BADDD00E005C070E01581200FEDDA1
:10220000DECF02F0DDCF03F01200040EDBCF04F0CE
:10221000050EDBCF05F01200A7DD010E0026000E33
:1022200001221200046A056A2A0E066E430E076E2A
:102230001200080E000105EF0FF08FEC22F0E552BE
:10224000E5521200C8DEFEEF0DF023C028F024C0D6
:1022500029F025C02AF026C02BF01200020EDBCF99
:1022600006F0030E74EF11F07FDDEFEF0DF0DE26C8
:10227000000EDD2260EF10F023C000F024C001F05A
:1022800025C002F026C003F0286A296A1200CDDCBE
:10229000DFCFEFFF120023C008F024C009F025C0F3
:1022A0000AF026C00BF012000CDD040FE96EEA6A9A
:1022B0001200BBDCEF50120024DF050EE926010EF0
:1022C000EA221200EECFDBFFDCDEA7EF10F0080EF3
:1022D000DBCF00F0090EDBCF01F01200F2DC63EF80
:1022E0000FF02B6EADEF1EF0DBCF07F0FEEF0DF021
:1022F000DACFE4FFE2CFDAFFE9CFE4FFEACFE4FF91
:10230000F6CFE4FFF7CFE4FFF5CFE4FFF3CFE4FF30
:10231000F4CFE4FFFACFE4FF00EE1CF0140EE80463
:1023200003E3EECFE4FFFBD700EE00F01C0EE80461
:1023300003E3EECFE4FFFBD710EC18F09EA003D030
:1023400028EC04F09E90A1AC03D09FEC04F0A19C7B
:1023500018EC18F002E2E16AE55228EC18F0E552B8
:1023600000EE1BF01C0EE80403E3E5CFEDFFFBD706
:1023700000EE2FF0140EE80403E3E5CFEDFFFBD7EA
:10238000E5CFFAFFE5CFF4FFE5CFF3FFE5CFF5FFAB
:10239000E5CFF7FFE5CFF6FFE5CFEAFFE5CFE9FFB1
:1023A000E5CFDAFF1100D8CFE4FFE0CFE4FFE46E21
:1023B000DACFE4FFE2CFDAFFF3CFE4FFF4CFE4FFBC
:1023C00010EC18F018EC18F002E2E16AE55228EC83
:1023D00018F0E552E5CFF4FFE5CFF3FFE5CFDAFFE4
:1023E000E550E5CFE0FFE5CFD8FF100004D876EC4C
:1023F00018F0B4D8FCD70F0EC11202D840EF18F075
:1024000039EC18F0D6EC17F001016A6F070E6A5D1F
:1024100010E1E66A1CEC22F0E552DF6E000EDF8070
:1024200020EC18F0E66AC6EC22F0E552DF7020ECF2
:1024300018F0F30E8A1693160101546B556B566B08
:10244000576B010E586FC194949C829C130E951685
:102450008316160EB46E080E00016003F3CFE9FF79
:10246000EA6AE9BEEA68650EE926000EEA22EF5044
:102470000F0BB009B56E010EDB6ADBCF00F0080E62
:10248000E76E0018E8AE02D0E73402D0E750005CF7
:1024900055E2010EDB50080DF32807EC18F0F3CFDE
:1024A000E9FFEA6AE9BEEA6802EC18F0020F07ECFD
:1024B00018F0F328E96EEA6AE9BEEA6802EC18F05F
:1024C000030F36EC18F0020FE96EEA6AE9BEEA681B
:1024D00002EC18F0040F36EC18F0030FE96EEA6A0C
:1024E000E9BEEA6802EC18F0050F36EC18F0040FAC
:1024F000E96EEA6AE9BEEA6802EC18F0060F36EC0B
:1025000018F0050FE96EEA6AE9BEEA6802EC18F015
:10251000070F36EC18F0060FE96EEA6AE9BEEA68C2
:1025200002EC18F0080F36EC18F0070FE96EEA6AB3
:10253000E9BEEA682DEC18F0DB2A9FD7450EE66E5F
:1025400032EC22F0E552A09CD08EF28EF28C020E7C
:10255000E15C02E2E16AE55228EF18F0D9CFE6FF2C
:10256000E1CFD9FF060EE1260101585102E01BEC34
:1025700017F0200E0001D85D03E36D50020B02E05E
:1025800011EF17F001015651571102E1000E08D06A
:1025900056C1E9FF57C1EAFFEF50800B01E0010E81
:1025A000000947E101015351EA6A330FE96E010E58
:1025B000EA22EF5000083DE20501406B010159514C
:1025C000592B0501416F0501040E426F0101535162
:1025D000EA6A330FE96E010EEA22EFCF43F5400EAF
:1025E000E66E400EE66E050EE66E010EE66E010E1C
:1025F000E66E91EC1CF0006E050EE15E0050F3CF2C
:1026000056F1F4CF57F101015351EA6A330FE96EE5
:10261000010EEA22EF6A01015351000803E20101B1
:10262000530707D001015251000803E201011F0EB8
:10263000536F01015B51020A01E1C7D0030A1BE09D
:10264000010A01E0DFD05AC1E6FF84EC05F0E55253
:10265000000910E0070E0101E76E5A19E8AE02D03A
:10266000E73402D0E7505A5D03E301015A6B02D010
:1026700001015A2BC9D001015651571102E1000E38
:1026800008D056C1E9FF57C1EAFFEF50800B01E0C7
:10269000010E000901E098D001016B5104E0010135
:1026A0006B0501E091D06CC1E6FF5AC1E6FF8BECEF
:1026B00007F0E552E55201016B6F01016B0501E185
:1026C00083D00501406B01015951592B0501416F20
:1026D0000501080E426F0501436B6BC148F5080EFA
:1026E00001015A03F328E66E1CEC22F0E5520501C5
:1026F000496F080E01015A03F350020FE66E1CECFD
:1027000022F0E55205014A6F080E01015A03F35009
:10271000030FE66E1CEC22F0E55205014B6F080E2C
:1027200001015A03F350040FE66E1CEC22F0E5524F
:1027300005014C6F080E01015A03F350050FE66EB8
:102740001CEC22F0E55205014D6F080E01015A0301
:10275000F350060FE66E1CEC22F0E55205014E6FB9
:10276000080E01015A03F350070FE66E1CEC22F02D
:10277000E55205014F6F080E01015A03F350080F8F
:10278000E66E1CEC22F0E5520501506F400EE66E3D
:10279000400EE66E050EE66E010EE66E010EE66E6A
:1027A00091EC1CF0006E050EE15E0050F3CF56F187
:1027B000F4CF57F1030E01016B5D04E0040E01013B
:1027C0006B5D02E101015B6B1FD05AC1E6FF79EC42
:1027D0000AF0E55201016B6F01016B0512E0070E73
:1027E0000101E76E5A19E8AE02D0E73402D0E75093
:1027F0005A5D05E301015A6B01015B6B02D00101D7
:102800005A2B02D001015B6B01015451551102E1B9
:10281000000E08D054C1E9FF55C1EAFFEF50800B0C
:1028200001E0010E000901E0FCD205010251080A95
:1028300001E185D20E0A01E11ED2040A17E0030A63
:1028400005E0010A01E0ACD2FF00EBD2E66A1CEC25
:1028500022F0E552DF6E000EDB80DFCFE6FFE66A96
:10286000FCEC21F0E552E552FF00DBD201015651AC
:10287000571102E1000E08D056C1E9FF57C1EAFF27
:10288000EF50800B01E0010E000901E0F3D100C51B
:1028900040F50501416B0501030E426F0501436BD5
:1028A00005010851090A01E146D1010A01E1E4D01C
:1028B0000D0A01E17ED0010A71E0070A64E0010A15
:1028C00020E0030A06E0010A01E0AAD16AC148F546
:1028D000AAD10501486BFB0E006E440E016E026A20
:1028E00000C0E6FF01C0E6FF02C0E6FF480EE66E4C
:1028F000050EE66EE0EC21F0036E050EE15E03507E
:1029000092D10501486BEF0E006E440E016E026A13
:1029100000C0E6FF01C0E6FF02C0E6FF480EE66E1B
:10292000050EE66EE0EC21F0036E050EE15E03504D
:10293000ED0E006E440E016E026A00C0E6FF01C09B
:10294000E6FF02C0E6FF480EE66E050EE66EE0EC1E
:1029500021F0036E050EE15E0350E40E006E440E9E
:10296000016E026A00C0E6FF01C0E6FF02C0E6FF9A
:10297000480EE66E050EE66EE0EC21F0036E050EE5
:10298000E15E035050D192CF48F593CF49F594CFF3
:102990004AF595CF4BF596CF4CF545D180CF48F50C
:1029A00081CF49F582CF4AF583CF4BF584CF4CF5E3
:1029B0003AD1050EDB6A050EDBCF00F0080EE76E9C
:1029C0000018E8AE02D0E73402D0E750005C53E2D2
:1029D000050EDBCFE6FF7DEC07F0E552010E22C0CD
:1029E000DBFF020E23C0DBFF030E24C0DBFF040E5F
:1029F00025C0DBFF050EDB50040DF3CFE9FFEA6ACB
:102A0000E9BEEA68480EE926050EEA22040EDBCF8D
:102A1000EFFF050EDB50040DF328E96EEA6AE9BE0C
:102A2000EA68480EE926050EEA22030EDBCFEFFF27
:102A3000050EDB50040DF350020FE96EEA6AE9BEA1
:102A4000EA68480EE926050EEA22020EDBCFEFFF08
:102A5000050EDB50040DF350030FE96EEA6AE9BE80
:102A6000EA68480EE926050EEA22010EDBCFEFFFE9
:102A7000050EDB2AA0D7D7D0080E05010903F350B5
:102A8000EA6A650FE96E000EEA22EFCF48F5080EFC
:102A900005010903F328EA6A650FE96E000EEA22D0
:102AA000EFCF49F5080E05010903F350020FEA6A5A
:102AB000650FE96E000EEA22EFCF4AF5080E050118
:102AC0000903F350030FEA6A650FE96E000EEA226C
:102AD000EFCF4BF5080E05010903F350040FEA6A26
:102AE000650FE96E000EEA22EFCF4CF5080E0501E6
:102AF0000903F350050FEA6A650FE96E000EEA223A
:102B0000EFCF4DF5080E05010903F350060FEA6AF1
:102B1000650FE96E000EEA22EFCF4EF5080E0501B3
:102B20000903F350070FEA6A650FE96E000EEA2207
:102B3000EFCF4FF578D08250800B01E0010E066E8A
:102B40008350100B01E0010EE824056E8350020B48
:102B500001E0010E040DF3CF04F08350010B080DCA
:102B6000F3CF03F08250040B01E0010E100DF3CF00
:102B700002F08250020B01E0010E200DF3CF01F0B4
:102B80008250010B400DF3CF00F08450040B01E0A4
:102B9000010E800DF35000100110021003100410FC
:102BA000051006100501486F8450020B01E0010E6C
:102BB000066E8450010BE824056E8050200B01E066
:102BC000010E040DF3CF04F08050100B01E0010E54
:102BD000080DF3CF03F08150100B01E0010E100D32
:102BE000F3CF02F08150200B01E0010E200DF3CF56
:102BF00001F08150400B01E0010E400DF3CF00F0D9
:102C00008150800B01E0010E800DF3500010011087
:102C1000021003100410051006100501496F03D0BF
:102C20000501020E436F400EE66E400EE66E050E85
:102C3000E66E010EE66E010EE66E91EC1CF0006E83
:102C4000050EE15E0050F3CF56F1F4CF57F1400E80
:102C5000E66E000EE66E050EE66EE66A010EE66EA4
:102C600091EC1CF0006E050EE15E0050F3CF54F1C4
:102C7000F4CF55F1D6D005010851030A37E0010A17
:102C800025E0030A13E0010A01E040D005010951E3
:102C9000921205010A51931205010B51941205017C
:102CA0000C51951205010D51961235D00501091DE3
:102CB000921605010A1D931605010B1D94160501B8
:102CC0000C1D951605010D1D961625D00501091D33
:102CD000891605010A1D8A1605010B1D8B160501B3
:102CE0000C1D8C1605010D1D8D1615D00501095101
:102CF000891205010A518A1205010B518B12050137
:102D00000C518C1205010D518D1205D0030EE66E8B
:102D1000ABEC22F0E552400EE66E000EE66E050EBC
:102D2000E66EE66A010EE66E91EC1CF0006E050E92
:102D3000E15E0050F3CF54F1F4CF55F172D00501AC
:102D40000851020A13E0030A0DE0010A01E013D062
:102D50000101010E5B6F09C55AF10AC56CF1010151
:102D60006B6B0AD00101010E6B6F06D001015B6B2A
:102D700001015A6B01D000D0400EE66E000EE66EE7
:102D8000050EE66EE66A010EE66E91EC1CF0006E32
:102D9000050EE15E0050F3CF54F1F4CF55F141D070
:102DA00001015651571102E1000E08D056C1E9FF4A
:102DB00057C1EAFFEF50800B01E0010E000931E13D
:102DC00000C540F50501416B0501030E426F050189
:102DD000010E436F400EE66E400EE66E050EE66E87
:102DE000010EE66E010EE66E91EC1CF0006E050E13
:102DF000E15E0050F3CF56F1F4CF57F1400EE66E8E
:102E0000000EE66E050EE66EE66A010EE66E91ECC9
:102E10001CF0006E050EE15E0050F3CF54F1F4CFCC
:102E200055F1060EE15C02E2E16AE552E16EE5521F
:102E3000E7CFD9FF120001015E515F1104E1100ECE
:102E40005E6F270E5F6F5E07000E5F5B6DA207D09F
:102E50005E515F112EE18A768AB613D027D0000129
:102E6000D85102E18A9622D0D80502E18A8609D09B
:102E7000020ED85D02E18A8619D0040ED85D03E106
:102E80008A968A841200100ED85D06E101015E5117
:102E90005F110FE18A760AD0200ED85D0AE10101A8
:102EA0005E515F1106E18A768AA602D08A941200EA
:102EB0008A84120012001200120012007FEF20F02C
:102EC00012001E0EE66E010EE66E5FEC1CF0E5527F
:102ED000E552400EE66E000EE66E050EE66EE66A00
:102EE000010EE66E91EC1CF0006E050EE15E0050E6
:102EF000F3CF54F1F4CF55F112006D840101080EA7
:102F00006D6F070E6E6F6D07000E6E5B6D516E116B
:102F1000FAE16D941200D9CFE6FFE1CFD9FFFD0EA3
:102F2000DBCF24F0FE0EDBCF25F0010E241801E1EB
:102F3000255033E0E868241802E1E86825182BE002
:102F4000030E241801E1255024E0040E241801E1A9
:102F500025501DE0020E241801E1255016E0170E41
:102F6000241801E125500FE0160E241801E1255028
:102F700008E0150E241801E1255001E010D0A1DF72
:102F80000FD09EDF0DD09ADF0BD096DF09D092DFF5
:102F900007D091DF05D091DF03D0000001D000D031
:102FA000010E00D0E552E7CFD9FF1200D9CFE6FFDE
:102FB000E1CFD9FFE652D0B202D0010E15D0D0B881
:102FC00002D0020E11D0D0B002D0030E0DD0D0B678
:102FD00002D0040E09D0FCAE02D0050E05D0FCAC28
:102FE00002D0060E01D0070EDF6ED088D086D084C6
:102FF000D082D080FC9EFC9CDF50E552E552E7CFAA
:10300000D9FF12002AD8DB50080DF3501200E66EEB
:103010001CEC22F0E552E66E010EDB50080D1200AA
:10302000E65227D8F350DF6E010EF4CFDBFF12001B
:10303000DF50F36E010EDB50F46E020EE15C120005
:10304000DFCFE6FFE66AFCEC21F0E552E552120024
:10305000E16EE552E7CFD9FF1200650EE926000EBA
:10306000EA22E552E750EF6E010E1200D0DFF35076
:103070001200D9CFE6FFE1CFD9FF020EE126120000
:1030800038EC1DF06A6A686A6BEC1DF06D8C6E6A34
:103090001BEC1DF06D9CDF6A4CEC1DF010E2DF5064
:1030A000040DF3CFE9FFF4CFEAFF000EE926040E8A
:1030B000EA22EE6AEE6AEE6AEE6ADF2AEDD7160EB3
:1030C000706E68A604D0030EE1EC1CF0FAD7000184
:1030D000EB6BF06BF16BF26B6D98080EE36F040E07
:1030E000E46FD96BD86BE552F6EF1CF038EC1DF0AD
:1030F0000001D8510BE16D6A696A6BEC1DF06DB689
:1031000002D06D86FCD70001010ED86FD80508E10A
:103110006DBA06D0686A696A69806988020ED86FDC
:103120006850040B07E06950040B04E0020EE1EC68
:103130001CF089D86DB247D06850010B14E069507B
:10314000010B11E09DDF0001040ED86F0401200E79
:10315000026F040E036F080E016F006B8C0E0013DC
:10316000E66AAAEC1DF06850100B07E06950100BDE
:1031700004E060D8040EE1EC1CF06850400B0BE05A
:103180006950400B08E072EC1DF0020EE9EC1CF0F7
:10319000060EE1EC1CF06850200B04E06950200B97
:1031A00001E035D86850020B0AE06950020B07E0D5
:1031B00072EC1DF0E668E668CAEC1DF06A6A040E5F
:1031C0000001D85D02E2A19A1FD069A61CD0DF6A77
:1031D000040EDF5C18E268A616D06CCFF8F0030E80
:1031E000E1EC1CF0780E0001F81502E138D809D0A6
:1031F000000EE66EE66AF80EE66E000EE66E010E52
:10320000E8DBDF2AE5D7A19AE552F6EF1CF070A0C3
:103210000ED004EC1DF0EF50800808E1D5DBEF5034
:10322000840804E104EC1DF08C0EEF6E7090050E26
:10323000E1EF1CF06984040EC4DB6D8224EC1DF008
:10324000040EE9EF1CF024EC1DF0030EC2DB6D92BE
:10325000699468A403D0020EB4DBFBD7120038ECEB
:103260001DF0FD0E0001F8153DE17E0EF815E84059
:103270007F0B040DF3CFDBF0F4CFDCF0000EDB2787
:10328000040EDC23DBC0DDF0DCC0DEF0DD75BCDB72
:10329000EF503C0BE842E8420D0822E1B5DBA1EC1F
:1032A0001DF0EECF00F0EFCF01F0280E001816E170
:1032B000040E011813E1DBEC1DF0DF6AEDDB0EE21A
:1032C000DF5054EC1DF0DF50EA6A200FE96E040E67
:1032D000EA22E552E750EF6EDF2AF0D70AD807D08E
:1032E0001AD805D0FD0EF815040801E122D8E552E0
:1032F0007DD36ADBEF50800B02E066DBEF6A0001F2
:10330000E76BE86BEC6BED6BEB6B64D89DDB170E3A
:1033100060DB1FEF1BF0020E0001E85D02E1ACEF85
:103320001BF034D80001F95102E1A6EF1DF0F96B52
:1033300012009EDB49DBEF50400B01E0010EDF6E17
:103340000001E375080ED85D09E122C46EFF6E50DE
:10335000000802E2100E01D0040ED86FE80513E158
:10336000DFEC1DF0A6D9020E0001E75D03E12CDBC6
:10337000840E07D0DF5003E127DBC80E02D024DB28
:10338000880EEF6E01D002D8E55230D32BDB00015E
:10339000E86B1ADBEF6A040EE319006EE4C001F07B
:1033A000DE6EE4C0DDFF19DBEF6AF0AF0CD0F35145
:1033B000F41107E005D0F4C0FAFF0001F351F96EF3
:1033C000FADF0001F09F020EE15C02E2E16AE552E1
:1033D000E16E0CD304012051600BE842E842E84260
:1033E000E842E842000901E0120021510C0A45E0E0
:1033F0000B0A3FE00C0A31E0010A22E00B0A1EE052
:10340000020A1CE0030A18E0080A10E0010A0CE0B6
:103410000F0A08E0030A01E012000001EB8F080E1A
:10342000D86F12009FEF1AF008EF1CF00001D90EC0
:10343000E96F000EEA6F0CD0E0EF1AF03EEF1AF0E1
:1034400024510001E96FEA6BDA0EE927000EEA2346
:10345000EB81010EEC6FEB8F12000001EB8F04018A
:103460002451EA6ADA0FE96E000EEA2222C4EFFF65
:103470001200EADA160EE9EF1CF012007EDB040EF1
:10348000E1260401220510E120511F0B00090CE187
:103490000001EB8F030E0401215D04E10001010E28
:1034A000F76F02D00001F76B0401225141E1205176
:1034B0001F0B02083DE124510F0B000939E0000108
:1034C000EB8F040124BF05D0A4DADF0EE926000E3D
:1034D00004D09FDAE30EE926000ED2DA030E215D56
:1034E00003E17BDA840E23D024510F0B016A700FA5
:1034F000006E0F0E0122020E00C0DBFF030E01C0A2
:10350000DBFF020EDBCFE9FF030EDBCFEAFFEE901D
:10351000ED5224AF06D061DAEF6ADF745EDA400E56
:1035200006D05BDA880EEF6EDF7457DAC80EEF6EE6
:10353000040EE15C02E2E16AE552E16E57D2800ED0
:103540000401205D3CE10001C00EEB6F040123513A
:10355000030A1EE0010A09E0030A2FE10001CC0E74
:10356000E96F410EEA6F120E22D0C3DA760EF6260C
:10357000420EA2DA020E0001F76AE925F66EEA5160
:10358000F7220900F5CFECF00A00F5CFEDF01200BC
:10359000030E225D0FE2ADDA780EF626420E8CDACB
:1035A000E9C0F6FFEAC0F7FF0800F5500001EC6F34
:1035B000ED6B12000001EB6B12000001EB6B1200CF
:1035C00011DA0401286B296B20511F0B020A11E04C
:1035D000030A0CE0010A22E10001EB8F04012881BB
:1035E0000001F7051BE10401288318D00001EB8FCF
:1035F00015D00001EB8F040124BF05D00ADADF0EDD
:10360000E926000E04D005DAE30EE926000E38DACA
:10361000E4D9EF50040B02E0010E286F0001EBAF7C
:1036200007D0280EE96F040EEA6FEB81020EEC6FF3
:10363000020EE15C02E2E16AE552E16ED7D16D98DB
:103640000001EBBF08D0F0AF02D061DA2AD07EDAF9
:10365000BBD9840E27D0F0BF2BD0040120AF24D0DB
:103660000001EC510401265D0001ED5104012759D0
:1036700004E226C4ECF027C4EDF01BD80001010ED3
:10368000E86FA1DA800EEF6EF96BBED9EE52080E2C
:10369000EF6E91DAB9D9840EEF6E010EF96F8FDA01
:1036A00093D9C80EEF6E1200000131DAC80EEF6E2A
:1036B000120098D90001080EEC5D000EED590DE2E4
:1036C000ECC0DEFFEDC0DDFFE75102E1010E03D0EB
:1036D000E70506E1020EE76F03D0080EDE6EDD6A35
:1036E00073D9EF9271D9EF906FD9010EDB50EF12C1
:1036F0006BD9EE52DFCFEFFF000EDB50EC5F010E17
:10370000DB50ED5B280EF56F040EF66FEBB10FD0BA
:10371000F7D91BE0E9C0F6FFEAC0F7FFE92B000E7E
:10372000EA230800F55096D9F3E2DB06F1D7E8D991
:103730000CE0E9C0E9FFEAC0EAFFE92B000EEA234A
:10374000EF5088D9F4E2DB06F2D7020EE15C02E228
:10375000E16AE552E16E4AD145D956D9EE52EFCF32
:10376000DFFFDFCF00F000500001F15D000EF259E5
:1037700003E2F1C0DFFF09D0DF50006E016AE850BC
:10378000F15DF16F0150F259F26F010EDB6ADF500B
:10379000F36E010EDBCFF4FFF350F45C10E2010E88
:1037A000DB5082D9EEC0E9FFEFC0EAFFEE2B000E3E
:1037B000EF23E552E750EF6E010EDB2AE8D7000E4B
:1037C000D880F155000EF2550DE2F4D854D91CD929
:1037D000EF50400B03E1EAD9C80E02D0E7D9880EBA
:1037E000EF6E0FD0F0D9840EEF6EF351F41107E0B5
:1037F00005D0F4C0FAFF0001F351F96EFADF0001C1
:10380000F09F020EE15C02E2E16AE552E16EEED069
:103810000001EB8F10D9010EE66EE66AE66ADA0E59
:10382000E66E000EAFD922C4D9F00401225104E1A2
:103830000001100ED86F12000001200ED86F04D9BD
:10384000150EE9EF1CF0CED8000EDE6E040EDD6E14
:10385000E8D8040DF350006E016A020E0F0B05E06C
:10386000D89001320032E806FBE1D89000360136EC
:10387000D89000360136D9CFE9FFDACFEAFF005001
:10388000EE260150ED22A9D8EF9EFD0EDB5002E19D
:103890006AD901D06DD9EA22DECFEEFFDDCFEDFF90
:1038A0009CD8EF9C9AD8040EE926000EEA22EF8CF1
:1038B000020EE15C02E2E16AE552E16E97D092D835
:1038C000FE0EDB50016A700F006E0F0EDFD885D838
:1038D000FD0EDBCFEFFFDBA402D0E66AF5D8FD0ECC
:1038E000DBA203D0010EE66EEFD8020EE15C02E22D
:1038F000E16AE552E16E7AD075D8FE0EDB5005E143
:1039000025D962D8840EEF6E05D08BD80CD989D812
:10391000010F09D9020EE15C02E2E16AE552E16EB3
:1039200065D060D8FD0EDB5002E022D901D01BD952
:10393000A7D853D806D9FB0EDBCFEEFFFC0EDBCFAA
:10394000EDFF4BD8EE52FA0EDBCFEFFF400E45D81D
:10395000E850EF16880E41D8E850EF12FD0EDB500C
:1039600002E006D901D0FFD8EA22EF74DECF00F0E2
:10397000DDCF01F000C0F3FF01C0F4FF020EE15CF7
:1039800002E2E16AE552E16E31D0F7D8010EF36E42
:10399000FC0EDB5004E0D890F336E806FCE1F31CA3
:1039A000006EFD0EDBCFE9FFFE0EDBCFEAFF00501D
:1039B000EF161CD0FBD8EE52080EEF6EF7D8A1EF31
:1039C0001DF0E66EAAEF1DF0E3C0E9FFE4C0EAFFD8
:1039D0001200E66EE66ACAEF1DF0DECFE9FFDDCF2A
:1039E000EAFF1200CAD8020EE1261200E552E7CF24
:1039F000D9FF1200D6D8D6EF1DF0FE0EEA6ADB34EE
:103A0000FE0BEA36E96E1200DBC0E9FFDCC0EAFF1C
:103A1000120024510F0BE96EEA6AD890E936EA36B3
:103A20001200FD0EDB50E824026EFE0EDB50040D8A
:103A3000F35002241200000EE66EE66AE66A710E8A
:103A4000E66E0F0EC2EF1DF0000EE66EE66AE66E41
:103A5000E66A1200E66EF5C0E9FFF6C0EAFFF52B54
:103A6000000EF623E552E750EF6EDF06010E12005E
:103A700084D8E6521200280EEE6E040EED6E12008F
:103A8000EA22EECFDEFFEDCFDDFF1200012200C003
:103A9000DEFF01C0DDFF1200DF50006E016A080E7C
:103AA000005C000E01581200EA6A280FE96E040E4D
:103AB000EA22EF50E66E1200F7220900F5CFE9F096
:103AC0000A00F5CFEAF01200FE0EDBCFE6FFBBDE08
:103AD000E552E5521200160E6F6E9F0E6B6E7B0E56
:103AE000696E1200010EE66EE66A000EE66EE66A88
:103AF00012002251F66EF76AD890F636F7361200A9
:103B0000D9CFE9FFDACFEAFFEE50ED101200020E36
:103B1000E86F5ADFEE52EF6A57DFC80EEF6E4ADFEA
:103B2000AADFD6EF1DF0040DF3CF00F0F4CF01F0C3
:103B3000000E0026040EAADF840E4FDFE850EF12BD
:103B40001200020EE926000EEA2212003CD88C0E6A
:103B5000EF6E1200680EE66E0F0EE66E16DFE5528F
:103B6000E552E552120049DFDF0EE926000E120091
:103B700044DFE30EE926000E1200D9CFE6FFE1CFC5
:103B8000D9FF1200E66EC6EC21F0006E050EE15E74
:103B9000005012008BEC17F0006E060EE15E005034
:103BA0001200200EEE6E040EED6E1200DDC0E9FF75
:103BB000DEC0EAFF120028DFC4DFD1EF1DF004DF12
:0C3BC000C0DF3BEF1DF0F6DEFAEF1CF05A
:043BCC001D9E08D062
:103BD0001D9E25AE05D0246C251EE86A25221D8E6B
:103BE00025C01FF024C01EF02F6A2E6A8E0E206E94
:103BF000216A15EF20F01D9E0CD01D9E25AE09D028
:103C0000226C231E241E251EE86A2322242225223C
:103C10001D8E25C01FF024C01EF023C02FF022C02F
:103C20002EF09E0E206E216A15EF20F02B7E1D6A6D
:103C300051EC20F069EC20F01DB6F9EF1FF01DA249
:103C40000AD01DAA03D01DBEF9EF1FF01DA405EF79
:103C500020F002EF20F01DAA05D01DAC05EF20F0EA
:103C600002EF20F01DA00AD01DA808D01DBE04D070
:103C70001DA402D00EEF20F012EF20F02E6A216A70
:103C80002B50265C2D6E10E323C02FF024C01EF0B5
:103C900025C01FF026C02CF028C023F029C024F036
:103CA0002AC025F01D3A09D028C02FF029C01EF0E7
:103CB0002AC01FF02BC02CF02D6C1D9E1DBC1D8E2C
:103CC0002CC020F01DB041EF20F01A0E2D6041EF06
:103CD00020F0206A266A1DA408D0236C241E251E0D
:103CE000261EE86A2422252226221DAC08D02F6C2D
:103CF0001E1E1F1E201EE86A1E221F222022226A6C
:103D00002D5207E0263425322432233222322D2E42
:103D1000F9D723502F2624501E2225501F2226502B
:103D2000202222C02EF01D9E20AE0BD02E6C2F1E06
:103D30001E1E1F1E201EE86A2F221E221F22202266
:103D40001D8E20A006D0D8801F321E322F322E3278
:103D50002C2A2CC020F015EF20F01D6A51EC20F029
:103D600069EC20F01DB6F9EF1FF01DA205D01DBAB9
:103D7000F9EF1FF000EF20F01DBA0CEF20F01DA0AE
:103D800005D01DB8F9EF1FF00CEF20F01DB800EFC3
:103D900020F0216A7F0E2624206EE86A21222B5013
:103DA000205EE86A215A1A0E2C6E266A2E6A2F6A45
:103DB0001E6A1F6A2850235E2950245A2A50255A09
:103DC000000E265A09E728502326295024222A507B
:103DD0002522000E262201D02E8AD89023362436A2
:103DE00025362636D8902E362F361E361F362C2EE8
:103DF000E1D7255024102310D8A42E8A15EF20F0E7
:103E00001D6A51EC20F069EC20F01DB6F9EF1FF0AF
:103E10001DA205D01DB8F9EF1FF000EF20F01DAA7C
:103E200005D01DB0F9EF1FF000EF20F01DB002D05B
:103E30001DA802D00CEF20F0216A2B502624206E02
:103E4000E86A21227E0E205EE86A215A2E6A2F6AD5
:103E50001E6A1F6A2A502502F4CF1FF0F3CF1EF00E
:103E600029502502F3502F26F4501E22000E1F2247
:103E70002A502402F3502F26F4501E22000E1F2237
:103E800028502502F3502E26F4502F22000E1E2219
:103E90001F2229502402F3502E26F4502F22000E08
:103EA0001E221F222A502302F3502E26F4502F22C6
:103EB000000E1E221F2228502402F4502E26000E2F
:103EC0002F221E221F2229502302F4502E26000EDC
:103ED0002F221E221F2215EF20F01C6A2AAE76EF39
:103EE0001FF0296C2A1EE86A2A221C1E25AE7EEFCE
:103EF0001FF0246C251EE86A25221C1EDDEC22F032
:103F000025BE8EEF1FF01CAE000C246C251EE86A47
:103F10002522206C211EE86A2122000C1CBE85EFA0
:103F20001FF01D88FF0C1D6A51EC20F01DB69DEF9F
:103F30001FF01DA20ED01DB405D07F0E256EFF0E02
:103F4000246E1FD0800E256E246A1BD0256A246A39
:103F500018D01DB0FBD78F0E2660EDD77E0E2664DD
:103F6000F5D78E0E265C05E0D89025322432262A1D
:103F7000F8D71DA406D0246C251EE86A252225AE9C
:103F8000E5D712001D6A51EC20F01DB6CCEF1FF0F2
:103F90001DA20FD01DB407D07F0E256EFF0E246E1C
:103FA000236E226E25D0800E256E01D0256A000E6C
:103FB000F6D71DB0FBD7226A9F0E2660EBD77E0E88
:103FC0002664F4D79E0E265C07E0D8902532243272
:103FD00023322232262AF6D71DA40AD0226C231EB1
:103FE000241E251EE86A23222422252225AEDED7A0
:103FF00012007F0E266EFF0E256E246E236E1200B9
:104000007F0E1DBEFF0E266E02D07F0E266E800E26
:10401000256E246A236AF3D71DAE04D0800E266E67
:10402000256AF7D7266A256AF4D71F501E102F106D
:104030002E10F8E021BEF0D71FBE0CD0205021106A
:10404000EBE0D8902E362F361E361F362006D8A02D
:104050002106F2D72150D4E12028D2E02EAE11D093
:104060007F0E2E1402E12FA00CD02F2AE86A1E2208
:104070001F2207E3D8801F321E322F32202A202829
:10408000BFE02050C9E02FC023F01EC024F01F3431
:10409000256E2030266E2532269E1DBE268EFFEF11
:1040A0001FF02536263602E31D841D7E06E11D80A5
:1040B000266A256A246A236A1200262803E0D8802B
:1040C00025321200D890253202E11D8212001D8691
:1040D00012002A362B3602E31D8C1D7E06E11D8858
:1040E0002B6A2A6A296A286A12002B2803E0D880E2
:0E40F0002A321200D8902A32EAE11D8A12000C
:0240FE000401BB
:1041000020511F0B010801E01200245101E01200B0
:10411000060E215D21E12351230A1BE0010A0CE078
:10412000030A1AE10001D90517E10001F00EE96F59
:10413000410EEA6F090E09D00001D9050DE1000119
:10414000590EE96F420EEA6F1D0EEC6FED6BC00E5B
:1041500002D00001800EEB6F04012051600BE84299
:10416000E842E842E842E842010801E01200215139
:104170000B0A26E0080A19E0090A11E0080A05E01E
:104180000B0A23E0080A21E012000001FE0EE96F8D
:10419000000EEA6F010EEC6FED6BC10E0FD0000147
:1041A000800EEB6F23C4FEF012000001FF0EE96FDA
:1041B000000EEA6F010EEC6FED6B810EEB6F1200DB
:0C41C0000001800EEB6F22C4FFF0120023
:0441CC0012010002DA
:1041D00000000008D80402000200010200010902E8
:1041E0002900010100C032090400000203000000A0
:1041F000092111010001221D000705810340000172
:1042000007050103400001040309042C034D006F5E
:1042100000620069006C006500200052006F0062BF
:10422000006F007400200050006C00610074006694
:10423000006F0072006D002203500072006F007862
:104240000069006D0069007400790020005300656A
:10425000006E0073006F0072000600FF0901A101EB
:1042600019012940150026FF0075089540810019A5
:0E4270000129409100C0DE4107420B42374257
:02427E002A0E06
:10428000F66E080EF76E000EF86E01010900F5508B
:10429000656F0900F550666F03E1656701D03DD099
:1042A0000900F550606F0900F550616F0900F55085
:1042B000626F09000900F550E96E0900F550EA6ED9
:1042C000090009000900F550636F0900F550646F9B
:1042D00009000900F6CF67F1F7CF68F1F8CF69F16F
:1042E00060C1F6FF61C1F7FF62C1F8FF01016353CE
:1042F00002E1645307E00900F550EE6E6307F8E24F
:104300006407F9D767C1F6FF68C1F7FF69C1F8FF15
:0C43100001016507000E665BBFD71200BC
:04431C002250270202
:10432000F3CF1EF0F4CF1FF02802F3501F26000E2B
:10433000F420206E22502902F3502026000EF42093
:10434000216E22502A02F350212623502702F350D7
:104350001F26F4502022000E212223502802F35061
:104360002026F450212223502902F35021262450E4
:104370002702F3502026F450212224502802F35023
:0C438000212625502702F35021261200B0
:04438C00FE0EE3CF6F
:10439000E9FFFF0EE3CFEAFFE9CFF3FFEACFF4FF37
:1043A000FB0EE35003E1FC0EE35009E0FB0EE306D5
:1043B00002E2FC0EE306FD0EE350EE6EF1D71200B2
:1043C000FB0EE3CFF6FFFC0EE3CFF7FFFD0EE3CFCE
:1043D000F8FFFE0EE3CFE9FFFF0EE3CFEAFFE9CFE0
:1043E000F3FFEACFF4FFEE66FED7ED520900F5CFFA
:0843F000EFFFEE66FBD712009F
:0843F8002DD8FD0EDB50A86E6C
:10440000A69EA69CA684F250800B01E0010E01013D
:104410006F6FF29E550EA76EAA0EA76EA6826F5101
:10442000E8B0F28EE8A0F29EA6B2FED7A198A694BC
:10443000E552E7CFD9FF12000DD8A69EA69CA68014
:10444000020EE66E01EC23F0E552A850E552E7CFEC
:10445000D9FF1200D9CFE6FFE1CFD9FFFE0EDB5026
:04446000A96E12002F
:0C446400D9CFE6FFDACFE6FFE1CFD9FFA9
:10447000E2CFDAFFFD0EDB507E0BCD6EFD0EDBAC26
:1044800002D0CD8E01D0CD9ECF6ACE6A9E90DBAE9B
:1044900002D09D8001D09D90CD80E552E5CFDAFF1E
:0644A000E7CFD9FF120076
:0A44A600D9CFE6FFDACFE6FFE1CF41
:1044B000D9FFE2CFDAFFE652E652CE50DF6E010EB0
:1044C000CFCFDBFFDECF00F0DDCF01F000C0F3FF88
:1044D00001C0F4FFE552E552E552E5CFDAFFE7CF40
:0444E000D9FF1200EE
:0C44E40031353A34323A33340020004FB6
:1044F0006374203138203230303900436172746582
:1045000020636170746575727320312E300A4F6CB0
:0E451000697669657220424943484C45520065
:02451E00D9CFF3
:10452000E6FFDACFE6FFE1CFD9FFE2CFDAFFE652CE
:10453000E652FC0EDBCFDEFFDBCFDDFF010EDB50F2
:10454000CF6EDF50CE6EE552E552E552E5CFDAFF91
:06455000E7CFD9FF1200C5
:0A455600D9CFE6FFE1CFD9FF010144
:104560000ED8EF50000803E253291F0B536F07D8F2
:10457000FE0EDBCFEFFFE552E7CFD9FF120053511C
:0C458000EA6A330FE96E010EEA22120015
:04458C00FF0EE350EB
:10459000316EEF0E01D0F30EE76EE72ECDEF22F075
:1045A0000C0E306EE76AE72ED3EF22F0302ED2EFFA
:0A45B00022F0312ECBEF22F01200B2
:0645BA00216A206A100EC8
:1045C000E76ED89024362536203621362950205CD7
:1045D0002A50215805E32950205E2A50215A242AC6
:0645E000E72EF0D71200E7
:0A45E60013EE00F023EE00F0F86A77
:1045F0001D9C3FEC21F013EC23F0F6EC11F0FBD7FF
:024600001200A6
:0E460200FF0EE350E84E1200000000D000D082
:0846100000D0E82EFAD71200D9
:0846180000EE00F00F0EEE6A47
:06462000EA62FDD7120062
:02462600120080
:0846280000000000000000008A
:10463000000000000000000000000000000000007A
:10464000000000000000000000000000000000006A
:0B46500000000000000000000000005F
:05465B00000000000159
:074660000000020000000051
:094667000000000000000000004A
:10467000000000000000000000000000000000003A
:08468000000000000000000032
:00000001FF
