:020000040000FA
:06000000C9EF03F012003D
:0600080004EF04F01200F9
:060018000CEF04F01200E1
:06002A000100D4070000F4
:08003000830000000200000043
:080038000001776B1E0E716ED2
:100040000401400E096F200E0A6F040E0B6F880E1C
:10005000086F0401200E0E6F040E0F6F400E0C6F20
:100060001200550EA76EAA0EA76EA68212000401FA
:10007000140E226F010E236F12000001756B1FD941
:100080000AE22AD90800F5CF76F0000111D976C02E
:10009000EFFF752BF4D7F86A1200F00E0401221757
:1000A000840EA66E0001756B0AD90AE20DD90F0EF7
:1000B000000175150F0801E1D4DF0001752BF4D79D
:1000C0001200940EA66E0001756BF9D811E27551FD
:1000D000006E016A060ED89000360136E804FBE196
:1000E000026A01BE0268D5D8BCDF0001752BEDD7CE
:1000F000F86A1200A66A0001756BE1D80BE20401F0
:10010000225100017525A96EA680D2D8A8CFEFFF95
:10011000752BF3D712000001756BD1D810E20401E2
:10012000225100017525A96EC3D8EF50A86E040EA8
:10013000A66E97DFA6B2FED70001752BEED7120090
:10014000C40EA66E0001756BBAD805E2BDD889DF72
:100150000001752BF9D7F86A120086D8060E000147
:100160007A5D03E36D50020B01E07DD0000177055D
:1001700011E104010CBF0DD00401400E096F400EC7
:10018000040108170401087D880E0401081300010A
:10019000776B69D0040108BF66D00001756B04015C
:1001A0002051320A45E0CD0A34E0F80A2DE0020A77
:1001B00026E0010A1FE0070A18E0010A11E0030A1D
:1001C0000AE0070A08E0060A01E03CD050DF00011F
:1001D000040E756F38D051DF050E0001752733D03E
:1001E0005CDF0001010E756F2ED06BDF0001010E88
:1001F000756F29D07FDF050E0001752724D08BDFB6
:100200000001010E756F1FD09BDF0001010E756F9D
:100210001AD06D960001786B796B00017807000E9B
:10022000795B00017851791101E0F7D7FF000BD01D
:1002300004012251E8B08C86E8A08C960001010EE2
:10024000756F01D000D00001010E776F000175516C
:100250000AE075C00DF4400E04010C1704010C7D7A
:10026000880E04010C13120000018351841104E173
:10027000200E836F4E0E846F8307000E845B060E84
:1002800000017A5D05E100018351841101E18C7464
:100290001200040122510024F36E23510120F46E58
:1002A00024510220F86EF4CFF7FFF3CFF6FF1200CF
:1002B0007551EA6A250FE96E040EEA221200040164
:1002C00021510001755D1200F3DFEFCF03F004D878
:1002D00003C0F5FF0C00120075C000F0016A026A4D
:0402E00049EF01F0F1
:0C02E4006C500BE1040100513C0BE8429F
:1002F000E8420D0802E184EF01F08DEF01F0040EF9
:100300006C5C01E119D812000001606B616B666BD7
:10031000676B58EC02F00FEF02F0020E0001605D17
:1003200009E15CD8040100BD02D0C80E01D0880EDE
:10033000006F120048EF02F0040E00017A5D09E13F
:1003400012C46EFF6E50000802E2050E01D0030ECB
:100350007A6F0001600509E10AD8040104BD02D0EA
:10036000C80E01D0880E046F120048EF02F00001A1
:10037000080E665D000E675903E266C069F002D0A0
:10038000080E696F69C005F46951006E016A00507A
:10039000665F0150675B180E646F040E656F6951EC
:1003A0001CE000017BA307D062C0F6FF63C0F7FF2B
:1003B0000800F55005D062C0E9FF63C0EAFFEF50C6
:1003C00064C0E9FF65C0EAFFEF6E0001622B000E1A
:1003D0006323642B65236907E2D7120001C46AF026
:1003E00000016A516625666F000E6721676F180E5F
:1003F000626F040E636F6A5111E062C0E9FF63C06F
:10040000EAFFEF5064C0E9FF65C0EAFFEF6E642BBE
:10041000000E6523622B63236A07EDD712006D98E7
:100420000001615105E13CD8840E006F04011DD02C
:10043000040110AF1CD0000166510401165D0001DB
:1004400067510401175904E216C466F017C467F037
:100450008EDF0001010E606F23D8800E006F040153
:10046000180E066F040E076FC80E046F120000010D
:10047000020E606F0401056BC80E046F0401080EC4
:10048000016F180E026F040E036FC80E006F12008A
:100490000001606B05D88C0E006F0401046B120024
:1004A0000401080E016F100E026F040E036F12009C
:1004B00004011051600BE842E842E842E842E84299
:1004C000000901E012001151080A39E0010A35E083
:1004D0000F0A0AE0030A01E012000001010E616F39
:1004E0000001040E7A6F12000001010E616F040119
:1004F000130507E100015C0E626F070E636F120EB9
:1005000013D0020E135D07E100016E0E626F070E3D
:10051000636F200E09D0030E135D0AE100018E0EF9
:10052000626F070E636F040E0001666F676B02D087
:100530000001616B00017B831200ADEF02F000014E
:10054000010E616F00017C0E626F000E636F00018F
:100550007B930001010E666F12000001010E616FB6
:1005600012C47CF00401125104E10001050E7A6FFF
:0C05700012000001060E7A6F1CEF00F074
:04057C00080E6D6E8A
:100580006DBAFED7686A110E696E0001020E7A6FAD
:1005900012006850040B09E06950040B06E06D92EC
:1005A000699468A402D06894FCD76850010B04E0F9
:1005B0006950010B01E025D86850100B0AE0695022
:1005C000100B07E0698468986D82A19AA08A0300E5
:1005D000A19A6850200B06E06950200B03E070B030
:1005E0007090689A030E00017A5D01E209D06850AC
:1005F000080B06E06950080B03E072EC01F0689606
:100600001200686A7B0E696E6E6A160E706E68A6BE
:1006100008D0689600000000000000000000000004
:10062000F6D76D9848EC02F000017C6B0001030ED8
:040630007A6F1200CB
:0C0634002A0EF66E000EF76E000EF86E37
:1006400000010900F550706F0900F550716F03E16A
:10065000706701D03DD00900F5506B6F0900F5506F
:100660006C6F0900F5506D6F09000900F550E96ED7
:100670000900F550EA6E090009000900F5506E6F97
:100680000900F5506F6F09000900F6CF72F0F7CF3F
:1006900073F0F8CF74F06BC0F6FF6CC0F7FF6DC05D
:1006A000F8FF00016E5302E16F5307E00900F550B7
:1006B000EE6E6E07F8E26F07F9D772C0F6FF73C0EF
:1006C000F7FF74C0F8FF00017007000E715BBFD721
:0206D000120016
:0E06D200C1CF82F00F0EC1120001806BA2ECAE
:1006E00003F00001816F000181B105D082C0C1FF1C
:1006F00000EF04F008D00001819181C07FF000017B
:100700007E6B91EC03F0F30E8C16F30E9516140E1F
:100710006F6EBEEC02F0C9EC02F0ADEC00F0FBD75E
:020720001200C5
:0E0722007EC0A9FF7FC0A8FFA69EA69CA6844D
:10073000550EA76EAA0EA76EA682A6B2FED7A198E6
:10074000A694120080C0A9FFA69EA69CA680020EB9
:0C075000E66ED7EC03F0E552A850120052
:04075C001201000284
:1007600000000008D8040B0001000000000109028D
:100770002000010100803209040000020000000096
:100780000705010240000007058102400000040344
:0207900009045A
:0E07920013EE00F023EE00F0F86A059C1AEC5E
:0E07A00003F0E9EC03F069EC03F0FBD7120064
:0207AE00FF0E3C
:1007B000E350E84E1200000000D000D000D0E82E38
:0407C000FAD7120052
:0C07C40000EE00F00F0EEE6AEA62FDD7B6
:0207D000120015
:0207D200120013
:0207D400000023
:020000040030CA
:0100000021DE
:010001000EF0
:010002003FBE
:010003001EDE
:010005008179
:010006008178
:010008000FE8
:01000900C036
:01000A000FE6
:01000B00A054
:01000C000FE4
:01000D0040B2
:00000001FF
